{
	"work/home/1st.sol": {
		"VoteCalc": {
			"abi": [
				{
					"inputs": [],
					"name": "approve",
					"outputs": [],
					"stateMutability": "nonpayable",
					"type": "function"
				},
				{
					"inputs": [
						{
							"internalType": "uint256",
							"name": "",
							"type": "uint256"
						}
					],
					"name": "approvers",
					"outputs": [
						{
							"internalType": "address",
							"name": "",
							"type": "address"
						}
					],
					"stateMutability": "view",
					"type": "function"
				},
				{
					"inputs": [
						{
							"internalType": "int256",
							"name": "a",
							"type": "int256"
						},
						{
							"internalType": "int256",
							"name": "b",
							"type": "int256"
						}
					],
					"name": "divide",
					"outputs": [
						{
							"internalType": "int256",
							"name": "",
							"type": "int256"
						}
					],
					"stateMutability": "pure",
					"type": "function"
				},
				{
					"inputs": [
						{
							"internalType": "int256",
							"name": "a",
							"type": "int256"
						},
						{
							"internalType": "int256",
							"name": "b",
							"type": "int256"
						}
					],
					"name": "minus",
					"outputs": [
						{
							"internalType": "int256",
							"name": "",
							"type": "int256"
						}
					],
					"stateMutability": "pure",
					"type": "function"
				},
				{
					"inputs": [
						{
							"internalType": "int256",
							"name": "a",
							"type": "int256"
						},
						{
							"internalType": "int256",
							"name": "b",
							"type": "int256"
						}
					],
					"name": "mult",
					"outputs": [
						{
							"internalType": "int256",
							"name": "",
							"type": "int256"
						}
					],
					"stateMutability": "pure",
					"type": "function"
				},
				{
					"inputs": [
						{
							"internalType": "int256",
							"name": "a",
							"type": "int256"
						},
						{
							"internalType": "int256",
							"name": "b",
							"type": "int256"
						}
					],
					"name": "plus",
					"outputs": [
						{
							"internalType": "int256",
							"name": "",
							"type": "int256"
						}
					],
					"stateMutability": "pure",
					"type": "function"
				},
				{
					"inputs": [],
					"name": "reject",
					"outputs": [],
					"stateMutability": "nonpayable",
					"type": "function"
				},
				{
					"inputs": [
						{
							"internalType": "uint256",
							"name": "",
							"type": "uint256"
						}
					],
					"name": "rejecters",
					"outputs": [
						{
							"internalType": "address",
							"name": "",
							"type": "address"
						}
					],
					"stateMutability": "view",
					"type": "function"
				}
			],
			"devdoc": {
				"kind": "dev",
				"methods": {},
				"version": 1
			},
			"evm": {
				"assembly": "    /* \"work/home/1st.sol\":369:959  contract VoteCalc{... */\n  mstore(0x40, 0x80)\n  callvalue\n  dup1\n  iszero\n  tag_1\n  jumpi\n  0x00\n  dup1\n  revert\ntag_1:\n  pop\n  dataSize(sub_0)\n  dup1\n  dataOffset(sub_0)\n  0x00\n  codecopy\n  0x00\n  return\nstop\n\nsub_0: assembly {\n        /* \"work/home/1st.sol\":369:959  contract VoteCalc{... */\n      mstore(0x40, 0x80)\n      callvalue\n      dup1\n      iszero\n      tag_1\n      jumpi\n      0x00\n      dup1\n      revert\n    tag_1:\n      pop\n      jumpi(tag_2, lt(calldatasize, 0x04))\n      shr(0xe0, calldataload(0x00))\n      dup1\n      0xc48c23a0\n      gt\n      tag_11\n      jumpi\n      dup1\n      0xc48c23a0\n      eq\n      tag_7\n      jumpi\n      dup1\n      0xccf65503\n      eq\n      tag_8\n      jumpi\n      dup1\n      0xd3650fb8\n      eq\n      tag_9\n      jumpi\n      dup1\n      0xf5984236\n      eq\n      tag_10\n      jumpi\n      jump(tag_2)\n    tag_11:\n      dup1\n      0x12424e3f\n      eq\n      tag_3\n      jumpi\n      dup1\n      0x1858c77d\n      eq\n      tag_4\n      jumpi\n      dup1\n      0x4dc415de\n      eq\n      tag_5\n      jumpi\n      dup1\n      0x607bad95\n      eq\n      tag_6\n      jumpi\n    tag_2:\n      0x00\n      dup1\n      revert\n        /* \"work/home/1st.sol\":463:532  function approve() public {... */\n    tag_3:\n      tag_12\n      tag_13\n      jump\t// in\n    tag_12:\n      stop\n        /* \"work/home/1st.sol\":699:781  function minus(int a, int b) public pure returns (int) {... */\n    tag_4:\n      tag_14\n      0x04\n      dup1\n      calldatasize\n      sub\n      dup2\n      add\n      swap1\n      tag_15\n      swap2\n      swap1\n      tag_16\n      jump\t// in\n    tag_15:\n      tag_17\n      jump\t// in\n    tag_14:\n      mload(0x40)\n      tag_18\n      swap2\n      swap1\n      tag_19\n      jump\t// in\n    tag_18:\n      mload(0x40)\n      dup1\n      swap2\n      sub\n      swap1\n      return\n        /* \"work/home/1st.sol\":538:606  function reject() public {... */\n    tag_5:\n      tag_20\n      tag_21\n      jump\t// in\n    tag_20:\n      stop\n        /* \"work/home/1st.sol\":425:451  address[] public rejecters */\n    tag_6:\n      tag_22\n      0x04\n      dup1\n      calldatasize\n      sub\n      dup2\n      add\n      swap1\n      tag_23\n      swap2\n      swap1\n      tag_24\n      jump\t// in\n    tag_23:\n      tag_25\n      jump\t// in\n    tag_22:\n      mload(0x40)\n      tag_26\n      swap2\n      swap1\n      tag_27\n      jump\t// in\n    tag_26:\n      mload(0x40)\n      dup1\n      swap2\n      sub\n      swap1\n      return\n        /* \"work/home/1st.sol\":787:868  function mult(int a, int b) public pure returns (int) {... */\n    tag_7:\n      tag_28\n      0x04\n      dup1\n      calldatasize\n      sub\n      dup2\n      add\n      swap1\n      tag_29\n      swap2\n      swap1\n      tag_16\n      jump\t// in\n    tag_29:\n      tag_30\n      jump\t// in\n    tag_28:\n      mload(0x40)\n      tag_31\n      swap2\n      swap1\n      tag_19\n      jump\t// in\n    tag_31:\n      mload(0x40)\n      dup1\n      swap2\n      sub\n      swap1\n      return\n        /* \"work/home/1st.sol\":612:693  function plus(int a, int b) public pure returns (int) {... */\n    tag_8:\n      tag_32\n      0x04\n      dup1\n      calldatasize\n      sub\n      dup2\n      add\n      swap1\n      tag_33\n      swap2\n      swap1\n      tag_16\n      jump\t// in\n    tag_33:\n      tag_34\n      jump\t// in\n    tag_32:\n      mload(0x40)\n      tag_35\n      swap2\n      swap1\n      tag_19\n      jump\t// in\n    tag_35:\n      mload(0x40)\n      dup1\n      swap2\n      sub\n      swap1\n      return\n        /* \"work/home/1st.sol\":392:418  address[] public approvers */\n    tag_9:\n      tag_36\n      0x04\n      dup1\n      calldatasize\n      sub\n      dup2\n      add\n      swap1\n      tag_37\n      swap2\n      swap1\n      tag_24\n      jump\t// in\n    tag_37:\n      tag_38\n      jump\t// in\n    tag_36:\n      mload(0x40)\n      tag_39\n      swap2\n      swap1\n      tag_27\n      jump\t// in\n    tag_39:\n      mload(0x40)\n      dup1\n      swap2\n      sub\n      swap1\n      return\n        /* \"work/home/1st.sol\":874:957  function divide(int a, int b) public pure returns (int) {... */\n    tag_10:\n      tag_40\n      0x04\n      dup1\n      calldatasize\n      sub\n      dup2\n      add\n      swap1\n      tag_41\n      swap2\n      swap1\n      tag_16\n      jump\t// in\n    tag_41:\n      tag_42\n      jump\t// in\n    tag_40:\n      mload(0x40)\n      tag_43\n      swap2\n      swap1\n      tag_19\n      jump\t// in\n    tag_43:\n      mload(0x40)\n      dup1\n      swap2\n      sub\n      swap1\n      return\n        /* \"work/home/1st.sol\":463:532  function approve() public {... */\n    tag_13:\n        /* \"work/home/1st.sol\":499:508  approvers */\n      0x00\n        /* \"work/home/1st.sol\":514:524  msg.sender */\n      caller\n        /* \"work/home/1st.sol\":499:525  approvers.push(msg.sender) */\n      swap1\n      dup1\n      0x01\n      dup2\n      sload\n      add\n      dup1\n      dup3\n      sstore\n      dup1\n      swap2\n      pop\n      pop\n      0x01\n      swap1\n      sub\n      swap1\n      0x00\n      mstore\n      keccak256(0x00, 0x20)\n      add\n      0x00\n      swap1\n      swap2\n      swap1\n      swap2\n      swap1\n      swap2\n      0x0100\n      exp\n      dup2\n      sload\n      dup2\n      0xffffffffffffffffffffffffffffffffffffffff\n      mul\n      not\n      and\n      swap1\n      dup4\n      0xffffffffffffffffffffffffffffffffffffffff\n      and\n      mul\n      or\n      swap1\n      sstore\n      pop\n        /* \"work/home/1st.sol\":463:532  function approve() public {... */\n      jump\t// out\n        /* \"work/home/1st.sol\":699:781  function minus(int a, int b) public pure returns (int) {... */\n    tag_17:\n        /* \"work/home/1st.sol\":749:752  int */\n      0x00\n        /* \"work/home/1st.sol\":773:774  b */\n      dup2\n        /* \"work/home/1st.sol\":771:772  a */\n      dup4\n        /* \"work/home/1st.sol\":771:774  a-b */\n      tag_47\n      swap2\n      swap1\n      tag_48\n      jump\t// in\n    tag_47:\n        /* \"work/home/1st.sol\":764:774  return a-b */\n      swap1\n      pop\n        /* \"work/home/1st.sol\":699:781  function minus(int a, int b) public pure returns (int) {... */\n      swap3\n      swap2\n      pop\n      pop\n      jump\t// out\n        /* \"work/home/1st.sol\":538:606  function reject() public {... */\n    tag_21:\n        /* \"work/home/1st.sol\":573:582  rejecters */\n      0x01\n        /* \"work/home/1st.sol\":588:598  msg.sender */\n      caller\n        /* \"work/home/1st.sol\":573:599  rejecters.push(msg.sender) */\n      swap1\n      dup1\n      0x01\n      dup2\n      sload\n      add\n      dup1\n      dup3\n      sstore\n      dup1\n      swap2\n      pop\n      pop\n      0x01\n      swap1\n      sub\n      swap1\n      0x00\n      mstore\n      keccak256(0x00, 0x20)\n      add\n      0x00\n      swap1\n      swap2\n      swap1\n      swap2\n      swap1\n      swap2\n      0x0100\n      exp\n      dup2\n      sload\n      dup2\n      0xffffffffffffffffffffffffffffffffffffffff\n      mul\n      not\n      and\n      swap1\n      dup4\n      0xffffffffffffffffffffffffffffffffffffffff\n      and\n      mul\n      or\n      swap1\n      sstore\n      pop\n        /* \"work/home/1st.sol\":538:606  function reject() public {... */\n      jump\t// out\n        /* \"work/home/1st.sol\":425:451  address[] public rejecters */\n    tag_25:\n      0x01\n      dup2\n      dup2\n      sload\n      dup2\n      lt\n      tag_51\n      jumpi\n      0x00\n      dup1\n      revert\n    tag_51:\n      swap1\n      0x00\n      mstore\n      keccak256(0x00, 0x20)\n      add\n      0x00\n      swap2\n      pop\n      sload\n      swap1\n      0x0100\n      exp\n      swap1\n      div\n      0xffffffffffffffffffffffffffffffffffffffff\n      and\n      dup2\n      jump\t// out\n        /* \"work/home/1st.sol\":787:868  function mult(int a, int b) public pure returns (int) {... */\n    tag_30:\n        /* \"work/home/1st.sol\":836:839  int */\n      0x00\n        /* \"work/home/1st.sol\":860:861  b */\n      dup2\n        /* \"work/home/1st.sol\":858:859  a */\n      dup4\n        /* \"work/home/1st.sol\":858:861  a*b */\n      tag_54\n      swap2\n      swap1\n      tag_55\n      jump\t// in\n    tag_54:\n        /* \"work/home/1st.sol\":851:861  return a*b */\n      swap1\n      pop\n        /* \"work/home/1st.sol\":787:868  function mult(int a, int b) public pure returns (int) {... */\n      swap3\n      swap2\n      pop\n      pop\n      jump\t// out\n        /* \"work/home/1st.sol\":612:693  function plus(int a, int b) public pure returns (int) {... */\n    tag_34:\n        /* \"work/home/1st.sol\":661:664  int */\n      0x00\n        /* \"work/home/1st.sol\":685:686  b */\n      dup2\n        /* \"work/home/1st.sol\":683:684  a */\n      dup4\n        /* \"work/home/1st.sol\":683:686  a+b */\n      tag_57\n      swap2\n      swap1\n      tag_58\n      jump\t// in\n    tag_57:\n        /* \"work/home/1st.sol\":676:686  return a+b */\n      swap1\n      pop\n        /* \"work/home/1st.sol\":612:693  function plus(int a, int b) public pure returns (int) {... */\n      swap3\n      swap2\n      pop\n      pop\n      jump\t// out\n        /* \"work/home/1st.sol\":392:418  address[] public approvers */\n    tag_38:\n      0x00\n      dup2\n      dup2\n      sload\n      dup2\n      lt\n      tag_59\n      jumpi\n      0x00\n      dup1\n      revert\n    tag_59:\n      swap1\n      0x00\n      mstore\n      keccak256(0x00, 0x20)\n      add\n      0x00\n      swap2\n      pop\n      sload\n      swap1\n      0x0100\n      exp\n      swap1\n      div\n      0xffffffffffffffffffffffffffffffffffffffff\n      and\n      dup2\n      jump\t// out\n        /* \"work/home/1st.sol\":874:957  function divide(int a, int b) public pure returns (int) {... */\n    tag_42:\n        /* \"work/home/1st.sol\":925:928  int */\n      0x00\n        /* \"work/home/1st.sol\":949:950  b */\n      dup2\n        /* \"work/home/1st.sol\":947:948  a */\n      dup4\n        /* \"work/home/1st.sol\":947:950  a/b */\n      tag_62\n      swap2\n      swap1\n      tag_63\n      jump\t// in\n    tag_62:\n        /* \"work/home/1st.sol\":940:950  return a/b */\n      swap1\n      pop\n        /* \"work/home/1st.sol\":874:957  function divide(int a, int b) public pure returns (int) {... */\n      swap3\n      swap2\n      pop\n      pop\n      jump\t// out\n        /* \"#utility.yul\":88:205   */\n    tag_65:\n        /* \"#utility.yul\":197:198   */\n      0x00\n        /* \"#utility.yul\":194:195   */\n      dup1\n        /* \"#utility.yul\":187:199   */\n      revert\n        /* \"#utility.yul\":334:410   */\n    tag_67:\n        /* \"#utility.yul\":370:377   */\n      0x00\n        /* \"#utility.yul\":399:404   */\n      dup2\n        /* \"#utility.yul\":388:404   */\n      swap1\n      pop\n        /* \"#utility.yul\":334:410   */\n      swap2\n      swap1\n      pop\n      jump\t// out\n        /* \"#utility.yul\":416:536   */\n    tag_68:\n        /* \"#utility.yul\":488:511   */\n      tag_85\n        /* \"#utility.yul\":505:510   */\n      dup2\n        /* \"#utility.yul\":488:511   */\n      tag_67\n      jump\t// in\n    tag_85:\n        /* \"#utility.yul\":481:486   */\n      dup2\n        /* \"#utility.yul\":478:512   */\n      eq\n        /* \"#utility.yul\":468:530   */\n      tag_86\n      jumpi\n        /* \"#utility.yul\":526:527   */\n      0x00\n        /* \"#utility.yul\":523:524   */\n      dup1\n        /* \"#utility.yul\":516:528   */\n      revert\n        /* \"#utility.yul\":468:530   */\n    tag_86:\n        /* \"#utility.yul\":416:536   */\n      pop\n      jump\t// out\n        /* \"#utility.yul\":542:679   */\n    tag_69:\n        /* \"#utility.yul\":587:592   */\n      0x00\n        /* \"#utility.yul\":625:631   */\n      dup2\n        /* \"#utility.yul\":612:632   */\n      calldataload\n        /* \"#utility.yul\":603:632   */\n      swap1\n      pop\n        /* \"#utility.yul\":641:673   */\n      tag_88\n        /* \"#utility.yul\":667:672   */\n      dup2\n        /* \"#utility.yul\":641:673   */\n      tag_68\n      jump\t// in\n    tag_88:\n        /* \"#utility.yul\":542:679   */\n      swap3\n      swap2\n      pop\n      pop\n      jump\t// out\n        /* \"#utility.yul\":685:1155   */\n    tag_16:\n        /* \"#utility.yul\":751:757   */\n      0x00\n        /* \"#utility.yul\":759:765   */\n      dup1\n        /* \"#utility.yul\":808:810   */\n      0x40\n        /* \"#utility.yul\":796:805   */\n      dup4\n        /* \"#utility.yul\":787:794   */\n      dup6\n        /* \"#utility.yul\":783:806   */\n      sub\n        /* \"#utility.yul\":779:811   */\n      slt\n        /* \"#utility.yul\":776:895   */\n      iszero\n      tag_90\n      jumpi\n        /* \"#utility.yul\":814:893   */\n      tag_91\n      tag_65\n      jump\t// in\n    tag_91:\n        /* \"#utility.yul\":776:895   */\n    tag_90:\n        /* \"#utility.yul\":934:935   */\n      0x00\n        /* \"#utility.yul\":959:1011   */\n      tag_92\n        /* \"#utility.yul\":1003:1010   */\n      dup6\n        /* \"#utility.yul\":994:1000   */\n      dup3\n        /* \"#utility.yul\":983:992   */\n      dup7\n        /* \"#utility.yul\":979:1001   */\n      add\n        /* \"#utility.yul\":959:1011   */\n      tag_69\n      jump\t// in\n    tag_92:\n        /* \"#utility.yul\":949:1011   */\n      swap3\n      pop\n        /* \"#utility.yul\":905:1021   */\n      pop\n        /* \"#utility.yul\":1060:1062   */\n      0x20\n        /* \"#utility.yul\":1086:1138   */\n      tag_93\n        /* \"#utility.yul\":1130:1137   */\n      dup6\n        /* \"#utility.yul\":1121:1127   */\n      dup3\n        /* \"#utility.yul\":1110:1119   */\n      dup7\n        /* \"#utility.yul\":1106:1128   */\n      add\n        /* \"#utility.yul\":1086:1138   */\n      tag_69\n      jump\t// in\n    tag_93:\n        /* \"#utility.yul\":1076:1138   */\n      swap2\n      pop\n        /* \"#utility.yul\":1031:1148   */\n      pop\n        /* \"#utility.yul\":685:1155   */\n      swap3\n      pop\n      swap3\n      swap1\n      pop\n      jump\t// out\n        /* \"#utility.yul\":1161:1276   */\n    tag_70:\n        /* \"#utility.yul\":1246:1269   */\n      tag_95\n        /* \"#utility.yul\":1263:1268   */\n      dup2\n        /* \"#utility.yul\":1246:1269   */\n      tag_67\n      jump\t// in\n    tag_95:\n        /* \"#utility.yul\":1241:1244   */\n      dup3\n        /* \"#utility.yul\":1234:1270   */\n      mstore\n        /* \"#utility.yul\":1161:1276   */\n      pop\n      pop\n      jump\t// out\n        /* \"#utility.yul\":1282:1500   */\n    tag_19:\n        /* \"#utility.yul\":1373:1377   */\n      0x00\n        /* \"#utility.yul\":1411:1413   */\n      0x20\n        /* \"#utility.yul\":1400:1409   */\n      dup3\n        /* \"#utility.yul\":1396:1414   */\n      add\n        /* \"#utility.yul\":1388:1414   */\n      swap1\n      pop\n        /* \"#utility.yul\":1424:1493   */\n      tag_97\n        /* \"#utility.yul\":1490:1491   */\n      0x00\n        /* \"#utility.yul\":1479:1488   */\n      dup4\n        /* \"#utility.yul\":1475:1492   */\n      add\n        /* \"#utility.yul\":1466:1472   */\n      dup5\n        /* \"#utility.yul\":1424:1493   */\n      tag_70\n      jump\t// in\n    tag_97:\n        /* \"#utility.yul\":1282:1500   */\n      swap3\n      swap2\n      pop\n      pop\n      jump\t// out\n        /* \"#utility.yul\":1506:1583   */\n    tag_71:\n        /* \"#utility.yul\":1543:1550   */\n      0x00\n        /* \"#utility.yul\":1572:1577   */\n      dup2\n        /* \"#utility.yul\":1561:1577   */\n      swap1\n      pop\n        /* \"#utility.yul\":1506:1583   */\n      swap2\n      swap1\n      pop\n      jump\t// out\n        /* \"#utility.yul\":1589:1711   */\n    tag_72:\n        /* \"#utility.yul\":1662:1686   */\n      tag_100\n        /* \"#utility.yul\":1680:1685   */\n      dup2\n        /* \"#utility.yul\":1662:1686   */\n      tag_71\n      jump\t// in\n    tag_100:\n        /* \"#utility.yul\":1655:1660   */\n      dup2\n        /* \"#utility.yul\":1652:1687   */\n      eq\n        /* \"#utility.yul\":1642:1705   */\n      tag_101\n      jumpi\n        /* \"#utility.yul\":1701:1702   */\n      0x00\n        /* \"#utility.yul\":1698:1699   */\n      dup1\n        /* \"#utility.yul\":1691:1703   */\n      revert\n        /* \"#utility.yul\":1642:1705   */\n    tag_101:\n        /* \"#utility.yul\":1589:1711   */\n      pop\n      jump\t// out\n        /* \"#utility.yul\":1717:1856   */\n    tag_73:\n        /* \"#utility.yul\":1763:1768   */\n      0x00\n        /* \"#utility.yul\":1801:1807   */\n      dup2\n        /* \"#utility.yul\":1788:1808   */\n      calldataload\n        /* \"#utility.yul\":1779:1808   */\n      swap1\n      pop\n        /* \"#utility.yul\":1817:1850   */\n      tag_103\n        /* \"#utility.yul\":1844:1849   */\n      dup2\n        /* \"#utility.yul\":1817:1850   */\n      tag_72\n      jump\t// in\n    tag_103:\n        /* \"#utility.yul\":1717:1856   */\n      swap3\n      swap2\n      pop\n      pop\n      jump\t// out\n        /* \"#utility.yul\":1862:2191   */\n    tag_24:\n        /* \"#utility.yul\":1921:1927   */\n      0x00\n        /* \"#utility.yul\":1970:1972   */\n      0x20\n        /* \"#utility.yul\":1958:1967   */\n      dup3\n        /* \"#utility.yul\":1949:1956   */\n      dup5\n        /* \"#utility.yul\":1945:1968   */\n      sub\n        /* \"#utility.yul\":1941:1973   */\n      slt\n        /* \"#utility.yul\":1938:2057   */\n      iszero\n      tag_105\n      jumpi\n        /* \"#utility.yul\":1976:2055   */\n      tag_106\n      tag_65\n      jump\t// in\n    tag_106:\n        /* \"#utility.yul\":1938:2057   */\n    tag_105:\n        /* \"#utility.yul\":2096:2097   */\n      0x00\n        /* \"#utility.yul\":2121:2174   */\n      tag_107\n        /* \"#utility.yul\":2166:2173   */\n      dup5\n        /* \"#utility.yul\":2157:2163   */\n      dup3\n        /* \"#utility.yul\":2146:2155   */\n      dup6\n        /* \"#utility.yul\":2142:2164   */\n      add\n        /* \"#utility.yul\":2121:2174   */\n      tag_73\n      jump\t// in\n    tag_107:\n        /* \"#utility.yul\":2111:2174   */\n      swap2\n      pop\n        /* \"#utility.yul\":2067:2184   */\n      pop\n        /* \"#utility.yul\":1862:2191   */\n      swap3\n      swap2\n      pop\n      pop\n      jump\t// out\n        /* \"#utility.yul\":2197:2323   */\n    tag_74:\n        /* \"#utility.yul\":2234:2241   */\n      0x00\n        /* \"#utility.yul\":2274:2316   */\n      0xffffffffffffffffffffffffffffffffffffffff\n        /* \"#utility.yul\":2267:2272   */\n      dup3\n        /* \"#utility.yul\":2263:2317   */\n      and\n        /* \"#utility.yul\":2252:2317   */\n      swap1\n      pop\n        /* \"#utility.yul\":2197:2323   */\n      swap2\n      swap1\n      pop\n      jump\t// out\n        /* \"#utility.yul\":2329:2425   */\n    tag_75:\n        /* \"#utility.yul\":2366:2373   */\n      0x00\n        /* \"#utility.yul\":2395:2419   */\n      tag_110\n        /* \"#utility.yul\":2413:2418   */\n      dup3\n        /* \"#utility.yul\":2395:2419   */\n      tag_74\n      jump\t// in\n    tag_110:\n        /* \"#utility.yul\":2384:2419   */\n      swap1\n      pop\n        /* \"#utility.yul\":2329:2425   */\n      swap2\n      swap1\n      pop\n      jump\t// out\n        /* \"#utility.yul\":2431:2549   */\n    tag_76:\n        /* \"#utility.yul\":2518:2542   */\n      tag_112\n        /* \"#utility.yul\":2536:2541   */\n      dup2\n        /* \"#utility.yul\":2518:2542   */\n      tag_75\n      jump\t// in\n    tag_112:\n        /* \"#utility.yul\":2513:2516   */\n      dup3\n        /* \"#utility.yul\":2506:2543   */\n      mstore\n        /* \"#utility.yul\":2431:2549   */\n      pop\n      pop\n      jump\t// out\n        /* \"#utility.yul\":2555:2777   */\n    tag_27:\n        /* \"#utility.yul\":2648:2652   */\n      0x00\n        /* \"#utility.yul\":2686:2688   */\n      0x20\n        /* \"#utility.yul\":2675:2684   */\n      dup3\n        /* \"#utility.yul\":2671:2689   */\n      add\n        /* \"#utility.yul\":2663:2689   */\n      swap1\n      pop\n        /* \"#utility.yul\":2699:2770   */\n      tag_114\n        /* \"#utility.yul\":2767:2768   */\n      0x00\n        /* \"#utility.yul\":2756:2765   */\n      dup4\n        /* \"#utility.yul\":2752:2769   */\n      add\n        /* \"#utility.yul\":2743:2749   */\n      dup5\n        /* \"#utility.yul\":2699:2770   */\n      tag_76\n      jump\t// in\n    tag_114:\n        /* \"#utility.yul\":2555:2777   */\n      swap3\n      swap2\n      pop\n      pop\n      jump\t// out\n        /* \"#utility.yul\":2783:2963   */\n    tag_77:\n        /* \"#utility.yul\":2831:2908   */\n      0x4e487b7100000000000000000000000000000000000000000000000000000000\n        /* \"#utility.yul\":2828:2829   */\n      0x00\n        /* \"#utility.yul\":2821:2909   */\n      mstore\n        /* \"#utility.yul\":2928:2932   */\n      0x11\n        /* \"#utility.yul\":2925:2926   */\n      0x04\n        /* \"#utility.yul\":2918:2933   */\n      mstore\n        /* \"#utility.yul\":2952:2956   */\n      0x24\n        /* \"#utility.yul\":2949:2950   */\n      0x00\n        /* \"#utility.yul\":2942:2957   */\n      revert\n        /* \"#utility.yul\":2969:3341   */\n    tag_48:\n        /* \"#utility.yul\":3008:3012   */\n      0x00\n        /* \"#utility.yul\":3028:3047   */\n      tag_117\n        /* \"#utility.yul\":3045:3046   */\n      dup3\n        /* \"#utility.yul\":3028:3047   */\n      tag_67\n      jump\t// in\n    tag_117:\n        /* \"#utility.yul\":3023:3047   */\n      swap2\n      pop\n        /* \"#utility.yul\":3061:3080   */\n      tag_118\n        /* \"#utility.yul\":3078:3079   */\n      dup4\n        /* \"#utility.yul\":3061:3080   */\n      tag_67\n      jump\t// in\n    tag_118:\n        /* \"#utility.yul\":3056:3080   */\n      swap3\n      pop\n        /* \"#utility.yul\":3104:3105   */\n      dup3\n        /* \"#utility.yul\":3101:3102   */\n      dup3\n        /* \"#utility.yul\":3097:3106   */\n      sub\n        /* \"#utility.yul\":3089:3106   */\n      swap1\n      pop\n        /* \"#utility.yul\":3298:3299   */\n      dup2\n        /* \"#utility.yul\":3292:3296   */\n      dup2\n        /* \"#utility.yul\":3288:3300   */\n      slt\n        /* \"#utility.yul\":3284:3285   */\n      0x00\n        /* \"#utility.yul\":3281:3282   */\n      dup5\n        /* \"#utility.yul\":3277:3286   */\n      slt\n        /* \"#utility.yul\":3273:3301   */\n      and\n        /* \"#utility.yul\":3256:3257   */\n      dup3\n        /* \"#utility.yul\":3250:3254   */\n      dup3\n        /* \"#utility.yul\":3246:3258   */\n      sgt\n        /* \"#utility.yul\":3241:3242   */\n      0x00\n        /* \"#utility.yul\":3238:3239   */\n      dup6\n        /* \"#utility.yul\":3234:3243   */\n      slt\n        /* \"#utility.yul\":3227:3244   */\n      iszero\n        /* \"#utility.yul\":3223:3259   */\n      and\n        /* \"#utility.yul\":3207:3311   */\n      or\n        /* \"#utility.yul\":3204:3334   */\n      iszero\n      tag_119\n      jumpi\n        /* \"#utility.yul\":3314:3332   */\n      tag_120\n      tag_77\n      jump\t// in\n    tag_120:\n        /* \"#utility.yul\":3204:3334   */\n    tag_119:\n        /* \"#utility.yul\":2969:3341   */\n      swap3\n      swap2\n      pop\n      pop\n      jump\t// out\n        /* \"#utility.yul\":3347:3903   */\n    tag_55:\n        /* \"#utility.yul\":3386:3393   */\n      0x00\n        /* \"#utility.yul\":3409:3428   */\n      tag_122\n        /* \"#utility.yul\":3426:3427   */\n      dup3\n        /* \"#utility.yul\":3409:3428   */\n      tag_67\n      jump\t// in\n    tag_122:\n        /* \"#utility.yul\":3404:3428   */\n      swap2\n      pop\n        /* \"#utility.yul\":3442:3461   */\n      tag_123\n        /* \"#utility.yul\":3459:3460   */\n      dup4\n        /* \"#utility.yul\":3442:3461   */\n      tag_67\n      jump\t// in\n    tag_123:\n        /* \"#utility.yul\":3437:3461   */\n      swap3\n      pop\n        /* \"#utility.yul\":3496:3497   */\n      dup3\n        /* \"#utility.yul\":3493:3494   */\n      dup3\n        /* \"#utility.yul\":3489:3498   */\n      mul\n        /* \"#utility.yul\":3518:3547   */\n      tag_124\n        /* \"#utility.yul\":3535:3546   */\n      dup2\n        /* \"#utility.yul\":3518:3547   */\n      tag_67\n      jump\t// in\n    tag_124:\n        /* \"#utility.yul\":3507:3547   */\n      swap2\n      pop\n        /* \"#utility.yul\":3605:3671   */\n      0x8000000000000000000000000000000000000000000000000000000000000000\n        /* \"#utility.yul\":3602:3603   */\n      dup5\n        /* \"#utility.yul\":3599:3672   */\n      eq\n        /* \"#utility.yul\":3595:3596   */\n      0x00\n        /* \"#utility.yul\":3592:3593   */\n      dup5\n        /* \"#utility.yul\":3588:3597   */\n      slt\n        /* \"#utility.yul\":3584:3673   */\n      and\n        /* \"#utility.yul\":3581:3696   */\n      iszero\n      tag_125\n      jumpi\n        /* \"#utility.yul\":3676:3694   */\n      tag_126\n      tag_77\n      jump\t// in\n    tag_126:\n        /* \"#utility.yul\":3581:3696   */\n    tag_125:\n        /* \"#utility.yul\":3846:3847   */\n      dup3\n        /* \"#utility.yul\":3837:3844   */\n      dup3\n        /* \"#utility.yul\":3832:3848   */\n      sdiv\n        /* \"#utility.yul\":3829:3830   */\n      dup5\n        /* \"#utility.yul\":3826:3849   */\n      eq\n        /* \"#utility.yul\":3806:3807   */\n      dup4\n        /* \"#utility.yul\":3799:3808   */\n      iszero\n        /* \"#utility.yul\":3779:3863   */\n      or\n        /* \"#utility.yul\":3756:3896   */\n      tag_127\n      jumpi\n        /* \"#utility.yul\":3876:3894   */\n      tag_128\n      tag_77\n      jump\t// in\n    tag_128:\n        /* \"#utility.yul\":3756:3896   */\n    tag_127:\n        /* \"#utility.yul\":3394:3903   */\n      pop\n        /* \"#utility.yul\":3347:3903   */\n      swap3\n      swap2\n      pop\n      pop\n      jump\t// out\n        /* \"#utility.yul\":3909:4284   */\n    tag_58:\n        /* \"#utility.yul\":3948:3951   */\n      0x00\n        /* \"#utility.yul\":3967:3986   */\n      tag_130\n        /* \"#utility.yul\":3984:3985   */\n      dup3\n        /* \"#utility.yul\":3967:3986   */\n      tag_67\n      jump\t// in\n    tag_130:\n        /* \"#utility.yul\":3962:3986   */\n      swap2\n      pop\n        /* \"#utility.yul\":4000:4019   */\n      tag_131\n        /* \"#utility.yul\":4017:4018   */\n      dup4\n        /* \"#utility.yul\":4000:4019   */\n      tag_67\n      jump\t// in\n    tag_131:\n        /* \"#utility.yul\":3995:4019   */\n      swap3\n      pop\n        /* \"#utility.yul\":4042:4043   */\n      dup3\n        /* \"#utility.yul\":4039:4040   */\n      dup3\n        /* \"#utility.yul\":4035:4044   */\n      add\n        /* \"#utility.yul\":4028:4044   */\n      swap1\n      pop\n        /* \"#utility.yul\":4240:4241   */\n      dup3\n        /* \"#utility.yul\":4235:4238   */\n      dup2\n        /* \"#utility.yul\":4231:4242   */\n      slt\n        /* \"#utility.yul\":4224:4243   */\n      iszero\n        /* \"#utility.yul\":4220:4221   */\n      0x00\n        /* \"#utility.yul\":4217:4218   */\n      dup4\n        /* \"#utility.yul\":4213:4222   */\n      slt\n        /* \"#utility.yul\":4209:4244   */\n      and\n        /* \"#utility.yul\":4192:4193   */\n      dup4\n        /* \"#utility.yul\":4187:4190   */\n      dup3\n        /* \"#utility.yul\":4183:4194   */\n      slt\n        /* \"#utility.yul\":4178:4179   */\n      0x00\n        /* \"#utility.yul\":4175:4176   */\n      dup5\n        /* \"#utility.yul\":4171:4180   */\n      slt\n        /* \"#utility.yul\":4164:4181   */\n      iszero\n        /* \"#utility.yul\":4160:4195   */\n      and\n        /* \"#utility.yul\":4144:4254   */\n      or\n        /* \"#utility.yul\":4141:4277   */\n      iszero\n      tag_132\n      jumpi\n        /* \"#utility.yul\":4257:4275   */\n      tag_133\n      tag_77\n      jump\t// in\n    tag_133:\n        /* \"#utility.yul\":4141:4277   */\n    tag_132:\n        /* \"#utility.yul\":3909:4284   */\n      swap3\n      swap2\n      pop\n      pop\n      jump\t// out\n        /* \"#utility.yul\":4290:4470   */\n    tag_78:\n        /* \"#utility.yul\":4338:4415   */\n      0x4e487b7100000000000000000000000000000000000000000000000000000000\n        /* \"#utility.yul\":4335:4336   */\n      0x00\n        /* \"#utility.yul\":4328:4416   */\n      mstore\n        /* \"#utility.yul\":4435:4439   */\n      0x12\n        /* \"#utility.yul\":4432:4433   */\n      0x04\n        /* \"#utility.yul\":4425:4440   */\n      mstore\n        /* \"#utility.yul\":4459:4463   */\n      0x24\n        /* \"#utility.yul\":4456:4457   */\n      0x00\n        /* \"#utility.yul\":4449:4464   */\n      revert\n        /* \"#utility.yul\":4476:4861   */\n    tag_63:\n        /* \"#utility.yul\":4515:4516   */\n      0x00\n        /* \"#utility.yul\":4532:4551   */\n      tag_136\n        /* \"#utility.yul\":4549:4550   */\n      dup3\n        /* \"#utility.yul\":4532:4551   */\n      tag_67\n      jump\t// in\n    tag_136:\n        /* \"#utility.yul\":4527:4551   */\n      swap2\n      pop\n        /* \"#utility.yul\":4565:4584   */\n      tag_137\n        /* \"#utility.yul\":4582:4583   */\n      dup4\n        /* \"#utility.yul\":4565:4584   */\n      tag_67\n      jump\t// in\n    tag_137:\n        /* \"#utility.yul\":4560:4584   */\n      swap3\n      pop\n        /* \"#utility.yul\":4603:4604   */\n      dup3\n        /* \"#utility.yul\":4593:4628   */\n      tag_138\n      jumpi\n        /* \"#utility.yul\":4608:4626   */\n      tag_139\n      tag_78\n      jump\t// in\n    tag_139:\n        /* \"#utility.yul\":4593:4628   */\n    tag_138:\n        /* \"#utility.yul\":4794:4795   */\n      0x01\n        /* \"#utility.yul\":4791:4792   */\n      0x00\n        /* \"#utility.yul\":4787:4796   */\n      sub\n        /* \"#utility.yul\":4784:4785   */\n      dup4\n        /* \"#utility.yul\":4781:4797   */\n      eq\n        /* \"#utility.yul\":4700:4766   */\n      0x8000000000000000000000000000000000000000000000000000000000000000\n        /* \"#utility.yul\":4697:4698   */\n      dup4\n        /* \"#utility.yul\":4694:4767   */\n      eq\n        /* \"#utility.yul\":4677:4807   */\n      and\n        /* \"#utility.yul\":4674:4830   */\n      iszero\n      tag_140\n      jumpi\n        /* \"#utility.yul\":4810:4828   */\n      tag_141\n      tag_77\n      jump\t// in\n    tag_141:\n        /* \"#utility.yul\":4674:4830   */\n    tag_140:\n        /* \"#utility.yul\":4853:4854   */\n      dup3\n        /* \"#utility.yul\":4850:4851   */\n      dup3\n        /* \"#utility.yul\":4845:4855   */\n      sdiv\n        /* \"#utility.yul\":4840:4855   */\n      swap1\n      pop\n        /* \"#utility.yul\":4476:4861   */\n      swap3\n      swap2\n      pop\n      pop\n      jump\t// out\n\n    auxdata: 0xa26469706673582212209223300acd03017676a933ffbd7f480ba256b01af4cb5a6df72e1337ebb1fec664736f6c634300081a0033\n}\n",
				"bytecode": {
					"linkReferences": {},
					"object": "6080604052348015600e575f80fd5b5061068c8061001c5f395ff3fe608060405234801561000f575f80fd5b5060043610610086575f3560e01c8063c48c23a011610059578063c48c23a0146100fe578063ccf655031461012e578063d3650fb81461015e578063f59842361461018e57610086565b806312424e3f1461008a5780631858c77d146100945780634dc415de146100c4578063607bad95146100ce575b5f80fd5b6100926101be565b005b6100ae60048036038101906100a99190610381565b61021f565b6040516100bb91906103ce565b60405180910390f35b6100cc610234565b005b6100e860048036038101906100e3919061041a565b610296565b6040516100f59190610484565b60405180910390f35b61011860048036038101906101139190610381565b6102d1565b60405161012591906103ce565b60405180910390f35b61014860048036038101906101439190610381565b6102e6565b60405161015591906103ce565b60405180910390f35b6101786004803603810190610173919061041a565b6102fb565b6040516101859190610484565b60405180910390f35b6101a860048036038101906101a39190610381565b610335565b6040516101b591906103ce565b60405180910390f35b5f33908060018154018082558091505060019003905f5260205f20015f9091909190916101000a81548173ffffffffffffffffffffffffffffffffffffffff021916908373ffffffffffffffffffffffffffffffffffffffff160217905550565b5f818361022c91906104ca565b905092915050565b600133908060018154018082558091505060019003905f5260205f20015f9091909190916101000a81548173ffffffffffffffffffffffffffffffffffffffff021916908373ffffffffffffffffffffffffffffffffffffffff160217905550565b600181815481106102a5575f80fd5b905f5260205f20015f915054906101000a900473ffffffffffffffffffffffffffffffffffffffff1681565b5f81836102de919061050a565b905092915050565b5f81836102f39190610580565b905092915050565b5f8181548110610309575f80fd5b905f5260205f20015f915054906101000a900473ffffffffffffffffffffffffffffffffffffffff1681565b5f818361034291906105ee565b905092915050565b5f80fd5b5f819050919050565b6103608161034e565b811461036a575f80fd5b50565b5f8135905061037b81610357565b92915050565b5f80604083850312156103975761039661034a565b5b5f6103a48582860161036d565b92505060206103b58582860161036d565b9150509250929050565b6103c88161034e565b82525050565b5f6020820190506103e15f8301846103bf565b92915050565b5f819050919050565b6103f9816103e7565b8114610403575f80fd5b50565b5f81359050610414816103f0565b92915050565b5f6020828403121561042f5761042e61034a565b5b5f61043c84828501610406565b91505092915050565b5f73ffffffffffffffffffffffffffffffffffffffff82169050919050565b5f61046e82610445565b9050919050565b61047e81610464565b82525050565b5f6020820190506104975f830184610475565b92915050565b7f4e487b71000000000000000000000000000000000000000000000000000000005f52601160045260245ffd5b5f6104d48261034e565b91506104df8361034e565b925082820390508181125f8412168282135f8512151617156105045761050361049d565b5b92915050565b5f6105148261034e565b915061051f8361034e565b925082820261052d8161034e565b91507f800000000000000000000000000000000000000000000000000000000000000084145f841216156105645761056361049d565b5b82820584148315176105795761057861049d565b5b5092915050565b5f61058a8261034e565b91506105958361034e565b92508282019050828112155f8312168382125f8412151617156105bb576105ba61049d565b5b92915050565b7f4e487b71000000000000000000000000000000000000000000000000000000005f52601260045260245ffd5b5f6105f88261034e565b91506106038361034e565b925082610613576106126105c1565b5b60015f0383147f80000000000000000000000000000000000000000000000000000000000000008314161561064b5761064a61049d565b5b82820590509291505056fea26469706673582212209223300acd03017676a933ffbd7f480ba256b01af4cb5a6df72e1337ebb1fec664736f6c634300081a0033",
					"opcodes": "PUSH1 0x80 PUSH1 0x40 MSTORE CALLVALUE DUP1 ISZERO PUSH1 0xE JUMPI PUSH0 DUP1 REVERT JUMPDEST POP PUSH2 0x68C DUP1 PUSH2 0x1C PUSH0 CODECOPY PUSH0 RETURN INVALID PUSH1 0x80 PUSH1 0x40 MSTORE CALLVALUE DUP1 ISZERO PUSH2 0xF JUMPI PUSH0 DUP1 REVERT JUMPDEST POP PUSH1 0x4 CALLDATASIZE LT PUSH2 0x86 JUMPI PUSH0 CALLDATALOAD PUSH1 0xE0 SHR DUP1 PUSH4 0xC48C23A0 GT PUSH2 0x59 JUMPI DUP1 PUSH4 0xC48C23A0 EQ PUSH2 0xFE JUMPI DUP1 PUSH4 0xCCF65503 EQ PUSH2 0x12E JUMPI DUP1 PUSH4 0xD3650FB8 EQ PUSH2 0x15E JUMPI DUP1 PUSH4 0xF5984236 EQ PUSH2 0x18E JUMPI PUSH2 0x86 JUMP JUMPDEST DUP1 PUSH4 0x12424E3F EQ PUSH2 0x8A JUMPI DUP1 PUSH4 0x1858C77D EQ PUSH2 0x94 JUMPI DUP1 PUSH4 0x4DC415DE EQ PUSH2 0xC4 JUMPI DUP1 PUSH4 0x607BAD95 EQ PUSH2 0xCE JUMPI JUMPDEST PUSH0 DUP1 REVERT JUMPDEST PUSH2 0x92 PUSH2 0x1BE JUMP JUMPDEST STOP JUMPDEST PUSH2 0xAE PUSH1 0x4 DUP1 CALLDATASIZE SUB DUP2 ADD SWAP1 PUSH2 0xA9 SWAP2 SWAP1 PUSH2 0x381 JUMP JUMPDEST PUSH2 0x21F JUMP JUMPDEST PUSH1 0x40 MLOAD PUSH2 0xBB SWAP2 SWAP1 PUSH2 0x3CE JUMP JUMPDEST PUSH1 0x40 MLOAD DUP1 SWAP2 SUB SWAP1 RETURN JUMPDEST PUSH2 0xCC PUSH2 0x234 JUMP JUMPDEST STOP JUMPDEST PUSH2 0xE8 PUSH1 0x4 DUP1 CALLDATASIZE SUB DUP2 ADD SWAP1 PUSH2 0xE3 SWAP2 SWAP1 PUSH2 0x41A JUMP JUMPDEST PUSH2 0x296 JUMP JUMPDEST PUSH1 0x40 MLOAD PUSH2 0xF5 SWAP2 SWAP1 PUSH2 0x484 JUMP JUMPDEST PUSH1 0x40 MLOAD DUP1 SWAP2 SUB SWAP1 RETURN JUMPDEST PUSH2 0x118 PUSH1 0x4 DUP1 CALLDATASIZE SUB DUP2 ADD SWAP1 PUSH2 0x113 SWAP2 SWAP1 PUSH2 0x381 JUMP JUMPDEST PUSH2 0x2D1 JUMP JUMPDEST PUSH1 0x40 MLOAD PUSH2 0x125 SWAP2 SWAP1 PUSH2 0x3CE JUMP JUMPDEST PUSH1 0x40 MLOAD DUP1 SWAP2 SUB SWAP1 RETURN JUMPDEST PUSH2 0x148 PUSH1 0x4 DUP1 CALLDATASIZE SUB DUP2 ADD SWAP1 PUSH2 0x143 SWAP2 SWAP1 PUSH2 0x381 JUMP JUMPDEST PUSH2 0x2E6 JUMP JUMPDEST PUSH1 0x40 MLOAD PUSH2 0x155 SWAP2 SWAP1 PUSH2 0x3CE JUMP JUMPDEST PUSH1 0x40 MLOAD DUP1 SWAP2 SUB SWAP1 RETURN JUMPDEST PUSH2 0x178 PUSH1 0x4 DUP1 CALLDATASIZE SUB DUP2 ADD SWAP1 PUSH2 0x173 SWAP2 SWAP1 PUSH2 0x41A JUMP JUMPDEST PUSH2 0x2FB JUMP JUMPDEST PUSH1 0x40 MLOAD PUSH2 0x185 SWAP2 SWAP1 PUSH2 0x484 JUMP JUMPDEST PUSH1 0x40 MLOAD DUP1 SWAP2 SUB SWAP1 RETURN JUMPDEST PUSH2 0x1A8 PUSH1 0x4 DUP1 CALLDATASIZE SUB DUP2 ADD SWAP1 PUSH2 0x1A3 SWAP2 SWAP1 PUSH2 0x381 JUMP JUMPDEST PUSH2 0x335 JUMP JUMPDEST PUSH1 0x40 MLOAD PUSH2 0x1B5 SWAP2 SWAP1 PUSH2 0x3CE JUMP JUMPDEST PUSH1 0x40 MLOAD DUP1 SWAP2 SUB SWAP1 RETURN JUMPDEST PUSH0 CALLER SWAP1 DUP1 PUSH1 0x1 DUP2 SLOAD ADD DUP1 DUP3 SSTORE DUP1 SWAP2 POP POP PUSH1 0x1 SWAP1 SUB SWAP1 PUSH0 MSTORE PUSH1 0x20 PUSH0 KECCAK256 ADD PUSH0 SWAP1 SWAP2 SWAP1 SWAP2 SWAP1 SWAP2 PUSH2 0x100 EXP DUP2 SLOAD DUP2 PUSH20 0xFFFFFFFFFFFFFFFFFFFFFFFFFFFFFFFFFFFFFFFF MUL NOT AND SWAP1 DUP4 PUSH20 0xFFFFFFFFFFFFFFFFFFFFFFFFFFFFFFFFFFFFFFFF AND MUL OR SWAP1 SSTORE POP JUMP JUMPDEST PUSH0 DUP2 DUP4 PUSH2 0x22C SWAP2 SWAP1 PUSH2 0x4CA JUMP JUMPDEST SWAP1 POP SWAP3 SWAP2 POP POP JUMP JUMPDEST PUSH1 0x1 CALLER SWAP1 DUP1 PUSH1 0x1 DUP2 SLOAD ADD DUP1 DUP3 SSTORE DUP1 SWAP2 POP POP PUSH1 0x1 SWAP1 SUB SWAP1 PUSH0 MSTORE PUSH1 0x20 PUSH0 KECCAK256 ADD PUSH0 SWAP1 SWAP2 SWAP1 SWAP2 SWAP1 SWAP2 PUSH2 0x100 EXP DUP2 SLOAD DUP2 PUSH20 0xFFFFFFFFFFFFFFFFFFFFFFFFFFFFFFFFFFFFFFFF MUL NOT AND SWAP1 DUP4 PUSH20 0xFFFFFFFFFFFFFFFFFFFFFFFFFFFFFFFFFFFFFFFF AND MUL OR SWAP1 SSTORE POP JUMP JUMPDEST PUSH1 0x1 DUP2 DUP2 SLOAD DUP2 LT PUSH2 0x2A5 JUMPI PUSH0 DUP1 REVERT JUMPDEST SWAP1 PUSH0 MSTORE PUSH1 0x20 PUSH0 KECCAK256 ADD PUSH0 SWAP2 POP SLOAD SWAP1 PUSH2 0x100 EXP SWAP1 DIV PUSH20 0xFFFFFFFFFFFFFFFFFFFFFFFFFFFFFFFFFFFFFFFF AND DUP2 JUMP JUMPDEST PUSH0 DUP2 DUP4 PUSH2 0x2DE SWAP2 SWAP1 PUSH2 0x50A JUMP JUMPDEST SWAP1 POP SWAP3 SWAP2 POP POP JUMP JUMPDEST PUSH0 DUP2 DUP4 PUSH2 0x2F3 SWAP2 SWAP1 PUSH2 0x580 JUMP JUMPDEST SWAP1 POP SWAP3 SWAP2 POP POP JUMP JUMPDEST PUSH0 DUP2 DUP2 SLOAD DUP2 LT PUSH2 0x309 JUMPI PUSH0 DUP1 REVERT JUMPDEST SWAP1 PUSH0 MSTORE PUSH1 0x20 PUSH0 KECCAK256 ADD PUSH0 SWAP2 POP SLOAD SWAP1 PUSH2 0x100 EXP SWAP1 DIV PUSH20 0xFFFFFFFFFFFFFFFFFFFFFFFFFFFFFFFFFFFFFFFF AND DUP2 JUMP JUMPDEST PUSH0 DUP2 DUP4 PUSH2 0x342 SWAP2 SWAP1 PUSH2 0x5EE JUMP JUMPDEST SWAP1 POP SWAP3 SWAP2 POP POP JUMP JUMPDEST PUSH0 DUP1 REVERT JUMPDEST PUSH0 DUP2 SWAP1 POP SWAP2 SWAP1 POP JUMP JUMPDEST PUSH2 0x360 DUP2 PUSH2 0x34E JUMP JUMPDEST DUP2 EQ PUSH2 0x36A JUMPI PUSH0 DUP1 REVERT JUMPDEST POP JUMP JUMPDEST PUSH0 DUP2 CALLDATALOAD SWAP1 POP PUSH2 0x37B DUP2 PUSH2 0x357 JUMP JUMPDEST SWAP3 SWAP2 POP POP JUMP JUMPDEST PUSH0 DUP1 PUSH1 0x40 DUP4 DUP6 SUB SLT ISZERO PUSH2 0x397 JUMPI PUSH2 0x396 PUSH2 0x34A JUMP JUMPDEST JUMPDEST PUSH0 PUSH2 0x3A4 DUP6 DUP3 DUP7 ADD PUSH2 0x36D JUMP JUMPDEST SWAP3 POP POP PUSH1 0x20 PUSH2 0x3B5 DUP6 DUP3 DUP7 ADD PUSH2 0x36D JUMP JUMPDEST SWAP2 POP POP SWAP3 POP SWAP3 SWAP1 POP JUMP JUMPDEST PUSH2 0x3C8 DUP2 PUSH2 0x34E JUMP JUMPDEST DUP3 MSTORE POP POP JUMP JUMPDEST PUSH0 PUSH1 0x20 DUP3 ADD SWAP1 POP PUSH2 0x3E1 PUSH0 DUP4 ADD DUP5 PUSH2 0x3BF JUMP JUMPDEST SWAP3 SWAP2 POP POP JUMP JUMPDEST PUSH0 DUP2 SWAP1 POP SWAP2 SWAP1 POP JUMP JUMPDEST PUSH2 0x3F9 DUP2 PUSH2 0x3E7 JUMP JUMPDEST DUP2 EQ PUSH2 0x403 JUMPI PUSH0 DUP1 REVERT JUMPDEST POP JUMP JUMPDEST PUSH0 DUP2 CALLDATALOAD SWAP1 POP PUSH2 0x414 DUP2 PUSH2 0x3F0 JUMP JUMPDEST SWAP3 SWAP2 POP POP JUMP JUMPDEST PUSH0 PUSH1 0x20 DUP3 DUP5 SUB SLT ISZERO PUSH2 0x42F JUMPI PUSH2 0x42E PUSH2 0x34A JUMP JUMPDEST JUMPDEST PUSH0 PUSH2 0x43C DUP5 DUP3 DUP6 ADD PUSH2 0x406 JUMP JUMPDEST SWAP2 POP POP SWAP3 SWAP2 POP POP JUMP JUMPDEST PUSH0 PUSH20 0xFFFFFFFFFFFFFFFFFFFFFFFFFFFFFFFFFFFFFFFF DUP3 AND SWAP1 POP SWAP2 SWAP1 POP JUMP JUMPDEST PUSH0 PUSH2 0x46E DUP3 PUSH2 0x445 JUMP JUMPDEST SWAP1 POP SWAP2 SWAP1 POP JUMP JUMPDEST PUSH2 0x47E DUP2 PUSH2 0x464 JUMP JUMPDEST DUP3 MSTORE POP POP JUMP JUMPDEST PUSH0 PUSH1 0x20 DUP3 ADD SWAP1 POP PUSH2 0x497 PUSH0 DUP4 ADD DUP5 PUSH2 0x475 JUMP JUMPDEST SWAP3 SWAP2 POP POP JUMP JUMPDEST PUSH32 0x4E487B7100000000000000000000000000000000000000000000000000000000 PUSH0 MSTORE PUSH1 0x11 PUSH1 0x4 MSTORE PUSH1 0x24 PUSH0 REVERT JUMPDEST PUSH0 PUSH2 0x4D4 DUP3 PUSH2 0x34E JUMP JUMPDEST SWAP2 POP PUSH2 0x4DF DUP4 PUSH2 0x34E JUMP JUMPDEST SWAP3 POP DUP3 DUP3 SUB SWAP1 POP DUP2 DUP2 SLT PUSH0 DUP5 SLT AND DUP3 DUP3 SGT PUSH0 DUP6 SLT ISZERO AND OR ISZERO PUSH2 0x504 JUMPI PUSH2 0x503 PUSH2 0x49D JUMP JUMPDEST JUMPDEST SWAP3 SWAP2 POP POP JUMP JUMPDEST PUSH0 PUSH2 0x514 DUP3 PUSH2 0x34E JUMP JUMPDEST SWAP2 POP PUSH2 0x51F DUP4 PUSH2 0x34E JUMP JUMPDEST SWAP3 POP DUP3 DUP3 MUL PUSH2 0x52D DUP2 PUSH2 0x34E JUMP JUMPDEST SWAP2 POP PUSH32 0x8000000000000000000000000000000000000000000000000000000000000000 DUP5 EQ PUSH0 DUP5 SLT AND ISZERO PUSH2 0x564 JUMPI PUSH2 0x563 PUSH2 0x49D JUMP JUMPDEST JUMPDEST DUP3 DUP3 SDIV DUP5 EQ DUP4 ISZERO OR PUSH2 0x579 JUMPI PUSH2 0x578 PUSH2 0x49D JUMP JUMPDEST JUMPDEST POP SWAP3 SWAP2 POP POP JUMP JUMPDEST PUSH0 PUSH2 0x58A DUP3 PUSH2 0x34E JUMP JUMPDEST SWAP2 POP PUSH2 0x595 DUP4 PUSH2 0x34E JUMP JUMPDEST SWAP3 POP DUP3 DUP3 ADD SWAP1 POP DUP3 DUP2 SLT ISZERO PUSH0 DUP4 SLT AND DUP4 DUP3 SLT PUSH0 DUP5 SLT ISZERO AND OR ISZERO PUSH2 0x5BB JUMPI PUSH2 0x5BA PUSH2 0x49D JUMP JUMPDEST JUMPDEST SWAP3 SWAP2 POP POP JUMP JUMPDEST PUSH32 0x4E487B7100000000000000000000000000000000000000000000000000000000 PUSH0 MSTORE PUSH1 0x12 PUSH1 0x4 MSTORE PUSH1 0x24 PUSH0 REVERT JUMPDEST PUSH0 PUSH2 0x5F8 DUP3 PUSH2 0x34E JUMP JUMPDEST SWAP2 POP PUSH2 0x603 DUP4 PUSH2 0x34E JUMP JUMPDEST SWAP3 POP DUP3 PUSH2 0x613 JUMPI PUSH2 0x612 PUSH2 0x5C1 JUMP JUMPDEST JUMPDEST PUSH1 0x1 PUSH0 SUB DUP4 EQ PUSH32 0x8000000000000000000000000000000000000000000000000000000000000000 DUP4 EQ AND ISZERO PUSH2 0x64B JUMPI PUSH2 0x64A PUSH2 0x49D JUMP JUMPDEST JUMPDEST DUP3 DUP3 SDIV SWAP1 POP SWAP3 SWAP2 POP POP JUMP INVALID LOG2 PUSH5 0x6970667358 0x22 SLT KECCAK256 SWAP3 0x23 ADDRESS EXP 0xCD SUB ADD PUSH23 0x76A933FFBD7F480BA256B01AF4CB5A6DF72E1337EBB1FE 0xC6 PUSH5 0x736F6C6343 STOP ADDMOD BYTE STOP CALLER "
				},
				"gasEstimates": {
					"creation": {
						"codeDepositCost": "335200",
						"executionCost": "372",
						"totalCost": "335572"
					},
					"external": {
						"approve()": "48718",
						"approvers(uint256)": "4987",
						"divide(int256,int256)": "infinite",
						"minus(int256,int256)": "infinite",
						"mult(int256,int256)": "infinite",
						"plus(int256,int256)": "infinite",
						"reject()": "48763",
						"rejecters(uint256)": "5011"
					}
				},
				"methodIdentifiers": {
					"approve()": "12424e3f",
					"approvers(uint256)": "d3650fb8",
					"divide(int256,int256)": "f5984236",
					"minus(int256,int256)": "1858c77d",
					"mult(int256,int256)": "c48c23a0",
					"plus(int256,int256)": "ccf65503",
					"reject()": "4dc415de",
					"rejecters(uint256)": "607bad95"
				}
			},
			"storageLayout": {
				"storage": [
					{
						"astId": 4,
						"contract": "work/home/1st.sol:VoteCalc",
						"label": "approvers",
						"offset": 0,
						"slot": "0",
						"type": "t_array(t_address)dyn_storage"
					},
					{
						"astId": 7,
						"contract": "work/home/1st.sol:VoteCalc",
						"label": "rejecters",
						"offset": 0,
						"slot": "1",
						"type": "t_array(t_address)dyn_storage"
					}
				],
				"types": {
					"t_address": {
						"encoding": "inplace",
						"label": "address",
						"numberOfBytes": "20"
					},
					"t_array(t_address)dyn_storage": {
						"base": "t_address",
						"encoding": "dynamic_array",
						"label": "address[]",
						"numberOfBytes": "32"
					}
				}
			},
			"userdoc": {
				"kind": "user",
				"methods": {},
				"version": 1
			}
		}
	}
}