{
	"work/home/3rd.sol": {
		"Cargo": {
			"abi": [
				{
					"inputs": [],
					"name": "bought",
					"outputs": [
						{
							"internalType": "bool",
							"name": "",
							"type": "bool"
						}
					],
					"stateMutability": "nonpayable",
					"type": "function"
				},
				{
					"inputs": [],
					"name": "canceled",
					"outputs": [
						{
							"internalType": "bool",
							"name": "",
							"type": "bool"
						}
					],
					"stateMutability": "nonpayable",
					"type": "function"
				},
				{
					"inputs": [],
					"name": "currentStatus",
					"outputs": [
						{
							"internalType": "enum Cargo.Status",
							"name": "",
							"type": "uint8"
						}
					],
					"stateMutability": "view",
					"type": "function"
				},
				{
					"inputs": [],
					"name": "failure",
					"outputs": [
						{
							"internalType": "bool",
							"name": "",
							"type": "bool"
						}
					],
					"stateMutability": "nonpayable",
					"type": "function"
				},
				{
					"inputs": [],
					"name": "inStorage",
					"outputs": [
						{
							"internalType": "bool",
							"name": "",
							"type": "bool"
						}
					],
					"stateMutability": "nonpayable",
					"type": "function"
				},
				{
					"inputs": [],
					"name": "none",
					"outputs": [
						{
							"internalType": "bool",
							"name": "",
							"type": "bool"
						}
					],
					"stateMutability": "nonpayable",
					"type": "function"
				},
				{
					"inputs": [],
					"name": "shipping",
					"outputs": [
						{
							"internalType": "bool",
							"name": "",
							"type": "bool"
						}
					],
					"stateMutability": "nonpayable",
					"type": "function"
				},
				{
					"inputs": [],
					"name": "success",
					"outputs": [
						{
							"internalType": "bool",
							"name": "",
							"type": "bool"
						}
					],
					"stateMutability": "nonpayable",
					"type": "function"
				}
			],
			"devdoc": {
				"kind": "dev",
				"methods": {},
				"version": 1
			},
			"evm": {
				"assembly": "    /* \"work/home/3rd.sol\":1025:2738  contract Cargo{... */\n  mstore(0x40, 0x80)\n  callvalue\n  dup1\n  iszero\n  tag_1\n  jumpi\n  0x00\n  dup1\n  revert\ntag_1:\n  pop\n  dataSize(sub_0)\n  dup1\n  dataOffset(sub_0)\n  0x00\n  codecopy\n  0x00\n  return\nstop\n\nsub_0: assembly {\n        /* \"work/home/3rd.sol\":1025:2738  contract Cargo{... */\n      mstore(0x40, 0x80)\n      callvalue\n      dup1\n      iszero\n      tag_1\n      jumpi\n      0x00\n      dup1\n      revert\n    tag_1:\n      pop\n      jumpi(tag_2, lt(calldatasize, 0x04))\n      shr(0xe0, calldataload(0x00))\n      dup1\n      0x76ffb887\n      gt\n      tag_11\n      jumpi\n      dup1\n      0x76ffb887\n      eq\n      tag_7\n      jumpi\n      dup1\n      0xa877db9f\n      eq\n      tag_8\n      jumpi\n      dup1\n      0xbd2f6a94\n      eq\n      tag_9\n      jumpi\n      dup1\n      0xef8a9235\n      eq\n      tag_10\n      jumpi\n      jump(tag_2)\n    tag_11:\n      dup1\n      0x0b93381b\n      eq\n      tag_3\n      jumpi\n      dup1\n      0x34976b9b\n      eq\n      tag_4\n      jumpi\n      dup1\n      0x39726b6c\n      eq\n      tag_5\n      jumpi\n      dup1\n      0x3f9942ff\n      eq\n      tag_6\n      jumpi\n    tag_2:\n      0x00\n      dup1\n      revert\n        /* \"work/home/3rd.sol\":2332:2531  function success() external returns (bool) {... */\n    tag_3:\n      tag_12\n      tag_13\n      jump\t// in\n    tag_12:\n      mload(0x40)\n      tag_14\n      swap2\n      swap1\n      tag_15\n      jump\t// in\n    tag_14:\n      mload(0x40)\n      dup1\n      swap2\n      sub\n      swap1\n      return\n        /* \"work/home/3rd.sol\":2130:2326  function bought() external returns (bool) {... */\n    tag_4:\n      tag_16\n      tag_17\n      jump\t// in\n    tag_16:\n      mload(0x40)\n      tag_18\n      swap2\n      swap1\n      tag_15\n      jump\t// in\n    tag_18:\n      mload(0x40)\n      dup1\n      swap2\n      sub\n      swap1\n      return\n        /* \"work/home/3rd.sol\":1454:1687  function inStorage() external returns (bool) {... */\n    tag_5:\n      tag_19\n      tag_20\n      jump\t// in\n    tag_19:\n      mload(0x40)\n      tag_21\n      swap2\n      swap1\n      tag_15\n      jump\t// in\n    tag_21:\n      mload(0x40)\n      dup1\n      swap2\n      sub\n      swap1\n      return\n        /* \"work/home/3rd.sol\":1220:1448  function canceled() external returns (bool) {... */\n    tag_6:\n      tag_22\n      tag_23\n      jump\t// in\n    tag_22:\n      mload(0x40)\n      tag_24\n      swap2\n      swap1\n      tag_15\n      jump\t// in\n    tag_24:\n      mload(0x40)\n      dup1\n      swap2\n      sub\n      swap1\n      return\n        /* \"work/home/3rd.sol\":2537:2736  function failure() external returns (bool) {... */\n    tag_7:\n      tag_25\n      tag_26\n      jump\t// in\n    tag_25:\n      mload(0x40)\n      tag_27\n      swap2\n      swap1\n      tag_15\n      jump\t// in\n    tag_27:\n      mload(0x40)\n      dup1\n      swap2\n      sub\n      swap1\n      return\n        /* \"work/home/3rd.sol\":1693:1919  function none() external returns (bool) {... */\n    tag_8:\n      tag_28\n      tag_29\n      jump\t// in\n    tag_28:\n      mload(0x40)\n      tag_30\n      swap2\n      swap1\n      tag_15\n      jump\t// in\n    tag_30:\n      mload(0x40)\n      dup1\n      swap2\n      sub\n      swap1\n      return\n        /* \"work/home/3rd.sol\":1925:2124  function shipping() external returns (bool) {... */\n    tag_9:\n      tag_31\n      tag_32\n      jump\t// in\n    tag_31:\n      mload(0x40)\n      tag_33\n      swap2\n      swap1\n      tag_15\n      jump\t// in\n    tag_33:\n      mload(0x40)\n      dup1\n      swap2\n      sub\n      swap1\n      return\n        /* \"work/home/3rd.sol\":1186:1213  Status public currentStatus */\n    tag_10:\n      tag_34\n      tag_35\n      jump\t// in\n    tag_34:\n      mload(0x40)\n      tag_36\n      swap2\n      swap1\n      tag_37\n      jump\t// in\n    tag_36:\n      mload(0x40)\n      dup1\n      swap2\n      sub\n      swap1\n      return\n        /* \"work/home/3rd.sol\":2332:2531  function success() external returns (bool) {... */\n    tag_13:\n        /* \"work/home/3rd.sol\":2369:2373  bool */\n      0x00\n        /* \"work/home/3rd.sol\":2406:2421  Status.Shipping */\n      0x04\n        /* \"work/home/3rd.sol\":2389:2421  currentStatus == Status.Shipping */\n      0x06\n      dup2\n      gt\n      iszero\n      tag_39\n      jumpi\n      tag_40\n      tag_41\n      jump\t// in\n    tag_40:\n    tag_39:\n        /* \"work/home/3rd.sol\":2389:2402  currentStatus */\n      0x00\n      dup1\n      sload\n      swap1\n      0x0100\n      exp\n      swap1\n      div\n      0xff\n      and\n        /* \"work/home/3rd.sol\":2389:2421  currentStatus == Status.Shipping */\n      0x06\n      dup2\n      gt\n      iszero\n      tag_42\n      jumpi\n      tag_43\n      tag_41\n      jump\t// in\n    tag_43:\n    tag_42:\n      sub\n        /* \"work/home/3rd.sol\":2385:2503  if (currentStatus == Status.Shipping) {... */\n      tag_44\n      jumpi\n        /* \"work/home/3rd.sol\":2453:2467  Status.Success */\n      0x05\n        /* \"work/home/3rd.sol\":2437:2450  currentStatus */\n      0x00\n      dup1\n        /* \"work/home/3rd.sol\":2437:2467  currentStatus = Status.Success */\n      0x0100\n      exp\n      dup2\n      sload\n      dup2\n      0xff\n      mul\n      not\n      and\n      swap1\n      dup4\n      0x06\n      dup2\n      gt\n      iszero\n      tag_45\n      jumpi\n      tag_46\n      tag_41\n      jump\t// in\n    tag_46:\n    tag_45:\n      mul\n      or\n      swap1\n      sstore\n      pop\n        /* \"work/home/3rd.sol\":2488:2492  true */\n      0x01\n        /* \"work/home/3rd.sol\":2481:2492  return true */\n      swap1\n      pop\n      jump(tag_38)\n        /* \"work/home/3rd.sol\":2385:2503  if (currentStatus == Status.Shipping) {... */\n    tag_44:\n        /* \"work/home/3rd.sol\":2519:2524  false */\n      0x00\n        /* \"work/home/3rd.sol\":2512:2524  return false */\n      swap1\n      pop\n        /* \"work/home/3rd.sol\":2332:2531  function success() external returns (bool) {... */\n    tag_38:\n      swap1\n      jump\t// out\n        /* \"work/home/3rd.sol\":2130:2326  function bought() external returns (bool) {... */\n    tag_17:\n        /* \"work/home/3rd.sol\":2166:2170  bool */\n      0x00\n        /* \"work/home/3rd.sol\":2203:2217  Status.Storage */\n      0x01\n        /* \"work/home/3rd.sol\":2186:2217  currentStatus == Status.Storage */\n      0x06\n      dup2\n      gt\n      iszero\n      tag_48\n      jumpi\n      tag_49\n      tag_41\n      jump\t// in\n    tag_49:\n    tag_48:\n        /* \"work/home/3rd.sol\":2186:2199  currentStatus */\n      0x00\n      dup1\n      sload\n      swap1\n      0x0100\n      exp\n      swap1\n      div\n      0xff\n      and\n        /* \"work/home/3rd.sol\":2186:2217  currentStatus == Status.Storage */\n      0x06\n      dup2\n      gt\n      iszero\n      tag_50\n      jumpi\n      tag_51\n      tag_41\n      jump\t// in\n    tag_51:\n    tag_50:\n      sub\n        /* \"work/home/3rd.sol\":2182:2298  if (currentStatus == Status.Storage) {... */\n      tag_52\n      jumpi\n        /* \"work/home/3rd.sol\":2249:2262  Status.Bought */\n      0x02\n        /* \"work/home/3rd.sol\":2233:2246  currentStatus */\n      0x00\n      dup1\n        /* \"work/home/3rd.sol\":2233:2262  currentStatus = Status.Bought */\n      0x0100\n      exp\n      dup2\n      sload\n      dup2\n      0xff\n      mul\n      not\n      and\n      swap1\n      dup4\n      0x06\n      dup2\n      gt\n      iszero\n      tag_53\n      jumpi\n      tag_54\n      tag_41\n      jump\t// in\n    tag_54:\n    tag_53:\n      mul\n      or\n      swap1\n      sstore\n      pop\n        /* \"work/home/3rd.sol\":2283:2287  true */\n      0x01\n        /* \"work/home/3rd.sol\":2276:2287  return true */\n      swap1\n      pop\n      jump(tag_47)\n        /* \"work/home/3rd.sol\":2182:2298  if (currentStatus == Status.Storage) {... */\n    tag_52:\n        /* \"work/home/3rd.sol\":2314:2319  false */\n      0x00\n        /* \"work/home/3rd.sol\":2307:2319  return false */\n      swap1\n      pop\n        /* \"work/home/3rd.sol\":2130:2326  function bought() external returns (bool) {... */\n    tag_47:\n      swap1\n      jump\t// out\n        /* \"work/home/3rd.sol\":1454:1687  function inStorage() external returns (bool) {... */\n    tag_20:\n        /* \"work/home/3rd.sol\":1493:1497  bool */\n      0x00\n        /* \"work/home/3rd.sol\":1530:1541  Status.None */\n      dup1\n        /* \"work/home/3rd.sol\":1513:1541  currentStatus == Status.None */\n      0x06\n      dup2\n      gt\n      iszero\n      tag_56\n      jumpi\n      tag_57\n      tag_41\n      jump\t// in\n    tag_57:\n    tag_56:\n        /* \"work/home/3rd.sol\":1513:1526  currentStatus */\n      0x00\n      dup1\n      sload\n      swap1\n      0x0100\n      exp\n      swap1\n      div\n      0xff\n      and\n        /* \"work/home/3rd.sol\":1513:1541  currentStatus == Status.None */\n      0x06\n      dup2\n      gt\n      iszero\n      tag_58\n      jumpi\n      tag_59\n      tag_41\n      jump\t// in\n    tag_59:\n    tag_58:\n      eq\n        /* \"work/home/3rd.sol\":1513:1577  currentStatus == Status.None || currentStatus == Status.Canceled */\n      dup1\n      tag_60\n      jumpi\n      pop\n        /* \"work/home/3rd.sol\":1562:1577  Status.Canceled */\n      0x03\n        /* \"work/home/3rd.sol\":1545:1577  currentStatus == Status.Canceled */\n      0x06\n      dup2\n      gt\n      iszero\n      tag_61\n      jumpi\n      tag_62\n      tag_41\n      jump\t// in\n    tag_62:\n    tag_61:\n        /* \"work/home/3rd.sol\":1545:1558  currentStatus */\n      0x00\n      dup1\n      sload\n      swap1\n      0x0100\n      exp\n      swap1\n      div\n      0xff\n      and\n        /* \"work/home/3rd.sol\":1545:1577  currentStatus == Status.Canceled */\n      0x06\n      dup2\n      gt\n      iszero\n      tag_63\n      jumpi\n      tag_64\n      tag_41\n      jump\t// in\n    tag_64:\n    tag_63:\n      eq\n        /* \"work/home/3rd.sol\":1513:1577  currentStatus == Status.None || currentStatus == Status.Canceled */\n    tag_60:\n        /* \"work/home/3rd.sol\":1509:1659  if (currentStatus == Status.None || currentStatus == Status.Canceled) {... */\n      iszero\n      tag_65\n      jumpi\n        /* \"work/home/3rd.sol\":1609:1623  Status.Storage */\n      0x01\n        /* \"work/home/3rd.sol\":1593:1606  currentStatus */\n      0x00\n      dup1\n        /* \"work/home/3rd.sol\":1593:1623  currentStatus = Status.Storage */\n      0x0100\n      exp\n      dup2\n      sload\n      dup2\n      0xff\n      mul\n      not\n      and\n      swap1\n      dup4\n      0x06\n      dup2\n      gt\n      iszero\n      tag_66\n      jumpi\n      tag_67\n      tag_41\n      jump\t// in\n    tag_67:\n    tag_66:\n      mul\n      or\n      swap1\n      sstore\n      pop\n        /* \"work/home/3rd.sol\":1644:1648  true */\n      0x01\n        /* \"work/home/3rd.sol\":1637:1648  return true */\n      swap1\n      pop\n      jump(tag_55)\n        /* \"work/home/3rd.sol\":1509:1659  if (currentStatus == Status.None || currentStatus == Status.Canceled) {... */\n    tag_65:\n        /* \"work/home/3rd.sol\":1675:1680  false */\n      0x00\n        /* \"work/home/3rd.sol\":1668:1680  return false */\n      swap1\n      pop\n        /* \"work/home/3rd.sol\":1454:1687  function inStorage() external returns (bool) {... */\n    tag_55:\n      swap1\n      jump\t// out\n        /* \"work/home/3rd.sol\":1220:1448  function canceled() external returns (bool) {... */\n    tag_23:\n        /* \"work/home/3rd.sol\":1258:1262  bool */\n      0x00\n        /* \"work/home/3rd.sol\":1295:1306  Status.None */\n      dup1\n        /* \"work/home/3rd.sol\":1278:1306  currentStatus == Status.None */\n      0x06\n      dup2\n      gt\n      iszero\n      tag_69\n      jumpi\n      tag_70\n      tag_41\n      jump\t// in\n    tag_70:\n    tag_69:\n        /* \"work/home/3rd.sol\":1278:1291  currentStatus */\n      0x00\n      dup1\n      sload\n      swap1\n      0x0100\n      exp\n      swap1\n      div\n      0xff\n      and\n        /* \"work/home/3rd.sol\":1278:1306  currentStatus == Status.None */\n      0x06\n      dup2\n      gt\n      iszero\n      tag_71\n      jumpi\n      tag_72\n      tag_41\n      jump\t// in\n    tag_72:\n    tag_71:\n      eq\n        /* \"work/home/3rd.sol\":1278:1341  currentStatus == Status.None || currentStatus == Status.Storage */\n      dup1\n      tag_73\n      jumpi\n      pop\n        /* \"work/home/3rd.sol\":1327:1341  Status.Storage */\n      0x01\n        /* \"work/home/3rd.sol\":1310:1341  currentStatus == Status.Storage */\n      0x06\n      dup2\n      gt\n      iszero\n      tag_74\n      jumpi\n      tag_75\n      tag_41\n      jump\t// in\n    tag_75:\n    tag_74:\n        /* \"work/home/3rd.sol\":1310:1323  currentStatus */\n      0x00\n      dup1\n      sload\n      swap1\n      0x0100\n      exp\n      swap1\n      div\n      0xff\n      and\n        /* \"work/home/3rd.sol\":1310:1341  currentStatus == Status.Storage */\n      0x06\n      dup2\n      gt\n      iszero\n      tag_76\n      jumpi\n      tag_77\n      tag_41\n      jump\t// in\n    tag_77:\n    tag_76:\n      eq\n        /* \"work/home/3rd.sol\":1278:1341  currentStatus == Status.None || currentStatus == Status.Storage */\n    tag_73:\n        /* \"work/home/3rd.sol\":1274:1380  if (currentStatus == Status.None || currentStatus == Status.Storage) {... */\n      iszero\n      tag_78\n      jumpi\n        /* \"work/home/3rd.sol\":1364:1369  false */\n      0x00\n        /* \"work/home/3rd.sol\":1357:1369  return false */\n      swap1\n      pop\n      jump(tag_68)\n        /* \"work/home/3rd.sol\":1274:1380  if (currentStatus == Status.None || currentStatus == Status.Storage) {... */\n    tag_78:\n        /* \"work/home/3rd.sol\":1405:1420  Status.Canceled */\n      0x03\n        /* \"work/home/3rd.sol\":1389:1402  currentStatus */\n      0x00\n      dup1\n        /* \"work/home/3rd.sol\":1389:1420  currentStatus = Status.Canceled */\n      0x0100\n      exp\n      dup2\n      sload\n      dup2\n      0xff\n      mul\n      not\n      and\n      swap1\n      dup4\n      0x06\n      dup2\n      gt\n      iszero\n      tag_79\n      jumpi\n      tag_80\n      tag_41\n      jump\t// in\n    tag_80:\n    tag_79:\n      mul\n      or\n      swap1\n      sstore\n      pop\n        /* \"work/home/3rd.sol\":1437:1441  true */\n      0x01\n        /* \"work/home/3rd.sol\":1430:1441  return true */\n      swap1\n      pop\n        /* \"work/home/3rd.sol\":1220:1448  function canceled() external returns (bool) {... */\n    tag_68:\n      swap1\n      jump\t// out\n        /* \"work/home/3rd.sol\":2537:2736  function failure() external returns (bool) {... */\n    tag_26:\n        /* \"work/home/3rd.sol\":2574:2578  bool */\n      0x00\n        /* \"work/home/3rd.sol\":2611:2626  Status.Shipping */\n      0x04\n        /* \"work/home/3rd.sol\":2594:2626  currentStatus == Status.Shipping */\n      0x06\n      dup2\n      gt\n      iszero\n      tag_82\n      jumpi\n      tag_83\n      tag_41\n      jump\t// in\n    tag_83:\n    tag_82:\n        /* \"work/home/3rd.sol\":2594:2607  currentStatus */\n      0x00\n      dup1\n      sload\n      swap1\n      0x0100\n      exp\n      swap1\n      div\n      0xff\n      and\n        /* \"work/home/3rd.sol\":2594:2626  currentStatus == Status.Shipping */\n      0x06\n      dup2\n      gt\n      iszero\n      tag_84\n      jumpi\n      tag_85\n      tag_41\n      jump\t// in\n    tag_85:\n    tag_84:\n      sub\n        /* \"work/home/3rd.sol\":2590:2708  if (currentStatus == Status.Shipping) {... */\n      tag_86\n      jumpi\n        /* \"work/home/3rd.sol\":2658:2672  Status.Failure */\n      0x06\n        /* \"work/home/3rd.sol\":2642:2655  currentStatus */\n      0x00\n      dup1\n        /* \"work/home/3rd.sol\":2642:2672  currentStatus = Status.Failure */\n      0x0100\n      exp\n      dup2\n      sload\n      dup2\n      0xff\n      mul\n      not\n      and\n      swap1\n      dup4\n      0x06\n      dup2\n      gt\n      iszero\n      tag_87\n      jumpi\n      tag_88\n      tag_41\n      jump\t// in\n    tag_88:\n    tag_87:\n      mul\n      or\n      swap1\n      sstore\n      pop\n        /* \"work/home/3rd.sol\":2693:2697  true */\n      0x01\n        /* \"work/home/3rd.sol\":2686:2697  return true */\n      swap1\n      pop\n      jump(tag_81)\n        /* \"work/home/3rd.sol\":2590:2708  if (currentStatus == Status.Shipping) {... */\n    tag_86:\n        /* \"work/home/3rd.sol\":2724:2729  false */\n      0x00\n        /* \"work/home/3rd.sol\":2717:2729  return false */\n      swap1\n      pop\n        /* \"work/home/3rd.sol\":2537:2736  function failure() external returns (bool) {... */\n    tag_81:\n      swap1\n      jump\t// out\n        /* \"work/home/3rd.sol\":1693:1919  function none() external returns (bool) {... */\n    tag_29:\n        /* \"work/home/3rd.sol\":1727:1731  bool */\n      0x00\n        /* \"work/home/3rd.sol\":1764:1777  Status.Bought */\n      0x02\n        /* \"work/home/3rd.sol\":1747:1777  currentStatus == Status.Bought */\n      0x06\n      dup2\n      gt\n      iszero\n      tag_90\n      jumpi\n      tag_91\n      tag_41\n      jump\t// in\n    tag_91:\n    tag_90:\n        /* \"work/home/3rd.sol\":1747:1760  currentStatus */\n      0x00\n      dup1\n      sload\n      swap1\n      0x0100\n      exp\n      swap1\n      div\n      0xff\n      and\n        /* \"work/home/3rd.sol\":1747:1777  currentStatus == Status.Bought */\n      0x06\n      dup2\n      gt\n      iszero\n      tag_92\n      jumpi\n      tag_93\n      tag_41\n      jump\t// in\n    tag_93:\n    tag_92:\n      eq\n        /* \"work/home/3rd.sol\":1747:1812  currentStatus == Status.Bought || currentStatus == Status.Success */\n      dup1\n      tag_94\n      jumpi\n      pop\n        /* \"work/home/3rd.sol\":1798:1812  Status.Success */\n      0x05\n        /* \"work/home/3rd.sol\":1781:1812  currentStatus == Status.Success */\n      0x06\n      dup2\n      gt\n      iszero\n      tag_95\n      jumpi\n      tag_96\n      tag_41\n      jump\t// in\n    tag_96:\n    tag_95:\n        /* \"work/home/3rd.sol\":1781:1794  currentStatus */\n      0x00\n      dup1\n      sload\n      swap1\n      0x0100\n      exp\n      swap1\n      div\n      0xff\n      and\n        /* \"work/home/3rd.sol\":1781:1812  currentStatus == Status.Success */\n      0x06\n      dup2\n      gt\n      iszero\n      tag_97\n      jumpi\n      tag_98\n      tag_41\n      jump\t// in\n    tag_98:\n    tag_97:\n      eq\n        /* \"work/home/3rd.sol\":1747:1812  currentStatus == Status.Bought || currentStatus == Status.Success */\n    tag_94:\n        /* \"work/home/3rd.sol\":1743:1891  if (currentStatus == Status.Bought || currentStatus == Status.Success) {... */\n      iszero\n      tag_99\n      jumpi\n        /* \"work/home/3rd.sol\":1844:1855  Status.None */\n      0x00\n        /* \"work/home/3rd.sol\":1828:1841  currentStatus */\n      dup1\n      0x00\n        /* \"work/home/3rd.sol\":1828:1855  currentStatus = Status.None */\n      0x0100\n      exp\n      dup2\n      sload\n      dup2\n      0xff\n      mul\n      not\n      and\n      swap1\n      dup4\n      0x06\n      dup2\n      gt\n      iszero\n      tag_100\n      jumpi\n      tag_101\n      tag_41\n      jump\t// in\n    tag_101:\n    tag_100:\n      mul\n      or\n      swap1\n      sstore\n      pop\n        /* \"work/home/3rd.sol\":1876:1880  true */\n      0x01\n        /* \"work/home/3rd.sol\":1869:1880  return true */\n      swap1\n      pop\n      jump(tag_89)\n        /* \"work/home/3rd.sol\":1743:1891  if (currentStatus == Status.Bought || currentStatus == Status.Success) {... */\n    tag_99:\n        /* \"work/home/3rd.sol\":1907:1912  false */\n      0x00\n        /* \"work/home/3rd.sol\":1900:1912  return false */\n      swap1\n      pop\n        /* \"work/home/3rd.sol\":1693:1919  function none() external returns (bool) {... */\n    tag_89:\n      swap1\n      jump\t// out\n        /* \"work/home/3rd.sol\":1925:2124  function shipping() external returns (bool) {... */\n    tag_32:\n        /* \"work/home/3rd.sol\":1963:1967  bool */\n      0x00\n        /* \"work/home/3rd.sol\":2000:2013  Status.Bought */\n      0x02\n        /* \"work/home/3rd.sol\":1983:2013  currentStatus == Status.Bought */\n      0x06\n      dup2\n      gt\n      iszero\n      tag_103\n      jumpi\n      tag_104\n      tag_41\n      jump\t// in\n    tag_104:\n    tag_103:\n        /* \"work/home/3rd.sol\":1983:1996  currentStatus */\n      0x00\n      dup1\n      sload\n      swap1\n      0x0100\n      exp\n      swap1\n      div\n      0xff\n      and\n        /* \"work/home/3rd.sol\":1983:2013  currentStatus == Status.Bought */\n      0x06\n      dup2\n      gt\n      iszero\n      tag_105\n      jumpi\n      tag_106\n      tag_41\n      jump\t// in\n    tag_106:\n    tag_105:\n      sub\n        /* \"work/home/3rd.sol\":1979:2096  if (currentStatus == Status.Bought) {... */\n      tag_107\n      jumpi\n        /* \"work/home/3rd.sol\":2045:2060  Status.Shipping */\n      0x04\n        /* \"work/home/3rd.sol\":2029:2042  currentStatus */\n      0x00\n      dup1\n        /* \"work/home/3rd.sol\":2029:2060  currentStatus = Status.Shipping */\n      0x0100\n      exp\n      dup2\n      sload\n      dup2\n      0xff\n      mul\n      not\n      and\n      swap1\n      dup4\n      0x06\n      dup2\n      gt\n      iszero\n      tag_108\n      jumpi\n      tag_109\n      tag_41\n      jump\t// in\n    tag_109:\n    tag_108:\n      mul\n      or\n      swap1\n      sstore\n      pop\n        /* \"work/home/3rd.sol\":2081:2085  true */\n      0x01\n        /* \"work/home/3rd.sol\":2074:2085  return true */\n      swap1\n      pop\n      jump(tag_102)\n        /* \"work/home/3rd.sol\":1979:2096  if (currentStatus == Status.Bought) {... */\n    tag_107:\n        /* \"work/home/3rd.sol\":2112:2117  false */\n      0x00\n        /* \"work/home/3rd.sol\":2105:2117  return false */\n      swap1\n      pop\n        /* \"work/home/3rd.sol\":1925:2124  function shipping() external returns (bool) {... */\n    tag_102:\n      swap1\n      jump\t// out\n        /* \"work/home/3rd.sol\":1186:1213  Status public currentStatus */\n    tag_35:\n      0x00\n      dup1\n      sload\n      swap1\n      0x0100\n      exp\n      swap1\n      div\n      0xff\n      and\n      dup2\n      jump\t// out\n        /* \"#utility.yul\":7:97   */\n    tag_110:\n        /* \"#utility.yul\":41:48   */\n      0x00\n        /* \"#utility.yul\":84:89   */\n      dup2\n        /* \"#utility.yul\":77:90   */\n      iszero\n        /* \"#utility.yul\":70:91   */\n      iszero\n        /* \"#utility.yul\":59:91   */\n      swap1\n      pop\n        /* \"#utility.yul\":7:97   */\n      swap2\n      swap1\n      pop\n      jump\t// out\n        /* \"#utility.yul\":103:212   */\n    tag_111:\n        /* \"#utility.yul\":184:205   */\n      tag_119\n        /* \"#utility.yul\":199:204   */\n      dup2\n        /* \"#utility.yul\":184:205   */\n      tag_110\n      jump\t// in\n    tag_119:\n        /* \"#utility.yul\":179:182   */\n      dup3\n        /* \"#utility.yul\":172:206   */\n      mstore\n        /* \"#utility.yul\":103:212   */\n      pop\n      pop\n      jump\t// out\n        /* \"#utility.yul\":218:428   */\n    tag_15:\n        /* \"#utility.yul\":305:309   */\n      0x00\n        /* \"#utility.yul\":343:345   */\n      0x20\n        /* \"#utility.yul\":332:341   */\n      dup3\n        /* \"#utility.yul\":328:346   */\n      add\n        /* \"#utility.yul\":320:346   */\n      swap1\n      pop\n        /* \"#utility.yul\":356:421   */\n      tag_121\n        /* \"#utility.yul\":418:419   */\n      0x00\n        /* \"#utility.yul\":407:416   */\n      dup4\n        /* \"#utility.yul\":403:420   */\n      add\n        /* \"#utility.yul\":394:400   */\n      dup5\n        /* \"#utility.yul\":356:421   */\n      tag_111\n      jump\t// in\n    tag_121:\n        /* \"#utility.yul\":218:428   */\n      swap3\n      swap2\n      pop\n      pop\n      jump\t// out\n        /* \"#utility.yul\":434:614   */\n    tag_41:\n        /* \"#utility.yul\":482:559   */\n      0x4e487b7100000000000000000000000000000000000000000000000000000000\n        /* \"#utility.yul\":479:480   */\n      0x00\n        /* \"#utility.yul\":472:560   */\n      mstore\n        /* \"#utility.yul\":579:583   */\n      0x21\n        /* \"#utility.yul\":576:577   */\n      0x04\n        /* \"#utility.yul\":569:584   */\n      mstore\n        /* \"#utility.yul\":603:607   */\n      0x24\n        /* \"#utility.yul\":600:601   */\n      0x00\n        /* \"#utility.yul\":593:608   */\n      revert\n        /* \"#utility.yul\":620:733   */\n    tag_112:\n        /* \"#utility.yul\":701:702   */\n      0x07\n        /* \"#utility.yul\":694:699   */\n      dup2\n        /* \"#utility.yul\":691:703   */\n      lt\n        /* \"#utility.yul\":681:727   */\n      tag_124\n      jumpi\n        /* \"#utility.yul\":707:725   */\n      tag_125\n      tag_41\n      jump\t// in\n    tag_125:\n        /* \"#utility.yul\":681:727   */\n    tag_124:\n        /* \"#utility.yul\":620:733   */\n      pop\n      jump\t// out\n        /* \"#utility.yul\":739:866   */\n    tag_113:\n        /* \"#utility.yul\":784:791   */\n      0x00\n        /* \"#utility.yul\":813:818   */\n      dup2\n        /* \"#utility.yul\":802:818   */\n      swap1\n      pop\n        /* \"#utility.yul\":819:860   */\n      tag_127\n        /* \"#utility.yul\":854:859   */\n      dup3\n        /* \"#utility.yul\":819:860   */\n      tag_112\n      jump\t// in\n    tag_127:\n        /* \"#utility.yul\":739:866   */\n      swap2\n      swap1\n      pop\n      jump\t// out\n        /* \"#utility.yul\":872:999   */\n    tag_114:\n        /* \"#utility.yul\":928:937   */\n      0x00\n        /* \"#utility.yul\":961:993   */\n      tag_129\n        /* \"#utility.yul\":987:992   */\n      dup3\n        /* \"#utility.yul\":961:993   */\n      tag_113\n      jump\t// in\n    tag_129:\n        /* \"#utility.yul\":948:993   */\n      swap1\n      pop\n        /* \"#utility.yul\":872:999   */\n      swap2\n      swap1\n      pop\n      jump\t// out\n        /* \"#utility.yul\":1005:1148   */\n    tag_115:\n        /* \"#utility.yul\":1098:1141   */\n      tag_131\n        /* \"#utility.yul\":1135:1140   */\n      dup2\n        /* \"#utility.yul\":1098:1141   */\n      tag_114\n      jump\t// in\n    tag_131:\n        /* \"#utility.yul\":1093:1096   */\n      dup3\n        /* \"#utility.yul\":1086:1142   */\n      mstore\n        /* \"#utility.yul\":1005:1148   */\n      pop\n      pop\n      jump\t// out\n        /* \"#utility.yul\":1154:1388   */\n    tag_37:\n        /* \"#utility.yul\":1253:1257   */\n      0x00\n        /* \"#utility.yul\":1291:1293   */\n      0x20\n        /* \"#utility.yul\":1280:1289   */\n      dup3\n        /* \"#utility.yul\":1276:1294   */\n      add\n        /* \"#utility.yul\":1268:1294   */\n      swap1\n      pop\n        /* \"#utility.yul\":1304:1381   */\n      tag_133\n        /* \"#utility.yul\":1378:1379   */\n      0x00\n        /* \"#utility.yul\":1367:1376   */\n      dup4\n        /* \"#utility.yul\":1363:1380   */\n      add\n        /* \"#utility.yul\":1354:1360   */\n      dup5\n        /* \"#utility.yul\":1304:1381   */\n      tag_115\n      jump\t// in\n    tag_133:\n        /* \"#utility.yul\":1154:1388   */\n      swap3\n      swap2\n      pop\n      pop\n      jump\t// out\n\n    auxdata: 0xa26469706673582212207847360b1bc832e3fa83d378644c3491f2558630c7f232932d6e28257ab847f064736f6c634300081a0033\n}\n",
				"bytecode": {
					"linkReferences": {},
					"object": "6080604052348015600e575f80fd5b5061064e8061001c5f395ff3fe608060405234801561000f575f80fd5b5060043610610086575f3560e01c806376ffb8871161005957806376ffb88714610102578063a877db9f14610120578063bd2f6a941461013e578063ef8a92351461015c57610086565b80630b93381b1461008a57806334976b9b146100a857806339726b6c146100c65780633f9942ff146100e4575b5f80fd5b61009261017a565b60405161009f9190610573565b60405180910390f35b6100b06101ec565b6040516100bd9190610573565b60405180910390f35b6100ce61025e565b6040516100db9190610573565b60405180910390f35b6100ec61030b565b6040516100f99190610573565b60405180910390f35b61010a6103b8565b6040516101179190610573565b60405180910390f35b61012861042a565b6040516101359190610573565b60405180910390f35b6101466104d7565b6040516101539190610573565b60405180910390f35b610164610549565b60405161017191906105ff565b60405180910390f35b5f6004600681111561018f5761018e61058c565b5b5f8054906101000a900460ff1660068111156101ae576101ad61058c565b5b036101e55760055f806101000a81548160ff021916908360068111156101d7576101d661058c565b5b0217905550600190506101e9565b5f90505b90565b5f600160068111156102015761020061058c565b5b5f8054906101000a900460ff1660068111156102205761021f61058c565b5b036102575760025f806101000a81548160ff021916908360068111156102495761024861058c565b5b02179055506001905061025b565b5f90505b90565b5f8060068111156102725761027161058c565b5b5f8054906101000a900460ff1660068111156102915761029061058c565b5b14806102cd5750600360068111156102ac576102ab61058c565b5b5f8054906101000a900460ff1660068111156102cb576102ca61058c565b5b145b156103045760015f806101000a81548160ff021916908360068111156102f6576102f561058c565b5b021790555060019050610308565b5f90505b90565b5f80600681111561031f5761031e61058c565b5b5f8054906101000a900460ff16600681111561033e5761033d61058c565b5b148061037a5750600160068111156103595761035861058c565b5b5f8054906101000a900460ff1660068111156103785761037761058c565b5b145b15610387575f90506103b5565b60035f806101000a81548160ff021916908360068111156103ab576103aa61058c565b5b0217905550600190505b90565b5f600460068111156103cd576103cc61058c565b5b5f8054906101000a900460ff1660068111156103ec576103eb61058c565b5b036104235760065f806101000a81548160ff021916908360068111156104155761041461058c565b5b021790555060019050610427565b5f90505b90565b5f6002600681111561043f5761043e61058c565b5b5f8054906101000a900460ff16600681111561045e5761045d61058c565b5b148061049a5750600560068111156104795761047861058c565b5b5f8054906101000a900460ff1660068111156104985761049761058c565b5b145b156104d0575f805f6101000a81548160ff021916908360068111156104c2576104c161058c565b5b0217905550600190506104d4565b5f90505b90565b5f600260068111156104ec576104eb61058c565b5b5f8054906101000a900460ff16600681111561050b5761050a61058c565b5b036105425760045f806101000a81548160ff021916908360068111156105345761053361058c565b5b021790555060019050610546565b5f90505b90565b5f8054906101000a900460ff1681565b5f8115159050919050565b61056d81610559565b82525050565b5f6020820190506105865f830184610564565b92915050565b7f4e487b71000000000000000000000000000000000000000000000000000000005f52602160045260245ffd5b600781106105ca576105c961058c565b5b50565b5f8190506105da826105b9565b919050565b5f6105e9826105cd565b9050919050565b6105f9816105df565b82525050565b5f6020820190506106125f8301846105f0565b9291505056fea26469706673582212207847360b1bc832e3fa83d378644c3491f2558630c7f232932d6e28257ab847f064736f6c634300081a0033",
					"opcodes": "PUSH1 0x80 PUSH1 0x40 MSTORE CALLVALUE DUP1 ISZERO PUSH1 0xE JUMPI PUSH0 DUP1 REVERT JUMPDEST POP PUSH2 0x64E DUP1 PUSH2 0x1C PUSH0 CODECOPY PUSH0 RETURN INVALID PUSH1 0x80 PUSH1 0x40 MSTORE CALLVALUE DUP1 ISZERO PUSH2 0xF JUMPI PUSH0 DUP1 REVERT JUMPDEST POP PUSH1 0x4 CALLDATASIZE LT PUSH2 0x86 JUMPI PUSH0 CALLDATALOAD PUSH1 0xE0 SHR DUP1 PUSH4 0x76FFB887 GT PUSH2 0x59 JUMPI DUP1 PUSH4 0x76FFB887 EQ PUSH2 0x102 JUMPI DUP1 PUSH4 0xA877DB9F EQ PUSH2 0x120 JUMPI DUP1 PUSH4 0xBD2F6A94 EQ PUSH2 0x13E JUMPI DUP1 PUSH4 0xEF8A9235 EQ PUSH2 0x15C JUMPI PUSH2 0x86 JUMP JUMPDEST DUP1 PUSH4 0xB93381B EQ PUSH2 0x8A JUMPI DUP1 PUSH4 0x34976B9B EQ PUSH2 0xA8 JUMPI DUP1 PUSH4 0x39726B6C EQ PUSH2 0xC6 JUMPI DUP1 PUSH4 0x3F9942FF EQ PUSH2 0xE4 JUMPI JUMPDEST PUSH0 DUP1 REVERT JUMPDEST PUSH2 0x92 PUSH2 0x17A JUMP JUMPDEST PUSH1 0x40 MLOAD PUSH2 0x9F SWAP2 SWAP1 PUSH2 0x573 JUMP JUMPDEST PUSH1 0x40 MLOAD DUP1 SWAP2 SUB SWAP1 RETURN JUMPDEST PUSH2 0xB0 PUSH2 0x1EC JUMP JUMPDEST PUSH1 0x40 MLOAD PUSH2 0xBD SWAP2 SWAP1 PUSH2 0x573 JUMP JUMPDEST PUSH1 0x40 MLOAD DUP1 SWAP2 SUB SWAP1 RETURN JUMPDEST PUSH2 0xCE PUSH2 0x25E JUMP JUMPDEST PUSH1 0x40 MLOAD PUSH2 0xDB SWAP2 SWAP1 PUSH2 0x573 JUMP JUMPDEST PUSH1 0x40 MLOAD DUP1 SWAP2 SUB SWAP1 RETURN JUMPDEST PUSH2 0xEC PUSH2 0x30B JUMP JUMPDEST PUSH1 0x40 MLOAD PUSH2 0xF9 SWAP2 SWAP1 PUSH2 0x573 JUMP JUMPDEST PUSH1 0x40 MLOAD DUP1 SWAP2 SUB SWAP1 RETURN JUMPDEST PUSH2 0x10A PUSH2 0x3B8 JUMP JUMPDEST PUSH1 0x40 MLOAD PUSH2 0x117 SWAP2 SWAP1 PUSH2 0x573 JUMP JUMPDEST PUSH1 0x40 MLOAD DUP1 SWAP2 SUB SWAP1 RETURN JUMPDEST PUSH2 0x128 PUSH2 0x42A JUMP JUMPDEST PUSH1 0x40 MLOAD PUSH2 0x135 SWAP2 SWAP1 PUSH2 0x573 JUMP JUMPDEST PUSH1 0x40 MLOAD DUP1 SWAP2 SUB SWAP1 RETURN JUMPDEST PUSH2 0x146 PUSH2 0x4D7 JUMP JUMPDEST PUSH1 0x40 MLOAD PUSH2 0x153 SWAP2 SWAP1 PUSH2 0x573 JUMP JUMPDEST PUSH1 0x40 MLOAD DUP1 SWAP2 SUB SWAP1 RETURN JUMPDEST PUSH2 0x164 PUSH2 0x549 JUMP JUMPDEST PUSH1 0x40 MLOAD PUSH2 0x171 SWAP2 SWAP1 PUSH2 0x5FF JUMP JUMPDEST PUSH1 0x40 MLOAD DUP1 SWAP2 SUB SWAP1 RETURN JUMPDEST PUSH0 PUSH1 0x4 PUSH1 0x6 DUP2 GT ISZERO PUSH2 0x18F JUMPI PUSH2 0x18E PUSH2 0x58C JUMP JUMPDEST JUMPDEST PUSH0 DUP1 SLOAD SWAP1 PUSH2 0x100 EXP SWAP1 DIV PUSH1 0xFF AND PUSH1 0x6 DUP2 GT ISZERO PUSH2 0x1AE JUMPI PUSH2 0x1AD PUSH2 0x58C JUMP JUMPDEST JUMPDEST SUB PUSH2 0x1E5 JUMPI PUSH1 0x5 PUSH0 DUP1 PUSH2 0x100 EXP DUP2 SLOAD DUP2 PUSH1 0xFF MUL NOT AND SWAP1 DUP4 PUSH1 0x6 DUP2 GT ISZERO PUSH2 0x1D7 JUMPI PUSH2 0x1D6 PUSH2 0x58C JUMP JUMPDEST JUMPDEST MUL OR SWAP1 SSTORE POP PUSH1 0x1 SWAP1 POP PUSH2 0x1E9 JUMP JUMPDEST PUSH0 SWAP1 POP JUMPDEST SWAP1 JUMP JUMPDEST PUSH0 PUSH1 0x1 PUSH1 0x6 DUP2 GT ISZERO PUSH2 0x201 JUMPI PUSH2 0x200 PUSH2 0x58C JUMP JUMPDEST JUMPDEST PUSH0 DUP1 SLOAD SWAP1 PUSH2 0x100 EXP SWAP1 DIV PUSH1 0xFF AND PUSH1 0x6 DUP2 GT ISZERO PUSH2 0x220 JUMPI PUSH2 0x21F PUSH2 0x58C JUMP JUMPDEST JUMPDEST SUB PUSH2 0x257 JUMPI PUSH1 0x2 PUSH0 DUP1 PUSH2 0x100 EXP DUP2 SLOAD DUP2 PUSH1 0xFF MUL NOT AND SWAP1 DUP4 PUSH1 0x6 DUP2 GT ISZERO PUSH2 0x249 JUMPI PUSH2 0x248 PUSH2 0x58C JUMP JUMPDEST JUMPDEST MUL OR SWAP1 SSTORE POP PUSH1 0x1 SWAP1 POP PUSH2 0x25B JUMP JUMPDEST PUSH0 SWAP1 POP JUMPDEST SWAP1 JUMP JUMPDEST PUSH0 DUP1 PUSH1 0x6 DUP2 GT ISZERO PUSH2 0x272 JUMPI PUSH2 0x271 PUSH2 0x58C JUMP JUMPDEST JUMPDEST PUSH0 DUP1 SLOAD SWAP1 PUSH2 0x100 EXP SWAP1 DIV PUSH1 0xFF AND PUSH1 0x6 DUP2 GT ISZERO PUSH2 0x291 JUMPI PUSH2 0x290 PUSH2 0x58C JUMP JUMPDEST JUMPDEST EQ DUP1 PUSH2 0x2CD JUMPI POP PUSH1 0x3 PUSH1 0x6 DUP2 GT ISZERO PUSH2 0x2AC JUMPI PUSH2 0x2AB PUSH2 0x58C JUMP JUMPDEST JUMPDEST PUSH0 DUP1 SLOAD SWAP1 PUSH2 0x100 EXP SWAP1 DIV PUSH1 0xFF AND PUSH1 0x6 DUP2 GT ISZERO PUSH2 0x2CB JUMPI PUSH2 0x2CA PUSH2 0x58C JUMP JUMPDEST JUMPDEST EQ JUMPDEST ISZERO PUSH2 0x304 JUMPI PUSH1 0x1 PUSH0 DUP1 PUSH2 0x100 EXP DUP2 SLOAD DUP2 PUSH1 0xFF MUL NOT AND SWAP1 DUP4 PUSH1 0x6 DUP2 GT ISZERO PUSH2 0x2F6 JUMPI PUSH2 0x2F5 PUSH2 0x58C JUMP JUMPDEST JUMPDEST MUL OR SWAP1 SSTORE POP PUSH1 0x1 SWAP1 POP PUSH2 0x308 JUMP JUMPDEST PUSH0 SWAP1 POP JUMPDEST SWAP1 JUMP JUMPDEST PUSH0 DUP1 PUSH1 0x6 DUP2 GT ISZERO PUSH2 0x31F JUMPI PUSH2 0x31E PUSH2 0x58C JUMP JUMPDEST JUMPDEST PUSH0 DUP1 SLOAD SWAP1 PUSH2 0x100 EXP SWAP1 DIV PUSH1 0xFF AND PUSH1 0x6 DUP2 GT ISZERO PUSH2 0x33E JUMPI PUSH2 0x33D PUSH2 0x58C JUMP JUMPDEST JUMPDEST EQ DUP1 PUSH2 0x37A JUMPI POP PUSH1 0x1 PUSH1 0x6 DUP2 GT ISZERO PUSH2 0x359 JUMPI PUSH2 0x358 PUSH2 0x58C JUMP JUMPDEST JUMPDEST PUSH0 DUP1 SLOAD SWAP1 PUSH2 0x100 EXP SWAP1 DIV PUSH1 0xFF AND PUSH1 0x6 DUP2 GT ISZERO PUSH2 0x378 JUMPI PUSH2 0x377 PUSH2 0x58C JUMP JUMPDEST JUMPDEST EQ JUMPDEST ISZERO PUSH2 0x387 JUMPI PUSH0 SWAP1 POP PUSH2 0x3B5 JUMP JUMPDEST PUSH1 0x3 PUSH0 DUP1 PUSH2 0x100 EXP DUP2 SLOAD DUP2 PUSH1 0xFF MUL NOT AND SWAP1 DUP4 PUSH1 0x6 DUP2 GT ISZERO PUSH2 0x3AB JUMPI PUSH2 0x3AA PUSH2 0x58C JUMP JUMPDEST JUMPDEST MUL OR SWAP1 SSTORE POP PUSH1 0x1 SWAP1 POP JUMPDEST SWAP1 JUMP JUMPDEST PUSH0 PUSH1 0x4 PUSH1 0x6 DUP2 GT ISZERO PUSH2 0x3CD JUMPI PUSH2 0x3CC PUSH2 0x58C JUMP JUMPDEST JUMPDEST PUSH0 DUP1 SLOAD SWAP1 PUSH2 0x100 EXP SWAP1 DIV PUSH1 0xFF AND PUSH1 0x6 DUP2 GT ISZERO PUSH2 0x3EC JUMPI PUSH2 0x3EB PUSH2 0x58C JUMP JUMPDEST JUMPDEST SUB PUSH2 0x423 JUMPI PUSH1 0x6 PUSH0 DUP1 PUSH2 0x100 EXP DUP2 SLOAD DUP2 PUSH1 0xFF MUL NOT AND SWAP1 DUP4 PUSH1 0x6 DUP2 GT ISZERO PUSH2 0x415 JUMPI PUSH2 0x414 PUSH2 0x58C JUMP JUMPDEST JUMPDEST MUL OR SWAP1 SSTORE POP PUSH1 0x1 SWAP1 POP PUSH2 0x427 JUMP JUMPDEST PUSH0 SWAP1 POP JUMPDEST SWAP1 JUMP JUMPDEST PUSH0 PUSH1 0x2 PUSH1 0x6 DUP2 GT ISZERO PUSH2 0x43F JUMPI PUSH2 0x43E PUSH2 0x58C JUMP JUMPDEST JUMPDEST PUSH0 DUP1 SLOAD SWAP1 PUSH2 0x100 EXP SWAP1 DIV PUSH1 0xFF AND PUSH1 0x6 DUP2 GT ISZERO PUSH2 0x45E JUMPI PUSH2 0x45D PUSH2 0x58C JUMP JUMPDEST JUMPDEST EQ DUP1 PUSH2 0x49A JUMPI POP PUSH1 0x5 PUSH1 0x6 DUP2 GT ISZERO PUSH2 0x479 JUMPI PUSH2 0x478 PUSH2 0x58C JUMP JUMPDEST JUMPDEST PUSH0 DUP1 SLOAD SWAP1 PUSH2 0x100 EXP SWAP1 DIV PUSH1 0xFF AND PUSH1 0x6 DUP2 GT ISZERO PUSH2 0x498 JUMPI PUSH2 0x497 PUSH2 0x58C JUMP JUMPDEST JUMPDEST EQ JUMPDEST ISZERO PUSH2 0x4D0 JUMPI PUSH0 DUP1 PUSH0 PUSH2 0x100 EXP DUP2 SLOAD DUP2 PUSH1 0xFF MUL NOT AND SWAP1 DUP4 PUSH1 0x6 DUP2 GT ISZERO PUSH2 0x4C2 JUMPI PUSH2 0x4C1 PUSH2 0x58C JUMP JUMPDEST JUMPDEST MUL OR SWAP1 SSTORE POP PUSH1 0x1 SWAP1 POP PUSH2 0x4D4 JUMP JUMPDEST PUSH0 SWAP1 POP JUMPDEST SWAP1 JUMP JUMPDEST PUSH0 PUSH1 0x2 PUSH1 0x6 DUP2 GT ISZERO PUSH2 0x4EC JUMPI PUSH2 0x4EB PUSH2 0x58C JUMP JUMPDEST JUMPDEST PUSH0 DUP1 SLOAD SWAP1 PUSH2 0x100 EXP SWAP1 DIV PUSH1 0xFF AND PUSH1 0x6 DUP2 GT ISZERO PUSH2 0x50B JUMPI PUSH2 0x50A PUSH2 0x58C JUMP JUMPDEST JUMPDEST SUB PUSH2 0x542 JUMPI PUSH1 0x4 PUSH0 DUP1 PUSH2 0x100 EXP DUP2 SLOAD DUP2 PUSH1 0xFF MUL NOT AND SWAP1 DUP4 PUSH1 0x6 DUP2 GT ISZERO PUSH2 0x534 JUMPI PUSH2 0x533 PUSH2 0x58C JUMP JUMPDEST JUMPDEST MUL OR SWAP1 SSTORE POP PUSH1 0x1 SWAP1 POP PUSH2 0x546 JUMP JUMPDEST PUSH0 SWAP1 POP JUMPDEST SWAP1 JUMP JUMPDEST PUSH0 DUP1 SLOAD SWAP1 PUSH2 0x100 EXP SWAP1 DIV PUSH1 0xFF AND DUP2 JUMP JUMPDEST PUSH0 DUP2 ISZERO ISZERO SWAP1 POP SWAP2 SWAP1 POP JUMP JUMPDEST PUSH2 0x56D DUP2 PUSH2 0x559 JUMP JUMPDEST DUP3 MSTORE POP POP JUMP JUMPDEST PUSH0 PUSH1 0x20 DUP3 ADD SWAP1 POP PUSH2 0x586 PUSH0 DUP4 ADD DUP5 PUSH2 0x564 JUMP JUMPDEST SWAP3 SWAP2 POP POP JUMP JUMPDEST PUSH32 0x4E487B7100000000000000000000000000000000000000000000000000000000 PUSH0 MSTORE PUSH1 0x21 PUSH1 0x4 MSTORE PUSH1 0x24 PUSH0 REVERT JUMPDEST PUSH1 0x7 DUP2 LT PUSH2 0x5CA JUMPI PUSH2 0x5C9 PUSH2 0x58C JUMP JUMPDEST JUMPDEST POP JUMP JUMPDEST PUSH0 DUP2 SWAP1 POP PUSH2 0x5DA DUP3 PUSH2 0x5B9 JUMP JUMPDEST SWAP2 SWAP1 POP JUMP JUMPDEST PUSH0 PUSH2 0x5E9 DUP3 PUSH2 0x5CD JUMP JUMPDEST SWAP1 POP SWAP2 SWAP1 POP JUMP JUMPDEST PUSH2 0x5F9 DUP2 PUSH2 0x5DF JUMP JUMPDEST DUP3 MSTORE POP POP JUMP JUMPDEST PUSH0 PUSH1 0x20 DUP3 ADD SWAP1 POP PUSH2 0x612 PUSH0 DUP4 ADD DUP5 PUSH2 0x5F0 JUMP JUMPDEST SWAP3 SWAP2 POP POP JUMP INVALID LOG2 PUSH5 0x6970667358 0x22 SLT KECCAK256 PUSH25 0x47360B1BC832E3FA83D378644C3491F2558630C7F232932D6E 0x28 0x25 PUSH27 0xB847F064736F6C634300081A003300000000000000000000000000 "
				},
				"gasEstimates": {
					"creation": {
						"codeDepositCost": "322800",
						"executionCost": "360",
						"totalCost": "323160"
					},
					"external": {
						"bought()": "26865",
						"canceled()": "29114",
						"currentStatus()": "2617",
						"failure()": "26842",
						"inStorage()": "29102",
						"none()": "29078",
						"shipping()": "26886",
						"success()": "26843"
					}
				},
				"methodIdentifiers": {
					"bought()": "34976b9b",
					"canceled()": "3f9942ff",
					"currentStatus()": "ef8a9235",
					"failure()": "76ffb887",
					"inStorage()": "39726b6c",
					"none()": "a877db9f",
					"shipping()": "bd2f6a94",
					"success()": "0b93381b"
				}
			},
			"storageLayout": {
				"storage": [
					{
						"astId": 12,
						"contract": "work/home/3rd.sol:Cargo",
						"label": "currentStatus",
						"offset": 0,
						"slot": "0",
						"type": "t_enum(Status)9"
					}
				],
				"types": {
					"t_enum(Status)9": {
						"encoding": "inplace",
						"label": "enum Cargo.Status",
						"numberOfBytes": "1"
					}
				}
			},
			"userdoc": {
				"kind": "user",
				"methods": {},
				"version": 1
			}
		}
	}
}