{
	"work/home/zombiecoin.sol": {
		"Zombie": {
			"abi": [
				{
					"inputs": [],
					"stateMutability": "nonpayable",
					"type": "constructor"
				},
				{
					"inputs": [
						{
							"internalType": "address",
							"name": "spender",
							"type": "address"
						},
						{
							"internalType": "uint256",
							"name": "allowance",
							"type": "uint256"
						},
						{
							"internalType": "uint256",
							"name": "needed",
							"type": "uint256"
						}
					],
					"name": "ERC20InsufficientAllowance",
					"type": "error"
				},
				{
					"inputs": [
						{
							"internalType": "address",
							"name": "sender",
							"type": "address"
						},
						{
							"internalType": "uint256",
							"name": "balance",
							"type": "uint256"
						},
						{
							"internalType": "uint256",
							"name": "needed",
							"type": "uint256"
						}
					],
					"name": "ERC20InsufficientBalance",
					"type": "error"
				},
				{
					"inputs": [
						{
							"internalType": "address",
							"name": "approver",
							"type": "address"
						}
					],
					"name": "ERC20InvalidApprover",
					"type": "error"
				},
				{
					"inputs": [
						{
							"internalType": "address",
							"name": "receiver",
							"type": "address"
						}
					],
					"name": "ERC20InvalidReceiver",
					"type": "error"
				},
				{
					"inputs": [
						{
							"internalType": "address",
							"name": "sender",
							"type": "address"
						}
					],
					"name": "ERC20InvalidSender",
					"type": "error"
				},
				{
					"inputs": [
						{
							"internalType": "address",
							"name": "spender",
							"type": "address"
						}
					],
					"name": "ERC20InvalidSpender",
					"type": "error"
				},
				{
					"inputs": [
						{
							"internalType": "address",
							"name": "owner",
							"type": "address"
						}
					],
					"name": "OwnableInvalidOwner",
					"type": "error"
				},
				{
					"inputs": [
						{
							"internalType": "address",
							"name": "account",
							"type": "address"
						}
					],
					"name": "OwnableUnauthorizedAccount",
					"type": "error"
				},
				{
					"anonymous": false,
					"inputs": [
						{
							"indexed": true,
							"internalType": "address",
							"name": "owner",
							"type": "address"
						},
						{
							"indexed": true,
							"internalType": "address",
							"name": "spender",
							"type": "address"
						},
						{
							"indexed": false,
							"internalType": "uint256",
							"name": "value",
							"type": "uint256"
						}
					],
					"name": "Approval",
					"type": "event"
				},
				{
					"anonymous": false,
					"inputs": [
						{
							"indexed": true,
							"internalType": "address",
							"name": "previousOwner",
							"type": "address"
						},
						{
							"indexed": true,
							"internalType": "address",
							"name": "newOwner",
							"type": "address"
						}
					],
					"name": "OwnershipTransferred",
					"type": "event"
				},
				{
					"anonymous": false,
					"inputs": [
						{
							"indexed": true,
							"internalType": "address",
							"name": "from",
							"type": "address"
						},
						{
							"indexed": true,
							"internalType": "address",
							"name": "to",
							"type": "address"
						},
						{
							"indexed": false,
							"internalType": "uint256",
							"name": "value",
							"type": "uint256"
						}
					],
					"name": "Transfer",
					"type": "event"
				},
				{
					"inputs": [],
					"name": "City",
					"outputs": [
						{
							"internalType": "string",
							"name": "name",
							"type": "string"
						},
						{
							"internalType": "uint256",
							"name": "hordePower",
							"type": "uint256"
						},
						{
							"internalType": "uint256",
							"name": "reward",
							"type": "uint256"
						}
					],
					"stateMutability": "view",
					"type": "function"
				},
				{
					"inputs": [
						{
							"internalType": "address",
							"name": "owner",
							"type": "address"
						},
						{
							"internalType": "address",
							"name": "spender",
							"type": "address"
						}
					],
					"name": "allowance",
					"outputs": [
						{
							"internalType": "uint256",
							"name": "",
							"type": "uint256"
						}
					],
					"stateMutability": "view",
					"type": "function"
				},
				{
					"inputs": [
						{
							"internalType": "address",
							"name": "spender",
							"type": "address"
						},
						{
							"internalType": "uint256",
							"name": "value",
							"type": "uint256"
						}
					],
					"name": "approve",
					"outputs": [
						{
							"internalType": "bool",
							"name": "",
							"type": "bool"
						}
					],
					"stateMutability": "nonpayable",
					"type": "function"
				},
				{
					"inputs": [
						{
							"internalType": "address",
							"name": "account",
							"type": "address"
						}
					],
					"name": "balanceOf",
					"outputs": [
						{
							"internalType": "uint256",
							"name": "",
							"type": "uint256"
						}
					],
					"stateMutability": "view",
					"type": "function"
				},
				{
					"inputs": [
						{
							"internalType": "string",
							"name": "hordeName",
							"type": "string"
						},
						{
							"internalType": "string",
							"name": "name",
							"type": "string"
						}
					],
					"name": "capture",
					"outputs": [],
					"stateMutability": "nonpayable",
					"type": "function"
				},
				{
					"inputs": [],
					"name": "decimals",
					"outputs": [
						{
							"internalType": "uint8",
							"name": "",
							"type": "uint8"
						}
					],
					"stateMutability": "view",
					"type": "function"
				},
				{
					"inputs": [],
					"name": "fee",
					"outputs": [
						{
							"internalType": "uint256",
							"name": "",
							"type": "uint256"
						}
					],
					"stateMutability": "view",
					"type": "function"
				},
				{
					"inputs": [
						{
							"internalType": "string",
							"name": "name",
							"type": "string"
						}
					],
					"name": "formHorde",
					"outputs": [],
					"stateMutability": "nonpayable",
					"type": "function"
				},
				{
					"inputs": [
						{
							"internalType": "string",
							"name": "name",
							"type": "string"
						}
					],
					"name": "getPower",
					"outputs": [
						{
							"internalType": "uint256",
							"name": "",
							"type": "uint256"
						}
					],
					"stateMutability": "view",
					"type": "function"
				},
				{
					"inputs": [
						{
							"internalType": "string",
							"name": "",
							"type": "string"
						}
					],
					"name": "hordes",
					"outputs": [
						{
							"internalType": "uint256",
							"name": "power",
							"type": "uint256"
						}
					],
					"stateMutability": "view",
					"type": "function"
				},
				{
					"inputs": [
						{
							"internalType": "address",
							"name": "target",
							"type": "address"
						}
					],
					"name": "infect",
					"outputs": [],
					"stateMutability": "payable",
					"type": "function"
				},
				{
					"inputs": [],
					"name": "name",
					"outputs": [
						{
							"internalType": "string",
							"name": "",
							"type": "string"
						}
					],
					"stateMutability": "view",
					"type": "function"
				},
				{
					"inputs": [],
					"name": "owner",
					"outputs": [
						{
							"internalType": "address",
							"name": "",
							"type": "address"
						}
					],
					"stateMutability": "view",
					"type": "function"
				},
				{
					"inputs": [],
					"name": "price",
					"outputs": [
						{
							"internalType": "uint256",
							"name": "",
							"type": "uint256"
						}
					],
					"stateMutability": "view",
					"type": "function"
				},
				{
					"inputs": [
						{
							"internalType": "string",
							"name": "name",
							"type": "string"
						}
					],
					"name": "register",
					"outputs": [],
					"stateMutability": "nonpayable",
					"type": "function"
				},
				{
					"inputs": [],
					"name": "renounceOwnership",
					"outputs": [],
					"stateMutability": "nonpayable",
					"type": "function"
				},
				{
					"inputs": [],
					"name": "symbol",
					"outputs": [
						{
							"internalType": "string",
							"name": "",
							"type": "string"
						}
					],
					"stateMutability": "view",
					"type": "function"
				},
				{
					"inputs": [
						{
							"internalType": "string",
							"name": "",
							"type": "string"
						}
					],
					"name": "territories",
					"outputs": [
						{
							"internalType": "string",
							"name": "name",
							"type": "string"
						},
						{
							"internalType": "uint256",
							"name": "hordePower",
							"type": "uint256"
						},
						{
							"internalType": "uint256",
							"name": "reward",
							"type": "uint256"
						}
					],
					"stateMutability": "view",
					"type": "function"
				},
				{
					"inputs": [],
					"name": "totalSupply",
					"outputs": [
						{
							"internalType": "uint256",
							"name": "",
							"type": "uint256"
						}
					],
					"stateMutability": "view",
					"type": "function"
				},
				{
					"inputs": [
						{
							"internalType": "address",
							"name": "to",
							"type": "address"
						},
						{
							"internalType": "uint256",
							"name": "value",
							"type": "uint256"
						}
					],
					"name": "transfer",
					"outputs": [
						{
							"internalType": "bool",
							"name": "",
							"type": "bool"
						}
					],
					"stateMutability": "nonpayable",
					"type": "function"
				},
				{
					"inputs": [
						{
							"internalType": "address",
							"name": "from",
							"type": "address"
						},
						{
							"internalType": "address",
							"name": "to",
							"type": "address"
						},
						{
							"internalType": "uint256",
							"name": "value",
							"type": "uint256"
						}
					],
					"name": "transferFrom",
					"outputs": [
						{
							"internalType": "bool",
							"name": "",
							"type": "bool"
						}
					],
					"stateMutability": "nonpayable",
					"type": "function"
				},
				{
					"inputs": [
						{
							"internalType": "address",
							"name": "newOwner",
							"type": "address"
						}
					],
					"name": "transferOwnership",
					"outputs": [],
					"stateMutability": "nonpayable",
					"type": "function"
				},
				{
					"stateMutability": "payable",
					"type": "receive"
				}
			],
			"devdoc": {
				"errors": {
					"ERC20InsufficientAllowance(address,uint256,uint256)": [
						{
							"details": "Indicates a failure with the `spender`â€™s `allowance`. Used in transfers.",
							"params": {
								"allowance": "Amount of tokens a `spender` is allowed to operate with.",
								"needed": "Minimum amount required to perform a transfer.",
								"spender": "Address that may be allowed to operate on tokens without being their owner."
							}
						}
					],
					"ERC20InsufficientBalance(address,uint256,uint256)": [
						{
							"details": "Indicates an error related to the current `balance` of a `sender`. Used in transfers.",
							"params": {
								"balance": "Current balance for the interacting account.",
								"needed": "Minimum amount required to perform a transfer.",
								"sender": "Address whose tokens are being transferred."
							}
						}
					],
					"ERC20InvalidApprover(address)": [
						{
							"details": "Indicates a failure with the `approver` of a token to be approved. Used in approvals.",
							"params": {
								"approver": "Address initiating an approval operation."
							}
						}
					],
					"ERC20InvalidReceiver(address)": [
						{
							"details": "Indicates a failure with the token `receiver`. Used in transfers.",
							"params": {
								"receiver": "Address to which tokens are being transferred."
							}
						}
					],
					"ERC20InvalidSender(address)": [
						{
							"details": "Indicates a failure with the token `sender`. Used in transfers.",
							"params": {
								"sender": "Address whose tokens are being transferred."
							}
						}
					],
					"ERC20InvalidSpender(address)": [
						{
							"details": "Indicates a failure with the `spender` to be approved. Used in approvals.",
							"params": {
								"spender": "Address that may be allowed to operate on tokens without being their owner."
							}
						}
					],
					"OwnableInvalidOwner(address)": [
						{
							"details": "The owner is not a valid owner account. (eg. `address(0)`)"
						}
					],
					"OwnableUnauthorizedAccount(address)": [
						{
							"details": "The caller account is not authorized to perform an operation."
						}
					]
				},
				"events": {
					"Approval(address,address,uint256)": {
						"details": "Emitted when the allowance of a `spender` for an `owner` is set by a call to {approve}. `value` is the new allowance."
					},
					"Transfer(address,address,uint256)": {
						"details": "Emitted when `value` tokens are moved from one account (`from`) to another (`to`). Note that `value` may be zero."
					}
				},
				"kind": "dev",
				"methods": {
					"allowance(address,address)": {
						"details": "See {IERC20-allowance}."
					},
					"approve(address,uint256)": {
						"details": "See {IERC20-approve}. NOTE: If `value` is the maximum `uint256`, the allowance is not updated on `transferFrom`. This is semantically equivalent to an infinite approval. Requirements: - `spender` cannot be the zero address."
					},
					"balanceOf(address)": {
						"details": "See {IERC20-balanceOf}."
					},
					"decimals()": {
						"details": "Returns the number of decimals used to get its user representation. For example, if `decimals` equals `2`, a balance of `505` tokens should be displayed to a user as `5.05` (`505 / 10 ** 2`). Tokens usually opt for a value of 18, imitating the relationship between Ether and Wei. This is the default value returned by this function, unless it's overridden. NOTE: This information is only used for _display_ purposes: it in no way affects any of the arithmetic of the contract, including {IERC20-balanceOf} and {IERC20-transfer}."
					},
					"name()": {
						"details": "Returns the name of the token."
					},
					"owner()": {
						"details": "Returns the address of the current owner."
					},
					"renounceOwnership()": {
						"details": "Leaves the contract without owner. It will not be possible to call `onlyOwner` functions. Can only be called by the current owner. NOTE: Renouncing ownership will leave the contract without an owner, thereby disabling any functionality that is only available to the owner."
					},
					"symbol()": {
						"details": "Returns the symbol of the token, usually a shorter version of the name."
					},
					"totalSupply()": {
						"details": "See {IERC20-totalSupply}."
					},
					"transfer(address,uint256)": {
						"details": "See {IERC20-transfer}. Requirements: - `to` cannot be the zero address. - the caller must have a balance of at least `value`."
					},
					"transferFrom(address,address,uint256)": {
						"details": "See {IERC20-transferFrom}. Skips emitting an {Approval} event indicating an allowance update. This is not required by the ERC. See {xref-ERC20-_approve-address-address-uint256-bool-}[_approve]. NOTE: Does not update the allowance if the current allowance is the maximum `uint256`. Requirements: - `from` and `to` cannot be the zero address. - `from` must have a balance of at least `value`. - the caller must have allowance for ``from``'s tokens of at least `value`."
					},
					"transferOwnership(address)": {
						"details": "Transfers ownership of the contract to a new account (`newOwner`). Can only be called by the current owner."
					}
				},
				"version": 1
			},
			"evm": {
				"assembly": "    /* \"work/home/zombiecoin.sol\":634:2893  contract Zombie is ERC20, Ownable{... */\n  mstore(0x40, 0x80)\n    /* \"work/home/zombiecoin.sol\":1145:1156  100000 gwei */\n  0x5af3107a4000\n    /* \"work/home/zombiecoin.sol\":1125:1156  uint public price = 100000 gwei */\n  0x09\n  sstore\n    /* \"work/home/zombiecoin.sol\":1180:1182  10 */\n  0x0a\n    /* \"work/home/zombiecoin.sol\":1162:1182  uint public fee = 10 */\n  dup1\n  sstore\n    /* \"work/home/zombiecoin.sol\":1216:1429  constructor() ERC20(\"Zombie\", \"BRNS\") Ownable(msg.sender) {... */\n  callvalue\n  dup1\n  iszero\n  tag_1\n  jumpi\n  0x00\n  dup1\n  revert\ntag_1:\n  pop\n    /* \"work/home/zombiecoin.sol\":1262:1272  msg.sender */\n  caller\n    /* \"@openzeppelin/contracts/token/ERC20/ERC20.sol\":1582:1695  constructor(string memory name_, string memory symbol_) {... */\n  mload(0x40)\n  dup1\n  0x40\n  add\n  0x40\n  mstore\n  dup1\n  0x06\n  dup2\n  mstore\n  0x20\n  add\n  0x5a6f6d6269650000000000000000000000000000000000000000000000000000\n  dup2\n  mstore\n  pop\n  mload(0x40)\n  dup1\n  0x40\n  add\n  0x40\n  mstore\n  dup1\n  0x04\n  dup2\n  mstore\n  0x20\n  add\n  0x42524e5300000000000000000000000000000000000000000000000000000000\n  dup2\n  mstore\n  pop\n    /* \"@openzeppelin/contracts/token/ERC20/ERC20.sol\":1656:1661  name_ */\n  dup2\n    /* \"@openzeppelin/contracts/token/ERC20/ERC20.sol\":1648:1653  _name */\n  0x03\n    /* \"@openzeppelin/contracts/token/ERC20/ERC20.sol\":1648:1661  _name = name_ */\n  swap1\n  dup2\n  tag_6\n  swap2\n  swap1\n  tag_7\n  jump\t// in\ntag_6:\n  pop\n    /* \"@openzeppelin/contracts/token/ERC20/ERC20.sol\":1681:1688  symbol_ */\n  dup1\n    /* \"@openzeppelin/contracts/token/ERC20/ERC20.sol\":1671:1678  _symbol */\n  0x04\n    /* \"@openzeppelin/contracts/token/ERC20/ERC20.sol\":1671:1688  _symbol = symbol_ */\n  swap1\n  dup2\n  tag_8\n  swap2\n  swap1\n  tag_7\n  jump\t// in\ntag_8:\n  pop\n    /* \"@openzeppelin/contracts/token/ERC20/ERC20.sol\":1582:1695  constructor(string memory name_, string memory symbol_) {... */\n  pop\n  pop\n    /* \"@openzeppelin/contracts/access/Ownable.sol\":1297:1298  0 */\n  0x00\n    /* \"@openzeppelin/contracts/access/Ownable.sol\":1273:1299  initialOwner == address(0) */\n  0xffffffffffffffffffffffffffffffffffffffff\n  and\n    /* \"@openzeppelin/contracts/access/Ownable.sol\":1273:1285  initialOwner */\n  dup2\n    /* \"@openzeppelin/contracts/access/Ownable.sol\":1273:1299  initialOwner == address(0) */\n  0xffffffffffffffffffffffffffffffffffffffff\n  and\n  sub\n    /* \"@openzeppelin/contracts/access/Ownable.sol\":1269:1364  if (initialOwner == address(0)) {... */\n  tag_10\n  jumpi\n    /* \"@openzeppelin/contracts/access/Ownable.sol\":1350:1351  0 */\n  0x00\n    /* \"@openzeppelin/contracts/access/Ownable.sol\":1322:1353  OwnableInvalidOwner(address(0)) */\n  mload(0x40)\n  0x1e4fbdf700000000000000000000000000000000000000000000000000000000\n  dup2\n  mstore\n  0x04\n  add\n  tag_11\n  swap2\n  swap1\n  tag_12\n  jump\t// in\ntag_11:\n  mload(0x40)\n  dup1\n  swap2\n  sub\n  swap1\n  revert\n    /* \"@openzeppelin/contracts/access/Ownable.sol\":1269:1364  if (initialOwner == address(0)) {... */\ntag_10:\n    /* \"@openzeppelin/contracts/access/Ownable.sol\":1373:1405  _transferOwnership(initialOwner) */\n  tag_13\n    /* \"@openzeppelin/contracts/access/Ownable.sol\":1392:1404  initialOwner */\n  dup2\n    /* \"@openzeppelin/contracts/access/Ownable.sol\":1373:1391  _transferOwnership */\n  shl(0x20, tag_14)\n    /* \"@openzeppelin/contracts/access/Ownable.sol\":1373:1405  _transferOwnership(initialOwner) */\n  0x20\n  shr\n  jump\t// in\ntag_13:\n    /* \"@openzeppelin/contracts/access/Ownable.sol\":1225:1412  constructor(address initialOwner) {... */\n  pop\n    /* \"work/home/zombiecoin.sol\":1284:1330  _mint(msg.sender, 10000000 * 10 ** decimals()) */\n  tag_16\n    /* \"work/home/zombiecoin.sol\":1290:1300  msg.sender */\n  caller\n    /* \"work/home/zombiecoin.sol\":1319:1329  decimals() */\n  tag_17\n    /* \"work/home/zombiecoin.sol\":1319:1327  decimals */\n  shl(0x20, tag_18)\n    /* \"work/home/zombiecoin.sol\":1319:1329  decimals() */\n  0x20\n  shr\n  jump\t// in\ntag_17:\n    /* \"work/home/zombiecoin.sol\":1313:1315  10 */\n  0x0a\n    /* \"work/home/zombiecoin.sol\":1313:1329  10 ** decimals() */\n  tag_19\n  swap2\n  swap1\n  tag_20\n  jump\t// in\ntag_19:\n    /* \"work/home/zombiecoin.sol\":1302:1310  10000000 */\n  0x989680\n    /* \"work/home/zombiecoin.sol\":1302:1329  10000000 * 10 ** decimals() */\n  tag_21\n  swap2\n  swap1\n  tag_22\n  jump\t// in\ntag_21:\n    /* \"work/home/zombiecoin.sol\":1284:1289  _mint */\n  shl(0x20, tag_23)\n    /* \"work/home/zombiecoin.sol\":1284:1330  _mint(msg.sender, 10000000 * 10 ** decimals()) */\n  0x20\n  shr\n  jump\t// in\ntag_16:\n    /* \"work/home/zombiecoin.sol\":1340:1363  City.name = \"Manhattan\" */\n  mload(0x40)\n  dup1\n  0x40\n  add\n  0x40\n  mstore\n  dup1\n  0x09\n  dup2\n  mstore\n  0x20\n  add\n  0x4d616e68617474616e0000000000000000000000000000000000000000000000\n  dup2\n  mstore\n  pop\n    /* \"work/home/zombiecoin.sol\":1340:1344  City */\n  0x0b\n    /* \"work/home/zombiecoin.sol\":1340:1349  City.name */\n  0x00\n  add\n    /* \"work/home/zombiecoin.sol\":1340:1363  City.name = \"Manhattan\" */\n  swap1\n  dup2\n  tag_24\n  swap2\n  swap1\n  tag_7\n  jump\t// in\ntag_24:\n  pop\n    /* \"work/home/zombiecoin.sol\":1391:1394  100 */\n  0x64\n    /* \"work/home/zombiecoin.sol\":1373:1377  City */\n  0x0b\n    /* \"work/home/zombiecoin.sol\":1373:1388  City.hordePower */\n  0x01\n  add\n    /* \"work/home/zombiecoin.sol\":1373:1394  City.hordePower = 100 */\n  dup2\n  swap1\n  sstore\n  pop\n    /* \"work/home/zombiecoin.sol\":1418:1422  1000 */\n  0x03e8\n    /* \"work/home/zombiecoin.sol\":1404:1408  City */\n  0x0b\n    /* \"work/home/zombiecoin.sol\":1404:1415  City.reward */\n  0x02\n  add\n    /* \"work/home/zombiecoin.sol\":1404:1422  City.reward = 1000 */\n  dup2\n  swap1\n  sstore\n  pop\n    /* \"work/home/zombiecoin.sol\":634:2893  contract Zombie is ERC20, Ownable{... */\n  jump(tag_25)\n    /* \"@openzeppelin/contracts/access/Ownable.sol\":2912:3099  function _transferOwnership(address newOwner) internal virtual {... */\ntag_14:\n    /* \"@openzeppelin/contracts/access/Ownable.sol\":2985:3001  address oldOwner */\n  0x00\n    /* \"@openzeppelin/contracts/access/Ownable.sol\":3004:3010  _owner */\n  0x05\n  0x00\n  swap1\n  sload\n  swap1\n  0x0100\n  exp\n  swap1\n  div\n  0xffffffffffffffffffffffffffffffffffffffff\n  and\n    /* \"@openzeppelin/contracts/access/Ownable.sol\":2985:3010  address oldOwner = _owner */\n  swap1\n  pop\n    /* \"@openzeppelin/contracts/access/Ownable.sol\":3029:3037  newOwner */\n  dup2\n    /* \"@openzeppelin/contracts/access/Ownable.sol\":3020:3026  _owner */\n  0x05\n  0x00\n    /* \"@openzeppelin/contracts/access/Ownable.sol\":3020:3037  _owner = newOwner */\n  0x0100\n  exp\n  dup2\n  sload\n  dup2\n  0xffffffffffffffffffffffffffffffffffffffff\n  mul\n  not\n  and\n  swap1\n  dup4\n  0xffffffffffffffffffffffffffffffffffffffff\n  and\n  mul\n  or\n  swap1\n  sstore\n  pop\n    /* \"@openzeppelin/contracts/access/Ownable.sol\":3083:3091  newOwner */\n  dup2\n    /* \"@openzeppelin/contracts/access/Ownable.sol\":3052:3092  OwnershipTransferred(oldOwner, newOwner) */\n  0xffffffffffffffffffffffffffffffffffffffff\n  and\n    /* \"@openzeppelin/contracts/access/Ownable.sol\":3073:3081  oldOwner */\n  dup2\n    /* \"@openzeppelin/contracts/access/Ownable.sol\":3052:3092  OwnershipTransferred(oldOwner, newOwner) */\n  0xffffffffffffffffffffffffffffffffffffffff\n  and\n  0x8be0079c531659141344cd1fd0a4f28419497f9722a3daafe3b4186f6b6457e0\n  mload(0x40)\n  mload(0x40)\n  dup1\n  swap2\n  sub\n  swap1\n  log3\n    /* \"@openzeppelin/contracts/access/Ownable.sol\":2975:3099  {... */\n  pop\n    /* \"@openzeppelin/contracts/access/Ownable.sol\":2912:3099  function _transferOwnership(address newOwner) internal virtual {... */\n  pop\n  jump\t// out\n    /* \"@openzeppelin/contracts/token/ERC20/ERC20.sol\":2688:2770  function decimals() public view virtual returns (uint8) {... */\ntag_18:\n    /* \"@openzeppelin/contracts/token/ERC20/ERC20.sol\":2737:2742  uint8 */\n  0x00\n    /* \"@openzeppelin/contracts/token/ERC20/ERC20.sol\":2761:2763  18 */\n  0x12\n    /* \"@openzeppelin/contracts/token/ERC20/ERC20.sol\":2754:2763  return 18 */\n  swap1\n  pop\n    /* \"@openzeppelin/contracts/token/ERC20/ERC20.sol\":2688:2770  function decimals() public view virtual returns (uint8) {... */\n  swap1\n  jump\t// out\n    /* \"@openzeppelin/contracts/token/ERC20/ERC20.sol\":7439:7647  function _mint(address account, uint256 value) internal {... */\ntag_23:\n    /* \"@openzeppelin/contracts/token/ERC20/ERC20.sol\":7528:7529  0 */\n  0x00\n    /* \"@openzeppelin/contracts/token/ERC20/ERC20.sol\":7509:7530  account == address(0) */\n  0xffffffffffffffffffffffffffffffffffffffff\n  and\n    /* \"@openzeppelin/contracts/token/ERC20/ERC20.sol\":7509:7516  account */\n  dup3\n    /* \"@openzeppelin/contracts/token/ERC20/ERC20.sol\":7509:7530  account == address(0) */\n  0xffffffffffffffffffffffffffffffffffffffff\n  and\n  sub\n    /* \"@openzeppelin/contracts/token/ERC20/ERC20.sol\":7505:7596  if (account == address(0)) {... */\n  tag_29\n  jumpi\n    /* \"@openzeppelin/contracts/token/ERC20/ERC20.sol\":7582:7583  0 */\n  0x00\n    /* \"@openzeppelin/contracts/token/ERC20/ERC20.sol\":7553:7585  ERC20InvalidReceiver(address(0)) */\n  mload(0x40)\n  0xec442f0500000000000000000000000000000000000000000000000000000000\n  dup2\n  mstore\n  0x04\n  add\n  tag_30\n  swap2\n  swap1\n  tag_12\n  jump\t// in\ntag_30:\n  mload(0x40)\n  dup1\n  swap2\n  sub\n  swap1\n  revert\n    /* \"@openzeppelin/contracts/token/ERC20/ERC20.sol\":7505:7596  if (account == address(0)) {... */\ntag_29:\n    /* \"@openzeppelin/contracts/token/ERC20/ERC20.sol\":7605:7640  _update(address(0), account, value) */\n  tag_31\n    /* \"@openzeppelin/contracts/token/ERC20/ERC20.sol\":7621:7622  0 */\n  0x00\n    /* \"@openzeppelin/contracts/token/ERC20/ERC20.sol\":7625:7632  account */\n  dup4\n    /* \"@openzeppelin/contracts/token/ERC20/ERC20.sol\":7634:7639  value */\n  dup4\n    /* \"@openzeppelin/contracts/token/ERC20/ERC20.sol\":7605:7612  _update */\n  shl(0x20, tag_32)\n    /* \"@openzeppelin/contracts/token/ERC20/ERC20.sol\":7605:7640  _update(address(0), account, value) */\n  0x20\n  shr\n  jump\t// in\ntag_31:\n    /* \"@openzeppelin/contracts/token/ERC20/ERC20.sol\":7439:7647  function _mint(address account, uint256 value) internal {... */\n  pop\n  pop\n  jump\t// out\n    /* \"@openzeppelin/contracts/token/ERC20/ERC20.sol\":5989:7096  function _update(address from, address to, uint256 value) internal virtual {... */\ntag_32:\n    /* \"@openzeppelin/contracts/token/ERC20/ERC20.sol\":6094:6095  0 */\n  0x00\n    /* \"@openzeppelin/contracts/token/ERC20/ERC20.sol\":6078:6096  from == address(0) */\n  0xffffffffffffffffffffffffffffffffffffffff\n  and\n    /* \"@openzeppelin/contracts/token/ERC20/ERC20.sol\":6078:6082  from */\n  dup4\n    /* \"@openzeppelin/contracts/token/ERC20/ERC20.sol\":6078:6096  from == address(0) */\n  0xffffffffffffffffffffffffffffffffffffffff\n  and\n  sub\n    /* \"@openzeppelin/contracts/token/ERC20/ERC20.sol\":6074:6614  if (from == address(0)) {... */\n  tag_34\n  jumpi\n    /* \"@openzeppelin/contracts/token/ERC20/ERC20.sol\":6230:6235  value */\n  dup1\n    /* \"@openzeppelin/contracts/token/ERC20/ERC20.sol\":6214:6226  _totalSupply */\n  0x02\n  0x00\n    /* \"@openzeppelin/contracts/token/ERC20/ERC20.sol\":6214:6235  _totalSupply += value */\n  dup3\n  dup3\n  sload\n  tag_35\n  swap2\n  swap1\n  tag_36\n  jump\t// in\ntag_35:\n  swap3\n  pop\n  pop\n  dup2\n  swap1\n  sstore\n  pop\n    /* \"@openzeppelin/contracts/token/ERC20/ERC20.sol\":6074:6614  if (from == address(0)) {... */\n  jump(tag_37)\ntag_34:\n    /* \"@openzeppelin/contracts/token/ERC20/ERC20.sol\":6266:6285  uint256 fromBalance */\n  0x00\n    /* \"@openzeppelin/contracts/token/ERC20/ERC20.sol\":6288:6297  _balances */\n  dup1\n    /* \"@openzeppelin/contracts/token/ERC20/ERC20.sol\":6288:6303  _balances[from] */\n  0x00\n    /* \"@openzeppelin/contracts/token/ERC20/ERC20.sol\":6298:6302  from */\n  dup6\n    /* \"@openzeppelin/contracts/token/ERC20/ERC20.sol\":6288:6303  _balances[from] */\n  0xffffffffffffffffffffffffffffffffffffffff\n  and\n  0xffffffffffffffffffffffffffffffffffffffff\n  and\n  dup2\n  mstore\n  0x20\n  add\n  swap1\n  dup2\n  mstore\n  0x20\n  add\n  0x00\n  keccak256\n  sload\n    /* \"@openzeppelin/contracts/token/ERC20/ERC20.sol\":6266:6303  uint256 fromBalance = _balances[from] */\n  swap1\n  pop\n    /* \"@openzeppelin/contracts/token/ERC20/ERC20.sol\":6335:6340  value */\n  dup2\n    /* \"@openzeppelin/contracts/token/ERC20/ERC20.sol\":6321:6332  fromBalance */\n  dup2\n    /* \"@openzeppelin/contracts/token/ERC20/ERC20.sol\":6321:6340  fromBalance < value */\n  lt\n    /* \"@openzeppelin/contracts/token/ERC20/ERC20.sol\":6317:6432  if (fromBalance < value) {... */\n  iszero\n  tag_38\n  jumpi\n    /* \"@openzeppelin/contracts/token/ERC20/ERC20.sol\":6392:6396  from */\n  dup4\n    /* \"@openzeppelin/contracts/token/ERC20/ERC20.sol\":6398:6409  fromBalance */\n  dup2\n    /* \"@openzeppelin/contracts/token/ERC20/ERC20.sol\":6411:6416  value */\n  dup4\n    /* \"@openzeppelin/contracts/token/ERC20/ERC20.sol\":6367:6417  ERC20InsufficientBalance(from, fromBalance, value) */\n  mload(0x40)\n  0xe450d38c00000000000000000000000000000000000000000000000000000000\n  dup2\n  mstore\n  0x04\n  add\n  tag_39\n  swap4\n  swap3\n  swap2\n  swap1\n  tag_40\n  jump\t// in\ntag_39:\n  mload(0x40)\n  dup1\n  swap2\n  sub\n  swap1\n  revert\n    /* \"@openzeppelin/contracts/token/ERC20/ERC20.sol\":6317:6432  if (fromBalance < value) {... */\ntag_38:\n    /* \"@openzeppelin/contracts/token/ERC20/ERC20.sol\":6584:6589  value */\n  dup2\n    /* \"@openzeppelin/contracts/token/ERC20/ERC20.sol\":6570:6581  fromBalance */\n  dup2\n    /* \"@openzeppelin/contracts/token/ERC20/ERC20.sol\":6570:6589  fromBalance - value */\n  sub\n    /* \"@openzeppelin/contracts/token/ERC20/ERC20.sol\":6552:6561  _balances */\n  0x00\n    /* \"@openzeppelin/contracts/token/ERC20/ERC20.sol\":6552:6567  _balances[from] */\n  dup1\n    /* \"@openzeppelin/contracts/token/ERC20/ERC20.sol\":6562:6566  from */\n  dup7\n    /* \"@openzeppelin/contracts/token/ERC20/ERC20.sol\":6552:6567  _balances[from] */\n  0xffffffffffffffffffffffffffffffffffffffff\n  and\n  0xffffffffffffffffffffffffffffffffffffffff\n  and\n  dup2\n  mstore\n  0x20\n  add\n  swap1\n  dup2\n  mstore\n  0x20\n  add\n  0x00\n  keccak256\n    /* \"@openzeppelin/contracts/token/ERC20/ERC20.sol\":6552:6589  _balances[from] = fromBalance - value */\n  dup2\n  swap1\n  sstore\n  pop\n    /* \"@openzeppelin/contracts/token/ERC20/ERC20.sol\":6252:6614  {... */\n  pop\n    /* \"@openzeppelin/contracts/token/ERC20/ERC20.sol\":6074:6614  if (from == address(0)) {... */\ntag_37:\n    /* \"@openzeppelin/contracts/token/ERC20/ERC20.sol\":6642:6643  0 */\n  0x00\n    /* \"@openzeppelin/contracts/token/ERC20/ERC20.sol\":6628:6644  to == address(0) */\n  0xffffffffffffffffffffffffffffffffffffffff\n  and\n    /* \"@openzeppelin/contracts/token/ERC20/ERC20.sol\":6628:6630  to */\n  dup3\n    /* \"@openzeppelin/contracts/token/ERC20/ERC20.sol\":6628:6644  to == address(0) */\n  0xffffffffffffffffffffffffffffffffffffffff\n  and\n  sub\n    /* \"@openzeppelin/contracts/token/ERC20/ERC20.sol\":6624:7049  if (to == address(0)) {... */\n  tag_41\n  jumpi\n    /* \"@openzeppelin/contracts/token/ERC20/ERC20.sol\":6807:6812  value */\n  dup1\n    /* \"@openzeppelin/contracts/token/ERC20/ERC20.sol\":6791:6803  _totalSupply */\n  0x02\n  0x00\n    /* \"@openzeppelin/contracts/token/ERC20/ERC20.sol\":6791:6812  _totalSupply -= value */\n  dup3\n  dup3\n  sload\n  sub\n  swap3\n  pop\n  pop\n  dup2\n  swap1\n  sstore\n  pop\n    /* \"@openzeppelin/contracts/token/ERC20/ERC20.sol\":6624:7049  if (to == address(0)) {... */\n  jump(tag_42)\ntag_41:\n    /* \"@openzeppelin/contracts/token/ERC20/ERC20.sol\":7019:7024  value */\n  dup1\n    /* \"@openzeppelin/contracts/token/ERC20/ERC20.sol\":7002:7011  _balances */\n  0x00\n    /* \"@openzeppelin/contracts/token/ERC20/ERC20.sol\":7002:7015  _balances[to] */\n  dup1\n    /* \"@openzeppelin/contracts/token/ERC20/ERC20.sol\":7012:7014  to */\n  dup5\n    /* \"@openzeppelin/contracts/token/ERC20/ERC20.sol\":7002:7015  _balances[to] */\n  0xffffffffffffffffffffffffffffffffffffffff\n  and\n  0xffffffffffffffffffffffffffffffffffffffff\n  and\n  dup2\n  mstore\n  0x20\n  add\n  swap1\n  dup2\n  mstore\n  0x20\n  add\n  0x00\n  keccak256\n  0x00\n    /* \"@openzeppelin/contracts/token/ERC20/ERC20.sol\":7002:7024  _balances[to] += value */\n  dup3\n  dup3\n  sload\n  add\n  swap3\n  pop\n  pop\n  dup2\n  swap1\n  sstore\n  pop\n    /* \"@openzeppelin/contracts/token/ERC20/ERC20.sol\":6624:7049  if (to == address(0)) {... */\ntag_42:\n    /* \"@openzeppelin/contracts/token/ERC20/ERC20.sol\":7079:7081  to */\n  dup2\n    /* \"@openzeppelin/contracts/token/ERC20/ERC20.sol\":7064:7089  Transfer(from, to, value) */\n  0xffffffffffffffffffffffffffffffffffffffff\n  and\n    /* \"@openzeppelin/contracts/token/ERC20/ERC20.sol\":7073:7077  from */\n  dup4\n    /* \"@openzeppelin/contracts/token/ERC20/ERC20.sol\":7064:7089  Transfer(from, to, value) */\n  0xffffffffffffffffffffffffffffffffffffffff\n  and\n  0xddf252ad1be2c89b69c2b068fc378daa952ba7f163c4a11628f55a4df523b3ef\n    /* \"@openzeppelin/contracts/token/ERC20/ERC20.sol\":7083:7088  value */\n  dup4\n    /* \"@openzeppelin/contracts/token/ERC20/ERC20.sol\":7064:7089  Transfer(from, to, value) */\n  mload(0x40)\n  tag_43\n  swap2\n  swap1\n  tag_44\n  jump\t// in\ntag_43:\n  mload(0x40)\n  dup1\n  swap2\n  sub\n  swap1\n  log3\n    /* \"@openzeppelin/contracts/token/ERC20/ERC20.sol\":5989:7096  function _update(address from, address to, uint256 value) internal virtual {... */\n  pop\n  pop\n  pop\n  jump\t// out\n    /* \"#utility.yul\":7:106   */\ntag_45:\n    /* \"#utility.yul\":59:65   */\n  0x00\n    /* \"#utility.yul\":93:98   */\n  dup2\n    /* \"#utility.yul\":87:99   */\n  mload\n    /* \"#utility.yul\":77:99   */\n  swap1\n  pop\n    /* \"#utility.yul\":7:106   */\n  swap2\n  swap1\n  pop\n  jump\t// out\n    /* \"#utility.yul\":112:292   */\ntag_46:\n    /* \"#utility.yul\":160:237   */\n  0x4e487b7100000000000000000000000000000000000000000000000000000000\n    /* \"#utility.yul\":157:158   */\n  0x00\n    /* \"#utility.yul\":150:238   */\n  mstore\n    /* \"#utility.yul\":257:261   */\n  0x41\n    /* \"#utility.yul\":254:255   */\n  0x04\n    /* \"#utility.yul\":247:262   */\n  mstore\n    /* \"#utility.yul\":281:285   */\n  0x24\n    /* \"#utility.yul\":278:279   */\n  0x00\n    /* \"#utility.yul\":271:286   */\n  revert\n    /* \"#utility.yul\":298:478   */\ntag_47:\n    /* \"#utility.yul\":346:423   */\n  0x4e487b7100000000000000000000000000000000000000000000000000000000\n    /* \"#utility.yul\":343:344   */\n  0x00\n    /* \"#utility.yul\":336:424   */\n  mstore\n    /* \"#utility.yul\":443:447   */\n  0x22\n    /* \"#utility.yul\":440:441   */\n  0x04\n    /* \"#utility.yul\":433:448   */\n  mstore\n    /* \"#utility.yul\":467:471   */\n  0x24\n    /* \"#utility.yul\":464:465   */\n  0x00\n    /* \"#utility.yul\":457:472   */\n  revert\n    /* \"#utility.yul\":484:804   */\ntag_48:\n    /* \"#utility.yul\":528:534   */\n  0x00\n    /* \"#utility.yul\":565:566   */\n  0x02\n    /* \"#utility.yul\":559:563   */\n  dup3\n    /* \"#utility.yul\":555:567   */\n  div\n    /* \"#utility.yul\":545:567   */\n  swap1\n  pop\n    /* \"#utility.yul\":612:613   */\n  0x01\n    /* \"#utility.yul\":606:610   */\n  dup3\n    /* \"#utility.yul\":602:614   */\n  and\n    /* \"#utility.yul\":633:651   */\n  dup1\n    /* \"#utility.yul\":623:704   */\n  tag_79\n  jumpi\n    /* \"#utility.yul\":689:693   */\n  0x7f\n    /* \"#utility.yul\":681:687   */\n  dup3\n    /* \"#utility.yul\":677:694   */\n  and\n    /* \"#utility.yul\":667:694   */\n  swap2\n  pop\n    /* \"#utility.yul\":623:704   */\ntag_79:\n    /* \"#utility.yul\":751:753   */\n  0x20\n    /* \"#utility.yul\":743:749   */\n  dup3\n    /* \"#utility.yul\":740:754   */\n  lt\n    /* \"#utility.yul\":720:738   */\n  dup2\n    /* \"#utility.yul\":717:755   */\n  sub\n    /* \"#utility.yul\":714:798   */\n  tag_80\n  jumpi\n    /* \"#utility.yul\":770:788   */\n  tag_81\n  tag_47\n  jump\t// in\ntag_81:\n    /* \"#utility.yul\":714:798   */\ntag_80:\n    /* \"#utility.yul\":535:804   */\n  pop\n    /* \"#utility.yul\":484:804   */\n  swap2\n  swap1\n  pop\n  jump\t// out\n    /* \"#utility.yul\":810:951   */\ntag_49:\n    /* \"#utility.yul\":859:863   */\n  0x00\n    /* \"#utility.yul\":882:885   */\n  dup2\n    /* \"#utility.yul\":874:885   */\n  swap1\n  pop\n    /* \"#utility.yul\":905:908   */\n  dup2\n    /* \"#utility.yul\":902:903   */\n  0x00\n    /* \"#utility.yul\":895:909   */\n  mstore\n    /* \"#utility.yul\":939:943   */\n  0x20\n    /* \"#utility.yul\":936:937   */\n  0x00\n    /* \"#utility.yul\":926:944   */\n  keccak256\n    /* \"#utility.yul\":918:944   */\n  swap1\n  pop\n    /* \"#utility.yul\":810:951   */\n  swap2\n  swap1\n  pop\n  jump\t// out\n    /* \"#utility.yul\":957:1050   */\ntag_50:\n    /* \"#utility.yul\":994:1000   */\n  0x00\n    /* \"#utility.yul\":1041:1043   */\n  0x20\n    /* \"#utility.yul\":1036:1038   */\n  0x1f\n    /* \"#utility.yul\":1029:1034   */\n  dup4\n    /* \"#utility.yul\":1025:1039   */\n  add\n    /* \"#utility.yul\":1021:1044   */\n  div\n    /* \"#utility.yul\":1011:1044   */\n  swap1\n  pop\n    /* \"#utility.yul\":957:1050   */\n  swap2\n  swap1\n  pop\n  jump\t// out\n    /* \"#utility.yul\":1056:1163   */\ntag_51:\n    /* \"#utility.yul\":1100:1108   */\n  0x00\n    /* \"#utility.yul\":1150:1155   */\n  dup3\n    /* \"#utility.yul\":1144:1148   */\n  dup3\n    /* \"#utility.yul\":1140:1156   */\n  shl\n    /* \"#utility.yul\":1119:1156   */\n  swap1\n  pop\n    /* \"#utility.yul\":1056:1163   */\n  swap3\n  swap2\n  pop\n  pop\n  jump\t// out\n    /* \"#utility.yul\":1169:1562   */\ntag_52:\n    /* \"#utility.yul\":1238:1244   */\n  0x00\n    /* \"#utility.yul\":1288:1289   */\n  0x08\n    /* \"#utility.yul\":1276:1286   */\n  dup4\n    /* \"#utility.yul\":1272:1290   */\n  mul\n    /* \"#utility.yul\":1311:1408   */\n  tag_86\n    /* \"#utility.yul\":1341:1407   */\n  0xffffffffffffffffffffffffffffffffffffffffffffffffffffffffffffffff\n    /* \"#utility.yul\":1330:1339   */\n  dup3\n    /* \"#utility.yul\":1311:1408   */\n  tag_51\n  jump\t// in\ntag_86:\n    /* \"#utility.yul\":1429:1468   */\n  tag_87\n    /* \"#utility.yul\":1459:1467   */\n  dup7\n    /* \"#utility.yul\":1448:1457   */\n  dup4\n    /* \"#utility.yul\":1429:1468   */\n  tag_51\n  jump\t// in\ntag_87:\n    /* \"#utility.yul\":1417:1468   */\n  swap6\n  pop\n    /* \"#utility.yul\":1501:1505   */\n  dup1\n    /* \"#utility.yul\":1497:1506   */\n  not\n    /* \"#utility.yul\":1490:1495   */\n  dup5\n    /* \"#utility.yul\":1486:1507   */\n  and\n    /* \"#utility.yul\":1477:1507   */\n  swap4\n  pop\n    /* \"#utility.yul\":1550:1554   */\n  dup1\n    /* \"#utility.yul\":1540:1548   */\n  dup7\n    /* \"#utility.yul\":1536:1555   */\n  and\n    /* \"#utility.yul\":1529:1534   */\n  dup5\n    /* \"#utility.yul\":1526:1556   */\n  or\n    /* \"#utility.yul\":1516:1556   */\n  swap3\n  pop\n    /* \"#utility.yul\":1245:1562   */\n  pop\n  pop\n    /* \"#utility.yul\":1169:1562   */\n  swap4\n  swap3\n  pop\n  pop\n  pop\n  jump\t// out\n    /* \"#utility.yul\":1568:1645   */\ntag_53:\n    /* \"#utility.yul\":1605:1612   */\n  0x00\n    /* \"#utility.yul\":1634:1639   */\n  dup2\n    /* \"#utility.yul\":1623:1639   */\n  swap1\n  pop\n    /* \"#utility.yul\":1568:1645   */\n  swap2\n  swap1\n  pop\n  jump\t// out\n    /* \"#utility.yul\":1651:1711   */\ntag_54:\n    /* \"#utility.yul\":1679:1682   */\n  0x00\n    /* \"#utility.yul\":1700:1705   */\n  dup2\n    /* \"#utility.yul\":1693:1705   */\n  swap1\n  pop\n    /* \"#utility.yul\":1651:1711   */\n  swap2\n  swap1\n  pop\n  jump\t// out\n    /* \"#utility.yul\":1717:1859   */\ntag_55:\n    /* \"#utility.yul\":1767:1776   */\n  0x00\n    /* \"#utility.yul\":1800:1853   */\n  tag_91\n    /* \"#utility.yul\":1818:1852   */\n  tag_92\n    /* \"#utility.yul\":1827:1851   */\n  tag_93\n    /* \"#utility.yul\":1845:1850   */\n  dup5\n    /* \"#utility.yul\":1827:1851   */\n  tag_53\n  jump\t// in\ntag_93:\n    /* \"#utility.yul\":1818:1852   */\n  tag_54\n  jump\t// in\ntag_92:\n    /* \"#utility.yul\":1800:1853   */\n  tag_53\n  jump\t// in\ntag_91:\n    /* \"#utility.yul\":1787:1853   */\n  swap1\n  pop\n    /* \"#utility.yul\":1717:1859   */\n  swap2\n  swap1\n  pop\n  jump\t// out\n    /* \"#utility.yul\":1865:1940   */\ntag_56:\n    /* \"#utility.yul\":1908:1911   */\n  0x00\n    /* \"#utility.yul\":1929:1934   */\n  dup2\n    /* \"#utility.yul\":1922:1934   */\n  swap1\n  pop\n    /* \"#utility.yul\":1865:1940   */\n  swap2\n  swap1\n  pop\n  jump\t// out\n    /* \"#utility.yul\":1946:2215   */\ntag_57:\n    /* \"#utility.yul\":2056:2095   */\n  tag_96\n    /* \"#utility.yul\":2087:2094   */\n  dup4\n    /* \"#utility.yul\":2056:2095   */\n  tag_55\n  jump\t// in\ntag_96:\n    /* \"#utility.yul\":2117:2208   */\n  tag_97\n    /* \"#utility.yul\":2166:2207   */\n  tag_98\n    /* \"#utility.yul\":2190:2206   */\n  dup3\n    /* \"#utility.yul\":2166:2207   */\n  tag_56\n  jump\t// in\ntag_98:\n    /* \"#utility.yul\":2158:2164   */\n  dup5\n    /* \"#utility.yul\":2151:2155   */\n  dup5\n    /* \"#utility.yul\":2145:2156   */\n  sload\n    /* \"#utility.yul\":2117:2208   */\n  tag_52\n  jump\t// in\ntag_97:\n    /* \"#utility.yul\":2111:2115   */\n  dup3\n    /* \"#utility.yul\":2104:2209   */\n  sstore\n    /* \"#utility.yul\":2022:2215   */\n  pop\n    /* \"#utility.yul\":1946:2215   */\n  pop\n  pop\n  pop\n  jump\t// out\n    /* \"#utility.yul\":2221:2294   */\ntag_58:\n    /* \"#utility.yul\":2266:2269   */\n  0x00\n    /* \"#utility.yul\":2221:2294   */\n  swap1\n  jump\t// out\n    /* \"#utility.yul\":2300:2489   */\ntag_59:\n    /* \"#utility.yul\":2377:2409   */\n  tag_101\n  tag_58\n  jump\t// in\ntag_101:\n    /* \"#utility.yul\":2418:2483   */\n  tag_102\n    /* \"#utility.yul\":2476:2482   */\n  dup2\n    /* \"#utility.yul\":2468:2474   */\n  dup5\n    /* \"#utility.yul\":2462:2466   */\n  dup5\n    /* \"#utility.yul\":2418:2483   */\n  tag_57\n  jump\t// in\ntag_102:\n    /* \"#utility.yul\":2353:2489   */\n  pop\n    /* \"#utility.yul\":2300:2489   */\n  pop\n  pop\n  jump\t// out\n    /* \"#utility.yul\":2495:2681   */\ntag_60:\n    /* \"#utility.yul\":2555:2675   */\ntag_104:\n    /* \"#utility.yul\":2572:2575   */\n  dup2\n    /* \"#utility.yul\":2565:2570   */\n  dup2\n    /* \"#utility.yul\":2562:2576   */\n  lt\n    /* \"#utility.yul\":2555:2675   */\n  iszero\n  tag_106\n  jumpi\n    /* \"#utility.yul\":2626:2665   */\n  tag_107\n    /* \"#utility.yul\":2663:2664   */\n  0x00\n    /* \"#utility.yul\":2656:2661   */\n  dup3\n    /* \"#utility.yul\":2626:2665   */\n  tag_59\n  jump\t// in\ntag_107:\n    /* \"#utility.yul\":2599:2600   */\n  0x01\n    /* \"#utility.yul\":2592:2597   */\n  dup2\n    /* \"#utility.yul\":2588:2601   */\n  add\n    /* \"#utility.yul\":2579:2601   */\n  swap1\n  pop\n    /* \"#utility.yul\":2555:2675   */\n  jump(tag_104)\ntag_106:\n    /* \"#utility.yul\":2495:2681   */\n  pop\n  pop\n  jump\t// out\n    /* \"#utility.yul\":2687:3230   */\ntag_61:\n    /* \"#utility.yul\":2788:2790   */\n  0x1f\n    /* \"#utility.yul\":2783:2786   */\n  dup3\n    /* \"#utility.yul\":2780:2791   */\n  gt\n    /* \"#utility.yul\":2777:3223   */\n  iszero\n  tag_109\n  jumpi\n    /* \"#utility.yul\":2822:2860   */\n  tag_110\n    /* \"#utility.yul\":2854:2859   */\n  dup2\n    /* \"#utility.yul\":2822:2860   */\n  tag_49\n  jump\t// in\ntag_110:\n    /* \"#utility.yul\":2906:2935   */\n  tag_111\n    /* \"#utility.yul\":2924:2934   */\n  dup5\n    /* \"#utility.yul\":2906:2935   */\n  tag_50\n  jump\t// in\ntag_111:\n    /* \"#utility.yul\":2896:2904   */\n  dup2\n    /* \"#utility.yul\":2892:2936   */\n  add\n    /* \"#utility.yul\":3089:3091   */\n  0x20\n    /* \"#utility.yul\":3077:3087   */\n  dup6\n    /* \"#utility.yul\":3074:3092   */\n  lt\n    /* \"#utility.yul\":3071:3120   */\n  iszero\n  tag_112\n  jumpi\n    /* \"#utility.yul\":3110:3118   */\n  dup2\n    /* \"#utility.yul\":3095:3118   */\n  swap1\n  pop\n    /* \"#utility.yul\":3071:3120   */\ntag_112:\n    /* \"#utility.yul\":3133:3213   */\n  tag_113\n    /* \"#utility.yul\":3189:3211   */\n  tag_114\n    /* \"#utility.yul\":3207:3210   */\n  dup6\n    /* \"#utility.yul\":3189:3211   */\n  tag_50\n  jump\t// in\ntag_114:\n    /* \"#utility.yul\":3179:3187   */\n  dup4\n    /* \"#utility.yul\":3175:3212   */\n  add\n    /* \"#utility.yul\":3162:3173   */\n  dup3\n    /* \"#utility.yul\":3133:3213   */\n  tag_60\n  jump\t// in\ntag_113:\n    /* \"#utility.yul\":2792:3223   */\n  pop\n  pop\n    /* \"#utility.yul\":2777:3223   */\ntag_109:\n    /* \"#utility.yul\":2687:3230   */\n  pop\n  pop\n  pop\n  jump\t// out\n    /* \"#utility.yul\":3236:3353   */\ntag_62:\n    /* \"#utility.yul\":3290:3298   */\n  0x00\n    /* \"#utility.yul\":3340:3345   */\n  dup3\n    /* \"#utility.yul\":3334:3338   */\n  dup3\n    /* \"#utility.yul\":3330:3346   */\n  shr\n    /* \"#utility.yul\":3309:3346   */\n  swap1\n  pop\n    /* \"#utility.yul\":3236:3353   */\n  swap3\n  swap2\n  pop\n  pop\n  jump\t// out\n    /* \"#utility.yul\":3359:3528   */\ntag_63:\n    /* \"#utility.yul\":3403:3409   */\n  0x00\n    /* \"#utility.yul\":3436:3487   */\n  tag_117\n    /* \"#utility.yul\":3484:3485   */\n  0x00\n    /* \"#utility.yul\":3480:3486   */\n  not\n    /* \"#utility.yul\":3472:3477   */\n  dup5\n    /* \"#utility.yul\":3469:3470   */\n  0x08\n    /* \"#utility.yul\":3465:3478   */\n  mul\n    /* \"#utility.yul\":3436:3487   */\n  tag_62\n  jump\t// in\ntag_117:\n    /* \"#utility.yul\":3432:3488   */\n  not\n    /* \"#utility.yul\":3517:3521   */\n  dup1\n    /* \"#utility.yul\":3511:3515   */\n  dup4\n    /* \"#utility.yul\":3507:3522   */\n  and\n    /* \"#utility.yul\":3497:3522   */\n  swap2\n  pop\n    /* \"#utility.yul\":3410:3528   */\n  pop\n    /* \"#utility.yul\":3359:3528   */\n  swap3\n  swap2\n  pop\n  pop\n  jump\t// out\n    /* \"#utility.yul\":3533:3828   */\ntag_64:\n    /* \"#utility.yul\":3609:3613   */\n  0x00\n    /* \"#utility.yul\":3755:3784   */\n  tag_119\n    /* \"#utility.yul\":3780:3783   */\n  dup4\n    /* \"#utility.yul\":3774:3778   */\n  dup4\n    /* \"#utility.yul\":3755:3784   */\n  tag_63\n  jump\t// in\ntag_119:\n    /* \"#utility.yul\":3747:3784   */\n  swap2\n  pop\n    /* \"#utility.yul\":3817:3820   */\n  dup3\n    /* \"#utility.yul\":3814:3815   */\n  0x02\n    /* \"#utility.yul\":3810:3821   */\n  mul\n    /* \"#utility.yul\":3804:3808   */\n  dup3\n    /* \"#utility.yul\":3801:3822   */\n  or\n    /* \"#utility.yul\":3793:3822   */\n  swap1\n  pop\n    /* \"#utility.yul\":3533:3828   */\n  swap3\n  swap2\n  pop\n  pop\n  jump\t// out\n    /* \"#utility.yul\":3833:5228   */\ntag_7:\n    /* \"#utility.yul\":3950:3987   */\n  tag_121\n    /* \"#utility.yul\":3983:3986   */\n  dup3\n    /* \"#utility.yul\":3950:3987   */\n  tag_45\n  jump\t// in\ntag_121:\n    /* \"#utility.yul\":4052:4070   */\n  0xffffffffffffffff\n    /* \"#utility.yul\":4044:4050   */\n  dup2\n    /* \"#utility.yul\":4041:4071   */\n  gt\n    /* \"#utility.yul\":4038:4094   */\n  iszero\n  tag_122\n  jumpi\n    /* \"#utility.yul\":4074:4092   */\n  tag_123\n  tag_46\n  jump\t// in\ntag_123:\n    /* \"#utility.yul\":4038:4094   */\ntag_122:\n    /* \"#utility.yul\":4118:4156   */\n  tag_124\n    /* \"#utility.yul\":4150:4154   */\n  dup3\n    /* \"#utility.yul\":4144:4155   */\n  sload\n    /* \"#utility.yul\":4118:4156   */\n  tag_48\n  jump\t// in\ntag_124:\n    /* \"#utility.yul\":4203:4270   */\n  tag_125\n    /* \"#utility.yul\":4263:4269   */\n  dup3\n    /* \"#utility.yul\":4255:4261   */\n  dup3\n    /* \"#utility.yul\":4249:4253   */\n  dup6\n    /* \"#utility.yul\":4203:4270   */\n  tag_61\n  jump\t// in\ntag_125:\n    /* \"#utility.yul\":4297:4298   */\n  0x00\n    /* \"#utility.yul\":4321:4325   */\n  0x20\n    /* \"#utility.yul\":4308:4325   */\n  swap1\n  pop\n    /* \"#utility.yul\":4353:4355   */\n  0x1f\n    /* \"#utility.yul\":4345:4351   */\n  dup4\n    /* \"#utility.yul\":4342:4356   */\n  gt\n    /* \"#utility.yul\":4370:4371   */\n  0x01\n    /* \"#utility.yul\":4365:4983   */\n  dup2\n  eq\n  tag_127\n  jumpi\n    /* \"#utility.yul\":5027:5028   */\n  0x00\n    /* \"#utility.yul\":5044:5050   */\n  dup5\n    /* \"#utility.yul\":5041:5118   */\n  iszero\n  tag_128\n  jumpi\n    /* \"#utility.yul\":5093:5102   */\n  dup3\n    /* \"#utility.yul\":5088:5091   */\n  dup8\n    /* \"#utility.yul\":5084:5103   */\n  add\n    /* \"#utility.yul\":5078:5104   */\n  mload\n    /* \"#utility.yul\":5069:5104   */\n  swap1\n  pop\n    /* \"#utility.yul\":5041:5118   */\ntag_128:\n    /* \"#utility.yul\":5144:5211   */\n  tag_129\n    /* \"#utility.yul\":5204:5210   */\n  dup6\n    /* \"#utility.yul\":5197:5202   */\n  dup3\n    /* \"#utility.yul\":5144:5211   */\n  tag_64\n  jump\t// in\ntag_129:\n    /* \"#utility.yul\":5138:5142   */\n  dup7\n    /* \"#utility.yul\":5131:5212   */\n  sstore\n    /* \"#utility.yul\":5000:5222   */\n  pop\n    /* \"#utility.yul\":4335:5222   */\n  jump(tag_126)\n    /* \"#utility.yul\":4365:4983   */\ntag_127:\n    /* \"#utility.yul\":4417:4421   */\n  0x1f\n    /* \"#utility.yul\":4413:4422   */\n  not\n    /* \"#utility.yul\":4405:4411   */\n  dup5\n    /* \"#utility.yul\":4401:4423   */\n  and\n    /* \"#utility.yul\":4451:4488   */\n  tag_130\n    /* \"#utility.yul\":4483:4487   */\n  dup7\n    /* \"#utility.yul\":4451:4488   */\n  tag_49\n  jump\t// in\ntag_130:\n    /* \"#utility.yul\":4510:4511   */\n  0x00\n    /* \"#utility.yul\":4524:4732   */\ntag_131:\n    /* \"#utility.yul\":4538:4545   */\n  dup3\n    /* \"#utility.yul\":4535:4536   */\n  dup2\n    /* \"#utility.yul\":4532:4546   */\n  lt\n    /* \"#utility.yul\":4524:4732   */\n  iszero\n  tag_133\n  jumpi\n    /* \"#utility.yul\":4617:4626   */\n  dup5\n    /* \"#utility.yul\":4612:4615   */\n  dup10\n    /* \"#utility.yul\":4608:4627   */\n  add\n    /* \"#utility.yul\":4602:4628   */\n  mload\n    /* \"#utility.yul\":4594:4600   */\n  dup3\n    /* \"#utility.yul\":4587:4629   */\n  sstore\n    /* \"#utility.yul\":4668:4669   */\n  0x01\n    /* \"#utility.yul\":4660:4666   */\n  dup3\n    /* \"#utility.yul\":4656:4670   */\n  add\n    /* \"#utility.yul\":4646:4670   */\n  swap2\n  pop\n    /* \"#utility.yul\":4715:4717   */\n  0x20\n    /* \"#utility.yul\":4704:4713   */\n  dup6\n    /* \"#utility.yul\":4700:4718   */\n  add\n    /* \"#utility.yul\":4687:4718   */\n  swap5\n  pop\n    /* \"#utility.yul\":4561:4565   */\n  0x20\n    /* \"#utility.yul\":4558:4559   */\n  dup2\n    /* \"#utility.yul\":4554:4566   */\n  add\n    /* \"#utility.yul\":4549:4566   */\n  swap1\n  pop\n    /* \"#utility.yul\":4524:4732   */\n  jump(tag_131)\ntag_133:\n    /* \"#utility.yul\":4760:4766   */\n  dup7\n    /* \"#utility.yul\":4751:4758   */\n  dup4\n    /* \"#utility.yul\":4748:4767   */\n  lt\n    /* \"#utility.yul\":4745:4924   */\n  iszero\n  tag_134\n  jumpi\n    /* \"#utility.yul\":4818:4827   */\n  dup5\n    /* \"#utility.yul\":4813:4816   */\n  dup10\n    /* \"#utility.yul\":4809:4828   */\n  add\n    /* \"#utility.yul\":4803:4829   */\n  mload\n    /* \"#utility.yul\":4861:4909   */\n  tag_135\n    /* \"#utility.yul\":4903:4907   */\n  0x1f\n    /* \"#utility.yul\":4895:4901   */\n  dup10\n    /* \"#utility.yul\":4891:4908   */\n  and\n    /* \"#utility.yul\":4880:4889   */\n  dup3\n    /* \"#utility.yul\":4861:4909   */\n  tag_63\n  jump\t// in\ntag_135:\n    /* \"#utility.yul\":4853:4859   */\n  dup4\n    /* \"#utility.yul\":4846:4910   */\n  sstore\n    /* \"#utility.yul\":4768:4924   */\n  pop\n    /* \"#utility.yul\":4745:4924   */\ntag_134:\n    /* \"#utility.yul\":4970:4971   */\n  0x01\n    /* \"#utility.yul\":4966:4967   */\n  0x02\n    /* \"#utility.yul\":4958:4964   */\n  dup9\n    /* \"#utility.yul\":4954:4968   */\n  mul\n    /* \"#utility.yul\":4950:4972   */\n  add\n    /* \"#utility.yul\":4944:4948   */\n  dup9\n    /* \"#utility.yul\":4937:4973   */\n  sstore\n    /* \"#utility.yul\":4372:4983   */\n  pop\n  pop\n  pop\n    /* \"#utility.yul\":4335:5222   */\ntag_126:\n  pop\n    /* \"#utility.yul\":3925:5228   */\n  pop\n  pop\n  pop\n    /* \"#utility.yul\":3833:5228   */\n  pop\n  pop\n  jump\t// out\n    /* \"#utility.yul\":5234:5360   */\ntag_65:\n    /* \"#utility.yul\":5271:5278   */\n  0x00\n    /* \"#utility.yul\":5311:5353   */\n  0xffffffffffffffffffffffffffffffffffffffff\n    /* \"#utility.yul\":5304:5309   */\n  dup3\n    /* \"#utility.yul\":5300:5354   */\n  and\n    /* \"#utility.yul\":5289:5354   */\n  swap1\n  pop\n    /* \"#utility.yul\":5234:5360   */\n  swap2\n  swap1\n  pop\n  jump\t// out\n    /* \"#utility.yul\":5366:5462   */\ntag_66:\n    /* \"#utility.yul\":5403:5410   */\n  0x00\n    /* \"#utility.yul\":5432:5456   */\n  tag_138\n    /* \"#utility.yul\":5450:5455   */\n  dup3\n    /* \"#utility.yul\":5432:5456   */\n  tag_65\n  jump\t// in\ntag_138:\n    /* \"#utility.yul\":5421:5456   */\n  swap1\n  pop\n    /* \"#utility.yul\":5366:5462   */\n  swap2\n  swap1\n  pop\n  jump\t// out\n    /* \"#utility.yul\":5468:5586   */\ntag_67:\n    /* \"#utility.yul\":5555:5579   */\n  tag_140\n    /* \"#utility.yul\":5573:5578   */\n  dup2\n    /* \"#utility.yul\":5555:5579   */\n  tag_66\n  jump\t// in\ntag_140:\n    /* \"#utility.yul\":5550:5553   */\n  dup3\n    /* \"#utility.yul\":5543:5580   */\n  mstore\n    /* \"#utility.yul\":5468:5586   */\n  pop\n  pop\n  jump\t// out\n    /* \"#utility.yul\":5592:5814   */\ntag_12:\n    /* \"#utility.yul\":5685:5689   */\n  0x00\n    /* \"#utility.yul\":5723:5725   */\n  0x20\n    /* \"#utility.yul\":5712:5721   */\n  dup3\n    /* \"#utility.yul\":5708:5726   */\n  add\n    /* \"#utility.yul\":5700:5726   */\n  swap1\n  pop\n    /* \"#utility.yul\":5736:5807   */\n  tag_142\n    /* \"#utility.yul\":5804:5805   */\n  0x00\n    /* \"#utility.yul\":5793:5802   */\n  dup4\n    /* \"#utility.yul\":5789:5806   */\n  add\n    /* \"#utility.yul\":5780:5786   */\n  dup5\n    /* \"#utility.yul\":5736:5807   */\n  tag_67\n  jump\t// in\ntag_142:\n    /* \"#utility.yul\":5592:5814   */\n  swap3\n  swap2\n  pop\n  pop\n  jump\t// out\n    /* \"#utility.yul\":5820:6000   */\ntag_68:\n    /* \"#utility.yul\":5868:5945   */\n  0x4e487b7100000000000000000000000000000000000000000000000000000000\n    /* \"#utility.yul\":5865:5866   */\n  0x00\n    /* \"#utility.yul\":5858:5946   */\n  mstore\n    /* \"#utility.yul\":5965:5969   */\n  0x11\n    /* \"#utility.yul\":5962:5963   */\n  0x04\n    /* \"#utility.yul\":5955:5970   */\n  mstore\n    /* \"#utility.yul\":5989:5993   */\n  0x24\n    /* \"#utility.yul\":5986:5987   */\n  0x00\n    /* \"#utility.yul\":5979:5994   */\n  revert\n    /* \"#utility.yul\":6006:6108   */\ntag_69:\n    /* \"#utility.yul\":6048:6056   */\n  0x00\n    /* \"#utility.yul\":6095:6100   */\n  dup2\n    /* \"#utility.yul\":6092:6093   */\n  0x01\n    /* \"#utility.yul\":6088:6101   */\n  shr\n    /* \"#utility.yul\":6067:6101   */\n  swap1\n  pop\n    /* \"#utility.yul\":6006:6108   */\n  swap2\n  swap1\n  pop\n  jump\t// out\n    /* \"#utility.yul\":6114:6962   */\ntag_70:\n    /* \"#utility.yul\":6175:6180   */\n  0x00\n    /* \"#utility.yul\":6182:6186   */\n  dup1\n    /* \"#utility.yul\":6206:6212   */\n  dup3\n    /* \"#utility.yul\":6197:6212   */\n  swap2\n  pop\n    /* \"#utility.yul\":6230:6235   */\n  dup4\n    /* \"#utility.yul\":6221:6235   */\n  swap1\n  pop\n    /* \"#utility.yul\":6244:6956   */\ntag_146:\n    /* \"#utility.yul\":6265:6266   */\n  0x01\n    /* \"#utility.yul\":6255:6263   */\n  dup6\n    /* \"#utility.yul\":6252:6267   */\n  gt\n    /* \"#utility.yul\":6244:6956   */\n  iszero\n  tag_148\n  jumpi\n    /* \"#utility.yul\":6360:6364   */\n  dup1\n    /* \"#utility.yul\":6355:6358   */\n  dup7\n    /* \"#utility.yul\":6351:6365   */\n  div\n    /* \"#utility.yul\":6345:6349   */\n  dup2\n    /* \"#utility.yul\":6342:6366   */\n  gt\n    /* \"#utility.yul\":6339:6389   */\n  iszero\n  tag_149\n  jumpi\n    /* \"#utility.yul\":6369:6387   */\n  tag_150\n  tag_68\n  jump\t// in\ntag_150:\n    /* \"#utility.yul\":6339:6389   */\ntag_149:\n    /* \"#utility.yul\":6419:6420   */\n  0x01\n    /* \"#utility.yul\":6409:6417   */\n  dup6\n    /* \"#utility.yul\":6405:6421   */\n  and\n    /* \"#utility.yul\":6402:6853   */\n  iszero\n  tag_151\n  jumpi\n    /* \"#utility.yul\":6834:6838   */\n  dup1\n    /* \"#utility.yul\":6827:6832   */\n  dup3\n    /* \"#utility.yul\":6823:6839   */\n  mul\n    /* \"#utility.yul\":6814:6839   */\n  swap2\n  pop\n    /* \"#utility.yul\":6402:6853   */\ntag_151:\n    /* \"#utility.yul\":6884:6888   */\n  dup1\n    /* \"#utility.yul\":6878:6882   */\n  dup2\n    /* \"#utility.yul\":6874:6889   */\n  mul\n    /* \"#utility.yul\":6866:6889   */\n  swap1\n  pop\n    /* \"#utility.yul\":6914:6946   */\n  tag_152\n    /* \"#utility.yul\":6937:6945   */\n  dup6\n    /* \"#utility.yul\":6914:6946   */\n  tag_69\n  jump\t// in\ntag_152:\n    /* \"#utility.yul\":6902:6946   */\n  swap5\n  pop\n    /* \"#utility.yul\":6244:6956   */\n  jump(tag_146)\ntag_148:\n    /* \"#utility.yul\":6114:6962   */\n  swap5\n  pop\n  swap5\n  swap3\n  pop\n  pop\n  pop\n  jump\t// out\n    /* \"#utility.yul\":6968:8041   */\ntag_71:\n    /* \"#utility.yul\":7022:7027   */\n  0x00\n    /* \"#utility.yul\":7213:7221   */\n  dup3\n    /* \"#utility.yul\":7203:7243   */\n  tag_154\n  jumpi\n    /* \"#utility.yul\":7234:7235   */\n  0x01\n    /* \"#utility.yul\":7225:7235   */\n  swap1\n  pop\n    /* \"#utility.yul\":7236:7241   */\n  jump(tag_153)\n    /* \"#utility.yul\":7203:7243   */\ntag_154:\n    /* \"#utility.yul\":7262:7266   */\n  dup2\n    /* \"#utility.yul\":7252:7288   */\n  tag_155\n  jumpi\n    /* \"#utility.yul\":7279:7280   */\n  0x00\n    /* \"#utility.yul\":7270:7280   */\n  swap1\n  pop\n    /* \"#utility.yul\":7281:7286   */\n  jump(tag_153)\n    /* \"#utility.yul\":7252:7288   */\ntag_155:\n    /* \"#utility.yul\":7348:7352   */\n  dup2\n    /* \"#utility.yul\":7396:7397   */\n  0x01\n    /* \"#utility.yul\":7391:7418   */\n  dup2\n  eq\n  tag_157\n  jumpi\n    /* \"#utility.yul\":7432:7433   */\n  0x02\n    /* \"#utility.yul\":7427:7618   */\n  dup2\n  eq\n  tag_158\n  jumpi\n    /* \"#utility.yul\":7341:7618   */\n  jump(tag_156)\n    /* \"#utility.yul\":7391:7418   */\ntag_157:\n    /* \"#utility.yul\":7409:7410   */\n  0x01\n    /* \"#utility.yul\":7400:7410   */\n  swap2\n  pop\n    /* \"#utility.yul\":7411:7416   */\n  pop\n  jump(tag_153)\n    /* \"#utility.yul\":7427:7618   */\ntag_158:\n    /* \"#utility.yul\":7472:7475   */\n  0xff\n    /* \"#utility.yul\":7462:7470   */\n  dup5\n    /* \"#utility.yul\":7459:7476   */\n  gt\n    /* \"#utility.yul\":7456:7499   */\n  iszero\n  tag_159\n  jumpi\n    /* \"#utility.yul\":7479:7497   */\n  tag_160\n  tag_68\n  jump\t// in\ntag_160:\n    /* \"#utility.yul\":7456:7499   */\ntag_159:\n    /* \"#utility.yul\":7528:7536   */\n  dup4\n    /* \"#utility.yul\":7525:7526   */\n  0x02\n    /* \"#utility.yul\":7521:7537   */\n  exp\n    /* \"#utility.yul\":7512:7537   */\n  swap2\n  pop\n    /* \"#utility.yul\":7563:7566   */\n  dup5\n    /* \"#utility.yul\":7556:7561   */\n  dup3\n    /* \"#utility.yul\":7553:7567   */\n  gt\n    /* \"#utility.yul\":7550:7590   */\n  iszero\n  tag_161\n  jumpi\n    /* \"#utility.yul\":7570:7588   */\n  tag_162\n  tag_68\n  jump\t// in\ntag_162:\n    /* \"#utility.yul\":7550:7590   */\ntag_161:\n    /* \"#utility.yul\":7603:7608   */\n  pop\n  jump(tag_153)\n    /* \"#utility.yul\":7341:7618   */\ntag_156:\n  pop\n    /* \"#utility.yul\":7727:7729   */\n  0x20\n    /* \"#utility.yul\":7717:7725   */\n  dup4\n    /* \"#utility.yul\":7714:7730   */\n  lt\n    /* \"#utility.yul\":7708:7711   */\n  0x0133\n    /* \"#utility.yul\":7702:7706   */\n  dup4\n    /* \"#utility.yul\":7699:7712   */\n  lt\n    /* \"#utility.yul\":7695:7731   */\n  and\n    /* \"#utility.yul\":7677:7679   */\n  0x4e\n    /* \"#utility.yul\":7667:7675   */\n  dup5\n    /* \"#utility.yul\":7664:7680   */\n  lt\n    /* \"#utility.yul\":7659:7661   */\n  0x0b\n    /* \"#utility.yul\":7653:7657   */\n  dup5\n    /* \"#utility.yul\":7650:7662   */\n  lt\n    /* \"#utility.yul\":7646:7681   */\n  and\n    /* \"#utility.yul\":7630:7741   */\n  or\n    /* \"#utility.yul\":7627:7873   */\n  iszero\n  tag_163\n  jumpi\n    /* \"#utility.yul\":7783:7791   */\n  dup3\n    /* \"#utility.yul\":7777:7781   */\n  dup3\n    /* \"#utility.yul\":7773:7792   */\n  exp\n    /* \"#utility.yul\":7764:7792   */\n  swap1\n  pop\n    /* \"#utility.yul\":7818:7821   */\n  dup4\n    /* \"#utility.yul\":7811:7816   */\n  dup2\n    /* \"#utility.yul\":7808:7822   */\n  gt\n    /* \"#utility.yul\":7805:7845   */\n  iszero\n  tag_164\n  jumpi\n    /* \"#utility.yul\":7825:7843   */\n  tag_165\n  tag_68\n  jump\t// in\ntag_165:\n    /* \"#utility.yul\":7805:7845   */\ntag_164:\n    /* \"#utility.yul\":7858:7863   */\n  jump(tag_153)\n    /* \"#utility.yul\":7627:7873   */\ntag_163:\n    /* \"#utility.yul\":7898:7940   */\n  tag_166\n    /* \"#utility.yul\":7936:7939   */\n  dup5\n    /* \"#utility.yul\":7926:7934   */\n  dup5\n    /* \"#utility.yul\":7920:7924   */\n  dup5\n    /* \"#utility.yul\":7917:7918   */\n  0x01\n    /* \"#utility.yul\":7898:7940   */\n  tag_70\n  jump\t// in\ntag_166:\n    /* \"#utility.yul\":7883:7940   */\n  swap3\n  pop\n  swap1\n  pop\n    /* \"#utility.yul\":7972:7976   */\n  dup2\n    /* \"#utility.yul\":7967:7970   */\n  dup5\n    /* \"#utility.yul\":7963:7977   */\n  div\n    /* \"#utility.yul\":7956:7961   */\n  dup2\n    /* \"#utility.yul\":7953:7978   */\n  gt\n    /* \"#utility.yul\":7950:8001   */\n  iszero\n  tag_167\n  jumpi\n    /* \"#utility.yul\":7981:7999   */\n  tag_168\n  tag_68\n  jump\t// in\ntag_168:\n    /* \"#utility.yul\":7950:8001   */\ntag_167:\n    /* \"#utility.yul\":8030:8034   */\n  dup2\n    /* \"#utility.yul\":8023:8028   */\n  dup2\n    /* \"#utility.yul\":8019:8035   */\n  mul\n    /* \"#utility.yul\":8010:8035   */\n  swap1\n  pop\n    /* \"#utility.yul\":6968:8041   */\ntag_153:\n  swap4\n  swap3\n  pop\n  pop\n  pop\n  jump\t// out\n    /* \"#utility.yul\":8047:8133   */\ntag_72:\n    /* \"#utility.yul\":8082:8089   */\n  0x00\n    /* \"#utility.yul\":8122:8126   */\n  0xff\n    /* \"#utility.yul\":8115:8120   */\n  dup3\n    /* \"#utility.yul\":8111:8127   */\n  and\n    /* \"#utility.yul\":8100:8127   */\n  swap1\n  pop\n    /* \"#utility.yul\":8047:8133   */\n  swap2\n  swap1\n  pop\n  jump\t// out\n    /* \"#utility.yul\":8139:8420   */\ntag_20:\n    /* \"#utility.yul\":8197:8202   */\n  0x00\n    /* \"#utility.yul\":8221:8244   */\n  tag_171\n    /* \"#utility.yul\":8239:8243   */\n  dup3\n    /* \"#utility.yul\":8221:8244   */\n  tag_53\n  jump\t// in\ntag_171:\n    /* \"#utility.yul\":8213:8244   */\n  swap2\n  pop\n    /* \"#utility.yul\":8265:8290   */\n  tag_172\n    /* \"#utility.yul\":8281:8289   */\n  dup4\n    /* \"#utility.yul\":8265:8290   */\n  tag_72\n  jump\t// in\ntag_172:\n    /* \"#utility.yul\":8253:8290   */\n  swap3\n  pop\n    /* \"#utility.yul\":8309:8413   */\n  tag_173\n    /* \"#utility.yul\":8346:8412   */\n  0xffffffffffffffffffffffffffffffffffffffffffffffffffffffffffffffff\n    /* \"#utility.yul\":8336:8344   */\n  dup5\n    /* \"#utility.yul\":8330:8334   */\n  dup5\n    /* \"#utility.yul\":8309:8413   */\n  tag_71\n  jump\t// in\ntag_173:\n    /* \"#utility.yul\":8300:8413   */\n  swap1\n  pop\n    /* \"#utility.yul\":8139:8420   */\n  swap3\n  swap2\n  pop\n  pop\n  jump\t// out\n    /* \"#utility.yul\":8426:8836   */\ntag_22:\n    /* \"#utility.yul\":8466:8473   */\n  0x00\n    /* \"#utility.yul\":8489:8509   */\n  tag_175\n    /* \"#utility.yul\":8507:8508   */\n  dup3\n    /* \"#utility.yul\":8489:8509   */\n  tag_53\n  jump\t// in\ntag_175:\n    /* \"#utility.yul\":8484:8509   */\n  swap2\n  pop\n    /* \"#utility.yul\":8523:8543   */\n  tag_176\n    /* \"#utility.yul\":8541:8542   */\n  dup4\n    /* \"#utility.yul\":8523:8543   */\n  tag_53\n  jump\t// in\ntag_176:\n    /* \"#utility.yul\":8518:8543   */\n  swap3\n  pop\n    /* \"#utility.yul\":8578:8579   */\n  dup3\n    /* \"#utility.yul\":8575:8576   */\n  dup3\n    /* \"#utility.yul\":8571:8580   */\n  mul\n    /* \"#utility.yul\":8600:8630   */\n  tag_177\n    /* \"#utility.yul\":8618:8629   */\n  dup2\n    /* \"#utility.yul\":8600:8630   */\n  tag_53\n  jump\t// in\ntag_177:\n    /* \"#utility.yul\":8589:8630   */\n  swap2\n  pop\n    /* \"#utility.yul\":8779:8780   */\n  dup3\n    /* \"#utility.yul\":8770:8777   */\n  dup3\n    /* \"#utility.yul\":8766:8781   */\n  div\n    /* \"#utility.yul\":8763:8764   */\n  dup5\n    /* \"#utility.yul\":8760:8782   */\n  eq\n    /* \"#utility.yul\":8740:8741   */\n  dup4\n    /* \"#utility.yul\":8733:8742   */\n  iszero\n    /* \"#utility.yul\":8713:8796   */\n  or\n    /* \"#utility.yul\":8690:8829   */\n  tag_178\n  jumpi\n    /* \"#utility.yul\":8809:8827   */\n  tag_179\n  tag_68\n  jump\t// in\ntag_179:\n    /* \"#utility.yul\":8690:8829   */\ntag_178:\n    /* \"#utility.yul\":8474:8836   */\n  pop\n    /* \"#utility.yul\":8426:8836   */\n  swap3\n  swap2\n  pop\n  pop\n  jump\t// out\n    /* \"#utility.yul\":8842:9033   */\ntag_36:\n    /* \"#utility.yul\":8882:8885   */\n  0x00\n    /* \"#utility.yul\":8901:8921   */\n  tag_181\n    /* \"#utility.yul\":8919:8920   */\n  dup3\n    /* \"#utility.yul\":8901:8921   */\n  tag_53\n  jump\t// in\ntag_181:\n    /* \"#utility.yul\":8896:8921   */\n  swap2\n  pop\n    /* \"#utility.yul\":8935:8955   */\n  tag_182\n    /* \"#utility.yul\":8953:8954   */\n  dup4\n    /* \"#utility.yul\":8935:8955   */\n  tag_53\n  jump\t// in\ntag_182:\n    /* \"#utility.yul\":8930:8955   */\n  swap3\n  pop\n    /* \"#utility.yul\":8978:8979   */\n  dup3\n    /* \"#utility.yul\":8975:8976   */\n  dup3\n    /* \"#utility.yul\":8971:8980   */\n  add\n    /* \"#utility.yul\":8964:8980   */\n  swap1\n  pop\n    /* \"#utility.yul\":8999:9002   */\n  dup1\n    /* \"#utility.yul\":8996:8997   */\n  dup3\n    /* \"#utility.yul\":8993:9003   */\n  gt\n    /* \"#utility.yul\":8990:9026   */\n  iszero\n  tag_183\n  jumpi\n    /* \"#utility.yul\":9006:9024   */\n  tag_184\n  tag_68\n  jump\t// in\ntag_184:\n    /* \"#utility.yul\":8990:9026   */\ntag_183:\n    /* \"#utility.yul\":8842:9033   */\n  swap3\n  swap2\n  pop\n  pop\n  jump\t// out\n    /* \"#utility.yul\":9039:9157   */\ntag_73:\n    /* \"#utility.yul\":9126:9150   */\n  tag_186\n    /* \"#utility.yul\":9144:9149   */\n  dup2\n    /* \"#utility.yul\":9126:9150   */\n  tag_53\n  jump\t// in\ntag_186:\n    /* \"#utility.yul\":9121:9124   */\n  dup3\n    /* \"#utility.yul\":9114:9151   */\n  mstore\n    /* \"#utility.yul\":9039:9157   */\n  pop\n  pop\n  jump\t// out\n    /* \"#utility.yul\":9163:9605   */\ntag_40:\n    /* \"#utility.yul\":9312:9316   */\n  0x00\n    /* \"#utility.yul\":9350:9352   */\n  0x60\n    /* \"#utility.yul\":9339:9348   */\n  dup3\n    /* \"#utility.yul\":9335:9353   */\n  add\n    /* \"#utility.yul\":9327:9353   */\n  swap1\n  pop\n    /* \"#utility.yul\":9363:9434   */\n  tag_188\n    /* \"#utility.yul\":9431:9432   */\n  0x00\n    /* \"#utility.yul\":9420:9429   */\n  dup4\n    /* \"#utility.yul\":9416:9433   */\n  add\n    /* \"#utility.yul\":9407:9413   */\n  dup7\n    /* \"#utility.yul\":9363:9434   */\n  tag_67\n  jump\t// in\ntag_188:\n    /* \"#utility.yul\":9444:9516   */\n  tag_189\n    /* \"#utility.yul\":9512:9514   */\n  0x20\n    /* \"#utility.yul\":9501:9510   */\n  dup4\n    /* \"#utility.yul\":9497:9515   */\n  add\n    /* \"#utility.yul\":9488:9494   */\n  dup6\n    /* \"#utility.yul\":9444:9516   */\n  tag_73\n  jump\t// in\ntag_189:\n    /* \"#utility.yul\":9526:9598   */\n  tag_190\n    /* \"#utility.yul\":9594:9596   */\n  0x40\n    /* \"#utility.yul\":9583:9592   */\n  dup4\n    /* \"#utility.yul\":9579:9597   */\n  add\n    /* \"#utility.yul\":9570:9576   */\n  dup5\n    /* \"#utility.yul\":9526:9598   */\n  tag_73\n  jump\t// in\ntag_190:\n    /* \"#utility.yul\":9163:9605   */\n  swap5\n  swap4\n  pop\n  pop\n  pop\n  pop\n  jump\t// out\n    /* \"#utility.yul\":9611:9833   */\ntag_44:\n    /* \"#utility.yul\":9704:9708   */\n  0x00\n    /* \"#utility.yul\":9742:9744   */\n  0x20\n    /* \"#utility.yul\":9731:9740   */\n  dup3\n    /* \"#utility.yul\":9727:9745   */\n  add\n    /* \"#utility.yul\":9719:9745   */\n  swap1\n  pop\n    /* \"#utility.yul\":9755:9826   */\n  tag_192\n    /* \"#utility.yul\":9823:9824   */\n  0x00\n    /* \"#utility.yul\":9812:9821   */\n  dup4\n    /* \"#utility.yul\":9808:9825   */\n  add\n    /* \"#utility.yul\":9799:9805   */\n  dup5\n    /* \"#utility.yul\":9755:9826   */\n  tag_73\n  jump\t// in\ntag_192:\n    /* \"#utility.yul\":9611:9833   */\n  swap3\n  swap2\n  pop\n  pop\n  jump\t// out\n    /* \"work/home/zombiecoin.sol\":634:2893  contract Zombie is ERC20, Ownable{... */\ntag_25:\n  dataSize(sub_0)\n  dup1\n  dataOffset(sub_0)\n  0x00\n  codecopy\n  0x00\n  return\nstop\n\nsub_0: assembly {\n        /* \"work/home/zombiecoin.sol\":634:2893  contract Zombie is ERC20, Ownable{... */\n      mstore(0x40, 0x80)\n      jumpi(tag_1, lt(calldatasize, 0x04))\n      shr(0xe0, calldataload(0x00))\n      dup1\n      0x95d89b41\n      gt\n      tag_25\n      jumpi\n      dup1\n      0xbc3d6dc3\n      gt\n      tag_26\n      jumpi\n      dup1\n      0xbc3d6dc3\n      eq\n      tag_19\n      jumpi\n      dup1\n      0xc1280ae7\n      eq\n      tag_20\n      jumpi\n      dup1\n      0xdd62ed3e\n      eq\n      tag_21\n      jumpi\n      dup1\n      0xddca3f43\n      eq\n      tag_22\n      jumpi\n      dup1\n      0xf2c298be\n      eq\n      tag_23\n      jumpi\n      dup1\n      0xf2fde38b\n      eq\n      tag_24\n      jumpi\n      jump(tag_2)\n    tag_26:\n      dup1\n      0x95d89b41\n      eq\n      tag_14\n      jumpi\n      dup1\n      0x96eb64a9\n      eq\n      tag_15\n      jumpi\n      dup1\n      0xa035b1fe\n      eq\n      tag_16\n      jumpi\n      dup1\n      0xa0d81ba6\n      eq\n      tag_17\n      jumpi\n      dup1\n      0xa9059cbb\n      eq\n      tag_18\n      jumpi\n      jump(tag_2)\n    tag_25:\n      dup1\n      0x651dc0df\n      gt\n      tag_27\n      jumpi\n      dup1\n      0x651dc0df\n      eq\n      tag_8\n      jumpi\n      dup1\n      0x70a08231\n      eq\n      tag_9\n      jumpi\n      dup1\n      0x715018a6\n      eq\n      tag_10\n      jumpi\n      dup1\n      0x738f5b5b\n      eq\n      tag_11\n      jumpi\n      dup1\n      0x86e6e222\n      eq\n      tag_12\n      jumpi\n      dup1\n      0x8da5cb5b\n      eq\n      tag_13\n      jumpi\n      jump(tag_2)\n    tag_27:\n      dup1\n      0x06fdde03\n      eq\n      tag_3\n      jumpi\n      dup1\n      0x095ea7b3\n      eq\n      tag_4\n      jumpi\n      dup1\n      0x18160ddd\n      eq\n      tag_5\n      jumpi\n      dup1\n      0x23b872dd\n      eq\n      tag_6\n      jumpi\n      dup1\n      0x313ce567\n      eq\n      tag_7\n      jumpi\n      jump(tag_2)\n    tag_1:\n      jumpi(tag_2, calldatasize)\n        /* \"work/home/zombiecoin.sol\":2648:2657  uint _fee */\n      0x00\n        /* \"work/home/zombiecoin.sol\":2678:2681  fee */\n      sload(0x0a)\n        /* \"work/home/zombiecoin.sol\":2672:2675  100 */\n      0x64\n        /* \"work/home/zombiecoin.sol\":2660:2669  msg.value */\n      callvalue\n        /* \"work/home/zombiecoin.sol\":2660:2675  msg.value / 100 */\n      tag_30\n      swap2\n      swap1\n      tag_31\n      jump\t// in\n    tag_30:\n        /* \"work/home/zombiecoin.sol\":2660:2681  msg.value / 100 * fee */\n      tag_32\n      swap2\n      swap1\n      tag_33\n      jump\t// in\n    tag_32:\n        /* \"work/home/zombiecoin.sol\":2648:2681  uint _fee = msg.value / 100 * fee */\n      swap1\n      pop\n        /* \"work/home/zombiecoin.sol\":2692:2704  bool success */\n      0x00\n        /* \"work/home/zombiecoin.sol\":2710:2717  owner() */\n      tag_34\n        /* \"work/home/zombiecoin.sol\":2710:2715  owner */\n      tag_35\n        /* \"work/home/zombiecoin.sol\":2710:2717  owner() */\n      jump\t// in\n    tag_34:\n        /* \"work/home/zombiecoin.sol\":2710:2722  owner().call */\n      0xffffffffffffffffffffffffffffffffffffffff\n      and\n        /* \"work/home/zombiecoin.sol\":2730:2734  _fee */\n      dup3\n        /* \"work/home/zombiecoin.sol\":2710:2739  owner().call{value: _fee}(\"\") */\n      mload(0x40)\n      tag_36\n      swap1\n      tag_37\n      jump\t// in\n    tag_36:\n      0x00\n      mload(0x40)\n      dup1\n      dup4\n      sub\n      dup2\n      dup6\n      dup8\n      gas\n      call\n      swap3\n      pop\n      pop\n      pop\n      returndatasize\n      dup1\n      0x00\n      dup2\n      eq\n      tag_40\n      jumpi\n      mload(0x40)\n      swap2\n      pop\n      and(add(returndatasize, 0x3f), not(0x1f))\n      dup3\n      add\n      0x40\n      mstore\n      returndatasize\n      dup3\n      mstore\n      returndatasize\n      0x00\n      0x20\n      dup5\n      add\n      returndatacopy\n      jump(tag_39)\n    tag_40:\n      0x60\n      swap2\n      pop\n    tag_39:\n      pop\n        /* \"work/home/zombiecoin.sol\":2691:2739  (bool success, ) = owner().call{value: _fee}(\"\") */\n      pop\n      swap1\n      pop\n        /* \"work/home/zombiecoin.sol\":2772:2783  uint _count */\n      0x00\n        /* \"work/home/zombiecoin.sol\":2798:2802  _fee */\n      dup3\n        /* \"work/home/zombiecoin.sol\":2786:2795  msg.value */\n      callvalue\n        /* \"work/home/zombiecoin.sol\":2786:2802  msg.value - _fee */\n      tag_42\n      swap2\n      swap1\n      tag_43\n      jump\t// in\n    tag_42:\n        /* \"work/home/zombiecoin.sol\":2772:2802  uint _count = msg.value - _fee */\n      swap1\n      pop\n        /* \"work/home/zombiecoin.sol\":2812:2822  uint count */\n      0x00\n        /* \"work/home/zombiecoin.sol\":2832:2837  price */\n      sload(0x09)\n        /* \"work/home/zombiecoin.sol\":2825:2831  _count */\n      dup3\n        /* \"work/home/zombiecoin.sol\":2825:2837  _count/price */\n      tag_44\n      swap2\n      swap1\n      tag_31\n      jump\t// in\n    tag_44:\n        /* \"work/home/zombiecoin.sol\":2812:2837  uint count = _count/price */\n      swap1\n      pop\n        /* \"work/home/zombiecoin.sol\":2847:2884  _transfer(owner(), msg.sender, count) */\n      tag_45\n        /* \"work/home/zombiecoin.sol\":2857:2864  owner() */\n      tag_46\n        /* \"work/home/zombiecoin.sol\":2857:2862  owner */\n      tag_35\n        /* \"work/home/zombiecoin.sol\":2857:2864  owner() */\n      jump\t// in\n    tag_46:\n        /* \"work/home/zombiecoin.sol\":2866:2876  msg.sender */\n      caller\n        /* \"work/home/zombiecoin.sol\":2878:2883  count */\n      dup4\n        /* \"work/home/zombiecoin.sol\":2847:2856  _transfer */\n      tag_47\n        /* \"work/home/zombiecoin.sol\":2847:2884  _transfer(owner(), msg.sender, count) */\n      jump\t// in\n    tag_45:\n        /* \"work/home/zombiecoin.sol\":2638:2891  {... */\n      stop\n        /* \"work/home/zombiecoin.sol\":634:2893  contract Zombie is ERC20, Ownable{... */\n    tag_2:\n      0x00\n      dup1\n      revert\n        /* \"@openzeppelin/contracts/token/ERC20/ERC20.sol\":1760:1849  function name() public view virtual returns (string memory) {... */\n    tag_3:\n      callvalue\n      dup1\n      iszero\n      tag_48\n      jumpi\n      0x00\n      dup1\n      revert\n    tag_48:\n      pop\n      tag_49\n      tag_50\n      jump\t// in\n    tag_49:\n      mload(0x40)\n      tag_51\n      swap2\n      swap1\n      tag_52\n      jump\t// in\n    tag_51:\n      mload(0x40)\n      dup1\n      swap2\n      sub\n      swap1\n      return\n        /* \"@openzeppelin/contracts/token/ERC20/ERC20.sol\":3979:4165  function approve(address spender, uint256 value) public virtual returns (bool) {... */\n    tag_4:\n      callvalue\n      dup1\n      iszero\n      tag_53\n      jumpi\n      0x00\n      dup1\n      revert\n    tag_53:\n      pop\n      tag_54\n      0x04\n      dup1\n      calldatasize\n      sub\n      dup2\n      add\n      swap1\n      tag_55\n      swap2\n      swap1\n      tag_56\n      jump\t// in\n    tag_55:\n      tag_57\n      jump\t// in\n    tag_54:\n      mload(0x40)\n      tag_58\n      swap2\n      swap1\n      tag_59\n      jump\t// in\n    tag_58:\n      mload(0x40)\n      dup1\n      swap2\n      sub\n      swap1\n      return\n        /* \"@openzeppelin/contracts/token/ERC20/ERC20.sol\":2830:2927  function totalSupply() public view virtual returns (uint256) {... */\n    tag_5:\n      callvalue\n      dup1\n      iszero\n      tag_60\n      jumpi\n      0x00\n      dup1\n      revert\n    tag_60:\n      pop\n      tag_61\n      tag_62\n      jump\t// in\n    tag_61:\n      mload(0x40)\n      tag_63\n      swap2\n      swap1\n      tag_64\n      jump\t// in\n    tag_63:\n      mload(0x40)\n      dup1\n      swap2\n      sub\n      swap1\n      return\n        /* \"@openzeppelin/contracts/token/ERC20/ERC20.sol\":4757:5001  function transferFrom(address from, address to, uint256 value) public virtual returns (bool) {... */\n    tag_6:\n      callvalue\n      dup1\n      iszero\n      tag_65\n      jumpi\n      0x00\n      dup1\n      revert\n    tag_65:\n      pop\n      tag_66\n      0x04\n      dup1\n      calldatasize\n      sub\n      dup2\n      add\n      swap1\n      tag_67\n      swap2\n      swap1\n      tag_68\n      jump\t// in\n    tag_67:\n      tag_69\n      jump\t// in\n    tag_66:\n      mload(0x40)\n      tag_70\n      swap2\n      swap1\n      tag_59\n      jump\t// in\n    tag_70:\n      mload(0x40)\n      dup1\n      swap2\n      sub\n      swap1\n      return\n        /* \"@openzeppelin/contracts/token/ERC20/ERC20.sol\":2688:2770  function decimals() public view virtual returns (uint8) {... */\n    tag_7:\n      callvalue\n      dup1\n      iszero\n      tag_71\n      jumpi\n      0x00\n      dup1\n      revert\n    tag_71:\n      pop\n      tag_72\n      tag_73\n      jump\t// in\n    tag_72:\n      mload(0x40)\n      tag_74\n      swap2\n      swap1\n      tag_75\n      jump\t// in\n    tag_74:\n      mload(0x40)\n      dup1\n      swap2\n      sub\n      swap1\n      return\n        /* \"work/home/zombiecoin.sol\":2090:2605  function capture(string memory hordeName, string memory name) external {... */\n    tag_8:\n      callvalue\n      dup1\n      iszero\n      tag_76\n      jumpi\n      0x00\n      dup1\n      revert\n    tag_76:\n      pop\n      tag_77\n      0x04\n      dup1\n      calldatasize\n      sub\n      dup2\n      add\n      swap1\n      tag_78\n      swap2\n      swap1\n      tag_79\n      jump\t// in\n    tag_78:\n      tag_80\n      jump\t// in\n    tag_77:\n      stop\n        /* \"@openzeppelin/contracts/token/ERC20/ERC20.sol\":2985:3101  function balanceOf(address account) public view virtual returns (uint256) {... */\n    tag_9:\n      callvalue\n      dup1\n      iszero\n      tag_81\n      jumpi\n      0x00\n      dup1\n      revert\n    tag_81:\n      pop\n      tag_82\n      0x04\n      dup1\n      calldatasize\n      sub\n      dup2\n      add\n      swap1\n      tag_83\n      swap2\n      swap1\n      tag_84\n      jump\t// in\n    tag_83:\n      tag_85\n      jump\t// in\n    tag_82:\n      mload(0x40)\n      tag_86\n      swap2\n      swap1\n      tag_64\n      jump\t// in\n    tag_86:\n      mload(0x40)\n      dup1\n      swap2\n      sub\n      swap1\n      return\n        /* \"@openzeppelin/contracts/access/Ownable.sol\":2293:2394  function renounceOwnership() public virtual onlyOwner {... */\n    tag_10:\n      callvalue\n      dup1\n      iszero\n      tag_87\n      jumpi\n      0x00\n      dup1\n      revert\n    tag_87:\n      pop\n      tag_88\n      tag_89\n      jump\t// in\n    tag_88:\n      stop\n        /* \"work/home/zombiecoin.sol\":1028:1066  mapping(string => Horde) public hordes */\n    tag_11:\n      callvalue\n      dup1\n      iszero\n      tag_90\n      jumpi\n      0x00\n      dup1\n      revert\n    tag_90:\n      pop\n      tag_91\n      0x04\n      dup1\n      calldatasize\n      sub\n      dup2\n      add\n      swap1\n      tag_92\n      swap2\n      swap1\n      tag_93\n      jump\t// in\n    tag_92:\n      tag_94\n      jump\t// in\n    tag_91:\n      mload(0x40)\n      tag_95\n      swap2\n      swap1\n      tag_64\n      jump\t// in\n    tag_95:\n      mload(0x40)\n      dup1\n      swap2\n      sub\n      swap1\n      return\n        /* \"work/home/zombiecoin.sol\":1072:1119  mapping(string => Territory) public territories */\n    tag_12:\n      callvalue\n      dup1\n      iszero\n      tag_96\n      jumpi\n      0x00\n      dup1\n      revert\n    tag_96:\n      pop\n      tag_97\n      0x04\n      dup1\n      calldatasize\n      sub\n      dup2\n      add\n      swap1\n      tag_98\n      swap2\n      swap1\n      tag_93\n      jump\t// in\n    tag_98:\n      tag_99\n      jump\t// in\n    tag_97:\n      mload(0x40)\n      tag_100\n      swap4\n      swap3\n      swap2\n      swap1\n      tag_101\n      jump\t// in\n    tag_100:\n      mload(0x40)\n      dup1\n      swap2\n      sub\n      swap1\n      return\n        /* \"@openzeppelin/contracts/access/Ownable.sol\":1638:1723  function owner() public view virtual returns (address) {... */\n    tag_13:\n      callvalue\n      dup1\n      iszero\n      tag_102\n      jumpi\n      0x00\n      dup1\n      revert\n    tag_102:\n      pop\n      tag_103\n      tag_35\n      jump\t// in\n    tag_103:\n      mload(0x40)\n      tag_104\n      swap2\n      swap1\n      tag_105\n      jump\t// in\n    tag_104:\n      mload(0x40)\n      dup1\n      swap2\n      sub\n      swap1\n      return\n        /* \"@openzeppelin/contracts/token/ERC20/ERC20.sol\":1962:2055  function symbol() public view virtual returns (string memory) {... */\n    tag_14:\n      callvalue\n      dup1\n      iszero\n      tag_106\n      jumpi\n      0x00\n      dup1\n      revert\n    tag_106:\n      pop\n      tag_107\n      tag_108\n      jump\t// in\n    tag_107:\n      mload(0x40)\n      tag_109\n      swap2\n      swap1\n      tag_52\n      jump\t// in\n    tag_109:\n      mload(0x40)\n      dup1\n      swap2\n      sub\n      swap1\n      return\n        /* \"work/home/zombiecoin.sol\":1585:1848  function infect(address target) external payable {... */\n    tag_15:\n      tag_110\n      0x04\n      dup1\n      calldatasize\n      sub\n      dup2\n      add\n      swap1\n      tag_111\n      swap2\n      swap1\n      tag_84\n      jump\t// in\n    tag_111:\n      tag_112\n      jump\t// in\n    tag_110:\n      stop\n        /* \"work/home/zombiecoin.sol\":1125:1156  uint public price = 100000 gwei */\n    tag_16:\n      callvalue\n      dup1\n      iszero\n      tag_113\n      jumpi\n      0x00\n      dup1\n      revert\n    tag_113:\n      pop\n      tag_114\n      tag_115\n      jump\t// in\n    tag_114:\n      mload(0x40)\n      tag_116\n      swap2\n      swap1\n      tag_64\n      jump\t// in\n    tag_116:\n      mload(0x40)\n      dup1\n      swap2\n      sub\n      swap1\n      return\n        /* \"work/home/zombiecoin.sol\":1188:1209  Territory public City */\n    tag_17:\n      callvalue\n      dup1\n      iszero\n      tag_117\n      jumpi\n      0x00\n      dup1\n      revert\n    tag_117:\n      pop\n      tag_118\n      tag_119\n      jump\t// in\n    tag_118:\n      mload(0x40)\n      tag_120\n      swap4\n      swap3\n      swap2\n      swap1\n      tag_101\n      jump\t// in\n    tag_120:\n      mload(0x40)\n      dup1\n      swap2\n      sub\n      swap1\n      return\n        /* \"@openzeppelin/contracts/token/ERC20/ERC20.sol\":3296:3474  function transfer(address to, uint256 value) public virtual returns (bool) {... */\n    tag_18:\n      callvalue\n      dup1\n      iszero\n      tag_121\n      jumpi\n      0x00\n      dup1\n      revert\n    tag_121:\n      pop\n      tag_122\n      0x04\n      dup1\n      calldatasize\n      sub\n      dup2\n      add\n      swap1\n      tag_123\n      swap2\n      swap1\n      tag_56\n      jump\t// in\n    tag_123:\n      tag_124\n      jump\t// in\n    tag_122:\n      mload(0x40)\n      tag_125\n      swap2\n      swap1\n      tag_59\n      jump\t// in\n    tag_125:\n      mload(0x40)\n      dup1\n      swap2\n      sub\n      swap1\n      return\n        /* \"work/home/zombiecoin.sol\":1854:1962  function formHorde(string memory name) external {... */\n    tag_19:\n      callvalue\n      dup1\n      iszero\n      tag_126\n      jumpi\n      0x00\n      dup1\n      revert\n    tag_126:\n      pop\n      tag_127\n      0x04\n      dup1\n      calldatasize\n      sub\n      dup2\n      add\n      swap1\n      tag_128\n      swap2\n      swap1\n      tag_93\n      jump\t// in\n    tag_128:\n      tag_129\n      jump\t// in\n    tag_127:\n      stop\n        /* \"work/home/zombiecoin.sol\":1968:2084  function getPower(string memory name) external view returns(uint) {... */\n    tag_20:\n      callvalue\n      dup1\n      iszero\n      tag_130\n      jumpi\n      0x00\n      dup1\n      revert\n    tag_130:\n      pop\n      tag_131\n      0x04\n      dup1\n      calldatasize\n      sub\n      dup2\n      add\n      swap1\n      tag_132\n      swap2\n      swap1\n      tag_93\n      jump\t// in\n    tag_132:\n      tag_133\n      jump\t// in\n    tag_131:\n      mload(0x40)\n      tag_134\n      swap2\n      swap1\n      tag_64\n      jump\t// in\n    tag_134:\n      mload(0x40)\n      dup1\n      swap2\n      sub\n      swap1\n      return\n        /* \"@openzeppelin/contracts/token/ERC20/ERC20.sol\":3532:3672  function allowance(address owner, address spender) public view virtual returns (uint256) {... */\n    tag_21:\n      callvalue\n      dup1\n      iszero\n      tag_135\n      jumpi\n      0x00\n      dup1\n      revert\n    tag_135:\n      pop\n      tag_136\n      0x04\n      dup1\n      calldatasize\n      sub\n      dup2\n      add\n      swap1\n      tag_137\n      swap2\n      swap1\n      tag_138\n      jump\t// in\n    tag_137:\n      tag_139\n      jump\t// in\n    tag_136:\n      mload(0x40)\n      tag_140\n      swap2\n      swap1\n      tag_64\n      jump\t// in\n    tag_140:\n      mload(0x40)\n      dup1\n      swap2\n      sub\n      swap1\n      return\n        /* \"work/home/zombiecoin.sol\":1162:1182  uint public fee = 10 */\n    tag_22:\n      callvalue\n      dup1\n      iszero\n      tag_141\n      jumpi\n      0x00\n      dup1\n      revert\n    tag_141:\n      pop\n      tag_142\n      tag_143\n      jump\t// in\n    tag_142:\n      mload(0x40)\n      tag_144\n      swap2\n      swap1\n      tag_64\n      jump\t// in\n    tag_144:\n      mload(0x40)\n      dup1\n      swap2\n      sub\n      swap1\n      return\n        /* \"work/home/zombiecoin.sol\":1435:1575  function register(string memory name) external {... */\n    tag_23:\n      callvalue\n      dup1\n      iszero\n      tag_145\n      jumpi\n      0x00\n      dup1\n      revert\n    tag_145:\n      pop\n      tag_146\n      0x04\n      dup1\n      calldatasize\n      sub\n      dup2\n      add\n      swap1\n      tag_147\n      swap2\n      swap1\n      tag_93\n      jump\t// in\n    tag_147:\n      tag_148\n      jump\t// in\n    tag_146:\n      stop\n        /* \"@openzeppelin/contracts/access/Ownable.sol\":2543:2758  function transferOwnership(address newOwner) public virtual onlyOwner {... */\n    tag_24:\n      callvalue\n      dup1\n      iszero\n      tag_149\n      jumpi\n      0x00\n      dup1\n      revert\n    tag_149:\n      pop\n      tag_150\n      0x04\n      dup1\n      calldatasize\n      sub\n      dup2\n      add\n      swap1\n      tag_151\n      swap2\n      swap1\n      tag_84\n      jump\t// in\n    tag_151:\n      tag_152\n      jump\t// in\n    tag_150:\n      stop\n        /* \"@openzeppelin/contracts/access/Ownable.sol\":1638:1723  function owner() public view virtual returns (address) {... */\n    tag_35:\n        /* \"@openzeppelin/contracts/access/Ownable.sol\":1684:1691  address */\n      0x00\n        /* \"@openzeppelin/contracts/access/Ownable.sol\":1710:1716  _owner */\n      0x05\n      0x00\n      swap1\n      sload\n      swap1\n      0x0100\n      exp\n      swap1\n      div\n      0xffffffffffffffffffffffffffffffffffffffff\n      and\n        /* \"@openzeppelin/contracts/access/Ownable.sol\":1703:1716  return _owner */\n      swap1\n      pop\n        /* \"@openzeppelin/contracts/access/Ownable.sol\":1638:1723  function owner() public view virtual returns (address) {... */\n      swap1\n      jump\t// out\n        /* \"@openzeppelin/contracts/token/ERC20/ERC20.sol\":5374:5674  function _transfer(address from, address to, uint256 value) internal {... */\n    tag_47:\n        /* \"@openzeppelin/contracts/token/ERC20/ERC20.sol\":5473:5474  0 */\n      0x00\n        /* \"@openzeppelin/contracts/token/ERC20/ERC20.sol\":5457:5475  from == address(0) */\n      0xffffffffffffffffffffffffffffffffffffffff\n      and\n        /* \"@openzeppelin/contracts/token/ERC20/ERC20.sol\":5457:5461  from */\n      dup4\n        /* \"@openzeppelin/contracts/token/ERC20/ERC20.sol\":5457:5475  from == address(0) */\n      0xffffffffffffffffffffffffffffffffffffffff\n      and\n      sub\n        /* \"@openzeppelin/contracts/token/ERC20/ERC20.sol\":5453:5539  if (from == address(0)) {... */\n      tag_155\n      jumpi\n        /* \"@openzeppelin/contracts/token/ERC20/ERC20.sol\":5525:5526  0 */\n      0x00\n        /* \"@openzeppelin/contracts/token/ERC20/ERC20.sol\":5498:5528  ERC20InvalidSender(address(0)) */\n      mload(0x40)\n      0x96c6fd1e00000000000000000000000000000000000000000000000000000000\n      dup2\n      mstore\n      0x04\n      add\n      tag_156\n      swap2\n      swap1\n      tag_105\n      jump\t// in\n    tag_156:\n      mload(0x40)\n      dup1\n      swap2\n      sub\n      swap1\n      revert\n        /* \"@openzeppelin/contracts/token/ERC20/ERC20.sol\":5453:5539  if (from == address(0)) {... */\n    tag_155:\n        /* \"@openzeppelin/contracts/token/ERC20/ERC20.sol\":5566:5567  0 */\n      0x00\n        /* \"@openzeppelin/contracts/token/ERC20/ERC20.sol\":5552:5568  to == address(0) */\n      0xffffffffffffffffffffffffffffffffffffffff\n      and\n        /* \"@openzeppelin/contracts/token/ERC20/ERC20.sol\":5552:5554  to */\n      dup3\n        /* \"@openzeppelin/contracts/token/ERC20/ERC20.sol\":5552:5568  to == address(0) */\n      0xffffffffffffffffffffffffffffffffffffffff\n      and\n      sub\n        /* \"@openzeppelin/contracts/token/ERC20/ERC20.sol\":5548:5634  if (to == address(0)) {... */\n      tag_157\n      jumpi\n        /* \"@openzeppelin/contracts/token/ERC20/ERC20.sol\":5620:5621  0 */\n      0x00\n        /* \"@openzeppelin/contracts/token/ERC20/ERC20.sol\":5591:5623  ERC20InvalidReceiver(address(0)) */\n      mload(0x40)\n      0xec442f0500000000000000000000000000000000000000000000000000000000\n      dup2\n      mstore\n      0x04\n      add\n      tag_158\n      swap2\n      swap1\n      tag_105\n      jump\t// in\n    tag_158:\n      mload(0x40)\n      dup1\n      swap2\n      sub\n      swap1\n      revert\n        /* \"@openzeppelin/contracts/token/ERC20/ERC20.sol\":5548:5634  if (to == address(0)) {... */\n    tag_157:\n        /* \"@openzeppelin/contracts/token/ERC20/ERC20.sol\":5643:5667  _update(from, to, value) */\n      tag_159\n        /* \"@openzeppelin/contracts/token/ERC20/ERC20.sol\":5651:5655  from */\n      dup4\n        /* \"@openzeppelin/contracts/token/ERC20/ERC20.sol\":5657:5659  to */\n      dup4\n        /* \"@openzeppelin/contracts/token/ERC20/ERC20.sol\":5661:5666  value */\n      dup4\n        /* \"@openzeppelin/contracts/token/ERC20/ERC20.sol\":5643:5650  _update */\n      tag_160\n        /* \"@openzeppelin/contracts/token/ERC20/ERC20.sol\":5643:5667  _update(from, to, value) */\n      jump\t// in\n    tag_159:\n        /* \"@openzeppelin/contracts/token/ERC20/ERC20.sol\":5374:5674  function _transfer(address from, address to, uint256 value) internal {... */\n      pop\n      pop\n      pop\n      jump\t// out\n        /* \"@openzeppelin/contracts/token/ERC20/ERC20.sol\":1760:1849  function name() public view virtual returns (string memory) {... */\n    tag_50:\n        /* \"@openzeppelin/contracts/token/ERC20/ERC20.sol\":1805:1818  string memory */\n      0x60\n        /* \"@openzeppelin/contracts/token/ERC20/ERC20.sol\":1837:1842  _name */\n      0x03\n        /* \"@openzeppelin/contracts/token/ERC20/ERC20.sol\":1830:1842  return _name */\n      dup1\n      sload\n      tag_162\n      swap1\n      tag_163\n      jump\t// in\n    tag_162:\n      dup1\n      0x1f\n      add\n      0x20\n      dup1\n      swap2\n      div\n      mul\n      0x20\n      add\n      mload(0x40)\n      swap1\n      dup2\n      add\n      0x40\n      mstore\n      dup1\n      swap3\n      swap2\n      swap1\n      dup2\n      dup2\n      mstore\n      0x20\n      add\n      dup3\n      dup1\n      sload\n      tag_164\n      swap1\n      tag_163\n      jump\t// in\n    tag_164:\n      dup1\n      iszero\n      tag_165\n      jumpi\n      dup1\n      0x1f\n      lt\n      tag_166\n      jumpi\n      0x0100\n      dup1\n      dup4\n      sload\n      div\n      mul\n      dup4\n      mstore\n      swap2\n      0x20\n      add\n      swap2\n      jump(tag_165)\n    tag_166:\n      dup3\n      add\n      swap2\n      swap1\n      0x00\n      mstore\n      keccak256(0x00, 0x20)\n      swap1\n    tag_167:\n      dup2\n      sload\n      dup2\n      mstore\n      swap1\n      0x01\n      add\n      swap1\n      0x20\n      add\n      dup1\n      dup4\n      gt\n      tag_167\n      jumpi\n      dup3\n      swap1\n      sub\n      0x1f\n      and\n      dup3\n      add\n      swap2\n    tag_165:\n      pop\n      pop\n      pop\n      pop\n      pop\n      swap1\n      pop\n        /* \"@openzeppelin/contracts/token/ERC20/ERC20.sol\":1760:1849  function name() public view virtual returns (string memory) {... */\n      swap1\n      jump\t// out\n        /* \"@openzeppelin/contracts/token/ERC20/ERC20.sol\":3979:4165  function approve(address spender, uint256 value) public virtual returns (bool) {... */\n    tag_57:\n        /* \"@openzeppelin/contracts/token/ERC20/ERC20.sol\":4052:4056  bool */\n      0x00\n        /* \"@openzeppelin/contracts/token/ERC20/ERC20.sol\":4068:4081  address owner */\n      dup1\n        /* \"@openzeppelin/contracts/token/ERC20/ERC20.sol\":4084:4096  _msgSender() */\n      tag_169\n        /* \"@openzeppelin/contracts/token/ERC20/ERC20.sol\":4084:4094  _msgSender */\n      tag_170\n        /* \"@openzeppelin/contracts/token/ERC20/ERC20.sol\":4084:4096  _msgSender() */\n      jump\t// in\n    tag_169:\n        /* \"@openzeppelin/contracts/token/ERC20/ERC20.sol\":4068:4096  address owner = _msgSender() */\n      swap1\n      pop\n        /* \"@openzeppelin/contracts/token/ERC20/ERC20.sol\":4106:4137  _approve(owner, spender, value) */\n      tag_171\n        /* \"@openzeppelin/contracts/token/ERC20/ERC20.sol\":4115:4120  owner */\n      dup2\n        /* \"@openzeppelin/contracts/token/ERC20/ERC20.sol\":4122:4129  spender */\n      dup6\n        /* \"@openzeppelin/contracts/token/ERC20/ERC20.sol\":4131:4136  value */\n      dup6\n        /* \"@openzeppelin/contracts/token/ERC20/ERC20.sol\":4106:4114  _approve */\n      tag_172\n        /* \"@openzeppelin/contracts/token/ERC20/ERC20.sol\":4106:4137  _approve(owner, spender, value) */\n      jump\t// in\n    tag_171:\n        /* \"@openzeppelin/contracts/token/ERC20/ERC20.sol\":4154:4158  true */\n      0x01\n        /* \"@openzeppelin/contracts/token/ERC20/ERC20.sol\":4147:4158  return true */\n      swap2\n      pop\n      pop\n        /* \"@openzeppelin/contracts/token/ERC20/ERC20.sol\":3979:4165  function approve(address spender, uint256 value) public virtual returns (bool) {... */\n      swap3\n      swap2\n      pop\n      pop\n      jump\t// out\n        /* \"@openzeppelin/contracts/token/ERC20/ERC20.sol\":2830:2927  function totalSupply() public view virtual returns (uint256) {... */\n    tag_62:\n        /* \"@openzeppelin/contracts/token/ERC20/ERC20.sol\":2882:2889  uint256 */\n      0x00\n        /* \"@openzeppelin/contracts/token/ERC20/ERC20.sol\":2908:2920  _totalSupply */\n      sload(0x02)\n        /* \"@openzeppelin/contracts/token/ERC20/ERC20.sol\":2901:2920  return _totalSupply */\n      swap1\n      pop\n        /* \"@openzeppelin/contracts/token/ERC20/ERC20.sol\":2830:2927  function totalSupply() public view virtual returns (uint256) {... */\n      swap1\n      jump\t// out\n        /* \"@openzeppelin/contracts/token/ERC20/ERC20.sol\":4757:5001  function transferFrom(address from, address to, uint256 value) public virtual returns (bool) {... */\n    tag_69:\n        /* \"@openzeppelin/contracts/token/ERC20/ERC20.sol\":4844:4848  bool */\n      0x00\n        /* \"@openzeppelin/contracts/token/ERC20/ERC20.sol\":4860:4875  address spender */\n      dup1\n        /* \"@openzeppelin/contracts/token/ERC20/ERC20.sol\":4878:4890  _msgSender() */\n      tag_175\n        /* \"@openzeppelin/contracts/token/ERC20/ERC20.sol\":4878:4888  _msgSender */\n      tag_170\n        /* \"@openzeppelin/contracts/token/ERC20/ERC20.sol\":4878:4890  _msgSender() */\n      jump\t// in\n    tag_175:\n        /* \"@openzeppelin/contracts/token/ERC20/ERC20.sol\":4860:4890  address spender = _msgSender() */\n      swap1\n      pop\n        /* \"@openzeppelin/contracts/token/ERC20/ERC20.sol\":4900:4937  _spendAllowance(from, spender, value) */\n      tag_176\n        /* \"@openzeppelin/contracts/token/ERC20/ERC20.sol\":4916:4920  from */\n      dup6\n        /* \"@openzeppelin/contracts/token/ERC20/ERC20.sol\":4922:4929  spender */\n      dup3\n        /* \"@openzeppelin/contracts/token/ERC20/ERC20.sol\":4931:4936  value */\n      dup6\n        /* \"@openzeppelin/contracts/token/ERC20/ERC20.sol\":4900:4915  _spendAllowance */\n      tag_177\n        /* \"@openzeppelin/contracts/token/ERC20/ERC20.sol\":4900:4937  _spendAllowance(from, spender, value) */\n      jump\t// in\n    tag_176:\n        /* \"@openzeppelin/contracts/token/ERC20/ERC20.sol\":4947:4973  _transfer(from, to, value) */\n      tag_178\n        /* \"@openzeppelin/contracts/token/ERC20/ERC20.sol\":4957:4961  from */\n      dup6\n        /* \"@openzeppelin/contracts/token/ERC20/ERC20.sol\":4963:4965  to */\n      dup6\n        /* \"@openzeppelin/contracts/token/ERC20/ERC20.sol\":4967:4972  value */\n      dup6\n        /* \"@openzeppelin/contracts/token/ERC20/ERC20.sol\":4947:4956  _transfer */\n      tag_47\n        /* \"@openzeppelin/contracts/token/ERC20/ERC20.sol\":4947:4973  _transfer(from, to, value) */\n      jump\t// in\n    tag_178:\n        /* \"@openzeppelin/contracts/token/ERC20/ERC20.sol\":4990:4994  true */\n      0x01\n        /* \"@openzeppelin/contracts/token/ERC20/ERC20.sol\":4983:4994  return true */\n      swap2\n      pop\n      pop\n        /* \"@openzeppelin/contracts/token/ERC20/ERC20.sol\":4757:5001  function transferFrom(address from, address to, uint256 value) public virtual returns (bool) {... */\n      swap4\n      swap3\n      pop\n      pop\n      pop\n      jump\t// out\n        /* \"@openzeppelin/contracts/token/ERC20/ERC20.sol\":2688:2770  function decimals() public view virtual returns (uint8) {... */\n    tag_73:\n        /* \"@openzeppelin/contracts/token/ERC20/ERC20.sol\":2737:2742  uint8 */\n      0x00\n        /* \"@openzeppelin/contracts/token/ERC20/ERC20.sol\":2761:2763  18 */\n      0x12\n        /* \"@openzeppelin/contracts/token/ERC20/ERC20.sol\":2754:2763  return 18 */\n      swap1\n      pop\n        /* \"@openzeppelin/contracts/token/ERC20/ERC20.sol\":2688:2770  function decimals() public view virtual returns (uint8) {... */\n      swap1\n      jump\t// out\n        /* \"work/home/zombiecoin.sol\":2090:2605  function capture(string memory hordeName, string memory name) external {... */\n    tag_80:\n        /* \"work/home/zombiecoin.sol\":2192:2198  hordes */\n      0x07\n        /* \"work/home/zombiecoin.sol\":2199:2203  name */\n      dup2\n        /* \"work/home/zombiecoin.sol\":2192:2204  hordes[name] */\n      mload(0x40)\n      tag_181\n      swap2\n      swap1\n      tag_182\n      jump\t// in\n    tag_181:\n      swap1\n      dup2\n      mstore\n      0x20\n      add\n      mload(0x40)\n      dup1\n      swap2\n      sub\n      swap1\n      keccak256\n        /* \"work/home/zombiecoin.sol\":2192:2211  hordes[name].amount */\n      0x00\n      add\n        /* \"work/home/zombiecoin.sol\":2192:2218  hordes[name].amount.length */\n      dup1\n      sload\n      swap1\n      pop\n        /* \"work/home/zombiecoin.sol\":2171:2177  hordes */\n      0x07\n        /* \"work/home/zombiecoin.sol\":2178:2182  name */\n      dup3\n        /* \"work/home/zombiecoin.sol\":2171:2183  hordes[name] */\n      mload(0x40)\n      tag_183\n      swap2\n      swap1\n      tag_182\n      jump\t// in\n    tag_183:\n      swap1\n      dup2\n      mstore\n      0x20\n      add\n      mload(0x40)\n      dup1\n      swap2\n      sub\n      swap1\n      keccak256\n        /* \"work/home/zombiecoin.sol\":2171:2189  hordes[name].power */\n      0x01\n      add\n        /* \"work/home/zombiecoin.sol\":2171:2218  hordes[name].power = hordes[name].amount.length */\n      dup2\n      swap1\n      sstore\n      pop\n        /* \"work/home/zombiecoin.sol\":2264:2265  0 */\n      0x00\n        /* \"work/home/zombiecoin.sol\":2236:2247  territories */\n      0x08\n        /* \"work/home/zombiecoin.sol\":2248:2252  name */\n      dup3\n        /* \"work/home/zombiecoin.sol\":2236:2253  territories[name] */\n      mload(0x40)\n      tag_184\n      swap2\n      swap1\n      tag_182\n      jump\t// in\n    tag_184:\n      swap1\n      dup2\n      mstore\n      0x20\n      add\n      mload(0x40)\n      dup1\n      swap2\n      sub\n      swap1\n      keccak256\n        /* \"work/home/zombiecoin.sol\":2236:2260  territories[name].reward */\n      0x02\n      add\n      sload\n        /* \"work/home/zombiecoin.sol\":2236:2265  territories[name].reward != 0 */\n      sub\n        /* \"work/home/zombiecoin.sol\":2228:2287  require(territories[name].reward != 0, \"No such territory\") */\n      tag_185\n      jumpi\n      mload(0x40)\n      0x08c379a000000000000000000000000000000000000000000000000000000000\n      dup2\n      mstore\n      0x04\n      add\n      tag_186\n      swap1\n      tag_187\n      jump\t// in\n    tag_186:\n      mload(0x40)\n      dup1\n      swap2\n      sub\n      swap1\n      revert\n    tag_185:\n        /* \"work/home/zombiecoin.sol\":2332:2343  territories */\n      0x08\n        /* \"work/home/zombiecoin.sol\":2344:2348  name */\n      dup2\n        /* \"work/home/zombiecoin.sol\":2332:2349  territories[name] */\n      mload(0x40)\n      tag_188\n      swap2\n      swap1\n      tag_182\n      jump\t// in\n    tag_188:\n      swap1\n      dup2\n      mstore\n      0x20\n      add\n      mload(0x40)\n      dup1\n      swap2\n      sub\n      swap1\n      keccak256\n        /* \"work/home/zombiecoin.sol\":2332:2360  territories[name].hordePower */\n      0x01\n      add\n      sload\n        /* \"work/home/zombiecoin.sol\":2305:2311  hordes */\n      0x07\n        /* \"work/home/zombiecoin.sol\":2312:2321  hordeName */\n      dup4\n        /* \"work/home/zombiecoin.sol\":2305:2322  hordes[hordeName] */\n      mload(0x40)\n      tag_189\n      swap2\n      swap1\n      tag_182\n      jump\t// in\n    tag_189:\n      swap1\n      dup2\n      mstore\n      0x20\n      add\n      mload(0x40)\n      dup1\n      swap2\n      sub\n      swap1\n      keccak256\n        /* \"work/home/zombiecoin.sol\":2305:2328  hordes[hordeName].power */\n      0x01\n      add\n      sload\n        /* \"work/home/zombiecoin.sol\":2305:2360  hordes[hordeName].power >= territories[name].hordePower */\n      lt\n      iszero\n        /* \"work/home/zombiecoin.sol\":2297:2396  require(hordes[hordeName].power >= territories[name].hordePower, \"Horde doesn't have enough power\") */\n      tag_190\n      jumpi\n      mload(0x40)\n      0x08c379a000000000000000000000000000000000000000000000000000000000\n      dup2\n      mstore\n      0x04\n      add\n      tag_191\n      swap1\n      tag_192\n      jump\t// in\n    tag_191:\n      mload(0x40)\n      dup1\n      swap2\n      sub\n      swap1\n      revert\n    tag_190:\n        /* \"work/home/zombiecoin.sol\":2411:2417  uint i */\n      0x00\n        /* \"work/home/zombiecoin.sol\":2406:2561  for (uint i = 0; i < hordes[hordeName].power; i++){... */\n    tag_193:\n        /* \"work/home/zombiecoin.sol\":2427:2433  hordes */\n      0x07\n        /* \"work/home/zombiecoin.sol\":2434:2443  hordeName */\n      dup4\n        /* \"work/home/zombiecoin.sol\":2427:2444  hordes[hordeName] */\n      mload(0x40)\n      tag_196\n      swap2\n      swap1\n      tag_182\n      jump\t// in\n    tag_196:\n      swap1\n      dup2\n      mstore\n      0x20\n      add\n      mload(0x40)\n      dup1\n      swap2\n      sub\n      swap1\n      keccak256\n        /* \"work/home/zombiecoin.sol\":2427:2450  hordes[hordeName].power */\n      0x01\n      add\n      sload\n        /* \"work/home/zombiecoin.sol\":2423:2424  i */\n      dup2\n        /* \"work/home/zombiecoin.sol\":2423:2450  i < hordes[hordeName].power */\n      lt\n        /* \"work/home/zombiecoin.sol\":2406:2561  for (uint i = 0; i < hordes[hordeName].power; i++){... */\n      iszero\n      tag_194\n      jumpi\n        /* \"work/home/zombiecoin.sol\":2470:2550  _transfer(owner(), hordes[hordeName].amount[i].wallet, territories[name].reward) */\n      tag_197\n        /* \"work/home/zombiecoin.sol\":2480:2487  owner() */\n      tag_198\n        /* \"work/home/zombiecoin.sol\":2480:2485  owner */\n      tag_35\n        /* \"work/home/zombiecoin.sol\":2480:2487  owner() */\n      jump\t// in\n    tag_198:\n        /* \"work/home/zombiecoin.sol\":2489:2495  hordes */\n      0x07\n        /* \"work/home/zombiecoin.sol\":2496:2505  hordeName */\n      dup6\n        /* \"work/home/zombiecoin.sol\":2489:2506  hordes[hordeName] */\n      mload(0x40)\n      tag_199\n      swap2\n      swap1\n      tag_182\n      jump\t// in\n    tag_199:\n      swap1\n      dup2\n      mstore\n      0x20\n      add\n      mload(0x40)\n      dup1\n      swap2\n      sub\n      swap1\n      keccak256\n        /* \"work/home/zombiecoin.sol\":2489:2513  hordes[hordeName].amount */\n      0x00\n      add\n        /* \"work/home/zombiecoin.sol\":2514:2515  i */\n      dup4\n        /* \"work/home/zombiecoin.sol\":2489:2516  hordes[hordeName].amount[i] */\n      dup2\n      sload\n      dup2\n      lt\n      tag_200\n      jumpi\n      tag_201\n      tag_202\n      jump\t// in\n    tag_201:\n    tag_200:\n      swap1\n      0x00\n      mstore\n      keccak256(0x00, 0x20)\n      swap1\n      0x02\n      mul\n      add\n        /* \"work/home/zombiecoin.sol\":2489:2523  hordes[hordeName].amount[i].wallet */\n      0x01\n      add\n      0x00\n      swap1\n      sload\n      swap1\n      0x0100\n      exp\n      swap1\n      div\n      0xffffffffffffffffffffffffffffffffffffffff\n      and\n        /* \"work/home/zombiecoin.sol\":2525:2536  territories */\n      0x08\n        /* \"work/home/zombiecoin.sol\":2537:2541  name */\n      dup6\n        /* \"work/home/zombiecoin.sol\":2525:2542  territories[name] */\n      mload(0x40)\n      tag_204\n      swap2\n      swap1\n      tag_182\n      jump\t// in\n    tag_204:\n      swap1\n      dup2\n      mstore\n      0x20\n      add\n      mload(0x40)\n      dup1\n      swap2\n      sub\n      swap1\n      keccak256\n        /* \"work/home/zombiecoin.sol\":2525:2549  territories[name].reward */\n      0x02\n      add\n      sload\n        /* \"work/home/zombiecoin.sol\":2470:2479  _transfer */\n      tag_47\n        /* \"work/home/zombiecoin.sol\":2470:2550  _transfer(owner(), hordes[hordeName].amount[i].wallet, territories[name].reward) */\n      jump\t// in\n    tag_197:\n        /* \"work/home/zombiecoin.sol\":2452:2455  i++ */\n      dup1\n      dup1\n      0x01\n      add\n      swap2\n      pop\n      pop\n        /* \"work/home/zombiecoin.sol\":2406:2561  for (uint i = 0; i < hordes[hordeName].power; i++){... */\n      jump(tag_193)\n    tag_194:\n      pop\n        /* \"work/home/zombiecoin.sol\":2597:2598  0 */\n      0x00\n        /* \"work/home/zombiecoin.sol\":2570:2581  territories */\n      0x08\n        /* \"work/home/zombiecoin.sol\":2582:2586  name */\n      dup3\n        /* \"work/home/zombiecoin.sol\":2570:2587  territories[name] */\n      mload(0x40)\n      tag_205\n      swap2\n      swap1\n      tag_182\n      jump\t// in\n    tag_205:\n      swap1\n      dup2\n      mstore\n      0x20\n      add\n      mload(0x40)\n      dup1\n      swap2\n      sub\n      swap1\n      keccak256\n        /* \"work/home/zombiecoin.sol\":2570:2594  territories[name].reward */\n      0x02\n      add\n        /* \"work/home/zombiecoin.sol\":2570:2598  territories[name].reward = 0 */\n      dup2\n      swap1\n      sstore\n      pop\n        /* \"work/home/zombiecoin.sol\":2090:2605  function capture(string memory hordeName, string memory name) external {... */\n      pop\n      pop\n      jump\t// out\n        /* \"@openzeppelin/contracts/token/ERC20/ERC20.sol\":2985:3101  function balanceOf(address account) public view virtual returns (uint256) {... */\n    tag_85:\n        /* \"@openzeppelin/contracts/token/ERC20/ERC20.sol\":3050:3057  uint256 */\n      0x00\n        /* \"@openzeppelin/contracts/token/ERC20/ERC20.sol\":3076:3085  _balances */\n      dup1\n        /* \"@openzeppelin/contracts/token/ERC20/ERC20.sol\":3076:3094  _balances[account] */\n      0x00\n        /* \"@openzeppelin/contracts/token/ERC20/ERC20.sol\":3086:3093  account */\n      dup4\n        /* \"@openzeppelin/contracts/token/ERC20/ERC20.sol\":3076:3094  _balances[account] */\n      0xffffffffffffffffffffffffffffffffffffffff\n      and\n      0xffffffffffffffffffffffffffffffffffffffff\n      and\n      dup2\n      mstore\n      0x20\n      add\n      swap1\n      dup2\n      mstore\n      0x20\n      add\n      0x00\n      keccak256\n      sload\n        /* \"@openzeppelin/contracts/token/ERC20/ERC20.sol\":3069:3094  return _balances[account] */\n      swap1\n      pop\n        /* \"@openzeppelin/contracts/token/ERC20/ERC20.sol\":2985:3101  function balanceOf(address account) public view virtual returns (uint256) {... */\n      swap2\n      swap1\n      pop\n      jump\t// out\n        /* \"@openzeppelin/contracts/access/Ownable.sol\":2293:2394  function renounceOwnership() public virtual onlyOwner {... */\n    tag_89:\n        /* \"@openzeppelin/contracts/access/Ownable.sol\":1531:1544  _checkOwner() */\n      tag_208\n        /* \"@openzeppelin/contracts/access/Ownable.sol\":1531:1542  _checkOwner */\n      tag_209\n        /* \"@openzeppelin/contracts/access/Ownable.sol\":1531:1544  _checkOwner() */\n      jump\t// in\n    tag_208:\n        /* \"@openzeppelin/contracts/access/Ownable.sol\":2357:2387  _transferOwnership(address(0)) */\n      tag_211\n        /* \"@openzeppelin/contracts/access/Ownable.sol\":2384:2385  0 */\n      0x00\n        /* \"@openzeppelin/contracts/access/Ownable.sol\":2357:2375  _transferOwnership */\n      tag_212\n        /* \"@openzeppelin/contracts/access/Ownable.sol\":2357:2387  _transferOwnership(address(0)) */\n      jump\t// in\n    tag_211:\n        /* \"@openzeppelin/contracts/access/Ownable.sol\":2293:2394  function renounceOwnership() public virtual onlyOwner {... */\n      jump\t// out\n        /* \"work/home/zombiecoin.sol\":1028:1066  mapping(string => Horde) public hordes */\n    tag_94:\n      0x07\n      dup2\n      dup1\n      mload\n      0x20\n      dup2\n      add\n      dup3\n      add\n      dup1\n      mload\n      dup5\n      dup3\n      mstore\n      0x20\n      dup4\n      add\n      0x20\n      dup6\n      add\n      keccak256\n      dup2\n      dup4\n      mstore\n      dup1\n      swap6\n      pop\n      pop\n      pop\n      pop\n      pop\n      pop\n      0x00\n      swap2\n      pop\n      swap1\n      pop\n      dup1\n      0x01\n      add\n      sload\n      swap1\n      pop\n      dup2\n      jump\t// out\n        /* \"work/home/zombiecoin.sol\":1072:1119  mapping(string => Territory) public territories */\n    tag_99:\n      0x08\n      dup2\n      dup1\n      mload\n      0x20\n      dup2\n      add\n      dup3\n      add\n      dup1\n      mload\n      dup5\n      dup3\n      mstore\n      0x20\n      dup4\n      add\n      0x20\n      dup6\n      add\n      keccak256\n      dup2\n      dup4\n      mstore\n      dup1\n      swap6\n      pop\n      pop\n      pop\n      pop\n      pop\n      pop\n      0x00\n      swap2\n      pop\n      swap1\n      pop\n      dup1\n      0x00\n      add\n      dup1\n      sload\n      tag_213\n      swap1\n      tag_163\n      jump\t// in\n    tag_213:\n      dup1\n      0x1f\n      add\n      0x20\n      dup1\n      swap2\n      div\n      mul\n      0x20\n      add\n      mload(0x40)\n      swap1\n      dup2\n      add\n      0x40\n      mstore\n      dup1\n      swap3\n      swap2\n      swap1\n      dup2\n      dup2\n      mstore\n      0x20\n      add\n      dup3\n      dup1\n      sload\n      tag_214\n      swap1\n      tag_163\n      jump\t// in\n    tag_214:\n      dup1\n      iszero\n      tag_215\n      jumpi\n      dup1\n      0x1f\n      lt\n      tag_216\n      jumpi\n      0x0100\n      dup1\n      dup4\n      sload\n      div\n      mul\n      dup4\n      mstore\n      swap2\n      0x20\n      add\n      swap2\n      jump(tag_215)\n    tag_216:\n      dup3\n      add\n      swap2\n      swap1\n      0x00\n      mstore\n      keccak256(0x00, 0x20)\n      swap1\n    tag_217:\n      dup2\n      sload\n      dup2\n      mstore\n      swap1\n      0x01\n      add\n      swap1\n      0x20\n      add\n      dup1\n      dup4\n      gt\n      tag_217\n      jumpi\n      dup3\n      swap1\n      sub\n      0x1f\n      and\n      dup3\n      add\n      swap2\n    tag_215:\n      pop\n      pop\n      pop\n      pop\n      pop\n      swap1\n      dup1\n      0x01\n      add\n      sload\n      swap1\n      dup1\n      0x02\n      add\n      sload\n      swap1\n      pop\n      dup4\n      jump\t// out\n        /* \"@openzeppelin/contracts/token/ERC20/ERC20.sol\":1962:2055  function symbol() public view virtual returns (string memory) {... */\n    tag_108:\n        /* \"@openzeppelin/contracts/token/ERC20/ERC20.sol\":2009:2022  string memory */\n      0x60\n        /* \"@openzeppelin/contracts/token/ERC20/ERC20.sol\":2041:2048  _symbol */\n      0x04\n        /* \"@openzeppelin/contracts/token/ERC20/ERC20.sol\":2034:2048  return _symbol */\n      dup1\n      sload\n      tag_219\n      swap1\n      tag_163\n      jump\t// in\n    tag_219:\n      dup1\n      0x1f\n      add\n      0x20\n      dup1\n      swap2\n      div\n      mul\n      0x20\n      add\n      mload(0x40)\n      swap1\n      dup2\n      add\n      0x40\n      mstore\n      dup1\n      swap3\n      swap2\n      swap1\n      dup2\n      dup2\n      mstore\n      0x20\n      add\n      dup3\n      dup1\n      sload\n      tag_220\n      swap1\n      tag_163\n      jump\t// in\n    tag_220:\n      dup1\n      iszero\n      tag_221\n      jumpi\n      dup1\n      0x1f\n      lt\n      tag_222\n      jumpi\n      0x0100\n      dup1\n      dup4\n      sload\n      div\n      mul\n      dup4\n      mstore\n      swap2\n      0x20\n      add\n      swap2\n      jump(tag_221)\n    tag_222:\n      dup3\n      add\n      swap2\n      swap1\n      0x00\n      mstore\n      keccak256(0x00, 0x20)\n      swap1\n    tag_223:\n      dup2\n      sload\n      dup2\n      mstore\n      swap1\n      0x01\n      add\n      swap1\n      0x20\n      add\n      dup1\n      dup4\n      gt\n      tag_223\n      jumpi\n      dup3\n      swap1\n      sub\n      0x1f\n      and\n      dup3\n      add\n      swap2\n    tag_221:\n      pop\n      pop\n      pop\n      pop\n      pop\n      swap1\n      pop\n        /* \"@openzeppelin/contracts/token/ERC20/ERC20.sol\":1962:2055  function symbol() public view virtual returns (string memory) {... */\n      swap1\n      jump\t// out\n        /* \"work/home/zombiecoin.sol\":1585:1848  function infect(address target) external payable {... */\n    tag_112:\n        /* \"work/home/zombiecoin.sol\":1680:1693  Status.Zombie */\n      0x01\n        /* \"work/home/zombiecoin.sol\":1652:1693  users[msg.sender].status == Status.Zombie */\n      dup1\n      dup2\n      gt\n      iszero\n      tag_225\n      jumpi\n      tag_226\n      tag_227\n      jump\t// in\n    tag_226:\n    tag_225:\n        /* \"work/home/zombiecoin.sol\":1652:1657  users */\n      0x06\n        /* \"work/home/zombiecoin.sol\":1652:1669  users[msg.sender] */\n      0x00\n        /* \"work/home/zombiecoin.sol\":1658:1668  msg.sender */\n      caller\n        /* \"work/home/zombiecoin.sol\":1652:1669  users[msg.sender] */\n      0xffffffffffffffffffffffffffffffffffffffff\n      and\n      0xffffffffffffffffffffffffffffffffffffffff\n      and\n      dup2\n      mstore\n      0x20\n      add\n      swap1\n      dup2\n      mstore\n      0x20\n      add\n      0x00\n      keccak256\n        /* \"work/home/zombiecoin.sol\":1652:1676  users[msg.sender].status */\n      0x01\n      add\n      0x14\n      swap1\n      sload\n      swap1\n      0x0100\n      exp\n      swap1\n      div\n      0xff\n      and\n        /* \"work/home/zombiecoin.sol\":1652:1693  users[msg.sender].status == Status.Zombie */\n      0x01\n      dup2\n      gt\n      iszero\n      tag_228\n      jumpi\n      tag_229\n      tag_227\n      jump\t// in\n    tag_229:\n    tag_228:\n      eq\n        /* \"work/home/zombiecoin.sol\":1644:1694  require(users[msg.sender].status == Status.Zombie) */\n      tag_230\n      jumpi\n      0x00\n      dup1\n      revert\n    tag_230:\n        /* \"work/home/zombiecoin.sol\":1736:1749  Status.Zombie */\n      0x01\n        /* \"work/home/zombiecoin.sol\":1712:1749  users[target].status != Status.Zombie */\n      dup1\n      dup2\n      gt\n      iszero\n      tag_231\n      jumpi\n      tag_232\n      tag_227\n      jump\t// in\n    tag_232:\n    tag_231:\n        /* \"work/home/zombiecoin.sol\":1712:1717  users */\n      0x06\n        /* \"work/home/zombiecoin.sol\":1712:1725  users[target] */\n      0x00\n        /* \"work/home/zombiecoin.sol\":1718:1724  target */\n      dup4\n        /* \"work/home/zombiecoin.sol\":1712:1725  users[target] */\n      0xffffffffffffffffffffffffffffffffffffffff\n      and\n      0xffffffffffffffffffffffffffffffffffffffff\n      and\n      dup2\n      mstore\n      0x20\n      add\n      swap1\n      dup2\n      mstore\n      0x20\n      add\n      0x00\n      keccak256\n        /* \"work/home/zombiecoin.sol\":1712:1732  users[target].status */\n      0x01\n      add\n      0x14\n      swap1\n      sload\n      swap1\n      0x0100\n      exp\n      swap1\n      div\n      0xff\n      and\n        /* \"work/home/zombiecoin.sol\":1712:1749  users[target].status != Status.Zombie */\n      0x01\n      dup2\n      gt\n      iszero\n      tag_233\n      jumpi\n      tag_234\n      tag_227\n      jump\t// in\n    tag_234:\n    tag_233:\n      sub\n        /* \"work/home/zombiecoin.sol\":1704:1750  require(users[target].status != Status.Zombie) */\n      tag_235\n      jumpi\n      0x00\n      dup1\n      revert\n    tag_235:\n        /* \"work/home/zombiecoin.sol\":1783:1796  Status.Zombie */\n      0x01\n        /* \"work/home/zombiecoin.sol\":1760:1765  users */\n      0x06\n        /* \"work/home/zombiecoin.sol\":1760:1773  users[target] */\n      0x00\n        /* \"work/home/zombiecoin.sol\":1766:1772  target */\n      dup4\n        /* \"work/home/zombiecoin.sol\":1760:1773  users[target] */\n      0xffffffffffffffffffffffffffffffffffffffff\n      and\n      0xffffffffffffffffffffffffffffffffffffffff\n      and\n      dup2\n      mstore\n      0x20\n      add\n      swap1\n      dup2\n      mstore\n      0x20\n      add\n      0x00\n      keccak256\n        /* \"work/home/zombiecoin.sol\":1760:1780  users[target].status */\n      0x01\n      add\n      0x14\n        /* \"work/home/zombiecoin.sol\":1760:1796  users[target].status = Status.Zombie */\n      0x0100\n      exp\n      dup2\n      sload\n      dup2\n      0xff\n      mul\n      not\n      and\n      swap1\n      dup4\n      0x01\n      dup2\n      gt\n      iszero\n      tag_236\n      jumpi\n      tag_237\n      tag_227\n      jump\t// in\n    tag_237:\n    tag_236:\n      mul\n      or\n      swap1\n      sstore\n      pop\n        /* \"work/home/zombiecoin.sol\":1806:1841  _transfer(owner(), msg.sender, 100) */\n      tag_238\n        /* \"work/home/zombiecoin.sol\":1816:1823  owner() */\n      tag_239\n        /* \"work/home/zombiecoin.sol\":1816:1821  owner */\n      tag_35\n        /* \"work/home/zombiecoin.sol\":1816:1823  owner() */\n      jump\t// in\n    tag_239:\n        /* \"work/home/zombiecoin.sol\":1825:1835  msg.sender */\n      caller\n        /* \"work/home/zombiecoin.sol\":1837:1840  100 */\n      0x64\n        /* \"work/home/zombiecoin.sol\":1806:1815  _transfer */\n      tag_47\n        /* \"work/home/zombiecoin.sol\":1806:1841  _transfer(owner(), msg.sender, 100) */\n      jump\t// in\n    tag_238:\n        /* \"work/home/zombiecoin.sol\":1585:1848  function infect(address target) external payable {... */\n      pop\n      jump\t// out\n        /* \"work/home/zombiecoin.sol\":1125:1156  uint public price = 100000 gwei */\n    tag_115:\n      sload(0x09)\n      dup2\n      jump\t// out\n        /* \"work/home/zombiecoin.sol\":1188:1209  Territory public City */\n    tag_119:\n      0x0b\n      dup1\n      0x00\n      add\n      dup1\n      sload\n      tag_240\n      swap1\n      tag_163\n      jump\t// in\n    tag_240:\n      dup1\n      0x1f\n      add\n      0x20\n      dup1\n      swap2\n      div\n      mul\n      0x20\n      add\n      mload(0x40)\n      swap1\n      dup2\n      add\n      0x40\n      mstore\n      dup1\n      swap3\n      swap2\n      swap1\n      dup2\n      dup2\n      mstore\n      0x20\n      add\n      dup3\n      dup1\n      sload\n      tag_241\n      swap1\n      tag_163\n      jump\t// in\n    tag_241:\n      dup1\n      iszero\n      tag_242\n      jumpi\n      dup1\n      0x1f\n      lt\n      tag_243\n      jumpi\n      0x0100\n      dup1\n      dup4\n      sload\n      div\n      mul\n      dup4\n      mstore\n      swap2\n      0x20\n      add\n      swap2\n      jump(tag_242)\n    tag_243:\n      dup3\n      add\n      swap2\n      swap1\n      0x00\n      mstore\n      keccak256(0x00, 0x20)\n      swap1\n    tag_244:\n      dup2\n      sload\n      dup2\n      mstore\n      swap1\n      0x01\n      add\n      swap1\n      0x20\n      add\n      dup1\n      dup4\n      gt\n      tag_244\n      jumpi\n      dup3\n      swap1\n      sub\n      0x1f\n      and\n      dup3\n      add\n      swap2\n    tag_242:\n      pop\n      pop\n      pop\n      pop\n      pop\n      swap1\n      dup1\n      0x01\n      add\n      sload\n      swap1\n      dup1\n      0x02\n      add\n      sload\n      swap1\n      pop\n      dup4\n      jump\t// out\n        /* \"@openzeppelin/contracts/token/ERC20/ERC20.sol\":3296:3474  function transfer(address to, uint256 value) public virtual returns (bool) {... */\n    tag_124:\n        /* \"@openzeppelin/contracts/token/ERC20/ERC20.sol\":3365:3369  bool */\n      0x00\n        /* \"@openzeppelin/contracts/token/ERC20/ERC20.sol\":3381:3394  address owner */\n      dup1\n        /* \"@openzeppelin/contracts/token/ERC20/ERC20.sol\":3397:3409  _msgSender() */\n      tag_246\n        /* \"@openzeppelin/contracts/token/ERC20/ERC20.sol\":3397:3407  _msgSender */\n      tag_170\n        /* \"@openzeppelin/contracts/token/ERC20/ERC20.sol\":3397:3409  _msgSender() */\n      jump\t// in\n    tag_246:\n        /* \"@openzeppelin/contracts/token/ERC20/ERC20.sol\":3381:3409  address owner = _msgSender() */\n      swap1\n      pop\n        /* \"@openzeppelin/contracts/token/ERC20/ERC20.sol\":3419:3446  _transfer(owner, to, value) */\n      tag_247\n        /* \"@openzeppelin/contracts/token/ERC20/ERC20.sol\":3429:3434  owner */\n      dup2\n        /* \"@openzeppelin/contracts/token/ERC20/ERC20.sol\":3436:3438  to */\n      dup6\n        /* \"@openzeppelin/contracts/token/ERC20/ERC20.sol\":3440:3445  value */\n      dup6\n        /* \"@openzeppelin/contracts/token/ERC20/ERC20.sol\":3419:3428  _transfer */\n      tag_47\n        /* \"@openzeppelin/contracts/token/ERC20/ERC20.sol\":3419:3446  _transfer(owner, to, value) */\n      jump\t// in\n    tag_247:\n        /* \"@openzeppelin/contracts/token/ERC20/ERC20.sol\":3463:3467  true */\n      0x01\n        /* \"@openzeppelin/contracts/token/ERC20/ERC20.sol\":3456:3467  return true */\n      swap2\n      pop\n      pop\n        /* \"@openzeppelin/contracts/token/ERC20/ERC20.sol\":3296:3474  function transfer(address to, uint256 value) public virtual returns (bool) {... */\n      swap3\n      swap2\n      pop\n      pop\n      jump\t// out\n        /* \"work/home/zombiecoin.sol\":1854:1962  function formHorde(string memory name) external {... */\n    tag_129:\n        /* \"work/home/zombiecoin.sol\":1912:1918  hordes */\n      0x07\n        /* \"work/home/zombiecoin.sol\":1919:1923  name */\n      dup2\n        /* \"work/home/zombiecoin.sol\":1912:1924  hordes[name] */\n      mload(0x40)\n      tag_249\n      swap2\n      swap1\n      tag_182\n      jump\t// in\n    tag_249:\n      swap1\n      dup2\n      mstore\n      0x20\n      add\n      mload(0x40)\n      dup1\n      swap2\n      sub\n      swap1\n      keccak256\n        /* \"work/home/zombiecoin.sol\":1912:1931  hordes[name].amount */\n      0x00\n      add\n        /* \"work/home/zombiecoin.sol\":1937:1942  users */\n      0x06\n        /* \"work/home/zombiecoin.sol\":1937:1954  users[msg.sender] */\n      0x00\n        /* \"work/home/zombiecoin.sol\":1943:1953  msg.sender */\n      caller\n        /* \"work/home/zombiecoin.sol\":1937:1954  users[msg.sender] */\n      0xffffffffffffffffffffffffffffffffffffffff\n      and\n      0xffffffffffffffffffffffffffffffffffffffff\n      and\n      dup2\n      mstore\n      0x20\n      add\n      swap1\n      dup2\n      mstore\n      0x20\n      add\n      0x00\n      keccak256\n        /* \"work/home/zombiecoin.sol\":1912:1955  hordes[name].amount.push(users[msg.sender]) */\n      swap1\n      dup1\n      0x01\n      dup2\n      sload\n      add\n      dup1\n      dup3\n      sstore\n      dup1\n      swap2\n      pop\n      pop\n      0x01\n      swap1\n      sub\n      swap1\n      0x00\n      mstore\n      keccak256(0x00, 0x20)\n      swap1\n      0x02\n      mul\n      add\n      0x00\n      swap1\n      swap2\n      swap1\n      swap2\n      swap1\n      swap2\n      pop\n      0x00\n      dup3\n      add\n      dup2\n      0x00\n      add\n      swap1\n      dup2\n      tag_251\n      swap2\n      swap1\n      tag_252\n      jump\t// in\n    tag_251:\n      pop\n      0x01\n      dup3\n      add\n      0x00\n      swap1\n      sload\n      swap1\n      0x0100\n      exp\n      swap1\n      div\n      0xffffffffffffffffffffffffffffffffffffffff\n      and\n      dup2\n      0x01\n      add\n      exp(0x0100, 0x00)\n      dup2\n      sload\n      dup2\n      0xffffffffffffffffffffffffffffffffffffffff\n      mul\n      not\n      and\n      swap1\n      dup4\n      0xffffffffffffffffffffffffffffffffffffffff\n      and\n      mul\n      or\n      swap1\n      sstore\n      pop\n      0x01\n      dup3\n      add\n      0x14\n      swap1\n      sload\n      swap1\n      0x0100\n      exp\n      swap1\n      div\n      0xff\n      and\n      dup2\n      0x01\n      add\n      exp(0x0100, 0x14)\n      dup2\n      sload\n      dup2\n      0xff\n      mul\n      not\n      and\n      swap1\n      dup4\n      0x01\n      dup2\n      gt\n      iszero\n      tag_253\n      jumpi\n      tag_254\n      tag_227\n      jump\t// in\n    tag_254:\n    tag_253:\n      mul\n      or\n      swap1\n      sstore\n      pop\n      pop\n      pop\n        /* \"work/home/zombiecoin.sol\":1854:1962  function formHorde(string memory name) external {... */\n      pop\n      jump\t// out\n        /* \"work/home/zombiecoin.sol\":1968:2084  function getPower(string memory name) external view returns(uint) {... */\n    tag_133:\n        /* \"work/home/zombiecoin.sol\":2028:2032  uint */\n      0x00\n        /* \"work/home/zombiecoin.sol\":2051:2057  hordes */\n      0x07\n        /* \"work/home/zombiecoin.sol\":2058:2062  name */\n      dup3\n        /* \"work/home/zombiecoin.sol\":2051:2063  hordes[name] */\n      mload(0x40)\n      tag_256\n      swap2\n      swap1\n      tag_182\n      jump\t// in\n    tag_256:\n      swap1\n      dup2\n      mstore\n      0x20\n      add\n      mload(0x40)\n      dup1\n      swap2\n      sub\n      swap1\n      keccak256\n        /* \"work/home/zombiecoin.sol\":2051:2070  hordes[name].amount */\n      0x00\n      add\n        /* \"work/home/zombiecoin.sol\":2051:2077  hordes[name].amount.length */\n      dup1\n      sload\n      swap1\n      pop\n        /* \"work/home/zombiecoin.sol\":2044:2077  return hordes[name].amount.length */\n      swap1\n      pop\n        /* \"work/home/zombiecoin.sol\":1968:2084  function getPower(string memory name) external view returns(uint) {... */\n      swap2\n      swap1\n      pop\n      jump\t// out\n        /* \"@openzeppelin/contracts/token/ERC20/ERC20.sol\":3532:3672  function allowance(address owner, address spender) public view virtual returns (uint256) {... */\n    tag_139:\n        /* \"@openzeppelin/contracts/token/ERC20/ERC20.sol\":3612:3619  uint256 */\n      0x00\n        /* \"@openzeppelin/contracts/token/ERC20/ERC20.sol\":3638:3649  _allowances */\n      0x01\n        /* \"@openzeppelin/contracts/token/ERC20/ERC20.sol\":3638:3656  _allowances[owner] */\n      0x00\n        /* \"@openzeppelin/contracts/token/ERC20/ERC20.sol\":3650:3655  owner */\n      dup5\n        /* \"@openzeppelin/contracts/token/ERC20/ERC20.sol\":3638:3656  _allowances[owner] */\n      0xffffffffffffffffffffffffffffffffffffffff\n      and\n      0xffffffffffffffffffffffffffffffffffffffff\n      and\n      dup2\n      mstore\n      0x20\n      add\n      swap1\n      dup2\n      mstore\n      0x20\n      add\n      0x00\n      keccak256\n        /* \"@openzeppelin/contracts/token/ERC20/ERC20.sol\":3638:3665  _allowances[owner][spender] */\n      0x00\n        /* \"@openzeppelin/contracts/token/ERC20/ERC20.sol\":3657:3664  spender */\n      dup4\n        /* \"@openzeppelin/contracts/token/ERC20/ERC20.sol\":3638:3665  _allowances[owner][spender] */\n      0xffffffffffffffffffffffffffffffffffffffff\n      and\n      0xffffffffffffffffffffffffffffffffffffffff\n      and\n      dup2\n      mstore\n      0x20\n      add\n      swap1\n      dup2\n      mstore\n      0x20\n      add\n      0x00\n      keccak256\n      sload\n        /* \"@openzeppelin/contracts/token/ERC20/ERC20.sol\":3631:3665  return _allowances[owner][spender] */\n      swap1\n      pop\n        /* \"@openzeppelin/contracts/token/ERC20/ERC20.sol\":3532:3672  function allowance(address owner, address spender) public view virtual returns (uint256) {... */\n      swap3\n      swap2\n      pop\n      pop\n      jump\t// out\n        /* \"work/home/zombiecoin.sol\":1162:1182  uint public fee = 10 */\n    tag_143:\n      sload(0x0a)\n      dup2\n      jump\t// out\n        /* \"work/home/zombiecoin.sol\":1435:1575  function register(string memory name) external {... */\n    tag_148:\n        /* \"work/home/zombiecoin.sol\":1517:1521  name */\n      dup1\n        /* \"work/home/zombiecoin.sol\":1492:1497  users */\n      0x06\n        /* \"work/home/zombiecoin.sol\":1492:1509  users[msg.sender] */\n      0x00\n        /* \"work/home/zombiecoin.sol\":1498:1508  msg.sender */\n      caller\n        /* \"work/home/zombiecoin.sol\":1492:1509  users[msg.sender] */\n      0xffffffffffffffffffffffffffffffffffffffff\n      and\n      0xffffffffffffffffffffffffffffffffffffffff\n      and\n      dup2\n      mstore\n      0x20\n      add\n      swap1\n      dup2\n      mstore\n      0x20\n      add\n      0x00\n      keccak256\n        /* \"work/home/zombiecoin.sol\":1492:1514  users[msg.sender].name */\n      0x00\n      add\n        /* \"work/home/zombiecoin.sol\":1492:1521  users[msg.sender].name = name */\n      swap1\n      dup2\n      tag_259\n      swap2\n      swap1\n      tag_260\n      jump\t// in\n    tag_259:\n      pop\n        /* \"work/home/zombiecoin.sol\":1558:1568  msg.sender */\n      caller\n        /* \"work/home/zombiecoin.sol\":1531:1536  users */\n      0x06\n        /* \"work/home/zombiecoin.sol\":1531:1548  users[msg.sender] */\n      0x00\n        /* \"work/home/zombiecoin.sol\":1537:1547  msg.sender */\n      caller\n        /* \"work/home/zombiecoin.sol\":1531:1548  users[msg.sender] */\n      0xffffffffffffffffffffffffffffffffffffffff\n      and\n      0xffffffffffffffffffffffffffffffffffffffff\n      and\n      dup2\n      mstore\n      0x20\n      add\n      swap1\n      dup2\n      mstore\n      0x20\n      add\n      0x00\n      keccak256\n        /* \"work/home/zombiecoin.sol\":1531:1555  users[msg.sender].wallet */\n      0x01\n      add\n      0x00\n        /* \"work/home/zombiecoin.sol\":1531:1568  users[msg.sender].wallet = msg.sender */\n      0x0100\n      exp\n      dup2\n      sload\n      dup2\n      0xffffffffffffffffffffffffffffffffffffffff\n      mul\n      not\n      and\n      swap1\n      dup4\n      0xffffffffffffffffffffffffffffffffffffffff\n      and\n      mul\n      or\n      swap1\n      sstore\n      pop\n        /* \"work/home/zombiecoin.sol\":1435:1575  function register(string memory name) external {... */\n      pop\n      jump\t// out\n        /* \"@openzeppelin/contracts/access/Ownable.sol\":2543:2758  function transferOwnership(address newOwner) public virtual onlyOwner {... */\n    tag_152:\n        /* \"@openzeppelin/contracts/access/Ownable.sol\":1531:1544  _checkOwner() */\n      tag_262\n        /* \"@openzeppelin/contracts/access/Ownable.sol\":1531:1542  _checkOwner */\n      tag_209\n        /* \"@openzeppelin/contracts/access/Ownable.sol\":1531:1544  _checkOwner() */\n      jump\t// in\n    tag_262:\n        /* \"@openzeppelin/contracts/access/Ownable.sol\":2647:2648  0 */\n      0x00\n        /* \"@openzeppelin/contracts/access/Ownable.sol\":2627:2649  newOwner == address(0) */\n      0xffffffffffffffffffffffffffffffffffffffff\n      and\n        /* \"@openzeppelin/contracts/access/Ownable.sol\":2627:2635  newOwner */\n      dup2\n        /* \"@openzeppelin/contracts/access/Ownable.sol\":2627:2649  newOwner == address(0) */\n      0xffffffffffffffffffffffffffffffffffffffff\n      and\n      sub\n        /* \"@openzeppelin/contracts/access/Ownable.sol\":2623:2714  if (newOwner == address(0)) {... */\n      tag_264\n      jumpi\n        /* \"@openzeppelin/contracts/access/Ownable.sol\":2700:2701  0 */\n      0x00\n        /* \"@openzeppelin/contracts/access/Ownable.sol\":2672:2703  OwnableInvalidOwner(address(0)) */\n      mload(0x40)\n      0x1e4fbdf700000000000000000000000000000000000000000000000000000000\n      dup2\n      mstore\n      0x04\n      add\n      tag_265\n      swap2\n      swap1\n      tag_105\n      jump\t// in\n    tag_265:\n      mload(0x40)\n      dup1\n      swap2\n      sub\n      swap1\n      revert\n        /* \"@openzeppelin/contracts/access/Ownable.sol\":2623:2714  if (newOwner == address(0)) {... */\n    tag_264:\n        /* \"@openzeppelin/contracts/access/Ownable.sol\":2723:2751  _transferOwnership(newOwner) */\n      tag_266\n        /* \"@openzeppelin/contracts/access/Ownable.sol\":2742:2750  newOwner */\n      dup2\n        /* \"@openzeppelin/contracts/access/Ownable.sol\":2723:2741  _transferOwnership */\n      tag_212\n        /* \"@openzeppelin/contracts/access/Ownable.sol\":2723:2751  _transferOwnership(newOwner) */\n      jump\t// in\n    tag_266:\n        /* \"@openzeppelin/contracts/access/Ownable.sol\":2543:2758  function transferOwnership(address newOwner) public virtual onlyOwner {... */\n      pop\n      jump\t// out\n        /* \"@openzeppelin/contracts/token/ERC20/ERC20.sol\":5989:7096  function _update(address from, address to, uint256 value) internal virtual {... */\n    tag_160:\n        /* \"@openzeppelin/contracts/token/ERC20/ERC20.sol\":6094:6095  0 */\n      0x00\n        /* \"@openzeppelin/contracts/token/ERC20/ERC20.sol\":6078:6096  from == address(0) */\n      0xffffffffffffffffffffffffffffffffffffffff\n      and\n        /* \"@openzeppelin/contracts/token/ERC20/ERC20.sol\":6078:6082  from */\n      dup4\n        /* \"@openzeppelin/contracts/token/ERC20/ERC20.sol\":6078:6096  from == address(0) */\n      0xffffffffffffffffffffffffffffffffffffffff\n      and\n      sub\n        /* \"@openzeppelin/contracts/token/ERC20/ERC20.sol\":6074:6614  if (from == address(0)) {... */\n      tag_268\n      jumpi\n        /* \"@openzeppelin/contracts/token/ERC20/ERC20.sol\":6230:6235  value */\n      dup1\n        /* \"@openzeppelin/contracts/token/ERC20/ERC20.sol\":6214:6226  _totalSupply */\n      0x02\n      0x00\n        /* \"@openzeppelin/contracts/token/ERC20/ERC20.sol\":6214:6235  _totalSupply += value */\n      dup3\n      dup3\n      sload\n      tag_269\n      swap2\n      swap1\n      tag_270\n      jump\t// in\n    tag_269:\n      swap3\n      pop\n      pop\n      dup2\n      swap1\n      sstore\n      pop\n        /* \"@openzeppelin/contracts/token/ERC20/ERC20.sol\":6074:6614  if (from == address(0)) {... */\n      jump(tag_271)\n    tag_268:\n        /* \"@openzeppelin/contracts/token/ERC20/ERC20.sol\":6266:6285  uint256 fromBalance */\n      0x00\n        /* \"@openzeppelin/contracts/token/ERC20/ERC20.sol\":6288:6297  _balances */\n      dup1\n        /* \"@openzeppelin/contracts/token/ERC20/ERC20.sol\":6288:6303  _balances[from] */\n      0x00\n        /* \"@openzeppelin/contracts/token/ERC20/ERC20.sol\":6298:6302  from */\n      dup6\n        /* \"@openzeppelin/contracts/token/ERC20/ERC20.sol\":6288:6303  _balances[from] */\n      0xffffffffffffffffffffffffffffffffffffffff\n      and\n      0xffffffffffffffffffffffffffffffffffffffff\n      and\n      dup2\n      mstore\n      0x20\n      add\n      swap1\n      dup2\n      mstore\n      0x20\n      add\n      0x00\n      keccak256\n      sload\n        /* \"@openzeppelin/contracts/token/ERC20/ERC20.sol\":6266:6303  uint256 fromBalance = _balances[from] */\n      swap1\n      pop\n        /* \"@openzeppelin/contracts/token/ERC20/ERC20.sol\":6335:6340  value */\n      dup2\n        /* \"@openzeppelin/contracts/token/ERC20/ERC20.sol\":6321:6332  fromBalance */\n      dup2\n        /* \"@openzeppelin/contracts/token/ERC20/ERC20.sol\":6321:6340  fromBalance < value */\n      lt\n        /* \"@openzeppelin/contracts/token/ERC20/ERC20.sol\":6317:6432  if (fromBalance < value) {... */\n      iszero\n      tag_272\n      jumpi\n        /* \"@openzeppelin/contracts/token/ERC20/ERC20.sol\":6392:6396  from */\n      dup4\n        /* \"@openzeppelin/contracts/token/ERC20/ERC20.sol\":6398:6409  fromBalance */\n      dup2\n        /* \"@openzeppelin/contracts/token/ERC20/ERC20.sol\":6411:6416  value */\n      dup4\n        /* \"@openzeppelin/contracts/token/ERC20/ERC20.sol\":6367:6417  ERC20InsufficientBalance(from, fromBalance, value) */\n      mload(0x40)\n      0xe450d38c00000000000000000000000000000000000000000000000000000000\n      dup2\n      mstore\n      0x04\n      add\n      tag_273\n      swap4\n      swap3\n      swap2\n      swap1\n      tag_274\n      jump\t// in\n    tag_273:\n      mload(0x40)\n      dup1\n      swap2\n      sub\n      swap1\n      revert\n        /* \"@openzeppelin/contracts/token/ERC20/ERC20.sol\":6317:6432  if (fromBalance < value) {... */\n    tag_272:\n        /* \"@openzeppelin/contracts/token/ERC20/ERC20.sol\":6584:6589  value */\n      dup2\n        /* \"@openzeppelin/contracts/token/ERC20/ERC20.sol\":6570:6581  fromBalance */\n      dup2\n        /* \"@openzeppelin/contracts/token/ERC20/ERC20.sol\":6570:6589  fromBalance - value */\n      sub\n        /* \"@openzeppelin/contracts/token/ERC20/ERC20.sol\":6552:6561  _balances */\n      0x00\n        /* \"@openzeppelin/contracts/token/ERC20/ERC20.sol\":6552:6567  _balances[from] */\n      dup1\n        /* \"@openzeppelin/contracts/token/ERC20/ERC20.sol\":6562:6566  from */\n      dup7\n        /* \"@openzeppelin/contracts/token/ERC20/ERC20.sol\":6552:6567  _balances[from] */\n      0xffffffffffffffffffffffffffffffffffffffff\n      and\n      0xffffffffffffffffffffffffffffffffffffffff\n      and\n      dup2\n      mstore\n      0x20\n      add\n      swap1\n      dup2\n      mstore\n      0x20\n      add\n      0x00\n      keccak256\n        /* \"@openzeppelin/contracts/token/ERC20/ERC20.sol\":6552:6589  _balances[from] = fromBalance - value */\n      dup2\n      swap1\n      sstore\n      pop\n        /* \"@openzeppelin/contracts/token/ERC20/ERC20.sol\":6252:6614  {... */\n      pop\n        /* \"@openzeppelin/contracts/token/ERC20/ERC20.sol\":6074:6614  if (from == address(0)) {... */\n    tag_271:\n        /* \"@openzeppelin/contracts/token/ERC20/ERC20.sol\":6642:6643  0 */\n      0x00\n        /* \"@openzeppelin/contracts/token/ERC20/ERC20.sol\":6628:6644  to == address(0) */\n      0xffffffffffffffffffffffffffffffffffffffff\n      and\n        /* \"@openzeppelin/contracts/token/ERC20/ERC20.sol\":6628:6630  to */\n      dup3\n        /* \"@openzeppelin/contracts/token/ERC20/ERC20.sol\":6628:6644  to == address(0) */\n      0xffffffffffffffffffffffffffffffffffffffff\n      and\n      sub\n        /* \"@openzeppelin/contracts/token/ERC20/ERC20.sol\":6624:7049  if (to == address(0)) {... */\n      tag_275\n      jumpi\n        /* \"@openzeppelin/contracts/token/ERC20/ERC20.sol\":6807:6812  value */\n      dup1\n        /* \"@openzeppelin/contracts/token/ERC20/ERC20.sol\":6791:6803  _totalSupply */\n      0x02\n      0x00\n        /* \"@openzeppelin/contracts/token/ERC20/ERC20.sol\":6791:6812  _totalSupply -= value */\n      dup3\n      dup3\n      sload\n      sub\n      swap3\n      pop\n      pop\n      dup2\n      swap1\n      sstore\n      pop\n        /* \"@openzeppelin/contracts/token/ERC20/ERC20.sol\":6624:7049  if (to == address(0)) {... */\n      jump(tag_276)\n    tag_275:\n        /* \"@openzeppelin/contracts/token/ERC20/ERC20.sol\":7019:7024  value */\n      dup1\n        /* \"@openzeppelin/contracts/token/ERC20/ERC20.sol\":7002:7011  _balances */\n      0x00\n        /* \"@openzeppelin/contracts/token/ERC20/ERC20.sol\":7002:7015  _balances[to] */\n      dup1\n        /* \"@openzeppelin/contracts/token/ERC20/ERC20.sol\":7012:7014  to */\n      dup5\n        /* \"@openzeppelin/contracts/token/ERC20/ERC20.sol\":7002:7015  _balances[to] */\n      0xffffffffffffffffffffffffffffffffffffffff\n      and\n      0xffffffffffffffffffffffffffffffffffffffff\n      and\n      dup2\n      mstore\n      0x20\n      add\n      swap1\n      dup2\n      mstore\n      0x20\n      add\n      0x00\n      keccak256\n      0x00\n        /* \"@openzeppelin/contracts/token/ERC20/ERC20.sol\":7002:7024  _balances[to] += value */\n      dup3\n      dup3\n      sload\n      add\n      swap3\n      pop\n      pop\n      dup2\n      swap1\n      sstore\n      pop\n        /* \"@openzeppelin/contracts/token/ERC20/ERC20.sol\":6624:7049  if (to == address(0)) {... */\n    tag_276:\n        /* \"@openzeppelin/contracts/token/ERC20/ERC20.sol\":7079:7081  to */\n      dup2\n        /* \"@openzeppelin/contracts/token/ERC20/ERC20.sol\":7064:7089  Transfer(from, to, value) */\n      0xffffffffffffffffffffffffffffffffffffffff\n      and\n        /* \"@openzeppelin/contracts/token/ERC20/ERC20.sol\":7073:7077  from */\n      dup4\n        /* \"@openzeppelin/contracts/token/ERC20/ERC20.sol\":7064:7089  Transfer(from, to, value) */\n      0xffffffffffffffffffffffffffffffffffffffff\n      and\n      0xddf252ad1be2c89b69c2b068fc378daa952ba7f163c4a11628f55a4df523b3ef\n        /* \"@openzeppelin/contracts/token/ERC20/ERC20.sol\":7083:7088  value */\n      dup4\n        /* \"@openzeppelin/contracts/token/ERC20/ERC20.sol\":7064:7089  Transfer(from, to, value) */\n      mload(0x40)\n      tag_277\n      swap2\n      swap1\n      tag_64\n      jump\t// in\n    tag_277:\n      mload(0x40)\n      dup1\n      swap2\n      sub\n      swap1\n      log3\n        /* \"@openzeppelin/contracts/token/ERC20/ERC20.sol\":5989:7096  function _update(address from, address to, uint256 value) internal virtual {... */\n      pop\n      pop\n      pop\n      jump\t// out\n        /* \"@openzeppelin/contracts/utils/Context.sol\":656:752  function _msgSender() internal view virtual returns (address) {... */\n    tag_170:\n        /* \"@openzeppelin/contracts/utils/Context.sol\":709:716  address */\n      0x00\n        /* \"@openzeppelin/contracts/utils/Context.sol\":735:745  msg.sender */\n      caller\n        /* \"@openzeppelin/contracts/utils/Context.sol\":728:745  return msg.sender */\n      swap1\n      pop\n        /* \"@openzeppelin/contracts/utils/Context.sol\":656:752  function _msgSender() internal view virtual returns (address) {... */\n      swap1\n      jump\t// out\n        /* \"@openzeppelin/contracts/token/ERC20/ERC20.sol\":8707:8835  function _approve(address owner, address spender, uint256 value) internal {... */\n    tag_172:\n        /* \"@openzeppelin/contracts/token/ERC20/ERC20.sol\":8791:8828  _approve(owner, spender, value, true) */\n      tag_280\n        /* \"@openzeppelin/contracts/token/ERC20/ERC20.sol\":8800:8805  owner */\n      dup4\n        /* \"@openzeppelin/contracts/token/ERC20/ERC20.sol\":8807:8814  spender */\n      dup4\n        /* \"@openzeppelin/contracts/token/ERC20/ERC20.sol\":8816:8821  value */\n      dup4\n        /* \"@openzeppelin/contracts/token/ERC20/ERC20.sol\":8823:8827  true */\n      0x01\n        /* \"@openzeppelin/contracts/token/ERC20/ERC20.sol\":8791:8799  _approve */\n      tag_281\n        /* \"@openzeppelin/contracts/token/ERC20/ERC20.sol\":8791:8828  _approve(owner, spender, value, true) */\n      jump\t// in\n    tag_280:\n        /* \"@openzeppelin/contracts/token/ERC20/ERC20.sol\":8707:8835  function _approve(address owner, address spender, uint256 value) internal {... */\n      pop\n      pop\n      pop\n      jump\t// out\n        /* \"@openzeppelin/contracts/token/ERC20/ERC20.sol\":10396:10872  function _spendAllowance(address owner, address spender, uint256 value) internal virtual {... */\n    tag_177:\n        /* \"@openzeppelin/contracts/token/ERC20/ERC20.sol\":10495:10519  uint256 currentAllowance */\n      0x00\n        /* \"@openzeppelin/contracts/token/ERC20/ERC20.sol\":10522:10547  allowance(owner, spender) */\n      tag_283\n        /* \"@openzeppelin/contracts/token/ERC20/ERC20.sol\":10532:10537  owner */\n      dup5\n        /* \"@openzeppelin/contracts/token/ERC20/ERC20.sol\":10539:10546  spender */\n      dup5\n        /* \"@openzeppelin/contracts/token/ERC20/ERC20.sol\":10522:10531  allowance */\n      tag_139\n        /* \"@openzeppelin/contracts/token/ERC20/ERC20.sol\":10522:10547  allowance(owner, spender) */\n      jump\t// in\n    tag_283:\n        /* \"@openzeppelin/contracts/token/ERC20/ERC20.sol\":10495:10547  uint256 currentAllowance = allowance(owner, spender) */\n      swap1\n      pop\n        /* \"@openzeppelin/contracts/token/ERC20/ERC20.sol\":10580:10597  type(uint256).max */\n      0xffffffffffffffffffffffffffffffffffffffffffffffffffffffffffffffff\n        /* \"@openzeppelin/contracts/token/ERC20/ERC20.sol\":10561:10577  currentAllowance */\n      dup2\n        /* \"@openzeppelin/contracts/token/ERC20/ERC20.sol\":10561:10597  currentAllowance < type(uint256).max */\n      lt\n        /* \"@openzeppelin/contracts/token/ERC20/ERC20.sol\":10557:10866  if (currentAllowance < type(uint256).max) {... */\n      iszero\n      tag_284\n      jumpi\n        /* \"@openzeppelin/contracts/token/ERC20/ERC20.sol\":10636:10641  value */\n      dup2\n        /* \"@openzeppelin/contracts/token/ERC20/ERC20.sol\":10617:10633  currentAllowance */\n      dup2\n        /* \"@openzeppelin/contracts/token/ERC20/ERC20.sol\":10617:10641  currentAllowance < value */\n      lt\n        /* \"@openzeppelin/contracts/token/ERC20/ERC20.sol\":10613:10743  if (currentAllowance < value) {... */\n      iszero\n      tag_285\n      jumpi\n        /* \"@openzeppelin/contracts/token/ERC20/ERC20.sol\":10695:10702  spender */\n      dup3\n        /* \"@openzeppelin/contracts/token/ERC20/ERC20.sol\":10704:10720  currentAllowance */\n      dup2\n        /* \"@openzeppelin/contracts/token/ERC20/ERC20.sol\":10722:10727  value */\n      dup4\n        /* \"@openzeppelin/contracts/token/ERC20/ERC20.sol\":10668:10728  ERC20InsufficientAllowance(spender, currentAllowance, value) */\n      mload(0x40)\n      0xfb8f41b200000000000000000000000000000000000000000000000000000000\n      dup2\n      mstore\n      0x04\n      add\n      tag_286\n      swap4\n      swap3\n      swap2\n      swap1\n      tag_274\n      jump\t// in\n    tag_286:\n      mload(0x40)\n      dup1\n      swap2\n      sub\n      swap1\n      revert\n        /* \"@openzeppelin/contracts/token/ERC20/ERC20.sol\":10613:10743  if (currentAllowance < value) {... */\n    tag_285:\n        /* \"@openzeppelin/contracts/token/ERC20/ERC20.sol\":10784:10841  _approve(owner, spender, currentAllowance - value, false) */\n      tag_287\n        /* \"@openzeppelin/contracts/token/ERC20/ERC20.sol\":10793:10798  owner */\n      dup5\n        /* \"@openzeppelin/contracts/token/ERC20/ERC20.sol\":10800:10807  spender */\n      dup5\n        /* \"@openzeppelin/contracts/token/ERC20/ERC20.sol\":10828:10833  value */\n      dup5\n        /* \"@openzeppelin/contracts/token/ERC20/ERC20.sol\":10809:10825  currentAllowance */\n      dup5\n        /* \"@openzeppelin/contracts/token/ERC20/ERC20.sol\":10809:10833  currentAllowance - value */\n      sub\n        /* \"@openzeppelin/contracts/token/ERC20/ERC20.sol\":10835:10840  false */\n      0x00\n        /* \"@openzeppelin/contracts/token/ERC20/ERC20.sol\":10784:10792  _approve */\n      tag_281\n        /* \"@openzeppelin/contracts/token/ERC20/ERC20.sol\":10784:10841  _approve(owner, spender, currentAllowance - value, false) */\n      jump\t// in\n    tag_287:\n        /* \"@openzeppelin/contracts/token/ERC20/ERC20.sol\":10557:10866  if (currentAllowance < type(uint256).max) {... */\n    tag_284:\n        /* \"@openzeppelin/contracts/token/ERC20/ERC20.sol\":10485:10872  {... */\n      pop\n        /* \"@openzeppelin/contracts/token/ERC20/ERC20.sol\":10396:10872  function _spendAllowance(address owner, address spender, uint256 value) internal virtual {... */\n      pop\n      pop\n      pop\n      jump\t// out\n        /* \"@openzeppelin/contracts/access/Ownable.sol\":1796:1958  function _checkOwner() internal view virtual {... */\n    tag_209:\n        /* \"@openzeppelin/contracts/access/Ownable.sol\":1866:1878  _msgSender() */\n      tag_289\n        /* \"@openzeppelin/contracts/access/Ownable.sol\":1866:1876  _msgSender */\n      tag_170\n        /* \"@openzeppelin/contracts/access/Ownable.sol\":1866:1878  _msgSender() */\n      jump\t// in\n    tag_289:\n        /* \"@openzeppelin/contracts/access/Ownable.sol\":1855:1878  owner() != _msgSender() */\n      0xffffffffffffffffffffffffffffffffffffffff\n      and\n        /* \"@openzeppelin/contracts/access/Ownable.sol\":1855:1862  owner() */\n      tag_290\n        /* \"@openzeppelin/contracts/access/Ownable.sol\":1855:1860  owner */\n      tag_35\n        /* \"@openzeppelin/contracts/access/Ownable.sol\":1855:1862  owner() */\n      jump\t// in\n    tag_290:\n        /* \"@openzeppelin/contracts/access/Ownable.sol\":1855:1878  owner() != _msgSender() */\n      0xffffffffffffffffffffffffffffffffffffffff\n      and\n      eq\n        /* \"@openzeppelin/contracts/access/Ownable.sol\":1851:1952  if (owner() != _msgSender()) {... */\n      tag_291\n      jumpi\n        /* \"@openzeppelin/contracts/access/Ownable.sol\":1928:1940  _msgSender() */\n      tag_292\n        /* \"@openzeppelin/contracts/access/Ownable.sol\":1928:1938  _msgSender */\n      tag_170\n        /* \"@openzeppelin/contracts/access/Ownable.sol\":1928:1940  _msgSender() */\n      jump\t// in\n    tag_292:\n        /* \"@openzeppelin/contracts/access/Ownable.sol\":1901:1941  OwnableUnauthorizedAccount(_msgSender()) */\n      mload(0x40)\n      0x118cdaa700000000000000000000000000000000000000000000000000000000\n      dup2\n      mstore\n      0x04\n      add\n      tag_293\n      swap2\n      swap1\n      tag_105\n      jump\t// in\n    tag_293:\n      mload(0x40)\n      dup1\n      swap2\n      sub\n      swap1\n      revert\n        /* \"@openzeppelin/contracts/access/Ownable.sol\":1851:1952  if (owner() != _msgSender()) {... */\n    tag_291:\n        /* \"@openzeppelin/contracts/access/Ownable.sol\":1796:1958  function _checkOwner() internal view virtual {... */\n      jump\t// out\n        /* \"@openzeppelin/contracts/access/Ownable.sol\":2912:3099  function _transferOwnership(address newOwner) internal virtual {... */\n    tag_212:\n        /* \"@openzeppelin/contracts/access/Ownable.sol\":2985:3001  address oldOwner */\n      0x00\n        /* \"@openzeppelin/contracts/access/Ownable.sol\":3004:3010  _owner */\n      0x05\n      0x00\n      swap1\n      sload\n      swap1\n      0x0100\n      exp\n      swap1\n      div\n      0xffffffffffffffffffffffffffffffffffffffff\n      and\n        /* \"@openzeppelin/contracts/access/Ownable.sol\":2985:3010  address oldOwner = _owner */\n      swap1\n      pop\n        /* \"@openzeppelin/contracts/access/Ownable.sol\":3029:3037  newOwner */\n      dup2\n        /* \"@openzeppelin/contracts/access/Ownable.sol\":3020:3026  _owner */\n      0x05\n      0x00\n        /* \"@openzeppelin/contracts/access/Ownable.sol\":3020:3037  _owner = newOwner */\n      0x0100\n      exp\n      dup2\n      sload\n      dup2\n      0xffffffffffffffffffffffffffffffffffffffff\n      mul\n      not\n      and\n      swap1\n      dup4\n      0xffffffffffffffffffffffffffffffffffffffff\n      and\n      mul\n      or\n      swap1\n      sstore\n      pop\n        /* \"@openzeppelin/contracts/access/Ownable.sol\":3083:3091  newOwner */\n      dup2\n        /* \"@openzeppelin/contracts/access/Ownable.sol\":3052:3092  OwnershipTransferred(oldOwner, newOwner) */\n      0xffffffffffffffffffffffffffffffffffffffff\n      and\n        /* \"@openzeppelin/contracts/access/Ownable.sol\":3073:3081  oldOwner */\n      dup2\n        /* \"@openzeppelin/contracts/access/Ownable.sol\":3052:3092  OwnershipTransferred(oldOwner, newOwner) */\n      0xffffffffffffffffffffffffffffffffffffffff\n      and\n      0x8be0079c531659141344cd1fd0a4f28419497f9722a3daafe3b4186f6b6457e0\n      mload(0x40)\n      mload(0x40)\n      dup1\n      swap2\n      sub\n      swap1\n      log3\n        /* \"@openzeppelin/contracts/access/Ownable.sol\":2975:3099  {... */\n      pop\n        /* \"@openzeppelin/contracts/access/Ownable.sol\":2912:3099  function _transferOwnership(address newOwner) internal virtual {... */\n      pop\n      jump\t// out\n        /* \"@openzeppelin/contracts/token/ERC20/ERC20.sol\":9682:10114  function _approve(address owner, address spender, uint256 value, bool emitEvent) internal virtual {... */\n    tag_281:\n        /* \"@openzeppelin/contracts/token/ERC20/ERC20.sol\":9811:9812  0 */\n      0x00\n        /* \"@openzeppelin/contracts/token/ERC20/ERC20.sol\":9794:9813  owner == address(0) */\n      0xffffffffffffffffffffffffffffffffffffffff\n      and\n        /* \"@openzeppelin/contracts/token/ERC20/ERC20.sol\":9794:9799  owner */\n      dup5\n        /* \"@openzeppelin/contracts/token/ERC20/ERC20.sol\":9794:9813  owner == address(0) */\n      0xffffffffffffffffffffffffffffffffffffffff\n      and\n      sub\n        /* \"@openzeppelin/contracts/token/ERC20/ERC20.sol\":9790:9879  if (owner == address(0)) {... */\n      tag_296\n      jumpi\n        /* \"@openzeppelin/contracts/token/ERC20/ERC20.sol\":9865:9866  0 */\n      0x00\n        /* \"@openzeppelin/contracts/token/ERC20/ERC20.sol\":9836:9868  ERC20InvalidApprover(address(0)) */\n      mload(0x40)\n      0xe602df0500000000000000000000000000000000000000000000000000000000\n      dup2\n      mstore\n      0x04\n      add\n      tag_297\n      swap2\n      swap1\n      tag_105\n      jump\t// in\n    tag_297:\n      mload(0x40)\n      dup1\n      swap2\n      sub\n      swap1\n      revert\n        /* \"@openzeppelin/contracts/token/ERC20/ERC20.sol\":9790:9879  if (owner == address(0)) {... */\n    tag_296:\n        /* \"@openzeppelin/contracts/token/ERC20/ERC20.sol\":9911:9912  0 */\n      0x00\n        /* \"@openzeppelin/contracts/token/ERC20/ERC20.sol\":9892:9913  spender == address(0) */\n      0xffffffffffffffffffffffffffffffffffffffff\n      and\n        /* \"@openzeppelin/contracts/token/ERC20/ERC20.sol\":9892:9899  spender */\n      dup4\n        /* \"@openzeppelin/contracts/token/ERC20/ERC20.sol\":9892:9913  spender == address(0) */\n      0xffffffffffffffffffffffffffffffffffffffff\n      and\n      sub\n        /* \"@openzeppelin/contracts/token/ERC20/ERC20.sol\":9888:9978  if (spender == address(0)) {... */\n      tag_298\n      jumpi\n        /* \"@openzeppelin/contracts/token/ERC20/ERC20.sol\":9964:9965  0 */\n      0x00\n        /* \"@openzeppelin/contracts/token/ERC20/ERC20.sol\":9936:9967  ERC20InvalidSpender(address(0)) */\n      mload(0x40)\n      0x94280d6200000000000000000000000000000000000000000000000000000000\n      dup2\n      mstore\n      0x04\n      add\n      tag_299\n      swap2\n      swap1\n      tag_105\n      jump\t// in\n    tag_299:\n      mload(0x40)\n      dup1\n      swap2\n      sub\n      swap1\n      revert\n        /* \"@openzeppelin/contracts/token/ERC20/ERC20.sol\":9888:9978  if (spender == address(0)) {... */\n    tag_298:\n        /* \"@openzeppelin/contracts/token/ERC20/ERC20.sol\":10017:10022  value */\n      dup2\n        /* \"@openzeppelin/contracts/token/ERC20/ERC20.sol\":9987:9998  _allowances */\n      0x01\n        /* \"@openzeppelin/contracts/token/ERC20/ERC20.sol\":9987:10005  _allowances[owner] */\n      0x00\n        /* \"@openzeppelin/contracts/token/ERC20/ERC20.sol\":9999:10004  owner */\n      dup7\n        /* \"@openzeppelin/contracts/token/ERC20/ERC20.sol\":9987:10005  _allowances[owner] */\n      0xffffffffffffffffffffffffffffffffffffffff\n      and\n      0xffffffffffffffffffffffffffffffffffffffff\n      and\n      dup2\n      mstore\n      0x20\n      add\n      swap1\n      dup2\n      mstore\n      0x20\n      add\n      0x00\n      keccak256\n        /* \"@openzeppelin/contracts/token/ERC20/ERC20.sol\":9987:10014  _allowances[owner][spender] */\n      0x00\n        /* \"@openzeppelin/contracts/token/ERC20/ERC20.sol\":10006:10013  spender */\n      dup6\n        /* \"@openzeppelin/contracts/token/ERC20/ERC20.sol\":9987:10014  _allowances[owner][spender] */\n      0xffffffffffffffffffffffffffffffffffffffff\n      and\n      0xffffffffffffffffffffffffffffffffffffffff\n      and\n      dup2\n      mstore\n      0x20\n      add\n      swap1\n      dup2\n      mstore\n      0x20\n      add\n      0x00\n      keccak256\n        /* \"@openzeppelin/contracts/token/ERC20/ERC20.sol\":9987:10022  _allowances[owner][spender] = value */\n      dup2\n      swap1\n      sstore\n      pop\n        /* \"@openzeppelin/contracts/token/ERC20/ERC20.sol\":10036:10045  emitEvent */\n      dup1\n        /* \"@openzeppelin/contracts/token/ERC20/ERC20.sol\":10032:10108  if (emitEvent) {... */\n      iszero\n      tag_300\n      jumpi\n        /* \"@openzeppelin/contracts/token/ERC20/ERC20.sol\":10082:10089  spender */\n      dup3\n        /* \"@openzeppelin/contracts/token/ERC20/ERC20.sol\":10066:10097  Approval(owner, spender, value) */\n      0xffffffffffffffffffffffffffffffffffffffff\n      and\n        /* \"@openzeppelin/contracts/token/ERC20/ERC20.sol\":10075:10080  owner */\n      dup5\n        /* \"@openzeppelin/contracts/token/ERC20/ERC20.sol\":10066:10097  Approval(owner, spender, value) */\n      0xffffffffffffffffffffffffffffffffffffffff\n      and\n      0x8c5be1e5ebec7d5bd14f71427d1e84f3dd0314c0f7b2291e5b200ac8c7c3b925\n        /* \"@openzeppelin/contracts/token/ERC20/ERC20.sol\":10091:10096  value */\n      dup5\n        /* \"@openzeppelin/contracts/token/ERC20/ERC20.sol\":10066:10097  Approval(owner, spender, value) */\n      mload(0x40)\n      tag_301\n      swap2\n      swap1\n      tag_64\n      jump\t// in\n    tag_301:\n      mload(0x40)\n      dup1\n      swap2\n      sub\n      swap1\n      log3\n        /* \"@openzeppelin/contracts/token/ERC20/ERC20.sol\":10032:10108  if (emitEvent) {... */\n    tag_300:\n        /* \"@openzeppelin/contracts/token/ERC20/ERC20.sol\":9682:10114  function _approve(address owner, address spender, uint256 value, bool emitEvent) internal virtual {... */\n      pop\n      pop\n      pop\n      pop\n      jump\t// out\n        /* \"#utility.yul\":7:84   */\n    tag_302:\n        /* \"#utility.yul\":44:51   */\n      0x00\n        /* \"#utility.yul\":73:78   */\n      dup2\n        /* \"#utility.yul\":62:78   */\n      swap1\n      pop\n        /* \"#utility.yul\":7:84   */\n      swap2\n      swap1\n      pop\n      jump\t// out\n        /* \"#utility.yul\":90:270   */\n    tag_303:\n        /* \"#utility.yul\":138:215   */\n      0x4e487b7100000000000000000000000000000000000000000000000000000000\n        /* \"#utility.yul\":135:136   */\n      0x00\n        /* \"#utility.yul\":128:216   */\n      mstore\n        /* \"#utility.yul\":235:239   */\n      0x12\n        /* \"#utility.yul\":232:233   */\n      0x04\n        /* \"#utility.yul\":225:240   */\n      mstore\n        /* \"#utility.yul\":259:263   */\n      0x24\n        /* \"#utility.yul\":256:257   */\n      0x00\n        /* \"#utility.yul\":249:264   */\n      revert\n        /* \"#utility.yul\":276:456   */\n    tag_304:\n        /* \"#utility.yul\":324:401   */\n      0x4e487b7100000000000000000000000000000000000000000000000000000000\n        /* \"#utility.yul\":321:322   */\n      0x00\n        /* \"#utility.yul\":314:402   */\n      mstore\n        /* \"#utility.yul\":421:425   */\n      0x11\n        /* \"#utility.yul\":418:419   */\n      0x04\n        /* \"#utility.yul\":411:426   */\n      mstore\n        /* \"#utility.yul\":445:449   */\n      0x24\n        /* \"#utility.yul\":442:443   */\n      0x00\n        /* \"#utility.yul\":435:450   */\n      revert\n        /* \"#utility.yul\":462:647   */\n    tag_31:\n        /* \"#utility.yul\":502:503   */\n      0x00\n        /* \"#utility.yul\":519:539   */\n      tag_365\n        /* \"#utility.yul\":537:538   */\n      dup3\n        /* \"#utility.yul\":519:539   */\n      tag_302\n      jump\t// in\n    tag_365:\n        /* \"#utility.yul\":514:539   */\n      swap2\n      pop\n        /* \"#utility.yul\":553:573   */\n      tag_366\n        /* \"#utility.yul\":571:572   */\n      dup4\n        /* \"#utility.yul\":553:573   */\n      tag_302\n      jump\t// in\n    tag_366:\n        /* \"#utility.yul\":548:573   */\n      swap3\n      pop\n        /* \"#utility.yul\":592:593   */\n      dup3\n        /* \"#utility.yul\":582:617   */\n      tag_367\n      jumpi\n        /* \"#utility.yul\":597:615   */\n      tag_368\n      tag_303\n      jump\t// in\n    tag_368:\n        /* \"#utility.yul\":582:617   */\n    tag_367:\n        /* \"#utility.yul\":639:640   */\n      dup3\n        /* \"#utility.yul\":636:637   */\n      dup3\n        /* \"#utility.yul\":632:641   */\n      div\n        /* \"#utility.yul\":627:641   */\n      swap1\n      pop\n        /* \"#utility.yul\":462:647   */\n      swap3\n      swap2\n      pop\n      pop\n      jump\t// out\n        /* \"#utility.yul\":653:1063   */\n    tag_33:\n        /* \"#utility.yul\":693:700   */\n      0x00\n        /* \"#utility.yul\":716:736   */\n      tag_370\n        /* \"#utility.yul\":734:735   */\n      dup3\n        /* \"#utility.yul\":716:736   */\n      tag_302\n      jump\t// in\n    tag_370:\n        /* \"#utility.yul\":711:736   */\n      swap2\n      pop\n        /* \"#utility.yul\":750:770   */\n      tag_371\n        /* \"#utility.yul\":768:769   */\n      dup4\n        /* \"#utility.yul\":750:770   */\n      tag_302\n      jump\t// in\n    tag_371:\n        /* \"#utility.yul\":745:770   */\n      swap3\n      pop\n        /* \"#utility.yul\":805:806   */\n      dup3\n        /* \"#utility.yul\":802:803   */\n      dup3\n        /* \"#utility.yul\":798:807   */\n      mul\n        /* \"#utility.yul\":827:857   */\n      tag_372\n        /* \"#utility.yul\":845:856   */\n      dup2\n        /* \"#utility.yul\":827:857   */\n      tag_302\n      jump\t// in\n    tag_372:\n        /* \"#utility.yul\":816:857   */\n      swap2\n      pop\n        /* \"#utility.yul\":1006:1007   */\n      dup3\n        /* \"#utility.yul\":997:1004   */\n      dup3\n        /* \"#utility.yul\":993:1008   */\n      div\n        /* \"#utility.yul\":990:991   */\n      dup5\n        /* \"#utility.yul\":987:1009   */\n      eq\n        /* \"#utility.yul\":967:968   */\n      dup4\n        /* \"#utility.yul\":960:969   */\n      iszero\n        /* \"#utility.yul\":940:1023   */\n      or\n        /* \"#utility.yul\":917:1056   */\n      tag_373\n      jumpi\n        /* \"#utility.yul\":1036:1054   */\n      tag_374\n      tag_304\n      jump\t// in\n    tag_374:\n        /* \"#utility.yul\":917:1056   */\n    tag_373:\n        /* \"#utility.yul\":701:1063   */\n      pop\n        /* \"#utility.yul\":653:1063   */\n      swap3\n      swap2\n      pop\n      pop\n      jump\t// out\n        /* \"#utility.yul\":1069:1216   */\n    tag_305:\n        /* \"#utility.yul\":1170:1181   */\n      0x00\n        /* \"#utility.yul\":1207:1210   */\n      dup2\n        /* \"#utility.yul\":1192:1210   */\n      swap1\n      pop\n        /* \"#utility.yul\":1069:1216   */\n      swap3\n      swap2\n      pop\n      pop\n      jump\t// out\n        /* \"#utility.yul\":1222:1336   */\n    tag_306:\n      pop\n      jump\t// out\n        /* \"#utility.yul\":1342:1740   */\n    tag_307:\n        /* \"#utility.yul\":1501:1504   */\n      0x00\n        /* \"#utility.yul\":1522:1605   */\n      tag_378\n        /* \"#utility.yul\":1603:1604   */\n      0x00\n        /* \"#utility.yul\":1598:1601   */\n      dup4\n        /* \"#utility.yul\":1522:1605   */\n      tag_305\n      jump\t// in\n    tag_378:\n        /* \"#utility.yul\":1515:1605   */\n      swap2\n      pop\n        /* \"#utility.yul\":1614:1707   */\n      tag_379\n        /* \"#utility.yul\":1703:1706   */\n      dup3\n        /* \"#utility.yul\":1614:1707   */\n      tag_306\n      jump\t// in\n    tag_379:\n        /* \"#utility.yul\":1732:1733   */\n      0x00\n        /* \"#utility.yul\":1727:1730   */\n      dup3\n        /* \"#utility.yul\":1723:1734   */\n      add\n        /* \"#utility.yul\":1716:1734   */\n      swap1\n      pop\n        /* \"#utility.yul\":1342:1740   */\n      swap2\n      swap1\n      pop\n      jump\t// out\n        /* \"#utility.yul\":1746:2125   */\n    tag_37:\n        /* \"#utility.yul\":1930:1933   */\n      0x00\n        /* \"#utility.yul\":1952:2099   */\n      tag_381\n        /* \"#utility.yul\":2095:2098   */\n      dup3\n        /* \"#utility.yul\":1952:2099   */\n      tag_307\n      jump\t// in\n    tag_381:\n        /* \"#utility.yul\":1945:2099   */\n      swap2\n      pop\n        /* \"#utility.yul\":2116:2119   */\n      dup2\n        /* \"#utility.yul\":2109:2119   */\n      swap1\n      pop\n        /* \"#utility.yul\":1746:2125   */\n      swap2\n      swap1\n      pop\n      jump\t// out\n        /* \"#utility.yul\":2131:2325   */\n    tag_43:\n        /* \"#utility.yul\":2171:2175   */\n      0x00\n        /* \"#utility.yul\":2191:2211   */\n      tag_383\n        /* \"#utility.yul\":2209:2210   */\n      dup3\n        /* \"#utility.yul\":2191:2211   */\n      tag_302\n      jump\t// in\n    tag_383:\n        /* \"#utility.yul\":2186:2211   */\n      swap2\n      pop\n        /* \"#utility.yul\":2225:2245   */\n      tag_384\n        /* \"#utility.yul\":2243:2244   */\n      dup4\n        /* \"#utility.yul\":2225:2245   */\n      tag_302\n      jump\t// in\n    tag_384:\n        /* \"#utility.yul\":2220:2245   */\n      swap3\n      pop\n        /* \"#utility.yul\":2269:2270   */\n      dup3\n        /* \"#utility.yul\":2266:2267   */\n      dup3\n        /* \"#utility.yul\":2262:2271   */\n      sub\n        /* \"#utility.yul\":2254:2271   */\n      swap1\n      pop\n        /* \"#utility.yul\":2293:2294   */\n      dup2\n        /* \"#utility.yul\":2287:2291   */\n      dup2\n        /* \"#utility.yul\":2284:2295   */\n      gt\n        /* \"#utility.yul\":2281:2318   */\n      iszero\n      tag_385\n      jumpi\n        /* \"#utility.yul\":2298:2316   */\n      tag_386\n      tag_304\n      jump\t// in\n    tag_386:\n        /* \"#utility.yul\":2281:2318   */\n    tag_385:\n        /* \"#utility.yul\":2131:2325   */\n      swap3\n      swap2\n      pop\n      pop\n      jump\t// out\n        /* \"#utility.yul\":2331:2430   */\n    tag_308:\n        /* \"#utility.yul\":2383:2389   */\n      0x00\n        /* \"#utility.yul\":2417:2422   */\n      dup2\n        /* \"#utility.yul\":2411:2423   */\n      mload\n        /* \"#utility.yul\":2401:2423   */\n      swap1\n      pop\n        /* \"#utility.yul\":2331:2430   */\n      swap2\n      swap1\n      pop\n      jump\t// out\n        /* \"#utility.yul\":2436:2605   */\n    tag_309:\n        /* \"#utility.yul\":2520:2531   */\n      0x00\n        /* \"#utility.yul\":2554:2560   */\n      dup3\n        /* \"#utility.yul\":2549:2552   */\n      dup3\n        /* \"#utility.yul\":2542:2561   */\n      mstore\n        /* \"#utility.yul\":2594:2598   */\n      0x20\n        /* \"#utility.yul\":2589:2592   */\n      dup3\n        /* \"#utility.yul\":2585:2599   */\n      add\n        /* \"#utility.yul\":2570:2599   */\n      swap1\n      pop\n        /* \"#utility.yul\":2436:2605   */\n      swap3\n      swap2\n      pop\n      pop\n      jump\t// out\n        /* \"#utility.yul\":2611:2750   */\n    tag_310:\n        /* \"#utility.yul\":2700:2706   */\n      dup3\n        /* \"#utility.yul\":2695:2698   */\n      dup2\n        /* \"#utility.yul\":2690:2693   */\n      dup4\n        /* \"#utility.yul\":2684:2707   */\n      mcopy\n        /* \"#utility.yul\":2741:2742   */\n      0x00\n        /* \"#utility.yul\":2732:2738   */\n      dup4\n        /* \"#utility.yul\":2727:2730   */\n      dup4\n        /* \"#utility.yul\":2723:2739   */\n      add\n        /* \"#utility.yul\":2716:2743   */\n      mstore\n        /* \"#utility.yul\":2611:2750   */\n      pop\n      pop\n      pop\n      jump\t// out\n        /* \"#utility.yul\":2756:2858   */\n    tag_311:\n        /* \"#utility.yul\":2797:2803   */\n      0x00\n        /* \"#utility.yul\":2848:2850   */\n      0x1f\n        /* \"#utility.yul\":2844:2851   */\n      not\n        /* \"#utility.yul\":2839:2841   */\n      0x1f\n        /* \"#utility.yul\":2832:2837   */\n      dup4\n        /* \"#utility.yul\":2828:2842   */\n      add\n        /* \"#utility.yul\":2824:2852   */\n      and\n        /* \"#utility.yul\":2814:2852   */\n      swap1\n      pop\n        /* \"#utility.yul\":2756:2858   */\n      swap2\n      swap1\n      pop\n      jump\t// out\n        /* \"#utility.yul\":2864:3241   */\n    tag_312:\n        /* \"#utility.yul\":2952:2955   */\n      0x00\n        /* \"#utility.yul\":2980:3019   */\n      tag_392\n        /* \"#utility.yul\":3013:3018   */\n      dup3\n        /* \"#utility.yul\":2980:3019   */\n      tag_308\n      jump\t// in\n    tag_392:\n        /* \"#utility.yul\":3035:3106   */\n      tag_393\n        /* \"#utility.yul\":3099:3105   */\n      dup2\n        /* \"#utility.yul\":3094:3097   */\n      dup6\n        /* \"#utility.yul\":3035:3106   */\n      tag_309\n      jump\t// in\n    tag_393:\n        /* \"#utility.yul\":3028:3106   */\n      swap4\n      pop\n        /* \"#utility.yul\":3115:3180   */\n      tag_394\n        /* \"#utility.yul\":3173:3179   */\n      dup2\n        /* \"#utility.yul\":3168:3171   */\n      dup6\n        /* \"#utility.yul\":3161:3165   */\n      0x20\n        /* \"#utility.yul\":3154:3159   */\n      dup7\n        /* \"#utility.yul\":3150:3166   */\n      add\n        /* \"#utility.yul\":3115:3180   */\n      tag_310\n      jump\t// in\n    tag_394:\n        /* \"#utility.yul\":3205:3234   */\n      tag_395\n        /* \"#utility.yul\":3227:3233   */\n      dup2\n        /* \"#utility.yul\":3205:3234   */\n      tag_311\n      jump\t// in\n    tag_395:\n        /* \"#utility.yul\":3200:3203   */\n      dup5\n        /* \"#utility.yul\":3196:3235   */\n      add\n        /* \"#utility.yul\":3189:3235   */\n      swap2\n      pop\n        /* \"#utility.yul\":2956:3241   */\n      pop\n        /* \"#utility.yul\":2864:3241   */\n      swap3\n      swap2\n      pop\n      pop\n      jump\t// out\n        /* \"#utility.yul\":3247:3560   */\n    tag_52:\n        /* \"#utility.yul\":3360:3364   */\n      0x00\n        /* \"#utility.yul\":3398:3400   */\n      0x20\n        /* \"#utility.yul\":3387:3396   */\n      dup3\n        /* \"#utility.yul\":3383:3401   */\n      add\n        /* \"#utility.yul\":3375:3401   */\n      swap1\n      pop\n        /* \"#utility.yul\":3447:3456   */\n      dup2\n        /* \"#utility.yul\":3441:3445   */\n      dup2\n        /* \"#utility.yul\":3437:3457   */\n      sub\n        /* \"#utility.yul\":3433:3434   */\n      0x00\n        /* \"#utility.yul\":3422:3431   */\n      dup4\n        /* \"#utility.yul\":3418:3435   */\n      add\n        /* \"#utility.yul\":3411:3458   */\n      mstore\n        /* \"#utility.yul\":3475:3553   */\n      tag_397\n        /* \"#utility.yul\":3548:3552   */\n      dup2\n        /* \"#utility.yul\":3539:3545   */\n      dup5\n        /* \"#utility.yul\":3475:3553   */\n      tag_312\n      jump\t// in\n    tag_397:\n        /* \"#utility.yul\":3467:3553   */\n      swap1\n      pop\n        /* \"#utility.yul\":3247:3560   */\n      swap3\n      swap2\n      pop\n      pop\n      jump\t// out\n        /* \"#utility.yul\":3566:3641   */\n    tag_313:\n        /* \"#utility.yul\":3599:3605   */\n      0x00\n        /* \"#utility.yul\":3632:3634   */\n      0x40\n        /* \"#utility.yul\":3626:3635   */\n      mload\n        /* \"#utility.yul\":3616:3635   */\n      swap1\n      pop\n        /* \"#utility.yul\":3566:3641   */\n      swap1\n      jump\t// out\n        /* \"#utility.yul\":3647:3764   */\n    tag_314:\n        /* \"#utility.yul\":3756:3757   */\n      0x00\n        /* \"#utility.yul\":3753:3754   */\n      dup1\n        /* \"#utility.yul\":3746:3758   */\n      revert\n        /* \"#utility.yul\":3770:3887   */\n    tag_315:\n        /* \"#utility.yul\":3879:3880   */\n      0x00\n        /* \"#utility.yul\":3876:3877   */\n      dup1\n        /* \"#utility.yul\":3869:3881   */\n      revert\n        /* \"#utility.yul\":3893:4019   */\n    tag_316:\n        /* \"#utility.yul\":3930:3937   */\n      0x00\n        /* \"#utility.yul\":3970:4012   */\n      0xffffffffffffffffffffffffffffffffffffffff\n        /* \"#utility.yul\":3963:3968   */\n      dup3\n        /* \"#utility.yul\":3959:4013   */\n      and\n        /* \"#utility.yul\":3948:4013   */\n      swap1\n      pop\n        /* \"#utility.yul\":3893:4019   */\n      swap2\n      swap1\n      pop\n      jump\t// out\n        /* \"#utility.yul\":4025:4121   */\n    tag_317:\n        /* \"#utility.yul\":4062:4069   */\n      0x00\n        /* \"#utility.yul\":4091:4115   */\n      tag_403\n        /* \"#utility.yul\":4109:4114   */\n      dup3\n        /* \"#utility.yul\":4091:4115   */\n      tag_316\n      jump\t// in\n    tag_403:\n        /* \"#utility.yul\":4080:4115   */\n      swap1\n      pop\n        /* \"#utility.yul\":4025:4121   */\n      swap2\n      swap1\n      pop\n      jump\t// out\n        /* \"#utility.yul\":4127:4249   */\n    tag_318:\n        /* \"#utility.yul\":4200:4224   */\n      tag_405\n        /* \"#utility.yul\":4218:4223   */\n      dup2\n        /* \"#utility.yul\":4200:4224   */\n      tag_317\n      jump\t// in\n    tag_405:\n        /* \"#utility.yul\":4193:4198   */\n      dup2\n        /* \"#utility.yul\":4190:4225   */\n      eq\n        /* \"#utility.yul\":4180:4243   */\n      tag_406\n      jumpi\n        /* \"#utility.yul\":4239:4240   */\n      0x00\n        /* \"#utility.yul\":4236:4237   */\n      dup1\n        /* \"#utility.yul\":4229:4241   */\n      revert\n        /* \"#utility.yul\":4180:4243   */\n    tag_406:\n        /* \"#utility.yul\":4127:4249   */\n      pop\n      jump\t// out\n        /* \"#utility.yul\":4255:4394   */\n    tag_319:\n        /* \"#utility.yul\":4301:4306   */\n      0x00\n        /* \"#utility.yul\":4339:4345   */\n      dup2\n        /* \"#utility.yul\":4326:4346   */\n      calldataload\n        /* \"#utility.yul\":4317:4346   */\n      swap1\n      pop\n        /* \"#utility.yul\":4355:4388   */\n      tag_408\n        /* \"#utility.yul\":4382:4387   */\n      dup2\n        /* \"#utility.yul\":4355:4388   */\n      tag_318\n      jump\t// in\n    tag_408:\n        /* \"#utility.yul\":4255:4394   */\n      swap3\n      swap2\n      pop\n      pop\n      jump\t// out\n        /* \"#utility.yul\":4400:4522   */\n    tag_320:\n        /* \"#utility.yul\":4473:4497   */\n      tag_410\n        /* \"#utility.yul\":4491:4496   */\n      dup2\n        /* \"#utility.yul\":4473:4497   */\n      tag_302\n      jump\t// in\n    tag_410:\n        /* \"#utility.yul\":4466:4471   */\n      dup2\n        /* \"#utility.yul\":4463:4498   */\n      eq\n        /* \"#utility.yul\":4453:4516   */\n      tag_411\n      jumpi\n        /* \"#utility.yul\":4512:4513   */\n      0x00\n        /* \"#utility.yul\":4509:4510   */\n      dup1\n        /* \"#utility.yul\":4502:4514   */\n      revert\n        /* \"#utility.yul\":4453:4516   */\n    tag_411:\n        /* \"#utility.yul\":4400:4522   */\n      pop\n      jump\t// out\n        /* \"#utility.yul\":4528:4667   */\n    tag_321:\n        /* \"#utility.yul\":4574:4579   */\n      0x00\n        /* \"#utility.yul\":4612:4618   */\n      dup2\n        /* \"#utility.yul\":4599:4619   */\n      calldataload\n        /* \"#utility.yul\":4590:4619   */\n      swap1\n      pop\n        /* \"#utility.yul\":4628:4661   */\n      tag_413\n        /* \"#utility.yul\":4655:4660   */\n      dup2\n        /* \"#utility.yul\":4628:4661   */\n      tag_320\n      jump\t// in\n    tag_413:\n        /* \"#utility.yul\":4528:4667   */\n      swap3\n      swap2\n      pop\n      pop\n      jump\t// out\n        /* \"#utility.yul\":4673:5147   */\n    tag_56:\n        /* \"#utility.yul\":4741:4747   */\n      0x00\n        /* \"#utility.yul\":4749:4755   */\n      dup1\n        /* \"#utility.yul\":4798:4800   */\n      0x40\n        /* \"#utility.yul\":4786:4795   */\n      dup4\n        /* \"#utility.yul\":4777:4784   */\n      dup6\n        /* \"#utility.yul\":4773:4796   */\n      sub\n        /* \"#utility.yul\":4769:4801   */\n      slt\n        /* \"#utility.yul\":4766:4885   */\n      iszero\n      tag_415\n      jumpi\n        /* \"#utility.yul\":4804:4883   */\n      tag_416\n      tag_314\n      jump\t// in\n    tag_416:\n        /* \"#utility.yul\":4766:4885   */\n    tag_415:\n        /* \"#utility.yul\":4924:4925   */\n      0x00\n        /* \"#utility.yul\":4949:5002   */\n      tag_417\n        /* \"#utility.yul\":4994:5001   */\n      dup6\n        /* \"#utility.yul\":4985:4991   */\n      dup3\n        /* \"#utility.yul\":4974:4983   */\n      dup7\n        /* \"#utility.yul\":4970:4992   */\n      add\n        /* \"#utility.yul\":4949:5002   */\n      tag_319\n      jump\t// in\n    tag_417:\n        /* \"#utility.yul\":4939:5002   */\n      swap3\n      pop\n        /* \"#utility.yul\":4895:5012   */\n      pop\n        /* \"#utility.yul\":5051:5053   */\n      0x20\n        /* \"#utility.yul\":5077:5130   */\n      tag_418\n        /* \"#utility.yul\":5122:5129   */\n      dup6\n        /* \"#utility.yul\":5113:5119   */\n      dup3\n        /* \"#utility.yul\":5102:5111   */\n      dup7\n        /* \"#utility.yul\":5098:5120   */\n      add\n        /* \"#utility.yul\":5077:5130   */\n      tag_321\n      jump\t// in\n    tag_418:\n        /* \"#utility.yul\":5067:5130   */\n      swap2\n      pop\n        /* \"#utility.yul\":5022:5140   */\n      pop\n        /* \"#utility.yul\":4673:5147   */\n      swap3\n      pop\n      swap3\n      swap1\n      pop\n      jump\t// out\n        /* \"#utility.yul\":5153:5243   */\n    tag_322:\n        /* \"#utility.yul\":5187:5194   */\n      0x00\n        /* \"#utility.yul\":5230:5235   */\n      dup2\n        /* \"#utility.yul\":5223:5236   */\n      iszero\n        /* \"#utility.yul\":5216:5237   */\n      iszero\n        /* \"#utility.yul\":5205:5237   */\n      swap1\n      pop\n        /* \"#utility.yul\":5153:5243   */\n      swap2\n      swap1\n      pop\n      jump\t// out\n        /* \"#utility.yul\":5249:5358   */\n    tag_323:\n        /* \"#utility.yul\":5330:5351   */\n      tag_421\n        /* \"#utility.yul\":5345:5350   */\n      dup2\n        /* \"#utility.yul\":5330:5351   */\n      tag_322\n      jump\t// in\n    tag_421:\n        /* \"#utility.yul\":5325:5328   */\n      dup3\n        /* \"#utility.yul\":5318:5352   */\n      mstore\n        /* \"#utility.yul\":5249:5358   */\n      pop\n      pop\n      jump\t// out\n        /* \"#utility.yul\":5364:5574   */\n    tag_59:\n        /* \"#utility.yul\":5451:5455   */\n      0x00\n        /* \"#utility.yul\":5489:5491   */\n      0x20\n        /* \"#utility.yul\":5478:5487   */\n      dup3\n        /* \"#utility.yul\":5474:5492   */\n      add\n        /* \"#utility.yul\":5466:5492   */\n      swap1\n      pop\n        /* \"#utility.yul\":5502:5567   */\n      tag_423\n        /* \"#utility.yul\":5564:5565   */\n      0x00\n        /* \"#utility.yul\":5553:5562   */\n      dup4\n        /* \"#utility.yul\":5549:5566   */\n      add\n        /* \"#utility.yul\":5540:5546   */\n      dup5\n        /* \"#utility.yul\":5502:5567   */\n      tag_323\n      jump\t// in\n    tag_423:\n        /* \"#utility.yul\":5364:5574   */\n      swap3\n      swap2\n      pop\n      pop\n      jump\t// out\n        /* \"#utility.yul\":5580:5698   */\n    tag_324:\n        /* \"#utility.yul\":5667:5691   */\n      tag_425\n        /* \"#utility.yul\":5685:5690   */\n      dup2\n        /* \"#utility.yul\":5667:5691   */\n      tag_302\n      jump\t// in\n    tag_425:\n        /* \"#utility.yul\":5662:5665   */\n      dup3\n        /* \"#utility.yul\":5655:5692   */\n      mstore\n        /* \"#utility.yul\":5580:5698   */\n      pop\n      pop\n      jump\t// out\n        /* \"#utility.yul\":5704:5926   */\n    tag_64:\n        /* \"#utility.yul\":5797:5801   */\n      0x00\n        /* \"#utility.yul\":5835:5837   */\n      0x20\n        /* \"#utility.yul\":5824:5833   */\n      dup3\n        /* \"#utility.yul\":5820:5838   */\n      add\n        /* \"#utility.yul\":5812:5838   */\n      swap1\n      pop\n        /* \"#utility.yul\":5848:5919   */\n      tag_427\n        /* \"#utility.yul\":5916:5917   */\n      0x00\n        /* \"#utility.yul\":5905:5914   */\n      dup4\n        /* \"#utility.yul\":5901:5918   */\n      add\n        /* \"#utility.yul\":5892:5898   */\n      dup5\n        /* \"#utility.yul\":5848:5919   */\n      tag_324\n      jump\t// in\n    tag_427:\n        /* \"#utility.yul\":5704:5926   */\n      swap3\n      swap2\n      pop\n      pop\n      jump\t// out\n        /* \"#utility.yul\":5932:6551   */\n    tag_68:\n        /* \"#utility.yul\":6009:6015   */\n      0x00\n        /* \"#utility.yul\":6017:6023   */\n      dup1\n        /* \"#utility.yul\":6025:6031   */\n      0x00\n        /* \"#utility.yul\":6074:6076   */\n      0x60\n        /* \"#utility.yul\":6062:6071   */\n      dup5\n        /* \"#utility.yul\":6053:6060   */\n      dup7\n        /* \"#utility.yul\":6049:6072   */\n      sub\n        /* \"#utility.yul\":6045:6077   */\n      slt\n        /* \"#utility.yul\":6042:6161   */\n      iszero\n      tag_429\n      jumpi\n        /* \"#utility.yul\":6080:6159   */\n      tag_430\n      tag_314\n      jump\t// in\n    tag_430:\n        /* \"#utility.yul\":6042:6161   */\n    tag_429:\n        /* \"#utility.yul\":6200:6201   */\n      0x00\n        /* \"#utility.yul\":6225:6278   */\n      tag_431\n        /* \"#utility.yul\":6270:6277   */\n      dup7\n        /* \"#utility.yul\":6261:6267   */\n      dup3\n        /* \"#utility.yul\":6250:6259   */\n      dup8\n        /* \"#utility.yul\":6246:6268   */\n      add\n        /* \"#utility.yul\":6225:6278   */\n      tag_319\n      jump\t// in\n    tag_431:\n        /* \"#utility.yul\":6215:6278   */\n      swap4\n      pop\n        /* \"#utility.yul\":6171:6288   */\n      pop\n        /* \"#utility.yul\":6327:6329   */\n      0x20\n        /* \"#utility.yul\":6353:6406   */\n      tag_432\n        /* \"#utility.yul\":6398:6405   */\n      dup7\n        /* \"#utility.yul\":6389:6395   */\n      dup3\n        /* \"#utility.yul\":6378:6387   */\n      dup8\n        /* \"#utility.yul\":6374:6396   */\n      add\n        /* \"#utility.yul\":6353:6406   */\n      tag_319\n      jump\t// in\n    tag_432:\n        /* \"#utility.yul\":6343:6406   */\n      swap3\n      pop\n        /* \"#utility.yul\":6298:6416   */\n      pop\n        /* \"#utility.yul\":6455:6457   */\n      0x40\n        /* \"#utility.yul\":6481:6534   */\n      tag_433\n        /* \"#utility.yul\":6526:6533   */\n      dup7\n        /* \"#utility.yul\":6517:6523   */\n      dup3\n        /* \"#utility.yul\":6506:6515   */\n      dup8\n        /* \"#utility.yul\":6502:6524   */\n      add\n        /* \"#utility.yul\":6481:6534   */\n      tag_321\n      jump\t// in\n    tag_433:\n        /* \"#utility.yul\":6471:6534   */\n      swap2\n      pop\n        /* \"#utility.yul\":6426:6544   */\n      pop\n        /* \"#utility.yul\":5932:6551   */\n      swap3\n      pop\n      swap3\n      pop\n      swap3\n      jump\t// out\n        /* \"#utility.yul\":6557:6643   */\n    tag_325:\n        /* \"#utility.yul\":6592:6599   */\n      0x00\n        /* \"#utility.yul\":6632:6636   */\n      0xff\n        /* \"#utility.yul\":6625:6630   */\n      dup3\n        /* \"#utility.yul\":6621:6637   */\n      and\n        /* \"#utility.yul\":6610:6637   */\n      swap1\n      pop\n        /* \"#utility.yul\":6557:6643   */\n      swap2\n      swap1\n      pop\n      jump\t// out\n        /* \"#utility.yul\":6649:6761   */\n    tag_326:\n        /* \"#utility.yul\":6732:6754   */\n      tag_436\n        /* \"#utility.yul\":6748:6753   */\n      dup2\n        /* \"#utility.yul\":6732:6754   */\n      tag_325\n      jump\t// in\n    tag_436:\n        /* \"#utility.yul\":6727:6730   */\n      dup3\n        /* \"#utility.yul\":6720:6755   */\n      mstore\n        /* \"#utility.yul\":6649:6761   */\n      pop\n      pop\n      jump\t// out\n        /* \"#utility.yul\":6767:6981   */\n    tag_75:\n        /* \"#utility.yul\":6856:6860   */\n      0x00\n        /* \"#utility.yul\":6894:6896   */\n      0x20\n        /* \"#utility.yul\":6883:6892   */\n      dup3\n        /* \"#utility.yul\":6879:6897   */\n      add\n        /* \"#utility.yul\":6871:6897   */\n      swap1\n      pop\n        /* \"#utility.yul\":6907:6974   */\n      tag_438\n        /* \"#utility.yul\":6971:6972   */\n      0x00\n        /* \"#utility.yul\":6960:6969   */\n      dup4\n        /* \"#utility.yul\":6956:6973   */\n      add\n        /* \"#utility.yul\":6947:6953   */\n      dup5\n        /* \"#utility.yul\":6907:6974   */\n      tag_326\n      jump\t// in\n    tag_438:\n        /* \"#utility.yul\":6767:6981   */\n      swap3\n      swap2\n      pop\n      pop\n      jump\t// out\n        /* \"#utility.yul\":6987:7104   */\n    tag_327:\n        /* \"#utility.yul\":7096:7097   */\n      0x00\n        /* \"#utility.yul\":7093:7094   */\n      dup1\n        /* \"#utility.yul\":7086:7098   */\n      revert\n        /* \"#utility.yul\":7110:7227   */\n    tag_328:\n        /* \"#utility.yul\":7219:7220   */\n      0x00\n        /* \"#utility.yul\":7216:7217   */\n      dup1\n        /* \"#utility.yul\":7209:7221   */\n      revert\n        /* \"#utility.yul\":7233:7413   */\n    tag_329:\n        /* \"#utility.yul\":7281:7358   */\n      0x4e487b7100000000000000000000000000000000000000000000000000000000\n        /* \"#utility.yul\":7278:7279   */\n      0x00\n        /* \"#utility.yul\":7271:7359   */\n      mstore\n        /* \"#utility.yul\":7378:7382   */\n      0x41\n        /* \"#utility.yul\":7375:7376   */\n      0x04\n        /* \"#utility.yul\":7368:7383   */\n      mstore\n        /* \"#utility.yul\":7402:7406   */\n      0x24\n        /* \"#utility.yul\":7399:7400   */\n      0x00\n        /* \"#utility.yul\":7392:7407   */\n      revert\n        /* \"#utility.yul\":7419:7700   */\n    tag_330:\n        /* \"#utility.yul\":7502:7529   */\n      tag_443\n        /* \"#utility.yul\":7524:7528   */\n      dup3\n        /* \"#utility.yul\":7502:7529   */\n      tag_311\n      jump\t// in\n    tag_443:\n        /* \"#utility.yul\":7494:7500   */\n      dup2\n        /* \"#utility.yul\":7490:7530   */\n      add\n        /* \"#utility.yul\":7632:7638   */\n      dup2\n        /* \"#utility.yul\":7620:7630   */\n      dup2\n        /* \"#utility.yul\":7617:7639   */\n      lt\n        /* \"#utility.yul\":7596:7614   */\n      0xffffffffffffffff\n        /* \"#utility.yul\":7584:7594   */\n      dup3\n        /* \"#utility.yul\":7581:7615   */\n      gt\n        /* \"#utility.yul\":7578:7640   */\n      or\n        /* \"#utility.yul\":7575:7663   */\n      iszero\n      tag_444\n      jumpi\n        /* \"#utility.yul\":7643:7661   */\n      tag_445\n      tag_329\n      jump\t// in\n    tag_445:\n        /* \"#utility.yul\":7575:7663   */\n    tag_444:\n        /* \"#utility.yul\":7683:7693   */\n      dup1\n        /* \"#utility.yul\":7679:7681   */\n      0x40\n        /* \"#utility.yul\":7672:7694   */\n      mstore\n        /* \"#utility.yul\":7462:7700   */\n      pop\n        /* \"#utility.yul\":7419:7700   */\n      pop\n      pop\n      jump\t// out\n        /* \"#utility.yul\":7706:7835   */\n    tag_331:\n        /* \"#utility.yul\":7740:7746   */\n      0x00\n        /* \"#utility.yul\":7767:7787   */\n      tag_447\n      tag_313\n      jump\t// in\n    tag_447:\n        /* \"#utility.yul\":7757:7787   */\n      swap1\n      pop\n        /* \"#utility.yul\":7796:7829   */\n      tag_448\n        /* \"#utility.yul\":7824:7828   */\n      dup3\n        /* \"#utility.yul\":7816:7822   */\n      dup3\n        /* \"#utility.yul\":7796:7829   */\n      tag_330\n      jump\t// in\n    tag_448:\n        /* \"#utility.yul\":7706:7835   */\n      swap2\n      swap1\n      pop\n      jump\t// out\n        /* \"#utility.yul\":7841:8149   */\n    tag_332:\n        /* \"#utility.yul\":7903:7907   */\n      0x00\n        /* \"#utility.yul\":7993:8011   */\n      0xffffffffffffffff\n        /* \"#utility.yul\":7985:7991   */\n      dup3\n        /* \"#utility.yul\":7982:8012   */\n      gt\n        /* \"#utility.yul\":7979:8035   */\n      iszero\n      tag_450\n      jumpi\n        /* \"#utility.yul\":8015:8033   */\n      tag_451\n      tag_329\n      jump\t// in\n    tag_451:\n        /* \"#utility.yul\":7979:8035   */\n    tag_450:\n        /* \"#utility.yul\":8053:8082   */\n      tag_452\n        /* \"#utility.yul\":8075:8081   */\n      dup3\n        /* \"#utility.yul\":8053:8082   */\n      tag_311\n      jump\t// in\n    tag_452:\n        /* \"#utility.yul\":8045:8082   */\n      swap1\n      pop\n        /* \"#utility.yul\":8137:8141   */\n      0x20\n        /* \"#utility.yul\":8131:8135   */\n      dup2\n        /* \"#utility.yul\":8127:8142   */\n      add\n        /* \"#utility.yul\":8119:8142   */\n      swap1\n      pop\n        /* \"#utility.yul\":7841:8149   */\n      swap2\n      swap1\n      pop\n      jump\t// out\n        /* \"#utility.yul\":8155:8303   */\n    tag_333:\n        /* \"#utility.yul\":8253:8259   */\n      dup3\n        /* \"#utility.yul\":8248:8251   */\n      dup2\n        /* \"#utility.yul\":8243:8246   */\n      dup4\n        /* \"#utility.yul\":8230:8260   */\n      calldatacopy\n        /* \"#utility.yul\":8294:8295   */\n      0x00\n        /* \"#utility.yul\":8285:8291   */\n      dup4\n        /* \"#utility.yul\":8280:8283   */\n      dup4\n        /* \"#utility.yul\":8276:8292   */\n      add\n        /* \"#utility.yul\":8269:8296   */\n      mstore\n        /* \"#utility.yul\":8155:8303   */\n      pop\n      pop\n      pop\n      jump\t// out\n        /* \"#utility.yul\":8309:8734   */\n    tag_334:\n        /* \"#utility.yul\":8387:8392   */\n      0x00\n        /* \"#utility.yul\":8412:8478   */\n      tag_455\n        /* \"#utility.yul\":8428:8477   */\n      tag_456\n        /* \"#utility.yul\":8470:8476   */\n      dup5\n        /* \"#utility.yul\":8428:8477   */\n      tag_332\n      jump\t// in\n    tag_456:\n        /* \"#utility.yul\":8412:8478   */\n      tag_331\n      jump\t// in\n    tag_455:\n        /* \"#utility.yul\":8403:8478   */\n      swap1\n      pop\n        /* \"#utility.yul\":8501:8507   */\n      dup3\n        /* \"#utility.yul\":8494:8499   */\n      dup2\n        /* \"#utility.yul\":8487:8508   */\n      mstore\n        /* \"#utility.yul\":8539:8543   */\n      0x20\n        /* \"#utility.yul\":8532:8537   */\n      dup2\n        /* \"#utility.yul\":8528:8544   */\n      add\n        /* \"#utility.yul\":8577:8580   */\n      dup5\n        /* \"#utility.yul\":8568:8574   */\n      dup5\n        /* \"#utility.yul\":8563:8566   */\n      dup5\n        /* \"#utility.yul\":8559:8575   */\n      add\n        /* \"#utility.yul\":8556:8581   */\n      gt\n        /* \"#utility.yul\":8553:8665   */\n      iszero\n      tag_457\n      jumpi\n        /* \"#utility.yul\":8584:8663   */\n      tag_458\n      tag_328\n      jump\t// in\n    tag_458:\n        /* \"#utility.yul\":8553:8665   */\n    tag_457:\n        /* \"#utility.yul\":8674:8728   */\n      tag_459\n        /* \"#utility.yul\":8721:8727   */\n      dup5\n        /* \"#utility.yul\":8716:8719   */\n      dup3\n        /* \"#utility.yul\":8711:8714   */\n      dup6\n        /* \"#utility.yul\":8674:8728   */\n      tag_333\n      jump\t// in\n    tag_459:\n        /* \"#utility.yul\":8393:8734   */\n      pop\n        /* \"#utility.yul\":8309:8734   */\n      swap4\n      swap3\n      pop\n      pop\n      pop\n      jump\t// out\n        /* \"#utility.yul\":8754:9094   */\n    tag_335:\n        /* \"#utility.yul\":8810:8815   */\n      0x00\n        /* \"#utility.yul\":8859:8862   */\n      dup3\n        /* \"#utility.yul\":8852:8856   */\n      0x1f\n        /* \"#utility.yul\":8844:8850   */\n      dup4\n        /* \"#utility.yul\":8840:8857   */\n      add\n        /* \"#utility.yul\":8836:8863   */\n      slt\n        /* \"#utility.yul\":8826:8948   */\n      tag_461\n      jumpi\n        /* \"#utility.yul\":8867:8946   */\n      tag_462\n      tag_327\n      jump\t// in\n    tag_462:\n        /* \"#utility.yul\":8826:8948   */\n    tag_461:\n        /* \"#utility.yul\":8984:8990   */\n      dup2\n        /* \"#utility.yul\":8971:8991   */\n      calldataload\n        /* \"#utility.yul\":9009:9088   */\n      tag_463\n        /* \"#utility.yul\":9084:9087   */\n      dup5\n        /* \"#utility.yul\":9076:9082   */\n      dup3\n        /* \"#utility.yul\":9069:9073   */\n      0x20\n        /* \"#utility.yul\":9061:9067   */\n      dup7\n        /* \"#utility.yul\":9057:9074   */\n      add\n        /* \"#utility.yul\":9009:9088   */\n      tag_334\n      jump\t// in\n    tag_463:\n        /* \"#utility.yul\":9000:9088   */\n      swap2\n      pop\n        /* \"#utility.yul\":8816:9094   */\n      pop\n        /* \"#utility.yul\":8754:9094   */\n      swap3\n      swap2\n      pop\n      pop\n      jump\t// out\n        /* \"#utility.yul\":9100:9934   */\n    tag_79:\n        /* \"#utility.yul\":9188:9194   */\n      0x00\n        /* \"#utility.yul\":9196:9202   */\n      dup1\n        /* \"#utility.yul\":9245:9247   */\n      0x40\n        /* \"#utility.yul\":9233:9242   */\n      dup4\n        /* \"#utility.yul\":9224:9231   */\n      dup6\n        /* \"#utility.yul\":9220:9243   */\n      sub\n        /* \"#utility.yul\":9216:9248   */\n      slt\n        /* \"#utility.yul\":9213:9332   */\n      iszero\n      tag_465\n      jumpi\n        /* \"#utility.yul\":9251:9330   */\n      tag_466\n      tag_314\n      jump\t// in\n    tag_466:\n        /* \"#utility.yul\":9213:9332   */\n    tag_465:\n        /* \"#utility.yul\":9399:9400   */\n      0x00\n        /* \"#utility.yul\":9388:9397   */\n      dup4\n        /* \"#utility.yul\":9384:9401   */\n      add\n        /* \"#utility.yul\":9371:9402   */\n      calldataload\n        /* \"#utility.yul\":9429:9447   */\n      0xffffffffffffffff\n        /* \"#utility.yul\":9421:9427   */\n      dup2\n        /* \"#utility.yul\":9418:9448   */\n      gt\n        /* \"#utility.yul\":9415:9532   */\n      iszero\n      tag_467\n      jumpi\n        /* \"#utility.yul\":9451:9530   */\n      tag_468\n      tag_315\n      jump\t// in\n    tag_468:\n        /* \"#utility.yul\":9415:9532   */\n    tag_467:\n        /* \"#utility.yul\":9556:9619   */\n      tag_469\n        /* \"#utility.yul\":9611:9618   */\n      dup6\n        /* \"#utility.yul\":9602:9608   */\n      dup3\n        /* \"#utility.yul\":9591:9600   */\n      dup7\n        /* \"#utility.yul\":9587:9609   */\n      add\n        /* \"#utility.yul\":9556:9619   */\n      tag_335\n      jump\t// in\n    tag_469:\n        /* \"#utility.yul\":9546:9619   */\n      swap3\n      pop\n        /* \"#utility.yul\":9342:9629   */\n      pop\n        /* \"#utility.yul\":9696:9698   */\n      0x20\n        /* \"#utility.yul\":9685:9694   */\n      dup4\n        /* \"#utility.yul\":9681:9699   */\n      add\n        /* \"#utility.yul\":9668:9700   */\n      calldataload\n        /* \"#utility.yul\":9727:9745   */\n      0xffffffffffffffff\n        /* \"#utility.yul\":9719:9725   */\n      dup2\n        /* \"#utility.yul\":9716:9746   */\n      gt\n        /* \"#utility.yul\":9713:9830   */\n      iszero\n      tag_470\n      jumpi\n        /* \"#utility.yul\":9749:9828   */\n      tag_471\n      tag_315\n      jump\t// in\n    tag_471:\n        /* \"#utility.yul\":9713:9830   */\n    tag_470:\n        /* \"#utility.yul\":9854:9917   */\n      tag_472\n        /* \"#utility.yul\":9909:9916   */\n      dup6\n        /* \"#utility.yul\":9900:9906   */\n      dup3\n        /* \"#utility.yul\":9889:9898   */\n      dup7\n        /* \"#utility.yul\":9885:9907   */\n      add\n        /* \"#utility.yul\":9854:9917   */\n      tag_335\n      jump\t// in\n    tag_472:\n        /* \"#utility.yul\":9844:9917   */\n      swap2\n      pop\n        /* \"#utility.yul\":9639:9927   */\n      pop\n        /* \"#utility.yul\":9100:9934   */\n      swap3\n      pop\n      swap3\n      swap1\n      pop\n      jump\t// out\n        /* \"#utility.yul\":9940:10269   */\n    tag_84:\n        /* \"#utility.yul\":9999:10005   */\n      0x00\n        /* \"#utility.yul\":10048:10050   */\n      0x20\n        /* \"#utility.yul\":10036:10045   */\n      dup3\n        /* \"#utility.yul\":10027:10034   */\n      dup5\n        /* \"#utility.yul\":10023:10046   */\n      sub\n        /* \"#utility.yul\":10019:10051   */\n      slt\n        /* \"#utility.yul\":10016:10135   */\n      iszero\n      tag_474\n      jumpi\n        /* \"#utility.yul\":10054:10133   */\n      tag_475\n      tag_314\n      jump\t// in\n    tag_475:\n        /* \"#utility.yul\":10016:10135   */\n    tag_474:\n        /* \"#utility.yul\":10174:10175   */\n      0x00\n        /* \"#utility.yul\":10199:10252   */\n      tag_476\n        /* \"#utility.yul\":10244:10251   */\n      dup5\n        /* \"#utility.yul\":10235:10241   */\n      dup3\n        /* \"#utility.yul\":10224:10233   */\n      dup6\n        /* \"#utility.yul\":10220:10242   */\n      add\n        /* \"#utility.yul\":10199:10252   */\n      tag_319\n      jump\t// in\n    tag_476:\n        /* \"#utility.yul\":10189:10252   */\n      swap2\n      pop\n        /* \"#utility.yul\":10145:10262   */\n      pop\n        /* \"#utility.yul\":9940:10269   */\n      swap3\n      swap2\n      pop\n      pop\n      jump\t// out\n        /* \"#utility.yul\":10275:10784   */\n    tag_93:\n        /* \"#utility.yul\":10344:10350   */\n      0x00\n        /* \"#utility.yul\":10393:10395   */\n      0x20\n        /* \"#utility.yul\":10381:10390   */\n      dup3\n        /* \"#utility.yul\":10372:10379   */\n      dup5\n        /* \"#utility.yul\":10368:10391   */\n      sub\n        /* \"#utility.yul\":10364:10396   */\n      slt\n        /* \"#utility.yul\":10361:10480   */\n      iszero\n      tag_478\n      jumpi\n        /* \"#utility.yul\":10399:10478   */\n      tag_479\n      tag_314\n      jump\t// in\n    tag_479:\n        /* \"#utility.yul\":10361:10480   */\n    tag_478:\n        /* \"#utility.yul\":10547:10548   */\n      0x00\n        /* \"#utility.yul\":10536:10545   */\n      dup3\n        /* \"#utility.yul\":10532:10549   */\n      add\n        /* \"#utility.yul\":10519:10550   */\n      calldataload\n        /* \"#utility.yul\":10577:10595   */\n      0xffffffffffffffff\n        /* \"#utility.yul\":10569:10575   */\n      dup2\n        /* \"#utility.yul\":10566:10596   */\n      gt\n        /* \"#utility.yul\":10563:10680   */\n      iszero\n      tag_480\n      jumpi\n        /* \"#utility.yul\":10599:10678   */\n      tag_481\n      tag_315\n      jump\t// in\n    tag_481:\n        /* \"#utility.yul\":10563:10680   */\n    tag_480:\n        /* \"#utility.yul\":10704:10767   */\n      tag_482\n        /* \"#utility.yul\":10759:10766   */\n      dup5\n        /* \"#utility.yul\":10750:10756   */\n      dup3\n        /* \"#utility.yul\":10739:10748   */\n      dup6\n        /* \"#utility.yul\":10735:10757   */\n      add\n        /* \"#utility.yul\":10704:10767   */\n      tag_335\n      jump\t// in\n    tag_482:\n        /* \"#utility.yul\":10694:10767   */\n      swap2\n      pop\n        /* \"#utility.yul\":10490:10777   */\n      pop\n        /* \"#utility.yul\":10275:10784   */\n      swap3\n      swap2\n      pop\n      pop\n      jump\t// out\n        /* \"#utility.yul\":10790:11323   */\n    tag_101:\n        /* \"#utility.yul\":10959:10963   */\n      0x00\n        /* \"#utility.yul\":10997:10999   */\n      0x60\n        /* \"#utility.yul\":10986:10995   */\n      dup3\n        /* \"#utility.yul\":10982:11000   */\n      add\n        /* \"#utility.yul\":10974:11000   */\n      swap1\n      pop\n        /* \"#utility.yul\":11046:11055   */\n      dup2\n        /* \"#utility.yul\":11040:11044   */\n      dup2\n        /* \"#utility.yul\":11036:11056   */\n      sub\n        /* \"#utility.yul\":11032:11033   */\n      0x00\n        /* \"#utility.yul\":11021:11030   */\n      dup4\n        /* \"#utility.yul\":11017:11034   */\n      add\n        /* \"#utility.yul\":11010:11057   */\n      mstore\n        /* \"#utility.yul\":11074:11152   */\n      tag_484\n        /* \"#utility.yul\":11147:11151   */\n      dup2\n        /* \"#utility.yul\":11138:11144   */\n      dup7\n        /* \"#utility.yul\":11074:11152   */\n      tag_312\n      jump\t// in\n    tag_484:\n        /* \"#utility.yul\":11066:11152   */\n      swap1\n      pop\n        /* \"#utility.yul\":11162:11234   */\n      tag_485\n        /* \"#utility.yul\":11230:11232   */\n      0x20\n        /* \"#utility.yul\":11219:11228   */\n      dup4\n        /* \"#utility.yul\":11215:11233   */\n      add\n        /* \"#utility.yul\":11206:11212   */\n      dup6\n        /* \"#utility.yul\":11162:11234   */\n      tag_324\n      jump\t// in\n    tag_485:\n        /* \"#utility.yul\":11244:11316   */\n      tag_486\n        /* \"#utility.yul\":11312:11314   */\n      0x40\n        /* \"#utility.yul\":11301:11310   */\n      dup4\n        /* \"#utility.yul\":11297:11315   */\n      add\n        /* \"#utility.yul\":11288:11294   */\n      dup5\n        /* \"#utility.yul\":11244:11316   */\n      tag_324\n      jump\t// in\n    tag_486:\n        /* \"#utility.yul\":10790:11323   */\n      swap5\n      swap4\n      pop\n      pop\n      pop\n      pop\n      jump\t// out\n        /* \"#utility.yul\":11329:11447   */\n    tag_336:\n        /* \"#utility.yul\":11416:11440   */\n      tag_488\n        /* \"#utility.yul\":11434:11439   */\n      dup2\n        /* \"#utility.yul\":11416:11440   */\n      tag_317\n      jump\t// in\n    tag_488:\n        /* \"#utility.yul\":11411:11414   */\n      dup3\n        /* \"#utility.yul\":11404:11441   */\n      mstore\n        /* \"#utility.yul\":11329:11447   */\n      pop\n      pop\n      jump\t// out\n        /* \"#utility.yul\":11453:11675   */\n    tag_105:\n        /* \"#utility.yul\":11546:11550   */\n      0x00\n        /* \"#utility.yul\":11584:11586   */\n      0x20\n        /* \"#utility.yul\":11573:11582   */\n      dup3\n        /* \"#utility.yul\":11569:11587   */\n      add\n        /* \"#utility.yul\":11561:11587   */\n      swap1\n      pop\n        /* \"#utility.yul\":11597:11668   */\n      tag_490\n        /* \"#utility.yul\":11665:11666   */\n      0x00\n        /* \"#utility.yul\":11654:11663   */\n      dup4\n        /* \"#utility.yul\":11650:11667   */\n      add\n        /* \"#utility.yul\":11641:11647   */\n      dup5\n        /* \"#utility.yul\":11597:11668   */\n      tag_336\n      jump\t// in\n    tag_490:\n        /* \"#utility.yul\":11453:11675   */\n      swap3\n      swap2\n      pop\n      pop\n      jump\t// out\n        /* \"#utility.yul\":11681:12155   */\n    tag_138:\n        /* \"#utility.yul\":11749:11755   */\n      0x00\n        /* \"#utility.yul\":11757:11763   */\n      dup1\n        /* \"#utility.yul\":11806:11808   */\n      0x40\n        /* \"#utility.yul\":11794:11803   */\n      dup4\n        /* \"#utility.yul\":11785:11792   */\n      dup6\n        /* \"#utility.yul\":11781:11804   */\n      sub\n        /* \"#utility.yul\":11777:11809   */\n      slt\n        /* \"#utility.yul\":11774:11893   */\n      iszero\n      tag_492\n      jumpi\n        /* \"#utility.yul\":11812:11891   */\n      tag_493\n      tag_314\n      jump\t// in\n    tag_493:\n        /* \"#utility.yul\":11774:11893   */\n    tag_492:\n        /* \"#utility.yul\":11932:11933   */\n      0x00\n        /* \"#utility.yul\":11957:12010   */\n      tag_494\n        /* \"#utility.yul\":12002:12009   */\n      dup6\n        /* \"#utility.yul\":11993:11999   */\n      dup3\n        /* \"#utility.yul\":11982:11991   */\n      dup7\n        /* \"#utility.yul\":11978:12000   */\n      add\n        /* \"#utility.yul\":11957:12010   */\n      tag_319\n      jump\t// in\n    tag_494:\n        /* \"#utility.yul\":11947:12010   */\n      swap3\n      pop\n        /* \"#utility.yul\":11903:12020   */\n      pop\n        /* \"#utility.yul\":12059:12061   */\n      0x20\n        /* \"#utility.yul\":12085:12138   */\n      tag_495\n        /* \"#utility.yul\":12130:12137   */\n      dup6\n        /* \"#utility.yul\":12121:12127   */\n      dup3\n        /* \"#utility.yul\":12110:12119   */\n      dup7\n        /* \"#utility.yul\":12106:12128   */\n      add\n        /* \"#utility.yul\":12085:12138   */\n      tag_319\n      jump\t// in\n    tag_495:\n        /* \"#utility.yul\":12075:12138   */\n      swap2\n      pop\n        /* \"#utility.yul\":12030:12148   */\n      pop\n        /* \"#utility.yul\":11681:12155   */\n      swap3\n      pop\n      swap3\n      swap1\n      pop\n      jump\t// out\n        /* \"#utility.yul\":12161:12341   */\n    tag_337:\n        /* \"#utility.yul\":12209:12286   */\n      0x4e487b7100000000000000000000000000000000000000000000000000000000\n        /* \"#utility.yul\":12206:12207   */\n      0x00\n        /* \"#utility.yul\":12199:12287   */\n      mstore\n        /* \"#utility.yul\":12306:12310   */\n      0x22\n        /* \"#utility.yul\":12303:12304   */\n      0x04\n        /* \"#utility.yul\":12296:12311   */\n      mstore\n        /* \"#utility.yul\":12330:12334   */\n      0x24\n        /* \"#utility.yul\":12327:12328   */\n      0x00\n        /* \"#utility.yul\":12320:12335   */\n      revert\n        /* \"#utility.yul\":12347:12667   */\n    tag_163:\n        /* \"#utility.yul\":12391:12397   */\n      0x00\n        /* \"#utility.yul\":12428:12429   */\n      0x02\n        /* \"#utility.yul\":12422:12426   */\n      dup3\n        /* \"#utility.yul\":12418:12430   */\n      div\n        /* \"#utility.yul\":12408:12430   */\n      swap1\n      pop\n        /* \"#utility.yul\":12475:12476   */\n      0x01\n        /* \"#utility.yul\":12469:12473   */\n      dup3\n        /* \"#utility.yul\":12465:12477   */\n      and\n        /* \"#utility.yul\":12496:12514   */\n      dup1\n        /* \"#utility.yul\":12486:12567   */\n      tag_498\n      jumpi\n        /* \"#utility.yul\":12552:12556   */\n      0x7f\n        /* \"#utility.yul\":12544:12550   */\n      dup3\n        /* \"#utility.yul\":12540:12557   */\n      and\n        /* \"#utility.yul\":12530:12557   */\n      swap2\n      pop\n        /* \"#utility.yul\":12486:12567   */\n    tag_498:\n        /* \"#utility.yul\":12614:12616   */\n      0x20\n        /* \"#utility.yul\":12606:12612   */\n      dup3\n        /* \"#utility.yul\":12603:12617   */\n      lt\n        /* \"#utility.yul\":12583:12601   */\n      dup2\n        /* \"#utility.yul\":12580:12618   */\n      sub\n        /* \"#utility.yul\":12577:12661   */\n      tag_499\n      jumpi\n        /* \"#utility.yul\":12633:12651   */\n      tag_500\n      tag_337\n      jump\t// in\n    tag_500:\n        /* \"#utility.yul\":12577:12661   */\n    tag_499:\n        /* \"#utility.yul\":12398:12667   */\n      pop\n        /* \"#utility.yul\":12347:12667   */\n      swap2\n      swap1\n      pop\n      jump\t// out\n        /* \"#utility.yul\":12673:12821   */\n    tag_338:\n        /* \"#utility.yul\":12775:12786   */\n      0x00\n        /* \"#utility.yul\":12812:12815   */\n      dup2\n        /* \"#utility.yul\":12797:12815   */\n      swap1\n      pop\n        /* \"#utility.yul\":12673:12821   */\n      swap3\n      swap2\n      pop\n      pop\n      jump\t// out\n        /* \"#utility.yul\":12827:13217   */\n    tag_339:\n        /* \"#utility.yul\":12933:12936   */\n      0x00\n        /* \"#utility.yul\":12961:13000   */\n      tag_503\n        /* \"#utility.yul\":12994:12999   */\n      dup3\n        /* \"#utility.yul\":12961:13000   */\n      tag_308\n      jump\t// in\n    tag_503:\n        /* \"#utility.yul\":13016:13105   */\n      tag_504\n        /* \"#utility.yul\":13098:13104   */\n      dup2\n        /* \"#utility.yul\":13093:13096   */\n      dup6\n        /* \"#utility.yul\":13016:13105   */\n      tag_338\n      jump\t// in\n    tag_504:\n        /* \"#utility.yul\":13009:13105   */\n      swap4\n      pop\n        /* \"#utility.yul\":13114:13179   */\n      tag_505\n        /* \"#utility.yul\":13172:13178   */\n      dup2\n        /* \"#utility.yul\":13167:13170   */\n      dup6\n        /* \"#utility.yul\":13160:13164   */\n      0x20\n        /* \"#utility.yul\":13153:13158   */\n      dup7\n        /* \"#utility.yul\":13149:13165   */\n      add\n        /* \"#utility.yul\":13114:13179   */\n      tag_310\n      jump\t// in\n    tag_505:\n        /* \"#utility.yul\":13204:13210   */\n      dup1\n        /* \"#utility.yul\":13199:13202   */\n      dup5\n        /* \"#utility.yul\":13195:13211   */\n      add\n        /* \"#utility.yul\":13188:13211   */\n      swap2\n      pop\n        /* \"#utility.yul\":12937:13217   */\n      pop\n        /* \"#utility.yul\":12827:13217   */\n      swap3\n      swap2\n      pop\n      pop\n      jump\t// out\n        /* \"#utility.yul\":13223:13498   */\n    tag_182:\n        /* \"#utility.yul\":13355:13358   */\n      0x00\n        /* \"#utility.yul\":13377:13472   */\n      tag_507\n        /* \"#utility.yul\":13468:13471   */\n      dup3\n        /* \"#utility.yul\":13459:13465   */\n      dup5\n        /* \"#utility.yul\":13377:13472   */\n      tag_339\n      jump\t// in\n    tag_507:\n        /* \"#utility.yul\":13370:13472   */\n      swap2\n      pop\n        /* \"#utility.yul\":13489:13492   */\n      dup2\n        /* \"#utility.yul\":13482:13492   */\n      swap1\n      pop\n        /* \"#utility.yul\":13223:13498   */\n      swap3\n      swap2\n      pop\n      pop\n      jump\t// out\n        /* \"#utility.yul\":13504:13671   */\n    tag_340:\n        /* \"#utility.yul\":13644:13663   */\n      0x4e6f2073756368207465727269746f7279000000000000000000000000000000\n        /* \"#utility.yul\":13640:13641   */\n      0x00\n        /* \"#utility.yul\":13632:13638   */\n      dup3\n        /* \"#utility.yul\":13628:13642   */\n      add\n        /* \"#utility.yul\":13621:13664   */\n      mstore\n        /* \"#utility.yul\":13504:13671   */\n      pop\n      jump\t// out\n        /* \"#utility.yul\":13677:14043   */\n    tag_341:\n        /* \"#utility.yul\":13819:13822   */\n      0x00\n        /* \"#utility.yul\":13840:13907   */\n      tag_510\n        /* \"#utility.yul\":13904:13906   */\n      0x11\n        /* \"#utility.yul\":13899:13902   */\n      dup4\n        /* \"#utility.yul\":13840:13907   */\n      tag_309\n      jump\t// in\n    tag_510:\n        /* \"#utility.yul\":13833:13907   */\n      swap2\n      pop\n        /* \"#utility.yul\":13916:14009   */\n      tag_511\n        /* \"#utility.yul\":14005:14008   */\n      dup3\n        /* \"#utility.yul\":13916:14009   */\n      tag_340\n      jump\t// in\n    tag_511:\n        /* \"#utility.yul\":14034:14036   */\n      0x20\n        /* \"#utility.yul\":14029:14032   */\n      dup3\n        /* \"#utility.yul\":14025:14037   */\n      add\n        /* \"#utility.yul\":14018:14037   */\n      swap1\n      pop\n        /* \"#utility.yul\":13677:14043   */\n      swap2\n      swap1\n      pop\n      jump\t// out\n        /* \"#utility.yul\":14049:14468   */\n    tag_187:\n        /* \"#utility.yul\":14215:14219   */\n      0x00\n        /* \"#utility.yul\":14253:14255   */\n      0x20\n        /* \"#utility.yul\":14242:14251   */\n      dup3\n        /* \"#utility.yul\":14238:14256   */\n      add\n        /* \"#utility.yul\":14230:14256   */\n      swap1\n      pop\n        /* \"#utility.yul\":14302:14311   */\n      dup2\n        /* \"#utility.yul\":14296:14300   */\n      dup2\n        /* \"#utility.yul\":14292:14312   */\n      sub\n        /* \"#utility.yul\":14288:14289   */\n      0x00\n        /* \"#utility.yul\":14277:14286   */\n      dup4\n        /* \"#utility.yul\":14273:14290   */\n      add\n        /* \"#utility.yul\":14266:14313   */\n      mstore\n        /* \"#utility.yul\":14330:14461   */\n      tag_513\n        /* \"#utility.yul\":14456:14460   */\n      dup2\n        /* \"#utility.yul\":14330:14461   */\n      tag_341\n      jump\t// in\n    tag_513:\n        /* \"#utility.yul\":14322:14461   */\n      swap1\n      pop\n        /* \"#utility.yul\":14049:14468   */\n      swap2\n      swap1\n      pop\n      jump\t// out\n        /* \"#utility.yul\":14474:14655   */\n    tag_342:\n        /* \"#utility.yul\":14614:14647   */\n      0x486f72646520646f65736e2774206861766520656e6f75676820706f77657200\n        /* \"#utility.yul\":14610:14611   */\n      0x00\n        /* \"#utility.yul\":14602:14608   */\n      dup3\n        /* \"#utility.yul\":14598:14612   */\n      add\n        /* \"#utility.yul\":14591:14648   */\n      mstore\n        /* \"#utility.yul\":14474:14655   */\n      pop\n      jump\t// out\n        /* \"#utility.yul\":14661:15027   */\n    tag_343:\n        /* \"#utility.yul\":14803:14806   */\n      0x00\n        /* \"#utility.yul\":14824:14891   */\n      tag_516\n        /* \"#utility.yul\":14888:14890   */\n      0x1f\n        /* \"#utility.yul\":14883:14886   */\n      dup4\n        /* \"#utility.yul\":14824:14891   */\n      tag_309\n      jump\t// in\n    tag_516:\n        /* \"#utility.yul\":14817:14891   */\n      swap2\n      pop\n        /* \"#utility.yul\":14900:14993   */\n      tag_517\n        /* \"#utility.yul\":14989:14992   */\n      dup3\n        /* \"#utility.yul\":14900:14993   */\n      tag_342\n      jump\t// in\n    tag_517:\n        /* \"#utility.yul\":15018:15020   */\n      0x20\n        /* \"#utility.yul\":15013:15016   */\n      dup3\n        /* \"#utility.yul\":15009:15021   */\n      add\n        /* \"#utility.yul\":15002:15021   */\n      swap1\n      pop\n        /* \"#utility.yul\":14661:15027   */\n      swap2\n      swap1\n      pop\n      jump\t// out\n        /* \"#utility.yul\":15033:15452   */\n    tag_192:\n        /* \"#utility.yul\":15199:15203   */\n      0x00\n        /* \"#utility.yul\":15237:15239   */\n      0x20\n        /* \"#utility.yul\":15226:15235   */\n      dup3\n        /* \"#utility.yul\":15222:15240   */\n      add\n        /* \"#utility.yul\":15214:15240   */\n      swap1\n      pop\n        /* \"#utility.yul\":15286:15295   */\n      dup2\n        /* \"#utility.yul\":15280:15284   */\n      dup2\n        /* \"#utility.yul\":15276:15296   */\n      sub\n        /* \"#utility.yul\":15272:15273   */\n      0x00\n        /* \"#utility.yul\":15261:15270   */\n      dup4\n        /* \"#utility.yul\":15257:15274   */\n      add\n        /* \"#utility.yul\":15250:15297   */\n      mstore\n        /* \"#utility.yul\":15314:15445   */\n      tag_519\n        /* \"#utility.yul\":15440:15444   */\n      dup2\n        /* \"#utility.yul\":15314:15445   */\n      tag_343\n      jump\t// in\n    tag_519:\n        /* \"#utility.yul\":15306:15445   */\n      swap1\n      pop\n        /* \"#utility.yul\":15033:15452   */\n      swap2\n      swap1\n      pop\n      jump\t// out\n        /* \"#utility.yul\":15458:15638   */\n    tag_202:\n        /* \"#utility.yul\":15506:15583   */\n      0x4e487b7100000000000000000000000000000000000000000000000000000000\n        /* \"#utility.yul\":15503:15504   */\n      0x00\n        /* \"#utility.yul\":15496:15584   */\n      mstore\n        /* \"#utility.yul\":15603:15607   */\n      0x32\n        /* \"#utility.yul\":15600:15601   */\n      0x04\n        /* \"#utility.yul\":15593:15608   */\n      mstore\n        /* \"#utility.yul\":15627:15631   */\n      0x24\n        /* \"#utility.yul\":15624:15625   */\n      0x00\n        /* \"#utility.yul\":15617:15632   */\n      revert\n        /* \"#utility.yul\":15644:15824   */\n    tag_227:\n        /* \"#utility.yul\":15692:15769   */\n      0x4e487b7100000000000000000000000000000000000000000000000000000000\n        /* \"#utility.yul\":15689:15690   */\n      0x00\n        /* \"#utility.yul\":15682:15770   */\n      mstore\n        /* \"#utility.yul\":15789:15793   */\n      0x21\n        /* \"#utility.yul\":15786:15787   */\n      0x04\n        /* \"#utility.yul\":15779:15794   */\n      mstore\n        /* \"#utility.yul\":15813:15817   */\n      0x24\n        /* \"#utility.yul\":15810:15811   */\n      0x00\n        /* \"#utility.yul\":15803:15818   */\n      revert\n        /* \"#utility.yul\":15830:15979   */\n    tag_344:\n        /* \"#utility.yul\":15879:15885   */\n      0x00\n        /* \"#utility.yul\":15913:15918   */\n      dup2\n        /* \"#utility.yul\":15907:15919   */\n      sload\n        /* \"#utility.yul\":15897:15919   */\n      swap1\n      pop\n        /* \"#utility.yul\":15939:15972   */\n      tag_523\n        /* \"#utility.yul\":15965:15971   */\n      dup2\n        /* \"#utility.yul\":15939:15972   */\n      tag_163\n      jump\t// in\n    tag_523:\n        /* \"#utility.yul\":15929:15972   */\n      swap1\n      pop\n        /* \"#utility.yul\":15830:15979   */\n      swap2\n      swap1\n      pop\n      jump\t// out\n        /* \"#utility.yul\":15985:16126   */\n    tag_345:\n        /* \"#utility.yul\":16034:16038   */\n      0x00\n        /* \"#utility.yul\":16057:16060   */\n      dup2\n        /* \"#utility.yul\":16049:16060   */\n      swap1\n      pop\n        /* \"#utility.yul\":16080:16083   */\n      dup2\n        /* \"#utility.yul\":16077:16078   */\n      0x00\n        /* \"#utility.yul\":16070:16084   */\n      mstore\n        /* \"#utility.yul\":16114:16118   */\n      0x20\n        /* \"#utility.yul\":16111:16112   */\n      0x00\n        /* \"#utility.yul\":16101:16119   */\n      keccak256\n        /* \"#utility.yul\":16093:16119   */\n      swap1\n      pop\n        /* \"#utility.yul\":15985:16126   */\n      swap2\n      swap1\n      pop\n      jump\t// out\n        /* \"#utility.yul\":16132:16225   */\n    tag_346:\n        /* \"#utility.yul\":16169:16175   */\n      0x00\n        /* \"#utility.yul\":16216:16218   */\n      0x20\n        /* \"#utility.yul\":16211:16213   */\n      0x1f\n        /* \"#utility.yul\":16204:16209   */\n      dup4\n        /* \"#utility.yul\":16200:16214   */\n      add\n        /* \"#utility.yul\":16196:16219   */\n      div\n        /* \"#utility.yul\":16186:16219   */\n      swap1\n      pop\n        /* \"#utility.yul\":16132:16225   */\n      swap2\n      swap1\n      pop\n      jump\t// out\n        /* \"#utility.yul\":16231:16338   */\n    tag_347:\n        /* \"#utility.yul\":16275:16283   */\n      0x00\n        /* \"#utility.yul\":16325:16330   */\n      dup3\n        /* \"#utility.yul\":16319:16323   */\n      dup3\n        /* \"#utility.yul\":16315:16331   */\n      shl\n        /* \"#utility.yul\":16294:16331   */\n      swap1\n      pop\n        /* \"#utility.yul\":16231:16338   */\n      swap3\n      swap2\n      pop\n      pop\n      jump\t// out\n        /* \"#utility.yul\":16344:16737   */\n    tag_348:\n        /* \"#utility.yul\":16413:16419   */\n      0x00\n        /* \"#utility.yul\":16463:16464   */\n      0x08\n        /* \"#utility.yul\":16451:16461   */\n      dup4\n        /* \"#utility.yul\":16447:16465   */\n      mul\n        /* \"#utility.yul\":16486:16583   */\n      tag_528\n        /* \"#utility.yul\":16516:16582   */\n      0xffffffffffffffffffffffffffffffffffffffffffffffffffffffffffffffff\n        /* \"#utility.yul\":16505:16514   */\n      dup3\n        /* \"#utility.yul\":16486:16583   */\n      tag_347\n      jump\t// in\n    tag_528:\n        /* \"#utility.yul\":16604:16643   */\n      tag_529\n        /* \"#utility.yul\":16634:16642   */\n      dup7\n        /* \"#utility.yul\":16623:16632   */\n      dup4\n        /* \"#utility.yul\":16604:16643   */\n      tag_347\n      jump\t// in\n    tag_529:\n        /* \"#utility.yul\":16592:16643   */\n      swap6\n      pop\n        /* \"#utility.yul\":16676:16680   */\n      dup1\n        /* \"#utility.yul\":16672:16681   */\n      not\n        /* \"#utility.yul\":16665:16670   */\n      dup5\n        /* \"#utility.yul\":16661:16682   */\n      and\n        /* \"#utility.yul\":16652:16682   */\n      swap4\n      pop\n        /* \"#utility.yul\":16725:16729   */\n      dup1\n        /* \"#utility.yul\":16715:16723   */\n      dup7\n        /* \"#utility.yul\":16711:16730   */\n      and\n        /* \"#utility.yul\":16704:16709   */\n      dup5\n        /* \"#utility.yul\":16701:16731   */\n      or\n        /* \"#utility.yul\":16691:16731   */\n      swap3\n      pop\n        /* \"#utility.yul\":16420:16737   */\n      pop\n      pop\n        /* \"#utility.yul\":16344:16737   */\n      swap4\n      swap3\n      pop\n      pop\n      pop\n      jump\t// out\n        /* \"#utility.yul\":16743:16803   */\n    tag_349:\n        /* \"#utility.yul\":16771:16774   */\n      0x00\n        /* \"#utility.yul\":16792:16797   */\n      dup2\n        /* \"#utility.yul\":16785:16797   */\n      swap1\n      pop\n        /* \"#utility.yul\":16743:16803   */\n      swap2\n      swap1\n      pop\n      jump\t// out\n        /* \"#utility.yul\":16809:16951   */\n    tag_350:\n        /* \"#utility.yul\":16859:16868   */\n      0x00\n        /* \"#utility.yul\":16892:16945   */\n      tag_532\n        /* \"#utility.yul\":16910:16944   */\n      tag_533\n        /* \"#utility.yul\":16919:16943   */\n      tag_534\n        /* \"#utility.yul\":16937:16942   */\n      dup5\n        /* \"#utility.yul\":16919:16943   */\n      tag_302\n      jump\t// in\n    tag_534:\n        /* \"#utility.yul\":16910:16944   */\n      tag_349\n      jump\t// in\n    tag_533:\n        /* \"#utility.yul\":16892:16945   */\n      tag_302\n      jump\t// in\n    tag_532:\n        /* \"#utility.yul\":16879:16945   */\n      swap1\n      pop\n        /* \"#utility.yul\":16809:16951   */\n      swap2\n      swap1\n      pop\n      jump\t// out\n        /* \"#utility.yul\":16957:17032   */\n    tag_351:\n        /* \"#utility.yul\":17000:17003   */\n      0x00\n        /* \"#utility.yul\":17021:17026   */\n      dup2\n        /* \"#utility.yul\":17014:17026   */\n      swap1\n      pop\n        /* \"#utility.yul\":16957:17032   */\n      swap2\n      swap1\n      pop\n      jump\t// out\n        /* \"#utility.yul\":17038:17307   */\n    tag_352:\n        /* \"#utility.yul\":17148:17187   */\n      tag_537\n        /* \"#utility.yul\":17179:17186   */\n      dup4\n        /* \"#utility.yul\":17148:17187   */\n      tag_350\n      jump\t// in\n    tag_537:\n        /* \"#utility.yul\":17209:17300   */\n      tag_538\n        /* \"#utility.yul\":17258:17299   */\n      tag_539\n        /* \"#utility.yul\":17282:17298   */\n      dup3\n        /* \"#utility.yul\":17258:17299   */\n      tag_351\n      jump\t// in\n    tag_539:\n        /* \"#utility.yul\":17250:17256   */\n      dup5\n        /* \"#utility.yul\":17243:17247   */\n      dup5\n        /* \"#utility.yul\":17237:17248   */\n      sload\n        /* \"#utility.yul\":17209:17300   */\n      tag_348\n      jump\t// in\n    tag_538:\n        /* \"#utility.yul\":17203:17207   */\n      dup3\n        /* \"#utility.yul\":17196:17301   */\n      sstore\n        /* \"#utility.yul\":17114:17307   */\n      pop\n        /* \"#utility.yul\":17038:17307   */\n      pop\n      pop\n      pop\n      jump\t// out\n        /* \"#utility.yul\":17313:17386   */\n    tag_353:\n        /* \"#utility.yul\":17358:17361   */\n      0x00\n        /* \"#utility.yul\":17313:17386   */\n      swap1\n      jump\t// out\n        /* \"#utility.yul\":17392:17581   */\n    tag_354:\n        /* \"#utility.yul\":17469:17501   */\n      tag_542\n      tag_353\n      jump\t// in\n    tag_542:\n        /* \"#utility.yul\":17510:17575   */\n      tag_543\n        /* \"#utility.yul\":17568:17574   */\n      dup2\n        /* \"#utility.yul\":17560:17566   */\n      dup5\n        /* \"#utility.yul\":17554:17558   */\n      dup5\n        /* \"#utility.yul\":17510:17575   */\n      tag_352\n      jump\t// in\n    tag_543:\n        /* \"#utility.yul\":17445:17581   */\n      pop\n        /* \"#utility.yul\":17392:17581   */\n      pop\n      pop\n      jump\t// out\n        /* \"#utility.yul\":17587:17773   */\n    tag_355:\n        /* \"#utility.yul\":17647:17767   */\n    tag_545:\n        /* \"#utility.yul\":17664:17667   */\n      dup2\n        /* \"#utility.yul\":17657:17662   */\n      dup2\n        /* \"#utility.yul\":17654:17668   */\n      lt\n        /* \"#utility.yul\":17647:17767   */\n      iszero\n      tag_547\n      jumpi\n        /* \"#utility.yul\":17718:17757   */\n      tag_548\n        /* \"#utility.yul\":17755:17756   */\n      0x00\n        /* \"#utility.yul\":17748:17753   */\n      dup3\n        /* \"#utility.yul\":17718:17757   */\n      tag_354\n      jump\t// in\n    tag_548:\n        /* \"#utility.yul\":17691:17692   */\n      0x01\n        /* \"#utility.yul\":17684:17689   */\n      dup2\n        /* \"#utility.yul\":17680:17693   */\n      add\n        /* \"#utility.yul\":17671:17693   */\n      swap1\n      pop\n        /* \"#utility.yul\":17647:17767   */\n      jump(tag_545)\n    tag_547:\n        /* \"#utility.yul\":17587:17773   */\n      pop\n      pop\n      jump\t// out\n        /* \"#utility.yul\":17779:18322   */\n    tag_356:\n        /* \"#utility.yul\":17880:17882   */\n      0x1f\n        /* \"#utility.yul\":17875:17878   */\n      dup3\n        /* \"#utility.yul\":17872:17883   */\n      gt\n        /* \"#utility.yul\":17869:18315   */\n      iszero\n      tag_550\n      jumpi\n        /* \"#utility.yul\":17914:17952   */\n      tag_551\n        /* \"#utility.yul\":17946:17951   */\n      dup2\n        /* \"#utility.yul\":17914:17952   */\n      tag_345\n      jump\t// in\n    tag_551:\n        /* \"#utility.yul\":17998:18027   */\n      tag_552\n        /* \"#utility.yul\":18016:18026   */\n      dup5\n        /* \"#utility.yul\":17998:18027   */\n      tag_346\n      jump\t// in\n    tag_552:\n        /* \"#utility.yul\":17988:17996   */\n      dup2\n        /* \"#utility.yul\":17984:18028   */\n      add\n        /* \"#utility.yul\":18181:18183   */\n      0x20\n        /* \"#utility.yul\":18169:18179   */\n      dup6\n        /* \"#utility.yul\":18166:18184   */\n      lt\n        /* \"#utility.yul\":18163:18212   */\n      iszero\n      tag_553\n      jumpi\n        /* \"#utility.yul\":18202:18210   */\n      dup2\n        /* \"#utility.yul\":18187:18210   */\n      swap1\n      pop\n        /* \"#utility.yul\":18163:18212   */\n    tag_553:\n        /* \"#utility.yul\":18225:18305   */\n      tag_554\n        /* \"#utility.yul\":18281:18303   */\n      tag_555\n        /* \"#utility.yul\":18299:18302   */\n      dup6\n        /* \"#utility.yul\":18281:18303   */\n      tag_346\n      jump\t// in\n    tag_555:\n        /* \"#utility.yul\":18271:18279   */\n      dup4\n        /* \"#utility.yul\":18267:18304   */\n      add\n        /* \"#utility.yul\":18254:18265   */\n      dup3\n        /* \"#utility.yul\":18225:18305   */\n      tag_355\n      jump\t// in\n    tag_554:\n        /* \"#utility.yul\":17884:18315   */\n      pop\n      pop\n        /* \"#utility.yul\":17869:18315   */\n    tag_550:\n        /* \"#utility.yul\":17779:18322   */\n      pop\n      pop\n      pop\n      jump\t// out\n        /* \"#utility.yul\":18328:18445   */\n    tag_357:\n        /* \"#utility.yul\":18382:18390   */\n      0x00\n        /* \"#utility.yul\":18432:18437   */\n      dup3\n        /* \"#utility.yul\":18426:18430   */\n      dup3\n        /* \"#utility.yul\":18422:18438   */\n      shr\n        /* \"#utility.yul\":18401:18438   */\n      swap1\n      pop\n        /* \"#utility.yul\":18328:18445   */\n      swap3\n      swap2\n      pop\n      pop\n      jump\t// out\n        /* \"#utility.yul\":18451:18620   */\n    tag_358:\n        /* \"#utility.yul\":18495:18501   */\n      0x00\n        /* \"#utility.yul\":18528:18579   */\n      tag_558\n        /* \"#utility.yul\":18576:18577   */\n      0x00\n        /* \"#utility.yul\":18572:18578   */\n      not\n        /* \"#utility.yul\":18564:18569   */\n      dup5\n        /* \"#utility.yul\":18561:18562   */\n      0x08\n        /* \"#utility.yul\":18557:18570   */\n      mul\n        /* \"#utility.yul\":18528:18579   */\n      tag_357\n      jump\t// in\n    tag_558:\n        /* \"#utility.yul\":18524:18580   */\n      not\n        /* \"#utility.yul\":18609:18613   */\n      dup1\n        /* \"#utility.yul\":18603:18607   */\n      dup4\n        /* \"#utility.yul\":18599:18614   */\n      and\n        /* \"#utility.yul\":18589:18614   */\n      swap2\n      pop\n        /* \"#utility.yul\":18502:18620   */\n      pop\n        /* \"#utility.yul\":18451:18620   */\n      swap3\n      swap2\n      pop\n      pop\n      jump\t// out\n        /* \"#utility.yul\":18625:18920   */\n    tag_359:\n        /* \"#utility.yul\":18701:18705   */\n      0x00\n        /* \"#utility.yul\":18847:18876   */\n      tag_560\n        /* \"#utility.yul\":18872:18875   */\n      dup4\n        /* \"#utility.yul\":18866:18870   */\n      dup4\n        /* \"#utility.yul\":18847:18876   */\n      tag_358\n      jump\t// in\n    tag_560:\n        /* \"#utility.yul\":18839:18876   */\n      swap2\n      pop\n        /* \"#utility.yul\":18909:18912   */\n      dup3\n        /* \"#utility.yul\":18906:18907   */\n      0x02\n        /* \"#utility.yul\":18902:18913   */\n      mul\n        /* \"#utility.yul\":18896:18900   */\n      dup3\n        /* \"#utility.yul\":18893:18914   */\n      or\n        /* \"#utility.yul\":18885:18914   */\n      swap1\n      pop\n        /* \"#utility.yul\":18625:18920   */\n      swap3\n      swap2\n      pop\n      pop\n      jump\t// out\n        /* \"#utility.yul\":18925:20376   */\n    tag_252:\n        /* \"#utility.yul\":19036:19039   */\n      dup2\n        /* \"#utility.yul\":19030:19034   */\n      dup2\n        /* \"#utility.yul\":19027:19040   */\n      sub\n        /* \"#utility.yul\":19024:19050   */\n      tag_562\n      jumpi\n        /* \"#utility.yul\":19043:19048   */\n      pop\n      pop\n      jump(tag_561)\n        /* \"#utility.yul\":19024:19050   */\n    tag_562:\n        /* \"#utility.yul\":19074:19108   */\n      tag_563\n        /* \"#utility.yul\":19104:19107   */\n      dup3\n        /* \"#utility.yul\":19074:19108   */\n      tag_344\n      jump\t// in\n    tag_563:\n        /* \"#utility.yul\":19173:19191   */\n      0xffffffffffffffff\n        /* \"#utility.yul\":19165:19171   */\n      dup2\n        /* \"#utility.yul\":19162:19192   */\n      gt\n        /* \"#utility.yul\":19159:19215   */\n      iszero\n      tag_564\n      jumpi\n        /* \"#utility.yul\":19195:19213   */\n      tag_565\n      tag_329\n      jump\t// in\n    tag_565:\n        /* \"#utility.yul\":19159:19215   */\n    tag_564:\n        /* \"#utility.yul\":19239:19277   */\n      tag_566\n        /* \"#utility.yul\":19271:19275   */\n      dup3\n        /* \"#utility.yul\":19265:19276   */\n      sload\n        /* \"#utility.yul\":19239:19277   */\n      tag_163\n      jump\t// in\n    tag_566:\n        /* \"#utility.yul\":19324:19391   */\n      tag_567\n        /* \"#utility.yul\":19384:19390   */\n      dup3\n        /* \"#utility.yul\":19376:19382   */\n      dup3\n        /* \"#utility.yul\":19370:19374   */\n      dup6\n        /* \"#utility.yul\":19324:19391   */\n      tag_356\n      jump\t// in\n    tag_567:\n        /* \"#utility.yul\":19418:19419   */\n      0x00\n        /* \"#utility.yul\":19447:19449   */\n      0x1f\n        /* \"#utility.yul\":19439:19445   */\n      dup4\n        /* \"#utility.yul\":19436:19450   */\n      gt\n        /* \"#utility.yul\":19464:19465   */\n      0x01\n        /* \"#utility.yul\":19459:20131   */\n      dup2\n      eq\n      tag_569\n      jumpi\n        /* \"#utility.yul\":20175:20176   */\n      0x00\n        /* \"#utility.yul\":20192:20198   */\n      dup5\n        /* \"#utility.yul\":20189:20266   */\n      iszero\n      tag_570\n      jumpi\n        /* \"#utility.yul\":20241:20250   */\n      dup3\n        /* \"#utility.yul\":20236:20239   */\n      dup8\n        /* \"#utility.yul\":20232:20251   */\n      add\n        /* \"#utility.yul\":20226:20252   */\n      sload\n        /* \"#utility.yul\":20217:20252   */\n      swap1\n      pop\n        /* \"#utility.yul\":20189:20266   */\n    tag_570:\n        /* \"#utility.yul\":20292:20359   */\n      tag_571\n        /* \"#utility.yul\":20352:20358   */\n      dup6\n        /* \"#utility.yul\":20345:20350   */\n      dup3\n        /* \"#utility.yul\":20292:20359   */\n      tag_359\n      jump\t// in\n    tag_571:\n        /* \"#utility.yul\":20286:20290   */\n      dup7\n        /* \"#utility.yul\":20279:20360   */\n      sstore\n        /* \"#utility.yul\":20148:20370   */\n      pop\n        /* \"#utility.yul\":19429:20370   */\n      jump(tag_568)\n        /* \"#utility.yul\":19459:20131   */\n    tag_569:\n        /* \"#utility.yul\":19511:19515   */\n      0x1f\n        /* \"#utility.yul\":19507:19516   */\n      not\n        /* \"#utility.yul\":19499:19505   */\n      dup5\n        /* \"#utility.yul\":19495:19517   */\n      and\n        /* \"#utility.yul\":19537:19573   */\n      tag_572\n        /* \"#utility.yul\":19569:19572   */\n      dup8\n        /* \"#utility.yul\":19537:19573   */\n      tag_345\n      jump\t// in\n    tag_572:\n        /* \"#utility.yul\":19530:19573   */\n      swap7\n      pop\n        /* \"#utility.yul\":19600:19637   */\n      tag_573\n        /* \"#utility.yul\":19632:19636   */\n      dup7\n        /* \"#utility.yul\":19600:19637   */\n      tag_345\n      jump\t// in\n    tag_573:\n        /* \"#utility.yul\":19659:19660   */\n      0x00\n        /* \"#utility.yul\":19673:19880   */\n    tag_574:\n        /* \"#utility.yul\":19687:19694   */\n      dup3\n        /* \"#utility.yul\":19684:19685   */\n      dup2\n        /* \"#utility.yul\":19681:19695   */\n      lt\n        /* \"#utility.yul\":19673:19880   */\n      iszero\n      tag_576\n      jumpi\n        /* \"#utility.yul\":19766:19775   */\n      dup5\n        /* \"#utility.yul\":19761:19764   */\n      dup10\n        /* \"#utility.yul\":19757:19776   */\n      add\n        /* \"#utility.yul\":19751:19777   */\n      sload\n        /* \"#utility.yul\":19743:19749   */\n      dup3\n        /* \"#utility.yul\":19736:19778   */\n      sstore\n        /* \"#utility.yul\":19817:19818   */\n      0x01\n        /* \"#utility.yul\":19809:19815   */\n      dup3\n        /* \"#utility.yul\":19805:19819   */\n      add\n        /* \"#utility.yul\":19795:19819   */\n      swap2\n      pop\n        /* \"#utility.yul\":19864:19865   */\n      0x01\n        /* \"#utility.yul\":19853:19862   */\n      dup6\n        /* \"#utility.yul\":19849:19866   */\n      add\n        /* \"#utility.yul\":19836:19866   */\n      swap5\n      pop\n        /* \"#utility.yul\":19710:19714   */\n      0x20\n        /* \"#utility.yul\":19707:19708   */\n      dup2\n        /* \"#utility.yul\":19703:19715   */\n      add\n        /* \"#utility.yul\":19698:19715   */\n      swap1\n      pop\n        /* \"#utility.yul\":19673:19880   */\n      jump(tag_574)\n    tag_576:\n        /* \"#utility.yul\":19908:19914   */\n      dup7\n        /* \"#utility.yul\":19899:19906   */\n      dup4\n        /* \"#utility.yul\":19896:19915   */\n      lt\n        /* \"#utility.yul\":19893:20072   */\n      iszero\n      tag_577\n      jumpi\n        /* \"#utility.yul\":19966:19975   */\n      dup5\n        /* \"#utility.yul\":19961:19964   */\n      dup10\n        /* \"#utility.yul\":19957:19976   */\n      add\n        /* \"#utility.yul\":19951:19977   */\n      sload\n        /* \"#utility.yul\":20009:20057   */\n      tag_578\n        /* \"#utility.yul\":20051:20055   */\n      0x1f\n        /* \"#utility.yul\":20043:20049   */\n      dup10\n        /* \"#utility.yul\":20039:20056   */\n      and\n        /* \"#utility.yul\":20028:20037   */\n      dup3\n        /* \"#utility.yul\":20009:20057   */\n      tag_358\n      jump\t// in\n    tag_578:\n        /* \"#utility.yul\":20001:20007   */\n      dup4\n        /* \"#utility.yul\":19994:20058   */\n      sstore\n        /* \"#utility.yul\":19916:20072   */\n      pop\n        /* \"#utility.yul\":19893:20072   */\n    tag_577:\n        /* \"#utility.yul\":20118:20119   */\n      0x01\n        /* \"#utility.yul\":20114:20115   */\n      0x02\n        /* \"#utility.yul\":20106:20112   */\n      dup9\n        /* \"#utility.yul\":20102:20116   */\n      mul\n        /* \"#utility.yul\":20098:20120   */\n      add\n        /* \"#utility.yul\":20092:20096   */\n      dup9\n        /* \"#utility.yul\":20085:20121   */\n      sstore\n        /* \"#utility.yul\":19466:20131   */\n      pop\n      pop\n      pop\n        /* \"#utility.yul\":19429:20370   */\n    tag_568:\n      pop\n        /* \"#utility.yul\":19014:20376   */\n      pop\n      pop\n      pop\n        /* \"#utility.yul\":18925:20376   */\n      pop\n      pop\n    tag_561:\n      jump\t// out\n        /* \"#utility.yul\":20382:21777   */\n    tag_260:\n        /* \"#utility.yul\":20499:20536   */\n      tag_580\n        /* \"#utility.yul\":20532:20535   */\n      dup3\n        /* \"#utility.yul\":20499:20536   */\n      tag_308\n      jump\t// in\n    tag_580:\n        /* \"#utility.yul\":20601:20619   */\n      0xffffffffffffffff\n        /* \"#utility.yul\":20593:20599   */\n      dup2\n        /* \"#utility.yul\":20590:20620   */\n      gt\n        /* \"#utility.yul\":20587:20643   */\n      iszero\n      tag_581\n      jumpi\n        /* \"#utility.yul\":20623:20641   */\n      tag_582\n      tag_329\n      jump\t// in\n    tag_582:\n        /* \"#utility.yul\":20587:20643   */\n    tag_581:\n        /* \"#utility.yul\":20667:20705   */\n      tag_583\n        /* \"#utility.yul\":20699:20703   */\n      dup3\n        /* \"#utility.yul\":20693:20704   */\n      sload\n        /* \"#utility.yul\":20667:20705   */\n      tag_163\n      jump\t// in\n    tag_583:\n        /* \"#utility.yul\":20752:20819   */\n      tag_584\n        /* \"#utility.yul\":20812:20818   */\n      dup3\n        /* \"#utility.yul\":20804:20810   */\n      dup3\n        /* \"#utility.yul\":20798:20802   */\n      dup6\n        /* \"#utility.yul\":20752:20819   */\n      tag_356\n      jump\t// in\n    tag_584:\n        /* \"#utility.yul\":20846:20847   */\n      0x00\n        /* \"#utility.yul\":20870:20874   */\n      0x20\n        /* \"#utility.yul\":20857:20874   */\n      swap1\n      pop\n        /* \"#utility.yul\":20902:20904   */\n      0x1f\n        /* \"#utility.yul\":20894:20900   */\n      dup4\n        /* \"#utility.yul\":20891:20905   */\n      gt\n        /* \"#utility.yul\":20919:20920   */\n      0x01\n        /* \"#utility.yul\":20914:21532   */\n      dup2\n      eq\n      tag_586\n      jumpi\n        /* \"#utility.yul\":21576:21577   */\n      0x00\n        /* \"#utility.yul\":21593:21599   */\n      dup5\n        /* \"#utility.yul\":21590:21667   */\n      iszero\n      tag_587\n      jumpi\n        /* \"#utility.yul\":21642:21651   */\n      dup3\n        /* \"#utility.yul\":21637:21640   */\n      dup8\n        /* \"#utility.yul\":21633:21652   */\n      add\n        /* \"#utility.yul\":21627:21653   */\n      mload\n        /* \"#utility.yul\":21618:21653   */\n      swap1\n      pop\n        /* \"#utility.yul\":21590:21667   */\n    tag_587:\n        /* \"#utility.yul\":21693:21760   */\n      tag_588\n        /* \"#utility.yul\":21753:21759   */\n      dup6\n        /* \"#utility.yul\":21746:21751   */\n      dup3\n        /* \"#utility.yul\":21693:21760   */\n      tag_359\n      jump\t// in\n    tag_588:\n        /* \"#utility.yul\":21687:21691   */\n      dup7\n        /* \"#utility.yul\":21680:21761   */\n      sstore\n        /* \"#utility.yul\":21549:21771   */\n      pop\n        /* \"#utility.yul\":20884:21771   */\n      jump(tag_585)\n        /* \"#utility.yul\":20914:21532   */\n    tag_586:\n        /* \"#utility.yul\":20966:20970   */\n      0x1f\n        /* \"#utility.yul\":20962:20971   */\n      not\n        /* \"#utility.yul\":20954:20960   */\n      dup5\n        /* \"#utility.yul\":20950:20972   */\n      and\n        /* \"#utility.yul\":21000:21037   */\n      tag_589\n        /* \"#utility.yul\":21032:21036   */\n      dup7\n        /* \"#utility.yul\":21000:21037   */\n      tag_345\n      jump\t// in\n    tag_589:\n        /* \"#utility.yul\":21059:21060   */\n      0x00\n        /* \"#utility.yul\":21073:21281   */\n    tag_590:\n        /* \"#utility.yul\":21087:21094   */\n      dup3\n        /* \"#utility.yul\":21084:21085   */\n      dup2\n        /* \"#utility.yul\":21081:21095   */\n      lt\n        /* \"#utility.yul\":21073:21281   */\n      iszero\n      tag_592\n      jumpi\n        /* \"#utility.yul\":21166:21175   */\n      dup5\n        /* \"#utility.yul\":21161:21164   */\n      dup10\n        /* \"#utility.yul\":21157:21176   */\n      add\n        /* \"#utility.yul\":21151:21177   */\n      mload\n        /* \"#utility.yul\":21143:21149   */\n      dup3\n        /* \"#utility.yul\":21136:21178   */\n      sstore\n        /* \"#utility.yul\":21217:21218   */\n      0x01\n        /* \"#utility.yul\":21209:21215   */\n      dup3\n        /* \"#utility.yul\":21205:21219   */\n      add\n        /* \"#utility.yul\":21195:21219   */\n      swap2\n      pop\n        /* \"#utility.yul\":21264:21266   */\n      0x20\n        /* \"#utility.yul\":21253:21262   */\n      dup6\n        /* \"#utility.yul\":21249:21267   */\n      add\n        /* \"#utility.yul\":21236:21267   */\n      swap5\n      pop\n        /* \"#utility.yul\":21110:21114   */\n      0x20\n        /* \"#utility.yul\":21107:21108   */\n      dup2\n        /* \"#utility.yul\":21103:21115   */\n      add\n        /* \"#utility.yul\":21098:21115   */\n      swap1\n      pop\n        /* \"#utility.yul\":21073:21281   */\n      jump(tag_590)\n    tag_592:\n        /* \"#utility.yul\":21309:21315   */\n      dup7\n        /* \"#utility.yul\":21300:21307   */\n      dup4\n        /* \"#utility.yul\":21297:21316   */\n      lt\n        /* \"#utility.yul\":21294:21473   */\n      iszero\n      tag_593\n      jumpi\n        /* \"#utility.yul\":21367:21376   */\n      dup5\n        /* \"#utility.yul\":21362:21365   */\n      dup10\n        /* \"#utility.yul\":21358:21377   */\n      add\n        /* \"#utility.yul\":21352:21378   */\n      mload\n        /* \"#utility.yul\":21410:21458   */\n      tag_594\n        /* \"#utility.yul\":21452:21456   */\n      0x1f\n        /* \"#utility.yul\":21444:21450   */\n      dup10\n        /* \"#utility.yul\":21440:21457   */\n      and\n        /* \"#utility.yul\":21429:21438   */\n      dup3\n        /* \"#utility.yul\":21410:21458   */\n      tag_358\n      jump\t// in\n    tag_594:\n        /* \"#utility.yul\":21402:21408   */\n      dup4\n        /* \"#utility.yul\":21395:21459   */\n      sstore\n        /* \"#utility.yul\":21317:21473   */\n      pop\n        /* \"#utility.yul\":21294:21473   */\n    tag_593:\n        /* \"#utility.yul\":21519:21520   */\n      0x01\n        /* \"#utility.yul\":21515:21516   */\n      0x02\n        /* \"#utility.yul\":21507:21513   */\n      dup9\n        /* \"#utility.yul\":21503:21517   */\n      mul\n        /* \"#utility.yul\":21499:21521   */\n      add\n        /* \"#utility.yul\":21493:21497   */\n      dup9\n        /* \"#utility.yul\":21486:21522   */\n      sstore\n        /* \"#utility.yul\":20921:21532   */\n      pop\n      pop\n      pop\n        /* \"#utility.yul\":20884:21771   */\n    tag_585:\n      pop\n        /* \"#utility.yul\":20474:21777   */\n      pop\n      pop\n      pop\n        /* \"#utility.yul\":20382:21777   */\n      pop\n      pop\n      jump\t// out\n        /* \"#utility.yul\":21783:21974   */\n    tag_270:\n        /* \"#utility.yul\":21823:21826   */\n      0x00\n        /* \"#utility.yul\":21842:21862   */\n      tag_596\n        /* \"#utility.yul\":21860:21861   */\n      dup3\n        /* \"#utility.yul\":21842:21862   */\n      tag_302\n      jump\t// in\n    tag_596:\n        /* \"#utility.yul\":21837:21862   */\n      swap2\n      pop\n        /* \"#utility.yul\":21876:21896   */\n      tag_597\n        /* \"#utility.yul\":21894:21895   */\n      dup4\n        /* \"#utility.yul\":21876:21896   */\n      tag_302\n      jump\t// in\n    tag_597:\n        /* \"#utility.yul\":21871:21896   */\n      swap3\n      pop\n        /* \"#utility.yul\":21919:21920   */\n      dup3\n        /* \"#utility.yul\":21916:21917   */\n      dup3\n        /* \"#utility.yul\":21912:21921   */\n      add\n        /* \"#utility.yul\":21905:21921   */\n      swap1\n      pop\n        /* \"#utility.yul\":21940:21943   */\n      dup1\n        /* \"#utility.yul\":21937:21938   */\n      dup3\n        /* \"#utility.yul\":21934:21944   */\n      gt\n        /* \"#utility.yul\":21931:21967   */\n      iszero\n      tag_598\n      jumpi\n        /* \"#utility.yul\":21947:21965   */\n      tag_599\n      tag_304\n      jump\t// in\n    tag_599:\n        /* \"#utility.yul\":21931:21967   */\n    tag_598:\n        /* \"#utility.yul\":21783:21974   */\n      swap3\n      swap2\n      pop\n      pop\n      jump\t// out\n        /* \"#utility.yul\":21980:22422   */\n    tag_274:\n        /* \"#utility.yul\":22129:22133   */\n      0x00\n        /* \"#utility.yul\":22167:22169   */\n      0x60\n        /* \"#utility.yul\":22156:22165   */\n      dup3\n        /* \"#utility.yul\":22152:22170   */\n      add\n        /* \"#utility.yul\":22144:22170   */\n      swap1\n      pop\n        /* \"#utility.yul\":22180:22251   */\n      tag_601\n        /* \"#utility.yul\":22248:22249   */\n      0x00\n        /* \"#utility.yul\":22237:22246   */\n      dup4\n        /* \"#utility.yul\":22233:22250   */\n      add\n        /* \"#utility.yul\":22224:22230   */\n      dup7\n        /* \"#utility.yul\":22180:22251   */\n      tag_336\n      jump\t// in\n    tag_601:\n        /* \"#utility.yul\":22261:22333   */\n      tag_602\n        /* \"#utility.yul\":22329:22331   */\n      0x20\n        /* \"#utility.yul\":22318:22327   */\n      dup4\n        /* \"#utility.yul\":22314:22332   */\n      add\n        /* \"#utility.yul\":22305:22311   */\n      dup6\n        /* \"#utility.yul\":22261:22333   */\n      tag_324\n      jump\t// in\n    tag_602:\n        /* \"#utility.yul\":22343:22415   */\n      tag_603\n        /* \"#utility.yul\":22411:22413   */\n      0x40\n        /* \"#utility.yul\":22400:22409   */\n      dup4\n        /* \"#utility.yul\":22396:22414   */\n      add\n        /* \"#utility.yul\":22387:22393   */\n      dup5\n        /* \"#utility.yul\":22343:22415   */\n      tag_324\n      jump\t// in\n    tag_603:\n        /* \"#utility.yul\":21980:22422   */\n      swap5\n      swap4\n      pop\n      pop\n      pop\n      pop\n      jump\t// out\n\n    auxdata: 0xa264697066735822122051c1f0ad3d570470af07a16992dbb386b0df97685a6104fc32e390373d6006e864736f6c634300081a0033\n}\n",
				"bytecode": {
					"linkReferences": {},
					"object": "6080604052655af3107a4000600955600a805534801561001d575f80fd5b50336040518060400160405280600681526020017f5a6f6d62696500000000000000000000000000000000000000000000000000008152506040518060400160405280600481526020017f42524e5300000000000000000000000000000000000000000000000000000000815250816003908161009a919061076a565b5080600490816100aa919061076a565b5050505f73ffffffffffffffffffffffffffffffffffffffff168173ffffffffffffffffffffffffffffffffffffffff160361011d575f6040517f1e4fbdf70000000000000000000000000000000000000000000000000000000081526004016101149190610878565b60405180910390fd5b61012c816101c760201b60201c565b506101643361013f61028a60201b60201c565b600a61014b91906109f9565b629896806101599190610a43565b61029260201b60201c565b6040518060400160405280600981526020017f4d616e68617474616e0000000000000000000000000000000000000000000000815250600b5f0190816101aa919061076a565b506064600b600101819055506103e8600b60020181905550610b14565b5f60055f9054906101000a900473ffffffffffffffffffffffffffffffffffffffff1690508160055f6101000a81548173ffffffffffffffffffffffffffffffffffffffff021916908373ffffffffffffffffffffffffffffffffffffffff1602179055508173ffffffffffffffffffffffffffffffffffffffff168173ffffffffffffffffffffffffffffffffffffffff167f8be0079c531659141344cd1fd0a4f28419497f9722a3daafe3b4186f6b6457e060405160405180910390a35050565b5f6012905090565b5f73ffffffffffffffffffffffffffffffffffffffff168273ffffffffffffffffffffffffffffffffffffffff1603610302575f6040517fec442f050000000000000000000000000000000000000000000000000000000081526004016102f99190610878565b60405180910390fd5b6103135f838361031760201b60201c565b5050565b5f73ffffffffffffffffffffffffffffffffffffffff168373ffffffffffffffffffffffffffffffffffffffff1603610367578060025f82825461035b9190610a84565b92505081905550610435565b5f805f8573ffffffffffffffffffffffffffffffffffffffff1673ffffffffffffffffffffffffffffffffffffffff1681526020019081526020015f20549050818110156103f0578381836040517fe450d38c0000000000000000000000000000000000000000000000000000000081526004016103e793929190610ac6565b60405180910390fd5b8181035f808673ffffffffffffffffffffffffffffffffffffffff1673ffffffffffffffffffffffffffffffffffffffff1681526020019081526020015f2081905550505b5f73ffffffffffffffffffffffffffffffffffffffff168273ffffffffffffffffffffffffffffffffffffffff160361047c578060025f82825403925050819055506104c6565b805f808473ffffffffffffffffffffffffffffffffffffffff1673ffffffffffffffffffffffffffffffffffffffff1681526020019081526020015f205f82825401925050819055505b8173ffffffffffffffffffffffffffffffffffffffff168373ffffffffffffffffffffffffffffffffffffffff167fddf252ad1be2c89b69c2b068fc378daa952ba7f163c4a11628f55a4df523b3ef836040516105239190610afb565b60405180910390a3505050565b5f81519050919050565b7f4e487b71000000000000000000000000000000000000000000000000000000005f52604160045260245ffd5b7f4e487b71000000000000000000000000000000000000000000000000000000005f52602260045260245ffd5b5f60028204905060018216806105ab57607f821691505b6020821081036105be576105bd610567565b5b50919050565b5f819050815f5260205f209050919050565b5f6020601f8301049050919050565b5f82821b905092915050565b5f600883026106207fffffffffffffffffffffffffffffffffffffffffffffffffffffffffffffffff826105e5565b61062a86836105e5565b95508019841693508086168417925050509392505050565b5f819050919050565b5f819050919050565b5f61066e61066961066484610642565b61064b565b610642565b9050919050565b5f819050919050565b61068783610654565b61069b61069382610675565b8484546105f1565b825550505050565b5f90565b6106af6106a3565b6106ba81848461067e565b505050565b5b818110156106dd576106d25f826106a7565b6001810190506106c0565b5050565b601f821115610722576106f3816105c4565b6106fc846105d6565b8101602085101561070b578190505b61071f610717856105d6565b8301826106bf565b50505b505050565b5f82821c905092915050565b5f6107425f1984600802610727565b1980831691505092915050565b5f61075a8383610733565b9150826002028217905092915050565b61077382610530565b67ffffffffffffffff81111561078c5761078b61053a565b5b6107968254610594565b6107a18282856106e1565b5f60209050601f8311600181146107d2575f84156107c0578287015190505b6107ca858261074f565b865550610831565b601f1984166107e0866105c4565b5f5b82811015610807578489015182556001820191506020850194506020810190506107e2565b868310156108245784890151610820601f891682610733565b8355505b6001600288020188555050505b505050505050565b5f73ffffffffffffffffffffffffffffffffffffffff82169050919050565b5f61086282610839565b9050919050565b61087281610858565b82525050565b5f60208201905061088b5f830184610869565b92915050565b7f4e487b71000000000000000000000000000000000000000000000000000000005f52601160045260245ffd5b5f8160011c9050919050565b5f808291508390505b6001851115610913578086048111156108ef576108ee610891565b5b60018516156108fe5780820291505b808102905061090c856108be565b94506108d3565b94509492505050565b5f8261092b57600190506109e6565b81610938575f90506109e6565b816001811461094e576002811461095857610987565b60019150506109e6565b60ff84111561096a57610969610891565b5b8360020a91508482111561098157610980610891565b5b506109e6565b5060208310610133831016604e8410600b84101617156109bc5782820a9050838111156109b7576109b6610891565b5b6109e6565b6109c984848460016108ca565b925090508184048111156109e0576109df610891565b5b81810290505b9392505050565b5f60ff82169050919050565b5f610a0382610642565b9150610a0e836109ed565b9250610a3b7fffffffffffffffffffffffffffffffffffffffffffffffffffffffffffffffff848461091c565b905092915050565b5f610a4d82610642565b9150610a5883610642565b9250828202610a6681610642565b91508282048414831517610a7d57610a7c610891565b5b5092915050565b5f610a8e82610642565b9150610a9983610642565b9250828201905080821115610ab157610ab0610891565b5b92915050565b610ac081610642565b82525050565b5f606082019050610ad95f830186610869565b610ae66020830185610ab7565b610af36040830184610ab7565b949350505050565b5f602082019050610b0e5f830184610ab7565b92915050565b61238e80610b215f395ff3fe608060405260043610610138575f3560e01c806395d89b41116100aa578063bc3d6dc31161006e578063bc3d6dc3146104ed578063c1280ae714610515578063dd62ed3e14610551578063ddca3f431461058d578063f2c298be146105b7578063f2fde38b146105df576101fd565b806395d89b411461041557806396eb64a91461043f578063a035b1fe1461045b578063a0d81ba614610485578063a9059cbb146104b1576101fd565b8063651dc0df116100fc578063651dc0df146102f757806370a082311461031f578063715018a61461035b578063738f5b5b1461037157806386e6e222146103ad5780638da5cb5b146103eb576101fd565b806306fdde0314610201578063095ea7b31461022b57806318160ddd1461026757806323b872dd14610291578063313ce567146102cd576101fd565b366101fd575f600a5460643461014e91906117d6565b6101589190611806565b90505f610163610607565b73ffffffffffffffffffffffffffffffffffffffff168260405161018690611874565b5f6040518083038185875af1925050503d805f81146101c0576040519150601f19603f3d011682016040523d82523d5f602084013e6101c5565b606091505b505090505f82346101d69190611888565b90505f600954826101e791906117d6565b90506101fb6101f4610607565b338361062f565b005b5f80fd5b34801561020c575f80fd5b5061021561071f565b604051610222919061192b565b60405180910390f35b348015610236575f80fd5b50610251600480360381019061024c91906119e0565b6107af565b60405161025e9190611a38565b60405180910390f35b348015610272575f80fd5b5061027b6107d1565b6040516102889190611a60565b60405180910390f35b34801561029c575f80fd5b506102b760048036038101906102b29190611a79565b6107da565b6040516102c49190611a38565b60405180910390f35b3480156102d8575f80fd5b506102e1610808565b6040516102ee9190611ae4565b60405180910390f35b348015610302575f80fd5b5061031d60048036038101906103189190611c29565b610810565b005b34801561032a575f80fd5b5061034560048036038101906103409190611c9f565b610a37565b6040516103529190611a60565b60405180910390f35b348015610366575f80fd5b5061036f610a7c565b005b34801561037c575f80fd5b5061039760048036038101906103929190611cca565b610a8f565b6040516103a49190611a60565b60405180910390f35b3480156103b8575f80fd5b506103d360048036038101906103ce9190611cca565b610ac2565b6040516103e293929190611d11565b60405180910390f35b3480156103f6575f80fd5b506103ff610607565b60405161040c9190611d5c565b60405180910390f35b348015610420575f80fd5b50610429610b86565b604051610436919061192b565b60405180910390f35b61045960048036038101906104549190611c9f565b610c16565b005b348015610466575f80fd5b5061046f610d8d565b60405161047c9190611a60565b60405180910390f35b348015610490575f80fd5b50610499610d93565b6040516104a893929190611d11565b60405180910390f35b3480156104bc575f80fd5b506104d760048036038101906104d291906119e0565b610e30565b6040516104e49190611a38565b60405180910390f35b3480156104f8575f80fd5b50610513600480360381019061050e9190611cca565b610e52565b005b348015610520575f80fd5b5061053b60048036038101906105369190611cca565b610f8f565b6040516105489190611a60565b60405180910390f35b34801561055c575f80fd5b5061057760048036038101906105729190611d75565b610fbb565b6040516105849190611a60565b60405180910390f35b348015610598575f80fd5b506105a161103d565b6040516105ae9190611a60565b60405180910390f35b3480156105c2575f80fd5b506105dd60048036038101906105d89190611cca565b611043565b005b3480156105ea575f80fd5b5061060560048036038101906106009190611c9f565b611111565b005b5f60055f9054906101000a900473ffffffffffffffffffffffffffffffffffffffff16905090565b5f73ffffffffffffffffffffffffffffffffffffffff168373ffffffffffffffffffffffffffffffffffffffff160361069f575f6040517f96c6fd1e0000000000000000000000000000000000000000000000000000000081526004016106969190611d5c565b60405180910390fd5b5f73ffffffffffffffffffffffffffffffffffffffff168273ffffffffffffffffffffffffffffffffffffffff160361070f575f6040517fec442f050000000000000000000000000000000000000000000000000000000081526004016107069190611d5c565b60405180910390fd5b61071a838383611195565b505050565b60606003805461072e90611de0565b80601f016020809104026020016040519081016040528092919081815260200182805461075a90611de0565b80156107a55780601f1061077c576101008083540402835291602001916107a5565b820191905f5260205f20905b81548152906001019060200180831161078857829003601f168201915b5050505050905090565b5f806107b96113ae565b90506107c68185856113b5565b600191505092915050565b5f600254905090565b5f806107e46113ae565b90506107f18582856113c7565b6107fc85858561062f565b60019150509392505050565b5f6012905090565b6007816040516108209190611e4a565b90815260200160405180910390205f01805490506007826040516108449190611e4a565b9081526020016040518091039020600101819055505f60088260405161086a9190611e4a565b908152602001604051809103902060020154036108bc576040517f08c379a00000000000000000000000000000000000000000000000000000000081526004016108b390611eaa565b60405180910390fd5b6008816040516108cc9190611e4a565b9081526020016040518091039020600101546007836040516108ee9190611e4a565b9081526020016040518091039020600101541015610941576040517f08c379a000000000000000000000000000000000000000000000000000000000815260040161093890611f12565b60405180910390fd5b5f5b6007836040516109539190611e4a565b908152602001604051809103902060010154811015610a0c576109ff610977610607565b6007856040516109879190611e4a565b90815260200160405180910390205f0183815481106109a9576109a8611f30565b5b905f5260205f2090600202016001015f9054906101000a900473ffffffffffffffffffffffffffffffffffffffff166008856040516109e89190611e4a565b90815260200160405180910390206002015461062f565b8080600101915050610943565b505f600882604051610a1e9190611e4a565b9081526020016040518091039020600201819055505050565b5f805f8373ffffffffffffffffffffffffffffffffffffffff1673ffffffffffffffffffffffffffffffffffffffff1681526020019081526020015f20549050919050565b610a8461145a565b610a8d5f6114e1565b565b6007818051602081018201805184825260208301602085012081835280955050505050505f915090508060010154905081565b6008818051602081018201805184825260208301602085012081835280955050505050505f91509050805f018054610af990611de0565b80601f0160208091040260200160405190810160405280929190818152602001828054610b2590611de0565b8015610b705780601f10610b4757610100808354040283529160200191610b70565b820191905f5260205f20905b815481529060010190602001808311610b5357829003601f168201915b5050505050908060010154908060020154905083565b606060048054610b9590611de0565b80601f0160208091040260200160405190810160405280929190818152602001828054610bc190611de0565b8015610c0c5780601f10610be357610100808354040283529160200191610c0c565b820191905f5260205f20905b815481529060010190602001808311610bef57829003601f168201915b5050505050905090565b600180811115610c2957610c28611f5d565b5b60065f3373ffffffffffffffffffffffffffffffffffffffff1673ffffffffffffffffffffffffffffffffffffffff1681526020019081526020015f2060010160149054906101000a900460ff166001811115610c8957610c88611f5d565b5b14610c92575f80fd5b600180811115610ca557610ca4611f5d565b5b60065f8373ffffffffffffffffffffffffffffffffffffffff1673ffffffffffffffffffffffffffffffffffffffff1681526020019081526020015f2060010160149054906101000a900460ff166001811115610d0557610d04611f5d565b5b03610d0e575f80fd5b600160065f8373ffffffffffffffffffffffffffffffffffffffff1673ffffffffffffffffffffffffffffffffffffffff1681526020019081526020015f2060010160146101000a81548160ff02191690836001811115610d7257610d71611f5d565b5b0217905550610d8a610d82610607565b33606461062f565b50565b60095481565b600b805f018054610da390611de0565b80601f0160208091040260200160405190810160405280929190818152602001828054610dcf90611de0565b8015610e1a5780601f10610df157610100808354040283529160200191610e1a565b820191905f5260205f20905b815481529060010190602001808311610dfd57829003601f168201915b5050505050908060010154908060020154905083565b5f80610e3a6113ae565b9050610e4781858561062f565b600191505092915050565b600781604051610e629190611e4a565b90815260200160405180910390205f0160065f3373ffffffffffffffffffffffffffffffffffffffff1673ffffffffffffffffffffffffffffffffffffffff1681526020019081526020015f20908060018154018082558091505060019003905f5260205f2090600202015f909190919091505f8201815f019081610ee7919061213c565b50600182015f9054906101000a900473ffffffffffffffffffffffffffffffffffffffff16816001015f6101000a81548173ffffffffffffffffffffffffffffffffffffffff021916908373ffffffffffffffffffffffffffffffffffffffff1602179055506001820160149054906101000a900460ff168160010160146101000a81548160ff02191690836001811115610f8557610f84611f5d565b5b0217905550505050565b5f600782604051610fa09190611e4a565b90815260200160405180910390205f01805490509050919050565b5f60015f8473ffffffffffffffffffffffffffffffffffffffff1673ffffffffffffffffffffffffffffffffffffffff1681526020019081526020015f205f8373ffffffffffffffffffffffffffffffffffffffff1673ffffffffffffffffffffffffffffffffffffffff1681526020019081526020015f2054905092915050565b600a5481565b8060065f3373ffffffffffffffffffffffffffffffffffffffff1673ffffffffffffffffffffffffffffffffffffffff1681526020019081526020015f205f01908161108f9190612221565b503360065f3373ffffffffffffffffffffffffffffffffffffffff1673ffffffffffffffffffffffffffffffffffffffff1681526020019081526020015f206001015f6101000a81548173ffffffffffffffffffffffffffffffffffffffff021916908373ffffffffffffffffffffffffffffffffffffffff16021790555050565b61111961145a565b5f73ffffffffffffffffffffffffffffffffffffffff168173ffffffffffffffffffffffffffffffffffffffff1603611189575f6040517f1e4fbdf70000000000000000000000000000000000000000000000000000000081526004016111809190611d5c565b60405180910390fd5b611192816114e1565b50565b5f73ffffffffffffffffffffffffffffffffffffffff168373ffffffffffffffffffffffffffffffffffffffff16036111e5578060025f8282546111d991906122f0565b925050819055506112b3565b5f805f8573ffffffffffffffffffffffffffffffffffffffff1673ffffffffffffffffffffffffffffffffffffffff1681526020019081526020015f205490508181101561126e578381836040517fe450d38c00000000000000000000000000000000000000000000000000000000815260040161126593929190612323565b60405180910390fd5b8181035f808673ffffffffffffffffffffffffffffffffffffffff1673ffffffffffffffffffffffffffffffffffffffff1681526020019081526020015f2081905550505b5f73ffffffffffffffffffffffffffffffffffffffff168273ffffffffffffffffffffffffffffffffffffffff16036112fa578060025f8282540392505081905550611344565b805f808473ffffffffffffffffffffffffffffffffffffffff1673ffffffffffffffffffffffffffffffffffffffff1681526020019081526020015f205f82825401925050819055505b8173ffffffffffffffffffffffffffffffffffffffff168373ffffffffffffffffffffffffffffffffffffffff167fddf252ad1be2c89b69c2b068fc378daa952ba7f163c4a11628f55a4df523b3ef836040516113a19190611a60565b60405180910390a3505050565b5f33905090565b6113c283838360016115a4565b505050565b5f6113d28484610fbb565b90507fffffffffffffffffffffffffffffffffffffffffffffffffffffffffffffffff8110156114545781811015611445578281836040517ffb8f41b200000000000000000000000000000000000000000000000000000000815260040161143c93929190612323565b60405180910390fd5b61145384848484035f6115a4565b5b50505050565b6114626113ae565b73ffffffffffffffffffffffffffffffffffffffff16611480610607565b73ffffffffffffffffffffffffffffffffffffffff16146114df576114a36113ae565b6040517f118cdaa70000000000000000000000000000000000000000000000000000000081526004016114d69190611d5c565b60405180910390fd5b565b5f60055f9054906101000a900473ffffffffffffffffffffffffffffffffffffffff1690508160055f6101000a81548173ffffffffffffffffffffffffffffffffffffffff021916908373ffffffffffffffffffffffffffffffffffffffff1602179055508173ffffffffffffffffffffffffffffffffffffffff168173ffffffffffffffffffffffffffffffffffffffff167f8be0079c531659141344cd1fd0a4f28419497f9722a3daafe3b4186f6b6457e060405160405180910390a35050565b5f73ffffffffffffffffffffffffffffffffffffffff168473ffffffffffffffffffffffffffffffffffffffff1603611614575f6040517fe602df0500000000000000000000000000000000000000000000000000000000815260040161160b9190611d5c565b60405180910390fd5b5f73ffffffffffffffffffffffffffffffffffffffff168373ffffffffffffffffffffffffffffffffffffffff1603611684575f6040517f94280d6200000000000000000000000000000000000000000000000000000000815260040161167b9190611d5c565b60405180910390fd5b8160015f8673ffffffffffffffffffffffffffffffffffffffff1673ffffffffffffffffffffffffffffffffffffffff1681526020019081526020015f205f8573ffffffffffffffffffffffffffffffffffffffff1673ffffffffffffffffffffffffffffffffffffffff1681526020019081526020015f2081905550801561176d578273ffffffffffffffffffffffffffffffffffffffff168473ffffffffffffffffffffffffffffffffffffffff167f8c5be1e5ebec7d5bd14f71427d1e84f3dd0314c0f7b2291e5b200ac8c7c3b925846040516117649190611a60565b60405180910390a35b50505050565b5f819050919050565b7f4e487b71000000000000000000000000000000000000000000000000000000005f52601260045260245ffd5b7f4e487b71000000000000000000000000000000000000000000000000000000005f52601160045260245ffd5b5f6117e082611773565b91506117eb83611773565b9250826117fb576117fa61177c565b5b828204905092915050565b5f61181082611773565b915061181b83611773565b925082820261182981611773565b915082820484148315176118405761183f6117a9565b5b5092915050565b5f81905092915050565b50565b5f61185f5f83611847565b915061186a82611851565b5f82019050919050565b5f61187e82611854565b9150819050919050565b5f61189282611773565b915061189d83611773565b92508282039050818111156118b5576118b46117a9565b5b92915050565b5f81519050919050565b5f82825260208201905092915050565b8281835e5f83830152505050565b5f601f19601f8301169050919050565b5f6118fd826118bb565b61190781856118c5565b93506119178185602086016118d5565b611920816118e3565b840191505092915050565b5f6020820190508181035f83015261194381846118f3565b905092915050565b5f604051905090565b5f80fd5b5f80fd5b5f73ffffffffffffffffffffffffffffffffffffffff82169050919050565b5f6119858261195c565b9050919050565b6119958161197b565b811461199f575f80fd5b50565b5f813590506119b08161198c565b92915050565b6119bf81611773565b81146119c9575f80fd5b50565b5f813590506119da816119b6565b92915050565b5f80604083850312156119f6576119f5611954565b5b5f611a03858286016119a2565b9250506020611a14858286016119cc565b9150509250929050565b5f8115159050919050565b611a3281611a1e565b82525050565b5f602082019050611a4b5f830184611a29565b92915050565b611a5a81611773565b82525050565b5f602082019050611a735f830184611a51565b92915050565b5f805f60608486031215611a9057611a8f611954565b5b5f611a9d868287016119a2565b9350506020611aae868287016119a2565b9250506040611abf868287016119cc565b9150509250925092565b5f60ff82169050919050565b611ade81611ac9565b82525050565b5f602082019050611af75f830184611ad5565b92915050565b5f80fd5b5f80fd5b7f4e487b71000000000000000000000000000000000000000000000000000000005f52604160045260245ffd5b611b3b826118e3565b810181811067ffffffffffffffff82111715611b5a57611b59611b05565b5b80604052505050565b5f611b6c61194b565b9050611b788282611b32565b919050565b5f67ffffffffffffffff821115611b9757611b96611b05565b5b611ba0826118e3565b9050602081019050919050565b828183375f83830152505050565b5f611bcd611bc884611b7d565b611b63565b905082815260208101848484011115611be957611be8611b01565b5b611bf4848285611bad565b509392505050565b5f82601f830112611c1057611c0f611afd565b5b8135611c20848260208601611bbb565b91505092915050565b5f8060408385031215611c3f57611c3e611954565b5b5f83013567ffffffffffffffff811115611c5c57611c5b611958565b5b611c6885828601611bfc565b925050602083013567ffffffffffffffff811115611c8957611c88611958565b5b611c9585828601611bfc565b9150509250929050565b5f60208284031215611cb457611cb3611954565b5b5f611cc1848285016119a2565b91505092915050565b5f60208284031215611cdf57611cde611954565b5b5f82013567ffffffffffffffff811115611cfc57611cfb611958565b5b611d0884828501611bfc565b91505092915050565b5f6060820190508181035f830152611d2981866118f3565b9050611d386020830185611a51565b611d456040830184611a51565b949350505050565b611d568161197b565b82525050565b5f602082019050611d6f5f830184611d4d565b92915050565b5f8060408385031215611d8b57611d8a611954565b5b5f611d98858286016119a2565b9250506020611da9858286016119a2565b9150509250929050565b7f4e487b71000000000000000000000000000000000000000000000000000000005f52602260045260245ffd5b5f6002820490506001821680611df757607f821691505b602082108103611e0a57611e09611db3565b5b50919050565b5f81905092915050565b5f611e24826118bb565b611e2e8185611e10565b9350611e3e8185602086016118d5565b80840191505092915050565b5f611e558284611e1a565b915081905092915050565b7f4e6f2073756368207465727269746f72790000000000000000000000000000005f82015250565b5f611e946011836118c5565b9150611e9f82611e60565b602082019050919050565b5f6020820190508181035f830152611ec181611e88565b9050919050565b7f486f72646520646f65736e2774206861766520656e6f75676820706f776572005f82015250565b5f611efc601f836118c5565b9150611f0782611ec8565b602082019050919050565b5f6020820190508181035f830152611f2981611ef0565b9050919050565b7f4e487b71000000000000000000000000000000000000000000000000000000005f52603260045260245ffd5b7f4e487b71000000000000000000000000000000000000000000000000000000005f52602160045260245ffd5b5f81549050611f9881611de0565b9050919050565b5f819050815f5260205f209050919050565b5f6020601f8301049050919050565b5f82821b905092915050565b5f60088302611ffb7fffffffffffffffffffffffffffffffffffffffffffffffffffffffffffffffff82611fc0565b6120058683611fc0565b95508019841693508086168417925050509392505050565b5f819050919050565b5f61204061203b61203684611773565b61201d565b611773565b9050919050565b5f819050919050565b61205983612026565b61206d61206582612047565b848454611fcc565b825550505050565b5f90565b612081612075565b61208c818484612050565b505050565b5b818110156120af576120a45f82612079565b600181019050612092565b5050565b601f8211156120f4576120c581611f9f565b6120ce84611fb1565b810160208510156120dd578190505b6120f16120e985611fb1565b830182612091565b50505b505050565b5f82821c905092915050565b5f6121145f19846008026120f9565b1980831691505092915050565b5f61212c8383612105565b9150826002028217905092915050565b81810361214a57505061221f565b61215382611f8a565b67ffffffffffffffff81111561216c5761216b611b05565b5b6121768254611de0565b6121818282856120b3565b5f601f8311600181146121ae575f841561219c578287015490505b6121a68582612121565b865550612218565b601f1984166121bc87611f9f565b96506121c786611f9f565b5f5b828110156121ee578489015482556001820191506001850194506020810190506121c9565b8683101561220b5784890154612207601f891682612105565b8355505b6001600288020188555050505b5050505050505b565b61222a826118bb565b67ffffffffffffffff81111561224357612242611b05565b5b61224d8254611de0565b6122588282856120b3565b5f60209050601f831160018114612289575f8415612277578287015190505b6122818582612121565b8655506122e8565b601f19841661229786611f9f565b5f5b828110156122be57848901518255600182019150602085019450602081019050612299565b868310156122db57848901516122d7601f891682612105565b8355505b6001600288020188555050505b505050505050565b5f6122fa82611773565b915061230583611773565b925082820190508082111561231d5761231c6117a9565b5b92915050565b5f6060820190506123365f830186611d4d565b6123436020830185611a51565b6123506040830184611a51565b94935050505056fea264697066735822122051c1f0ad3d570470af07a16992dbb386b0df97685a6104fc32e390373d6006e864736f6c634300081a0033",
					"opcodes": "PUSH1 0x80 PUSH1 0x40 MSTORE PUSH6 0x5AF3107A4000 PUSH1 0x9 SSTORE PUSH1 0xA DUP1 SSTORE CALLVALUE DUP1 ISZERO PUSH2 0x1D JUMPI PUSH0 DUP1 REVERT JUMPDEST POP CALLER PUSH1 0x40 MLOAD DUP1 PUSH1 0x40 ADD PUSH1 0x40 MSTORE DUP1 PUSH1 0x6 DUP2 MSTORE PUSH1 0x20 ADD PUSH32 0x5A6F6D6269650000000000000000000000000000000000000000000000000000 DUP2 MSTORE POP PUSH1 0x40 MLOAD DUP1 PUSH1 0x40 ADD PUSH1 0x40 MSTORE DUP1 PUSH1 0x4 DUP2 MSTORE PUSH1 0x20 ADD PUSH32 0x42524E5300000000000000000000000000000000000000000000000000000000 DUP2 MSTORE POP DUP2 PUSH1 0x3 SWAP1 DUP2 PUSH2 0x9A SWAP2 SWAP1 PUSH2 0x76A JUMP JUMPDEST POP DUP1 PUSH1 0x4 SWAP1 DUP2 PUSH2 0xAA SWAP2 SWAP1 PUSH2 0x76A JUMP JUMPDEST POP POP POP PUSH0 PUSH20 0xFFFFFFFFFFFFFFFFFFFFFFFFFFFFFFFFFFFFFFFF AND DUP2 PUSH20 0xFFFFFFFFFFFFFFFFFFFFFFFFFFFFFFFFFFFFFFFF AND SUB PUSH2 0x11D JUMPI PUSH0 PUSH1 0x40 MLOAD PUSH32 0x1E4FBDF700000000000000000000000000000000000000000000000000000000 DUP2 MSTORE PUSH1 0x4 ADD PUSH2 0x114 SWAP2 SWAP1 PUSH2 0x878 JUMP JUMPDEST PUSH1 0x40 MLOAD DUP1 SWAP2 SUB SWAP1 REVERT JUMPDEST PUSH2 0x12C DUP2 PUSH2 0x1C7 PUSH1 0x20 SHL PUSH1 0x20 SHR JUMP JUMPDEST POP PUSH2 0x164 CALLER PUSH2 0x13F PUSH2 0x28A PUSH1 0x20 SHL PUSH1 0x20 SHR JUMP JUMPDEST PUSH1 0xA PUSH2 0x14B SWAP2 SWAP1 PUSH2 0x9F9 JUMP JUMPDEST PUSH3 0x989680 PUSH2 0x159 SWAP2 SWAP1 PUSH2 0xA43 JUMP JUMPDEST PUSH2 0x292 PUSH1 0x20 SHL PUSH1 0x20 SHR JUMP JUMPDEST PUSH1 0x40 MLOAD DUP1 PUSH1 0x40 ADD PUSH1 0x40 MSTORE DUP1 PUSH1 0x9 DUP2 MSTORE PUSH1 0x20 ADD PUSH32 0x4D616E68617474616E0000000000000000000000000000000000000000000000 DUP2 MSTORE POP PUSH1 0xB PUSH0 ADD SWAP1 DUP2 PUSH2 0x1AA SWAP2 SWAP1 PUSH2 0x76A JUMP JUMPDEST POP PUSH1 0x64 PUSH1 0xB PUSH1 0x1 ADD DUP2 SWAP1 SSTORE POP PUSH2 0x3E8 PUSH1 0xB PUSH1 0x2 ADD DUP2 SWAP1 SSTORE POP PUSH2 0xB14 JUMP JUMPDEST PUSH0 PUSH1 0x5 PUSH0 SWAP1 SLOAD SWAP1 PUSH2 0x100 EXP SWAP1 DIV PUSH20 0xFFFFFFFFFFFFFFFFFFFFFFFFFFFFFFFFFFFFFFFF AND SWAP1 POP DUP2 PUSH1 0x5 PUSH0 PUSH2 0x100 EXP DUP2 SLOAD DUP2 PUSH20 0xFFFFFFFFFFFFFFFFFFFFFFFFFFFFFFFFFFFFFFFF MUL NOT AND SWAP1 DUP4 PUSH20 0xFFFFFFFFFFFFFFFFFFFFFFFFFFFFFFFFFFFFFFFF AND MUL OR SWAP1 SSTORE POP DUP2 PUSH20 0xFFFFFFFFFFFFFFFFFFFFFFFFFFFFFFFFFFFFFFFF AND DUP2 PUSH20 0xFFFFFFFFFFFFFFFFFFFFFFFFFFFFFFFFFFFFFFFF AND PUSH32 0x8BE0079C531659141344CD1FD0A4F28419497F9722A3DAAFE3B4186F6B6457E0 PUSH1 0x40 MLOAD PUSH1 0x40 MLOAD DUP1 SWAP2 SUB SWAP1 LOG3 POP POP JUMP JUMPDEST PUSH0 PUSH1 0x12 SWAP1 POP SWAP1 JUMP JUMPDEST PUSH0 PUSH20 0xFFFFFFFFFFFFFFFFFFFFFFFFFFFFFFFFFFFFFFFF AND DUP3 PUSH20 0xFFFFFFFFFFFFFFFFFFFFFFFFFFFFFFFFFFFFFFFF AND SUB PUSH2 0x302 JUMPI PUSH0 PUSH1 0x40 MLOAD PUSH32 0xEC442F0500000000000000000000000000000000000000000000000000000000 DUP2 MSTORE PUSH1 0x4 ADD PUSH2 0x2F9 SWAP2 SWAP1 PUSH2 0x878 JUMP JUMPDEST PUSH1 0x40 MLOAD DUP1 SWAP2 SUB SWAP1 REVERT JUMPDEST PUSH2 0x313 PUSH0 DUP4 DUP4 PUSH2 0x317 PUSH1 0x20 SHL PUSH1 0x20 SHR JUMP JUMPDEST POP POP JUMP JUMPDEST PUSH0 PUSH20 0xFFFFFFFFFFFFFFFFFFFFFFFFFFFFFFFFFFFFFFFF AND DUP4 PUSH20 0xFFFFFFFFFFFFFFFFFFFFFFFFFFFFFFFFFFFFFFFF AND SUB PUSH2 0x367 JUMPI DUP1 PUSH1 0x2 PUSH0 DUP3 DUP3 SLOAD PUSH2 0x35B SWAP2 SWAP1 PUSH2 0xA84 JUMP JUMPDEST SWAP3 POP POP DUP2 SWAP1 SSTORE POP PUSH2 0x435 JUMP JUMPDEST PUSH0 DUP1 PUSH0 DUP6 PUSH20 0xFFFFFFFFFFFFFFFFFFFFFFFFFFFFFFFFFFFFFFFF AND PUSH20 0xFFFFFFFFFFFFFFFFFFFFFFFFFFFFFFFFFFFFFFFF AND DUP2 MSTORE PUSH1 0x20 ADD SWAP1 DUP2 MSTORE PUSH1 0x20 ADD PUSH0 KECCAK256 SLOAD SWAP1 POP DUP2 DUP2 LT ISZERO PUSH2 0x3F0 JUMPI DUP4 DUP2 DUP4 PUSH1 0x40 MLOAD PUSH32 0xE450D38C00000000000000000000000000000000000000000000000000000000 DUP2 MSTORE PUSH1 0x4 ADD PUSH2 0x3E7 SWAP4 SWAP3 SWAP2 SWAP1 PUSH2 0xAC6 JUMP JUMPDEST PUSH1 0x40 MLOAD DUP1 SWAP2 SUB SWAP1 REVERT JUMPDEST DUP2 DUP2 SUB PUSH0 DUP1 DUP7 PUSH20 0xFFFFFFFFFFFFFFFFFFFFFFFFFFFFFFFFFFFFFFFF AND PUSH20 0xFFFFFFFFFFFFFFFFFFFFFFFFFFFFFFFFFFFFFFFF AND DUP2 MSTORE PUSH1 0x20 ADD SWAP1 DUP2 MSTORE PUSH1 0x20 ADD PUSH0 KECCAK256 DUP2 SWAP1 SSTORE POP POP JUMPDEST PUSH0 PUSH20 0xFFFFFFFFFFFFFFFFFFFFFFFFFFFFFFFFFFFFFFFF AND DUP3 PUSH20 0xFFFFFFFFFFFFFFFFFFFFFFFFFFFFFFFFFFFFFFFF AND SUB PUSH2 0x47C JUMPI DUP1 PUSH1 0x2 PUSH0 DUP3 DUP3 SLOAD SUB SWAP3 POP POP DUP2 SWAP1 SSTORE POP PUSH2 0x4C6 JUMP JUMPDEST DUP1 PUSH0 DUP1 DUP5 PUSH20 0xFFFFFFFFFFFFFFFFFFFFFFFFFFFFFFFFFFFFFFFF AND PUSH20 0xFFFFFFFFFFFFFFFFFFFFFFFFFFFFFFFFFFFFFFFF AND DUP2 MSTORE PUSH1 0x20 ADD SWAP1 DUP2 MSTORE PUSH1 0x20 ADD PUSH0 KECCAK256 PUSH0 DUP3 DUP3 SLOAD ADD SWAP3 POP POP DUP2 SWAP1 SSTORE POP JUMPDEST DUP2 PUSH20 0xFFFFFFFFFFFFFFFFFFFFFFFFFFFFFFFFFFFFFFFF AND DUP4 PUSH20 0xFFFFFFFFFFFFFFFFFFFFFFFFFFFFFFFFFFFFFFFF AND PUSH32 0xDDF252AD1BE2C89B69C2B068FC378DAA952BA7F163C4A11628F55A4DF523B3EF DUP4 PUSH1 0x40 MLOAD PUSH2 0x523 SWAP2 SWAP1 PUSH2 0xAFB JUMP JUMPDEST PUSH1 0x40 MLOAD DUP1 SWAP2 SUB SWAP1 LOG3 POP POP POP JUMP JUMPDEST PUSH0 DUP2 MLOAD SWAP1 POP SWAP2 SWAP1 POP JUMP JUMPDEST PUSH32 0x4E487B7100000000000000000000000000000000000000000000000000000000 PUSH0 MSTORE PUSH1 0x41 PUSH1 0x4 MSTORE PUSH1 0x24 PUSH0 REVERT JUMPDEST PUSH32 0x4E487B7100000000000000000000000000000000000000000000000000000000 PUSH0 MSTORE PUSH1 0x22 PUSH1 0x4 MSTORE PUSH1 0x24 PUSH0 REVERT JUMPDEST PUSH0 PUSH1 0x2 DUP3 DIV SWAP1 POP PUSH1 0x1 DUP3 AND DUP1 PUSH2 0x5AB JUMPI PUSH1 0x7F DUP3 AND SWAP2 POP JUMPDEST PUSH1 0x20 DUP3 LT DUP2 SUB PUSH2 0x5BE JUMPI PUSH2 0x5BD PUSH2 0x567 JUMP JUMPDEST JUMPDEST POP SWAP2 SWAP1 POP JUMP JUMPDEST PUSH0 DUP2 SWAP1 POP DUP2 PUSH0 MSTORE PUSH1 0x20 PUSH0 KECCAK256 SWAP1 POP SWAP2 SWAP1 POP JUMP JUMPDEST PUSH0 PUSH1 0x20 PUSH1 0x1F DUP4 ADD DIV SWAP1 POP SWAP2 SWAP1 POP JUMP JUMPDEST PUSH0 DUP3 DUP3 SHL SWAP1 POP SWAP3 SWAP2 POP POP JUMP JUMPDEST PUSH0 PUSH1 0x8 DUP4 MUL PUSH2 0x620 PUSH32 0xFFFFFFFFFFFFFFFFFFFFFFFFFFFFFFFFFFFFFFFFFFFFFFFFFFFFFFFFFFFFFFFF DUP3 PUSH2 0x5E5 JUMP JUMPDEST PUSH2 0x62A DUP7 DUP4 PUSH2 0x5E5 JUMP JUMPDEST SWAP6 POP DUP1 NOT DUP5 AND SWAP4 POP DUP1 DUP7 AND DUP5 OR SWAP3 POP POP POP SWAP4 SWAP3 POP POP POP JUMP JUMPDEST PUSH0 DUP2 SWAP1 POP SWAP2 SWAP1 POP JUMP JUMPDEST PUSH0 DUP2 SWAP1 POP SWAP2 SWAP1 POP JUMP JUMPDEST PUSH0 PUSH2 0x66E PUSH2 0x669 PUSH2 0x664 DUP5 PUSH2 0x642 JUMP JUMPDEST PUSH2 0x64B JUMP JUMPDEST PUSH2 0x642 JUMP JUMPDEST SWAP1 POP SWAP2 SWAP1 POP JUMP JUMPDEST PUSH0 DUP2 SWAP1 POP SWAP2 SWAP1 POP JUMP JUMPDEST PUSH2 0x687 DUP4 PUSH2 0x654 JUMP JUMPDEST PUSH2 0x69B PUSH2 0x693 DUP3 PUSH2 0x675 JUMP JUMPDEST DUP5 DUP5 SLOAD PUSH2 0x5F1 JUMP JUMPDEST DUP3 SSTORE POP POP POP POP JUMP JUMPDEST PUSH0 SWAP1 JUMP JUMPDEST PUSH2 0x6AF PUSH2 0x6A3 JUMP JUMPDEST PUSH2 0x6BA DUP2 DUP5 DUP5 PUSH2 0x67E JUMP JUMPDEST POP POP POP JUMP JUMPDEST JUMPDEST DUP2 DUP2 LT ISZERO PUSH2 0x6DD JUMPI PUSH2 0x6D2 PUSH0 DUP3 PUSH2 0x6A7 JUMP JUMPDEST PUSH1 0x1 DUP2 ADD SWAP1 POP PUSH2 0x6C0 JUMP JUMPDEST POP POP JUMP JUMPDEST PUSH1 0x1F DUP3 GT ISZERO PUSH2 0x722 JUMPI PUSH2 0x6F3 DUP2 PUSH2 0x5C4 JUMP JUMPDEST PUSH2 0x6FC DUP5 PUSH2 0x5D6 JUMP JUMPDEST DUP2 ADD PUSH1 0x20 DUP6 LT ISZERO PUSH2 0x70B JUMPI DUP2 SWAP1 POP JUMPDEST PUSH2 0x71F PUSH2 0x717 DUP6 PUSH2 0x5D6 JUMP JUMPDEST DUP4 ADD DUP3 PUSH2 0x6BF JUMP JUMPDEST POP POP JUMPDEST POP POP POP JUMP JUMPDEST PUSH0 DUP3 DUP3 SHR SWAP1 POP SWAP3 SWAP2 POP POP JUMP JUMPDEST PUSH0 PUSH2 0x742 PUSH0 NOT DUP5 PUSH1 0x8 MUL PUSH2 0x727 JUMP JUMPDEST NOT DUP1 DUP4 AND SWAP2 POP POP SWAP3 SWAP2 POP POP JUMP JUMPDEST PUSH0 PUSH2 0x75A DUP4 DUP4 PUSH2 0x733 JUMP JUMPDEST SWAP2 POP DUP3 PUSH1 0x2 MUL DUP3 OR SWAP1 POP SWAP3 SWAP2 POP POP JUMP JUMPDEST PUSH2 0x773 DUP3 PUSH2 0x530 JUMP JUMPDEST PUSH8 0xFFFFFFFFFFFFFFFF DUP2 GT ISZERO PUSH2 0x78C JUMPI PUSH2 0x78B PUSH2 0x53A JUMP JUMPDEST JUMPDEST PUSH2 0x796 DUP3 SLOAD PUSH2 0x594 JUMP JUMPDEST PUSH2 0x7A1 DUP3 DUP3 DUP6 PUSH2 0x6E1 JUMP JUMPDEST PUSH0 PUSH1 0x20 SWAP1 POP PUSH1 0x1F DUP4 GT PUSH1 0x1 DUP2 EQ PUSH2 0x7D2 JUMPI PUSH0 DUP5 ISZERO PUSH2 0x7C0 JUMPI DUP3 DUP8 ADD MLOAD SWAP1 POP JUMPDEST PUSH2 0x7CA DUP6 DUP3 PUSH2 0x74F JUMP JUMPDEST DUP7 SSTORE POP PUSH2 0x831 JUMP JUMPDEST PUSH1 0x1F NOT DUP5 AND PUSH2 0x7E0 DUP7 PUSH2 0x5C4 JUMP JUMPDEST PUSH0 JUMPDEST DUP3 DUP2 LT ISZERO PUSH2 0x807 JUMPI DUP5 DUP10 ADD MLOAD DUP3 SSTORE PUSH1 0x1 DUP3 ADD SWAP2 POP PUSH1 0x20 DUP6 ADD SWAP5 POP PUSH1 0x20 DUP2 ADD SWAP1 POP PUSH2 0x7E2 JUMP JUMPDEST DUP7 DUP4 LT ISZERO PUSH2 0x824 JUMPI DUP5 DUP10 ADD MLOAD PUSH2 0x820 PUSH1 0x1F DUP10 AND DUP3 PUSH2 0x733 JUMP JUMPDEST DUP4 SSTORE POP JUMPDEST PUSH1 0x1 PUSH1 0x2 DUP9 MUL ADD DUP9 SSTORE POP POP POP JUMPDEST POP POP POP POP POP POP JUMP JUMPDEST PUSH0 PUSH20 0xFFFFFFFFFFFFFFFFFFFFFFFFFFFFFFFFFFFFFFFF DUP3 AND SWAP1 POP SWAP2 SWAP1 POP JUMP JUMPDEST PUSH0 PUSH2 0x862 DUP3 PUSH2 0x839 JUMP JUMPDEST SWAP1 POP SWAP2 SWAP1 POP JUMP JUMPDEST PUSH2 0x872 DUP2 PUSH2 0x858 JUMP JUMPDEST DUP3 MSTORE POP POP JUMP JUMPDEST PUSH0 PUSH1 0x20 DUP3 ADD SWAP1 POP PUSH2 0x88B PUSH0 DUP4 ADD DUP5 PUSH2 0x869 JUMP JUMPDEST SWAP3 SWAP2 POP POP JUMP JUMPDEST PUSH32 0x4E487B7100000000000000000000000000000000000000000000000000000000 PUSH0 MSTORE PUSH1 0x11 PUSH1 0x4 MSTORE PUSH1 0x24 PUSH0 REVERT JUMPDEST PUSH0 DUP2 PUSH1 0x1 SHR SWAP1 POP SWAP2 SWAP1 POP JUMP JUMPDEST PUSH0 DUP1 DUP3 SWAP2 POP DUP4 SWAP1 POP JUMPDEST PUSH1 0x1 DUP6 GT ISZERO PUSH2 0x913 JUMPI DUP1 DUP7 DIV DUP2 GT ISZERO PUSH2 0x8EF JUMPI PUSH2 0x8EE PUSH2 0x891 JUMP JUMPDEST JUMPDEST PUSH1 0x1 DUP6 AND ISZERO PUSH2 0x8FE JUMPI DUP1 DUP3 MUL SWAP2 POP JUMPDEST DUP1 DUP2 MUL SWAP1 POP PUSH2 0x90C DUP6 PUSH2 0x8BE JUMP JUMPDEST SWAP5 POP PUSH2 0x8D3 JUMP JUMPDEST SWAP5 POP SWAP5 SWAP3 POP POP POP JUMP JUMPDEST PUSH0 DUP3 PUSH2 0x92B JUMPI PUSH1 0x1 SWAP1 POP PUSH2 0x9E6 JUMP JUMPDEST DUP2 PUSH2 0x938 JUMPI PUSH0 SWAP1 POP PUSH2 0x9E6 JUMP JUMPDEST DUP2 PUSH1 0x1 DUP2 EQ PUSH2 0x94E JUMPI PUSH1 0x2 DUP2 EQ PUSH2 0x958 JUMPI PUSH2 0x987 JUMP JUMPDEST PUSH1 0x1 SWAP2 POP POP PUSH2 0x9E6 JUMP JUMPDEST PUSH1 0xFF DUP5 GT ISZERO PUSH2 0x96A JUMPI PUSH2 0x969 PUSH2 0x891 JUMP JUMPDEST JUMPDEST DUP4 PUSH1 0x2 EXP SWAP2 POP DUP5 DUP3 GT ISZERO PUSH2 0x981 JUMPI PUSH2 0x980 PUSH2 0x891 JUMP JUMPDEST JUMPDEST POP PUSH2 0x9E6 JUMP JUMPDEST POP PUSH1 0x20 DUP4 LT PUSH2 0x133 DUP4 LT AND PUSH1 0x4E DUP5 LT PUSH1 0xB DUP5 LT AND OR ISZERO PUSH2 0x9BC JUMPI DUP3 DUP3 EXP SWAP1 POP DUP4 DUP2 GT ISZERO PUSH2 0x9B7 JUMPI PUSH2 0x9B6 PUSH2 0x891 JUMP JUMPDEST JUMPDEST PUSH2 0x9E6 JUMP JUMPDEST PUSH2 0x9C9 DUP5 DUP5 DUP5 PUSH1 0x1 PUSH2 0x8CA JUMP JUMPDEST SWAP3 POP SWAP1 POP DUP2 DUP5 DIV DUP2 GT ISZERO PUSH2 0x9E0 JUMPI PUSH2 0x9DF PUSH2 0x891 JUMP JUMPDEST JUMPDEST DUP2 DUP2 MUL SWAP1 POP JUMPDEST SWAP4 SWAP3 POP POP POP JUMP JUMPDEST PUSH0 PUSH1 0xFF DUP3 AND SWAP1 POP SWAP2 SWAP1 POP JUMP JUMPDEST PUSH0 PUSH2 0xA03 DUP3 PUSH2 0x642 JUMP JUMPDEST SWAP2 POP PUSH2 0xA0E DUP4 PUSH2 0x9ED JUMP JUMPDEST SWAP3 POP PUSH2 0xA3B PUSH32 0xFFFFFFFFFFFFFFFFFFFFFFFFFFFFFFFFFFFFFFFFFFFFFFFFFFFFFFFFFFFFFFFF DUP5 DUP5 PUSH2 0x91C JUMP JUMPDEST SWAP1 POP SWAP3 SWAP2 POP POP JUMP JUMPDEST PUSH0 PUSH2 0xA4D DUP3 PUSH2 0x642 JUMP JUMPDEST SWAP2 POP PUSH2 0xA58 DUP4 PUSH2 0x642 JUMP JUMPDEST SWAP3 POP DUP3 DUP3 MUL PUSH2 0xA66 DUP2 PUSH2 0x642 JUMP JUMPDEST SWAP2 POP DUP3 DUP3 DIV DUP5 EQ DUP4 ISZERO OR PUSH2 0xA7D JUMPI PUSH2 0xA7C PUSH2 0x891 JUMP JUMPDEST JUMPDEST POP SWAP3 SWAP2 POP POP JUMP JUMPDEST PUSH0 PUSH2 0xA8E DUP3 PUSH2 0x642 JUMP JUMPDEST SWAP2 POP PUSH2 0xA99 DUP4 PUSH2 0x642 JUMP JUMPDEST SWAP3 POP DUP3 DUP3 ADD SWAP1 POP DUP1 DUP3 GT ISZERO PUSH2 0xAB1 JUMPI PUSH2 0xAB0 PUSH2 0x891 JUMP JUMPDEST JUMPDEST SWAP3 SWAP2 POP POP JUMP JUMPDEST PUSH2 0xAC0 DUP2 PUSH2 0x642 JUMP JUMPDEST DUP3 MSTORE POP POP JUMP JUMPDEST PUSH0 PUSH1 0x60 DUP3 ADD SWAP1 POP PUSH2 0xAD9 PUSH0 DUP4 ADD DUP7 PUSH2 0x869 JUMP JUMPDEST PUSH2 0xAE6 PUSH1 0x20 DUP4 ADD DUP6 PUSH2 0xAB7 JUMP JUMPDEST PUSH2 0xAF3 PUSH1 0x40 DUP4 ADD DUP5 PUSH2 0xAB7 JUMP JUMPDEST SWAP5 SWAP4 POP POP POP POP JUMP JUMPDEST PUSH0 PUSH1 0x20 DUP3 ADD SWAP1 POP PUSH2 0xB0E PUSH0 DUP4 ADD DUP5 PUSH2 0xAB7 JUMP JUMPDEST SWAP3 SWAP2 POP POP JUMP JUMPDEST PUSH2 0x238E DUP1 PUSH2 0xB21 PUSH0 CODECOPY PUSH0 RETURN INVALID PUSH1 0x80 PUSH1 0x40 MSTORE PUSH1 0x4 CALLDATASIZE LT PUSH2 0x138 JUMPI PUSH0 CALLDATALOAD PUSH1 0xE0 SHR DUP1 PUSH4 0x95D89B41 GT PUSH2 0xAA JUMPI DUP1 PUSH4 0xBC3D6DC3 GT PUSH2 0x6E JUMPI DUP1 PUSH4 0xBC3D6DC3 EQ PUSH2 0x4ED JUMPI DUP1 PUSH4 0xC1280AE7 EQ PUSH2 0x515 JUMPI DUP1 PUSH4 0xDD62ED3E EQ PUSH2 0x551 JUMPI DUP1 PUSH4 0xDDCA3F43 EQ PUSH2 0x58D JUMPI DUP1 PUSH4 0xF2C298BE EQ PUSH2 0x5B7 JUMPI DUP1 PUSH4 0xF2FDE38B EQ PUSH2 0x5DF JUMPI PUSH2 0x1FD JUMP JUMPDEST DUP1 PUSH4 0x95D89B41 EQ PUSH2 0x415 JUMPI DUP1 PUSH4 0x96EB64A9 EQ PUSH2 0x43F JUMPI DUP1 PUSH4 0xA035B1FE EQ PUSH2 0x45B JUMPI DUP1 PUSH4 0xA0D81BA6 EQ PUSH2 0x485 JUMPI DUP1 PUSH4 0xA9059CBB EQ PUSH2 0x4B1 JUMPI PUSH2 0x1FD JUMP JUMPDEST DUP1 PUSH4 0x651DC0DF GT PUSH2 0xFC JUMPI DUP1 PUSH4 0x651DC0DF EQ PUSH2 0x2F7 JUMPI DUP1 PUSH4 0x70A08231 EQ PUSH2 0x31F JUMPI DUP1 PUSH4 0x715018A6 EQ PUSH2 0x35B JUMPI DUP1 PUSH4 0x738F5B5B EQ PUSH2 0x371 JUMPI DUP1 PUSH4 0x86E6E222 EQ PUSH2 0x3AD JUMPI DUP1 PUSH4 0x8DA5CB5B EQ PUSH2 0x3EB JUMPI PUSH2 0x1FD JUMP JUMPDEST DUP1 PUSH4 0x6FDDE03 EQ PUSH2 0x201 JUMPI DUP1 PUSH4 0x95EA7B3 EQ PUSH2 0x22B JUMPI DUP1 PUSH4 0x18160DDD EQ PUSH2 0x267 JUMPI DUP1 PUSH4 0x23B872DD EQ PUSH2 0x291 JUMPI DUP1 PUSH4 0x313CE567 EQ PUSH2 0x2CD JUMPI PUSH2 0x1FD JUMP JUMPDEST CALLDATASIZE PUSH2 0x1FD JUMPI PUSH0 PUSH1 0xA SLOAD PUSH1 0x64 CALLVALUE PUSH2 0x14E SWAP2 SWAP1 PUSH2 0x17D6 JUMP JUMPDEST PUSH2 0x158 SWAP2 SWAP1 PUSH2 0x1806 JUMP JUMPDEST SWAP1 POP PUSH0 PUSH2 0x163 PUSH2 0x607 JUMP JUMPDEST PUSH20 0xFFFFFFFFFFFFFFFFFFFFFFFFFFFFFFFFFFFFFFFF AND DUP3 PUSH1 0x40 MLOAD PUSH2 0x186 SWAP1 PUSH2 0x1874 JUMP JUMPDEST PUSH0 PUSH1 0x40 MLOAD DUP1 DUP4 SUB DUP2 DUP6 DUP8 GAS CALL SWAP3 POP POP POP RETURNDATASIZE DUP1 PUSH0 DUP2 EQ PUSH2 0x1C0 JUMPI PUSH1 0x40 MLOAD SWAP2 POP PUSH1 0x1F NOT PUSH1 0x3F RETURNDATASIZE ADD AND DUP3 ADD PUSH1 0x40 MSTORE RETURNDATASIZE DUP3 MSTORE RETURNDATASIZE PUSH0 PUSH1 0x20 DUP5 ADD RETURNDATACOPY PUSH2 0x1C5 JUMP JUMPDEST PUSH1 0x60 SWAP2 POP JUMPDEST POP POP SWAP1 POP PUSH0 DUP3 CALLVALUE PUSH2 0x1D6 SWAP2 SWAP1 PUSH2 0x1888 JUMP JUMPDEST SWAP1 POP PUSH0 PUSH1 0x9 SLOAD DUP3 PUSH2 0x1E7 SWAP2 SWAP1 PUSH2 0x17D6 JUMP JUMPDEST SWAP1 POP PUSH2 0x1FB PUSH2 0x1F4 PUSH2 0x607 JUMP JUMPDEST CALLER DUP4 PUSH2 0x62F JUMP JUMPDEST STOP JUMPDEST PUSH0 DUP1 REVERT JUMPDEST CALLVALUE DUP1 ISZERO PUSH2 0x20C JUMPI PUSH0 DUP1 REVERT JUMPDEST POP PUSH2 0x215 PUSH2 0x71F JUMP JUMPDEST PUSH1 0x40 MLOAD PUSH2 0x222 SWAP2 SWAP1 PUSH2 0x192B JUMP JUMPDEST PUSH1 0x40 MLOAD DUP1 SWAP2 SUB SWAP1 RETURN JUMPDEST CALLVALUE DUP1 ISZERO PUSH2 0x236 JUMPI PUSH0 DUP1 REVERT JUMPDEST POP PUSH2 0x251 PUSH1 0x4 DUP1 CALLDATASIZE SUB DUP2 ADD SWAP1 PUSH2 0x24C SWAP2 SWAP1 PUSH2 0x19E0 JUMP JUMPDEST PUSH2 0x7AF JUMP JUMPDEST PUSH1 0x40 MLOAD PUSH2 0x25E SWAP2 SWAP1 PUSH2 0x1A38 JUMP JUMPDEST PUSH1 0x40 MLOAD DUP1 SWAP2 SUB SWAP1 RETURN JUMPDEST CALLVALUE DUP1 ISZERO PUSH2 0x272 JUMPI PUSH0 DUP1 REVERT JUMPDEST POP PUSH2 0x27B PUSH2 0x7D1 JUMP JUMPDEST PUSH1 0x40 MLOAD PUSH2 0x288 SWAP2 SWAP1 PUSH2 0x1A60 JUMP JUMPDEST PUSH1 0x40 MLOAD DUP1 SWAP2 SUB SWAP1 RETURN JUMPDEST CALLVALUE DUP1 ISZERO PUSH2 0x29C JUMPI PUSH0 DUP1 REVERT JUMPDEST POP PUSH2 0x2B7 PUSH1 0x4 DUP1 CALLDATASIZE SUB DUP2 ADD SWAP1 PUSH2 0x2B2 SWAP2 SWAP1 PUSH2 0x1A79 JUMP JUMPDEST PUSH2 0x7DA JUMP JUMPDEST PUSH1 0x40 MLOAD PUSH2 0x2C4 SWAP2 SWAP1 PUSH2 0x1A38 JUMP JUMPDEST PUSH1 0x40 MLOAD DUP1 SWAP2 SUB SWAP1 RETURN JUMPDEST CALLVALUE DUP1 ISZERO PUSH2 0x2D8 JUMPI PUSH0 DUP1 REVERT JUMPDEST POP PUSH2 0x2E1 PUSH2 0x808 JUMP JUMPDEST PUSH1 0x40 MLOAD PUSH2 0x2EE SWAP2 SWAP1 PUSH2 0x1AE4 JUMP JUMPDEST PUSH1 0x40 MLOAD DUP1 SWAP2 SUB SWAP1 RETURN JUMPDEST CALLVALUE DUP1 ISZERO PUSH2 0x302 JUMPI PUSH0 DUP1 REVERT JUMPDEST POP PUSH2 0x31D PUSH1 0x4 DUP1 CALLDATASIZE SUB DUP2 ADD SWAP1 PUSH2 0x318 SWAP2 SWAP1 PUSH2 0x1C29 JUMP JUMPDEST PUSH2 0x810 JUMP JUMPDEST STOP JUMPDEST CALLVALUE DUP1 ISZERO PUSH2 0x32A JUMPI PUSH0 DUP1 REVERT JUMPDEST POP PUSH2 0x345 PUSH1 0x4 DUP1 CALLDATASIZE SUB DUP2 ADD SWAP1 PUSH2 0x340 SWAP2 SWAP1 PUSH2 0x1C9F JUMP JUMPDEST PUSH2 0xA37 JUMP JUMPDEST PUSH1 0x40 MLOAD PUSH2 0x352 SWAP2 SWAP1 PUSH2 0x1A60 JUMP JUMPDEST PUSH1 0x40 MLOAD DUP1 SWAP2 SUB SWAP1 RETURN JUMPDEST CALLVALUE DUP1 ISZERO PUSH2 0x366 JUMPI PUSH0 DUP1 REVERT JUMPDEST POP PUSH2 0x36F PUSH2 0xA7C JUMP JUMPDEST STOP JUMPDEST CALLVALUE DUP1 ISZERO PUSH2 0x37C JUMPI PUSH0 DUP1 REVERT JUMPDEST POP PUSH2 0x397 PUSH1 0x4 DUP1 CALLDATASIZE SUB DUP2 ADD SWAP1 PUSH2 0x392 SWAP2 SWAP1 PUSH2 0x1CCA JUMP JUMPDEST PUSH2 0xA8F JUMP JUMPDEST PUSH1 0x40 MLOAD PUSH2 0x3A4 SWAP2 SWAP1 PUSH2 0x1A60 JUMP JUMPDEST PUSH1 0x40 MLOAD DUP1 SWAP2 SUB SWAP1 RETURN JUMPDEST CALLVALUE DUP1 ISZERO PUSH2 0x3B8 JUMPI PUSH0 DUP1 REVERT JUMPDEST POP PUSH2 0x3D3 PUSH1 0x4 DUP1 CALLDATASIZE SUB DUP2 ADD SWAP1 PUSH2 0x3CE SWAP2 SWAP1 PUSH2 0x1CCA JUMP JUMPDEST PUSH2 0xAC2 JUMP JUMPDEST PUSH1 0x40 MLOAD PUSH2 0x3E2 SWAP4 SWAP3 SWAP2 SWAP1 PUSH2 0x1D11 JUMP JUMPDEST PUSH1 0x40 MLOAD DUP1 SWAP2 SUB SWAP1 RETURN JUMPDEST CALLVALUE DUP1 ISZERO PUSH2 0x3F6 JUMPI PUSH0 DUP1 REVERT JUMPDEST POP PUSH2 0x3FF PUSH2 0x607 JUMP JUMPDEST PUSH1 0x40 MLOAD PUSH2 0x40C SWAP2 SWAP1 PUSH2 0x1D5C JUMP JUMPDEST PUSH1 0x40 MLOAD DUP1 SWAP2 SUB SWAP1 RETURN JUMPDEST CALLVALUE DUP1 ISZERO PUSH2 0x420 JUMPI PUSH0 DUP1 REVERT JUMPDEST POP PUSH2 0x429 PUSH2 0xB86 JUMP JUMPDEST PUSH1 0x40 MLOAD PUSH2 0x436 SWAP2 SWAP1 PUSH2 0x192B JUMP JUMPDEST PUSH1 0x40 MLOAD DUP1 SWAP2 SUB SWAP1 RETURN JUMPDEST PUSH2 0x459 PUSH1 0x4 DUP1 CALLDATASIZE SUB DUP2 ADD SWAP1 PUSH2 0x454 SWAP2 SWAP1 PUSH2 0x1C9F JUMP JUMPDEST PUSH2 0xC16 JUMP JUMPDEST STOP JUMPDEST CALLVALUE DUP1 ISZERO PUSH2 0x466 JUMPI PUSH0 DUP1 REVERT JUMPDEST POP PUSH2 0x46F PUSH2 0xD8D JUMP JUMPDEST PUSH1 0x40 MLOAD PUSH2 0x47C SWAP2 SWAP1 PUSH2 0x1A60 JUMP JUMPDEST PUSH1 0x40 MLOAD DUP1 SWAP2 SUB SWAP1 RETURN JUMPDEST CALLVALUE DUP1 ISZERO PUSH2 0x490 JUMPI PUSH0 DUP1 REVERT JUMPDEST POP PUSH2 0x499 PUSH2 0xD93 JUMP JUMPDEST PUSH1 0x40 MLOAD PUSH2 0x4A8 SWAP4 SWAP3 SWAP2 SWAP1 PUSH2 0x1D11 JUMP JUMPDEST PUSH1 0x40 MLOAD DUP1 SWAP2 SUB SWAP1 RETURN JUMPDEST CALLVALUE DUP1 ISZERO PUSH2 0x4BC JUMPI PUSH0 DUP1 REVERT JUMPDEST POP PUSH2 0x4D7 PUSH1 0x4 DUP1 CALLDATASIZE SUB DUP2 ADD SWAP1 PUSH2 0x4D2 SWAP2 SWAP1 PUSH2 0x19E0 JUMP JUMPDEST PUSH2 0xE30 JUMP JUMPDEST PUSH1 0x40 MLOAD PUSH2 0x4E4 SWAP2 SWAP1 PUSH2 0x1A38 JUMP JUMPDEST PUSH1 0x40 MLOAD DUP1 SWAP2 SUB SWAP1 RETURN JUMPDEST CALLVALUE DUP1 ISZERO PUSH2 0x4F8 JUMPI PUSH0 DUP1 REVERT JUMPDEST POP PUSH2 0x513 PUSH1 0x4 DUP1 CALLDATASIZE SUB DUP2 ADD SWAP1 PUSH2 0x50E SWAP2 SWAP1 PUSH2 0x1CCA JUMP JUMPDEST PUSH2 0xE52 JUMP JUMPDEST STOP JUMPDEST CALLVALUE DUP1 ISZERO PUSH2 0x520 JUMPI PUSH0 DUP1 REVERT JUMPDEST POP PUSH2 0x53B PUSH1 0x4 DUP1 CALLDATASIZE SUB DUP2 ADD SWAP1 PUSH2 0x536 SWAP2 SWAP1 PUSH2 0x1CCA JUMP JUMPDEST PUSH2 0xF8F JUMP JUMPDEST PUSH1 0x40 MLOAD PUSH2 0x548 SWAP2 SWAP1 PUSH2 0x1A60 JUMP JUMPDEST PUSH1 0x40 MLOAD DUP1 SWAP2 SUB SWAP1 RETURN JUMPDEST CALLVALUE DUP1 ISZERO PUSH2 0x55C JUMPI PUSH0 DUP1 REVERT JUMPDEST POP PUSH2 0x577 PUSH1 0x4 DUP1 CALLDATASIZE SUB DUP2 ADD SWAP1 PUSH2 0x572 SWAP2 SWAP1 PUSH2 0x1D75 JUMP JUMPDEST PUSH2 0xFBB JUMP JUMPDEST PUSH1 0x40 MLOAD PUSH2 0x584 SWAP2 SWAP1 PUSH2 0x1A60 JUMP JUMPDEST PUSH1 0x40 MLOAD DUP1 SWAP2 SUB SWAP1 RETURN JUMPDEST CALLVALUE DUP1 ISZERO PUSH2 0x598 JUMPI PUSH0 DUP1 REVERT JUMPDEST POP PUSH2 0x5A1 PUSH2 0x103D JUMP JUMPDEST PUSH1 0x40 MLOAD PUSH2 0x5AE SWAP2 SWAP1 PUSH2 0x1A60 JUMP JUMPDEST PUSH1 0x40 MLOAD DUP1 SWAP2 SUB SWAP1 RETURN JUMPDEST CALLVALUE DUP1 ISZERO PUSH2 0x5C2 JUMPI PUSH0 DUP1 REVERT JUMPDEST POP PUSH2 0x5DD PUSH1 0x4 DUP1 CALLDATASIZE SUB DUP2 ADD SWAP1 PUSH2 0x5D8 SWAP2 SWAP1 PUSH2 0x1CCA JUMP JUMPDEST PUSH2 0x1043 JUMP JUMPDEST STOP JUMPDEST CALLVALUE DUP1 ISZERO PUSH2 0x5EA JUMPI PUSH0 DUP1 REVERT JUMPDEST POP PUSH2 0x605 PUSH1 0x4 DUP1 CALLDATASIZE SUB DUP2 ADD SWAP1 PUSH2 0x600 SWAP2 SWAP1 PUSH2 0x1C9F JUMP JUMPDEST PUSH2 0x1111 JUMP JUMPDEST STOP JUMPDEST PUSH0 PUSH1 0x5 PUSH0 SWAP1 SLOAD SWAP1 PUSH2 0x100 EXP SWAP1 DIV PUSH20 0xFFFFFFFFFFFFFFFFFFFFFFFFFFFFFFFFFFFFFFFF AND SWAP1 POP SWAP1 JUMP JUMPDEST PUSH0 PUSH20 0xFFFFFFFFFFFFFFFFFFFFFFFFFFFFFFFFFFFFFFFF AND DUP4 PUSH20 0xFFFFFFFFFFFFFFFFFFFFFFFFFFFFFFFFFFFFFFFF AND SUB PUSH2 0x69F JUMPI PUSH0 PUSH1 0x40 MLOAD PUSH32 0x96C6FD1E00000000000000000000000000000000000000000000000000000000 DUP2 MSTORE PUSH1 0x4 ADD PUSH2 0x696 SWAP2 SWAP1 PUSH2 0x1D5C JUMP JUMPDEST PUSH1 0x40 MLOAD DUP1 SWAP2 SUB SWAP1 REVERT JUMPDEST PUSH0 PUSH20 0xFFFFFFFFFFFFFFFFFFFFFFFFFFFFFFFFFFFFFFFF AND DUP3 PUSH20 0xFFFFFFFFFFFFFFFFFFFFFFFFFFFFFFFFFFFFFFFF AND SUB PUSH2 0x70F JUMPI PUSH0 PUSH1 0x40 MLOAD PUSH32 0xEC442F0500000000000000000000000000000000000000000000000000000000 DUP2 MSTORE PUSH1 0x4 ADD PUSH2 0x706 SWAP2 SWAP1 PUSH2 0x1D5C JUMP JUMPDEST PUSH1 0x40 MLOAD DUP1 SWAP2 SUB SWAP1 REVERT JUMPDEST PUSH2 0x71A DUP4 DUP4 DUP4 PUSH2 0x1195 JUMP JUMPDEST POP POP POP JUMP JUMPDEST PUSH1 0x60 PUSH1 0x3 DUP1 SLOAD PUSH2 0x72E SWAP1 PUSH2 0x1DE0 JUMP JUMPDEST DUP1 PUSH1 0x1F ADD PUSH1 0x20 DUP1 SWAP2 DIV MUL PUSH1 0x20 ADD PUSH1 0x40 MLOAD SWAP1 DUP2 ADD PUSH1 0x40 MSTORE DUP1 SWAP3 SWAP2 SWAP1 DUP2 DUP2 MSTORE PUSH1 0x20 ADD DUP3 DUP1 SLOAD PUSH2 0x75A SWAP1 PUSH2 0x1DE0 JUMP JUMPDEST DUP1 ISZERO PUSH2 0x7A5 JUMPI DUP1 PUSH1 0x1F LT PUSH2 0x77C JUMPI PUSH2 0x100 DUP1 DUP4 SLOAD DIV MUL DUP4 MSTORE SWAP2 PUSH1 0x20 ADD SWAP2 PUSH2 0x7A5 JUMP JUMPDEST DUP3 ADD SWAP2 SWAP1 PUSH0 MSTORE PUSH1 0x20 PUSH0 KECCAK256 SWAP1 JUMPDEST DUP2 SLOAD DUP2 MSTORE SWAP1 PUSH1 0x1 ADD SWAP1 PUSH1 0x20 ADD DUP1 DUP4 GT PUSH2 0x788 JUMPI DUP3 SWAP1 SUB PUSH1 0x1F AND DUP3 ADD SWAP2 JUMPDEST POP POP POP POP POP SWAP1 POP SWAP1 JUMP JUMPDEST PUSH0 DUP1 PUSH2 0x7B9 PUSH2 0x13AE JUMP JUMPDEST SWAP1 POP PUSH2 0x7C6 DUP2 DUP6 DUP6 PUSH2 0x13B5 JUMP JUMPDEST PUSH1 0x1 SWAP2 POP POP SWAP3 SWAP2 POP POP JUMP JUMPDEST PUSH0 PUSH1 0x2 SLOAD SWAP1 POP SWAP1 JUMP JUMPDEST PUSH0 DUP1 PUSH2 0x7E4 PUSH2 0x13AE JUMP JUMPDEST SWAP1 POP PUSH2 0x7F1 DUP6 DUP3 DUP6 PUSH2 0x13C7 JUMP JUMPDEST PUSH2 0x7FC DUP6 DUP6 DUP6 PUSH2 0x62F JUMP JUMPDEST PUSH1 0x1 SWAP2 POP POP SWAP4 SWAP3 POP POP POP JUMP JUMPDEST PUSH0 PUSH1 0x12 SWAP1 POP SWAP1 JUMP JUMPDEST PUSH1 0x7 DUP2 PUSH1 0x40 MLOAD PUSH2 0x820 SWAP2 SWAP1 PUSH2 0x1E4A JUMP JUMPDEST SWAP1 DUP2 MSTORE PUSH1 0x20 ADD PUSH1 0x40 MLOAD DUP1 SWAP2 SUB SWAP1 KECCAK256 PUSH0 ADD DUP1 SLOAD SWAP1 POP PUSH1 0x7 DUP3 PUSH1 0x40 MLOAD PUSH2 0x844 SWAP2 SWAP1 PUSH2 0x1E4A JUMP JUMPDEST SWAP1 DUP2 MSTORE PUSH1 0x20 ADD PUSH1 0x40 MLOAD DUP1 SWAP2 SUB SWAP1 KECCAK256 PUSH1 0x1 ADD DUP2 SWAP1 SSTORE POP PUSH0 PUSH1 0x8 DUP3 PUSH1 0x40 MLOAD PUSH2 0x86A SWAP2 SWAP1 PUSH2 0x1E4A JUMP JUMPDEST SWAP1 DUP2 MSTORE PUSH1 0x20 ADD PUSH1 0x40 MLOAD DUP1 SWAP2 SUB SWAP1 KECCAK256 PUSH1 0x2 ADD SLOAD SUB PUSH2 0x8BC JUMPI PUSH1 0x40 MLOAD PUSH32 0x8C379A000000000000000000000000000000000000000000000000000000000 DUP2 MSTORE PUSH1 0x4 ADD PUSH2 0x8B3 SWAP1 PUSH2 0x1EAA JUMP JUMPDEST PUSH1 0x40 MLOAD DUP1 SWAP2 SUB SWAP1 REVERT JUMPDEST PUSH1 0x8 DUP2 PUSH1 0x40 MLOAD PUSH2 0x8CC SWAP2 SWAP1 PUSH2 0x1E4A JUMP JUMPDEST SWAP1 DUP2 MSTORE PUSH1 0x20 ADD PUSH1 0x40 MLOAD DUP1 SWAP2 SUB SWAP1 KECCAK256 PUSH1 0x1 ADD SLOAD PUSH1 0x7 DUP4 PUSH1 0x40 MLOAD PUSH2 0x8EE SWAP2 SWAP1 PUSH2 0x1E4A JUMP JUMPDEST SWAP1 DUP2 MSTORE PUSH1 0x20 ADD PUSH1 0x40 MLOAD DUP1 SWAP2 SUB SWAP1 KECCAK256 PUSH1 0x1 ADD SLOAD LT ISZERO PUSH2 0x941 JUMPI PUSH1 0x40 MLOAD PUSH32 0x8C379A000000000000000000000000000000000000000000000000000000000 DUP2 MSTORE PUSH1 0x4 ADD PUSH2 0x938 SWAP1 PUSH2 0x1F12 JUMP JUMPDEST PUSH1 0x40 MLOAD DUP1 SWAP2 SUB SWAP1 REVERT JUMPDEST PUSH0 JUMPDEST PUSH1 0x7 DUP4 PUSH1 0x40 MLOAD PUSH2 0x953 SWAP2 SWAP1 PUSH2 0x1E4A JUMP JUMPDEST SWAP1 DUP2 MSTORE PUSH1 0x20 ADD PUSH1 0x40 MLOAD DUP1 SWAP2 SUB SWAP1 KECCAK256 PUSH1 0x1 ADD SLOAD DUP2 LT ISZERO PUSH2 0xA0C JUMPI PUSH2 0x9FF PUSH2 0x977 PUSH2 0x607 JUMP JUMPDEST PUSH1 0x7 DUP6 PUSH1 0x40 MLOAD PUSH2 0x987 SWAP2 SWAP1 PUSH2 0x1E4A JUMP JUMPDEST SWAP1 DUP2 MSTORE PUSH1 0x20 ADD PUSH1 0x40 MLOAD DUP1 SWAP2 SUB SWAP1 KECCAK256 PUSH0 ADD DUP4 DUP2 SLOAD DUP2 LT PUSH2 0x9A9 JUMPI PUSH2 0x9A8 PUSH2 0x1F30 JUMP JUMPDEST JUMPDEST SWAP1 PUSH0 MSTORE PUSH1 0x20 PUSH0 KECCAK256 SWAP1 PUSH1 0x2 MUL ADD PUSH1 0x1 ADD PUSH0 SWAP1 SLOAD SWAP1 PUSH2 0x100 EXP SWAP1 DIV PUSH20 0xFFFFFFFFFFFFFFFFFFFFFFFFFFFFFFFFFFFFFFFF AND PUSH1 0x8 DUP6 PUSH1 0x40 MLOAD PUSH2 0x9E8 SWAP2 SWAP1 PUSH2 0x1E4A JUMP JUMPDEST SWAP1 DUP2 MSTORE PUSH1 0x20 ADD PUSH1 0x40 MLOAD DUP1 SWAP2 SUB SWAP1 KECCAK256 PUSH1 0x2 ADD SLOAD PUSH2 0x62F JUMP JUMPDEST DUP1 DUP1 PUSH1 0x1 ADD SWAP2 POP POP PUSH2 0x943 JUMP JUMPDEST POP PUSH0 PUSH1 0x8 DUP3 PUSH1 0x40 MLOAD PUSH2 0xA1E SWAP2 SWAP1 PUSH2 0x1E4A JUMP JUMPDEST SWAP1 DUP2 MSTORE PUSH1 0x20 ADD PUSH1 0x40 MLOAD DUP1 SWAP2 SUB SWAP1 KECCAK256 PUSH1 0x2 ADD DUP2 SWAP1 SSTORE POP POP POP JUMP JUMPDEST PUSH0 DUP1 PUSH0 DUP4 PUSH20 0xFFFFFFFFFFFFFFFFFFFFFFFFFFFFFFFFFFFFFFFF AND PUSH20 0xFFFFFFFFFFFFFFFFFFFFFFFFFFFFFFFFFFFFFFFF AND DUP2 MSTORE PUSH1 0x20 ADD SWAP1 DUP2 MSTORE PUSH1 0x20 ADD PUSH0 KECCAK256 SLOAD SWAP1 POP SWAP2 SWAP1 POP JUMP JUMPDEST PUSH2 0xA84 PUSH2 0x145A JUMP JUMPDEST PUSH2 0xA8D PUSH0 PUSH2 0x14E1 JUMP JUMPDEST JUMP JUMPDEST PUSH1 0x7 DUP2 DUP1 MLOAD PUSH1 0x20 DUP2 ADD DUP3 ADD DUP1 MLOAD DUP5 DUP3 MSTORE PUSH1 0x20 DUP4 ADD PUSH1 0x20 DUP6 ADD KECCAK256 DUP2 DUP4 MSTORE DUP1 SWAP6 POP POP POP POP POP POP PUSH0 SWAP2 POP SWAP1 POP DUP1 PUSH1 0x1 ADD SLOAD SWAP1 POP DUP2 JUMP JUMPDEST PUSH1 0x8 DUP2 DUP1 MLOAD PUSH1 0x20 DUP2 ADD DUP3 ADD DUP1 MLOAD DUP5 DUP3 MSTORE PUSH1 0x20 DUP4 ADD PUSH1 0x20 DUP6 ADD KECCAK256 DUP2 DUP4 MSTORE DUP1 SWAP6 POP POP POP POP POP POP PUSH0 SWAP2 POP SWAP1 POP DUP1 PUSH0 ADD DUP1 SLOAD PUSH2 0xAF9 SWAP1 PUSH2 0x1DE0 JUMP JUMPDEST DUP1 PUSH1 0x1F ADD PUSH1 0x20 DUP1 SWAP2 DIV MUL PUSH1 0x20 ADD PUSH1 0x40 MLOAD SWAP1 DUP2 ADD PUSH1 0x40 MSTORE DUP1 SWAP3 SWAP2 SWAP1 DUP2 DUP2 MSTORE PUSH1 0x20 ADD DUP3 DUP1 SLOAD PUSH2 0xB25 SWAP1 PUSH2 0x1DE0 JUMP JUMPDEST DUP1 ISZERO PUSH2 0xB70 JUMPI DUP1 PUSH1 0x1F LT PUSH2 0xB47 JUMPI PUSH2 0x100 DUP1 DUP4 SLOAD DIV MUL DUP4 MSTORE SWAP2 PUSH1 0x20 ADD SWAP2 PUSH2 0xB70 JUMP JUMPDEST DUP3 ADD SWAP2 SWAP1 PUSH0 MSTORE PUSH1 0x20 PUSH0 KECCAK256 SWAP1 JUMPDEST DUP2 SLOAD DUP2 MSTORE SWAP1 PUSH1 0x1 ADD SWAP1 PUSH1 0x20 ADD DUP1 DUP4 GT PUSH2 0xB53 JUMPI DUP3 SWAP1 SUB PUSH1 0x1F AND DUP3 ADD SWAP2 JUMPDEST POP POP POP POP POP SWAP1 DUP1 PUSH1 0x1 ADD SLOAD SWAP1 DUP1 PUSH1 0x2 ADD SLOAD SWAP1 POP DUP4 JUMP JUMPDEST PUSH1 0x60 PUSH1 0x4 DUP1 SLOAD PUSH2 0xB95 SWAP1 PUSH2 0x1DE0 JUMP JUMPDEST DUP1 PUSH1 0x1F ADD PUSH1 0x20 DUP1 SWAP2 DIV MUL PUSH1 0x20 ADD PUSH1 0x40 MLOAD SWAP1 DUP2 ADD PUSH1 0x40 MSTORE DUP1 SWAP3 SWAP2 SWAP1 DUP2 DUP2 MSTORE PUSH1 0x20 ADD DUP3 DUP1 SLOAD PUSH2 0xBC1 SWAP1 PUSH2 0x1DE0 JUMP JUMPDEST DUP1 ISZERO PUSH2 0xC0C JUMPI DUP1 PUSH1 0x1F LT PUSH2 0xBE3 JUMPI PUSH2 0x100 DUP1 DUP4 SLOAD DIV MUL DUP4 MSTORE SWAP2 PUSH1 0x20 ADD SWAP2 PUSH2 0xC0C JUMP JUMPDEST DUP3 ADD SWAP2 SWAP1 PUSH0 MSTORE PUSH1 0x20 PUSH0 KECCAK256 SWAP1 JUMPDEST DUP2 SLOAD DUP2 MSTORE SWAP1 PUSH1 0x1 ADD SWAP1 PUSH1 0x20 ADD DUP1 DUP4 GT PUSH2 0xBEF JUMPI DUP3 SWAP1 SUB PUSH1 0x1F AND DUP3 ADD SWAP2 JUMPDEST POP POP POP POP POP SWAP1 POP SWAP1 JUMP JUMPDEST PUSH1 0x1 DUP1 DUP2 GT ISZERO PUSH2 0xC29 JUMPI PUSH2 0xC28 PUSH2 0x1F5D JUMP JUMPDEST JUMPDEST PUSH1 0x6 PUSH0 CALLER PUSH20 0xFFFFFFFFFFFFFFFFFFFFFFFFFFFFFFFFFFFFFFFF AND PUSH20 0xFFFFFFFFFFFFFFFFFFFFFFFFFFFFFFFFFFFFFFFF AND DUP2 MSTORE PUSH1 0x20 ADD SWAP1 DUP2 MSTORE PUSH1 0x20 ADD PUSH0 KECCAK256 PUSH1 0x1 ADD PUSH1 0x14 SWAP1 SLOAD SWAP1 PUSH2 0x100 EXP SWAP1 DIV PUSH1 0xFF AND PUSH1 0x1 DUP2 GT ISZERO PUSH2 0xC89 JUMPI PUSH2 0xC88 PUSH2 0x1F5D JUMP JUMPDEST JUMPDEST EQ PUSH2 0xC92 JUMPI PUSH0 DUP1 REVERT JUMPDEST PUSH1 0x1 DUP1 DUP2 GT ISZERO PUSH2 0xCA5 JUMPI PUSH2 0xCA4 PUSH2 0x1F5D JUMP JUMPDEST JUMPDEST PUSH1 0x6 PUSH0 DUP4 PUSH20 0xFFFFFFFFFFFFFFFFFFFFFFFFFFFFFFFFFFFFFFFF AND PUSH20 0xFFFFFFFFFFFFFFFFFFFFFFFFFFFFFFFFFFFFFFFF AND DUP2 MSTORE PUSH1 0x20 ADD SWAP1 DUP2 MSTORE PUSH1 0x20 ADD PUSH0 KECCAK256 PUSH1 0x1 ADD PUSH1 0x14 SWAP1 SLOAD SWAP1 PUSH2 0x100 EXP SWAP1 DIV PUSH1 0xFF AND PUSH1 0x1 DUP2 GT ISZERO PUSH2 0xD05 JUMPI PUSH2 0xD04 PUSH2 0x1F5D JUMP JUMPDEST JUMPDEST SUB PUSH2 0xD0E JUMPI PUSH0 DUP1 REVERT JUMPDEST PUSH1 0x1 PUSH1 0x6 PUSH0 DUP4 PUSH20 0xFFFFFFFFFFFFFFFFFFFFFFFFFFFFFFFFFFFFFFFF AND PUSH20 0xFFFFFFFFFFFFFFFFFFFFFFFFFFFFFFFFFFFFFFFF AND DUP2 MSTORE PUSH1 0x20 ADD SWAP1 DUP2 MSTORE PUSH1 0x20 ADD PUSH0 KECCAK256 PUSH1 0x1 ADD PUSH1 0x14 PUSH2 0x100 EXP DUP2 SLOAD DUP2 PUSH1 0xFF MUL NOT AND SWAP1 DUP4 PUSH1 0x1 DUP2 GT ISZERO PUSH2 0xD72 JUMPI PUSH2 0xD71 PUSH2 0x1F5D JUMP JUMPDEST JUMPDEST MUL OR SWAP1 SSTORE POP PUSH2 0xD8A PUSH2 0xD82 PUSH2 0x607 JUMP JUMPDEST CALLER PUSH1 0x64 PUSH2 0x62F JUMP JUMPDEST POP JUMP JUMPDEST PUSH1 0x9 SLOAD DUP2 JUMP JUMPDEST PUSH1 0xB DUP1 PUSH0 ADD DUP1 SLOAD PUSH2 0xDA3 SWAP1 PUSH2 0x1DE0 JUMP JUMPDEST DUP1 PUSH1 0x1F ADD PUSH1 0x20 DUP1 SWAP2 DIV MUL PUSH1 0x20 ADD PUSH1 0x40 MLOAD SWAP1 DUP2 ADD PUSH1 0x40 MSTORE DUP1 SWAP3 SWAP2 SWAP1 DUP2 DUP2 MSTORE PUSH1 0x20 ADD DUP3 DUP1 SLOAD PUSH2 0xDCF SWAP1 PUSH2 0x1DE0 JUMP JUMPDEST DUP1 ISZERO PUSH2 0xE1A JUMPI DUP1 PUSH1 0x1F LT PUSH2 0xDF1 JUMPI PUSH2 0x100 DUP1 DUP4 SLOAD DIV MUL DUP4 MSTORE SWAP2 PUSH1 0x20 ADD SWAP2 PUSH2 0xE1A JUMP JUMPDEST DUP3 ADD SWAP2 SWAP1 PUSH0 MSTORE PUSH1 0x20 PUSH0 KECCAK256 SWAP1 JUMPDEST DUP2 SLOAD DUP2 MSTORE SWAP1 PUSH1 0x1 ADD SWAP1 PUSH1 0x20 ADD DUP1 DUP4 GT PUSH2 0xDFD JUMPI DUP3 SWAP1 SUB PUSH1 0x1F AND DUP3 ADD SWAP2 JUMPDEST POP POP POP POP POP SWAP1 DUP1 PUSH1 0x1 ADD SLOAD SWAP1 DUP1 PUSH1 0x2 ADD SLOAD SWAP1 POP DUP4 JUMP JUMPDEST PUSH0 DUP1 PUSH2 0xE3A PUSH2 0x13AE JUMP JUMPDEST SWAP1 POP PUSH2 0xE47 DUP2 DUP6 DUP6 PUSH2 0x62F JUMP JUMPDEST PUSH1 0x1 SWAP2 POP POP SWAP3 SWAP2 POP POP JUMP JUMPDEST PUSH1 0x7 DUP2 PUSH1 0x40 MLOAD PUSH2 0xE62 SWAP2 SWAP1 PUSH2 0x1E4A JUMP JUMPDEST SWAP1 DUP2 MSTORE PUSH1 0x20 ADD PUSH1 0x40 MLOAD DUP1 SWAP2 SUB SWAP1 KECCAK256 PUSH0 ADD PUSH1 0x6 PUSH0 CALLER PUSH20 0xFFFFFFFFFFFFFFFFFFFFFFFFFFFFFFFFFFFFFFFF AND PUSH20 0xFFFFFFFFFFFFFFFFFFFFFFFFFFFFFFFFFFFFFFFF AND DUP2 MSTORE PUSH1 0x20 ADD SWAP1 DUP2 MSTORE PUSH1 0x20 ADD PUSH0 KECCAK256 SWAP1 DUP1 PUSH1 0x1 DUP2 SLOAD ADD DUP1 DUP3 SSTORE DUP1 SWAP2 POP POP PUSH1 0x1 SWAP1 SUB SWAP1 PUSH0 MSTORE PUSH1 0x20 PUSH0 KECCAK256 SWAP1 PUSH1 0x2 MUL ADD PUSH0 SWAP1 SWAP2 SWAP1 SWAP2 SWAP1 SWAP2 POP PUSH0 DUP3 ADD DUP2 PUSH0 ADD SWAP1 DUP2 PUSH2 0xEE7 SWAP2 SWAP1 PUSH2 0x213C JUMP JUMPDEST POP PUSH1 0x1 DUP3 ADD PUSH0 SWAP1 SLOAD SWAP1 PUSH2 0x100 EXP SWAP1 DIV PUSH20 0xFFFFFFFFFFFFFFFFFFFFFFFFFFFFFFFFFFFFFFFF AND DUP2 PUSH1 0x1 ADD PUSH0 PUSH2 0x100 EXP DUP2 SLOAD DUP2 PUSH20 0xFFFFFFFFFFFFFFFFFFFFFFFFFFFFFFFFFFFFFFFF MUL NOT AND SWAP1 DUP4 PUSH20 0xFFFFFFFFFFFFFFFFFFFFFFFFFFFFFFFFFFFFFFFF AND MUL OR SWAP1 SSTORE POP PUSH1 0x1 DUP3 ADD PUSH1 0x14 SWAP1 SLOAD SWAP1 PUSH2 0x100 EXP SWAP1 DIV PUSH1 0xFF AND DUP2 PUSH1 0x1 ADD PUSH1 0x14 PUSH2 0x100 EXP DUP2 SLOAD DUP2 PUSH1 0xFF MUL NOT AND SWAP1 DUP4 PUSH1 0x1 DUP2 GT ISZERO PUSH2 0xF85 JUMPI PUSH2 0xF84 PUSH2 0x1F5D JUMP JUMPDEST JUMPDEST MUL OR SWAP1 SSTORE POP POP POP POP JUMP JUMPDEST PUSH0 PUSH1 0x7 DUP3 PUSH1 0x40 MLOAD PUSH2 0xFA0 SWAP2 SWAP1 PUSH2 0x1E4A JUMP JUMPDEST SWAP1 DUP2 MSTORE PUSH1 0x20 ADD PUSH1 0x40 MLOAD DUP1 SWAP2 SUB SWAP1 KECCAK256 PUSH0 ADD DUP1 SLOAD SWAP1 POP SWAP1 POP SWAP2 SWAP1 POP JUMP JUMPDEST PUSH0 PUSH1 0x1 PUSH0 DUP5 PUSH20 0xFFFFFFFFFFFFFFFFFFFFFFFFFFFFFFFFFFFFFFFF AND PUSH20 0xFFFFFFFFFFFFFFFFFFFFFFFFFFFFFFFFFFFFFFFF AND DUP2 MSTORE PUSH1 0x20 ADD SWAP1 DUP2 MSTORE PUSH1 0x20 ADD PUSH0 KECCAK256 PUSH0 DUP4 PUSH20 0xFFFFFFFFFFFFFFFFFFFFFFFFFFFFFFFFFFFFFFFF AND PUSH20 0xFFFFFFFFFFFFFFFFFFFFFFFFFFFFFFFFFFFFFFFF AND DUP2 MSTORE PUSH1 0x20 ADD SWAP1 DUP2 MSTORE PUSH1 0x20 ADD PUSH0 KECCAK256 SLOAD SWAP1 POP SWAP3 SWAP2 POP POP JUMP JUMPDEST PUSH1 0xA SLOAD DUP2 JUMP JUMPDEST DUP1 PUSH1 0x6 PUSH0 CALLER PUSH20 0xFFFFFFFFFFFFFFFFFFFFFFFFFFFFFFFFFFFFFFFF AND PUSH20 0xFFFFFFFFFFFFFFFFFFFFFFFFFFFFFFFFFFFFFFFF AND DUP2 MSTORE PUSH1 0x20 ADD SWAP1 DUP2 MSTORE PUSH1 0x20 ADD PUSH0 KECCAK256 PUSH0 ADD SWAP1 DUP2 PUSH2 0x108F SWAP2 SWAP1 PUSH2 0x2221 JUMP JUMPDEST POP CALLER PUSH1 0x6 PUSH0 CALLER PUSH20 0xFFFFFFFFFFFFFFFFFFFFFFFFFFFFFFFFFFFFFFFF AND PUSH20 0xFFFFFFFFFFFFFFFFFFFFFFFFFFFFFFFFFFFFFFFF AND DUP2 MSTORE PUSH1 0x20 ADD SWAP1 DUP2 MSTORE PUSH1 0x20 ADD PUSH0 KECCAK256 PUSH1 0x1 ADD PUSH0 PUSH2 0x100 EXP DUP2 SLOAD DUP2 PUSH20 0xFFFFFFFFFFFFFFFFFFFFFFFFFFFFFFFFFFFFFFFF MUL NOT AND SWAP1 DUP4 PUSH20 0xFFFFFFFFFFFFFFFFFFFFFFFFFFFFFFFFFFFFFFFF AND MUL OR SWAP1 SSTORE POP POP JUMP JUMPDEST PUSH2 0x1119 PUSH2 0x145A JUMP JUMPDEST PUSH0 PUSH20 0xFFFFFFFFFFFFFFFFFFFFFFFFFFFFFFFFFFFFFFFF AND DUP2 PUSH20 0xFFFFFFFFFFFFFFFFFFFFFFFFFFFFFFFFFFFFFFFF AND SUB PUSH2 0x1189 JUMPI PUSH0 PUSH1 0x40 MLOAD PUSH32 0x1E4FBDF700000000000000000000000000000000000000000000000000000000 DUP2 MSTORE PUSH1 0x4 ADD PUSH2 0x1180 SWAP2 SWAP1 PUSH2 0x1D5C JUMP JUMPDEST PUSH1 0x40 MLOAD DUP1 SWAP2 SUB SWAP1 REVERT JUMPDEST PUSH2 0x1192 DUP2 PUSH2 0x14E1 JUMP JUMPDEST POP JUMP JUMPDEST PUSH0 PUSH20 0xFFFFFFFFFFFFFFFFFFFFFFFFFFFFFFFFFFFFFFFF AND DUP4 PUSH20 0xFFFFFFFFFFFFFFFFFFFFFFFFFFFFFFFFFFFFFFFF AND SUB PUSH2 0x11E5 JUMPI DUP1 PUSH1 0x2 PUSH0 DUP3 DUP3 SLOAD PUSH2 0x11D9 SWAP2 SWAP1 PUSH2 0x22F0 JUMP JUMPDEST SWAP3 POP POP DUP2 SWAP1 SSTORE POP PUSH2 0x12B3 JUMP JUMPDEST PUSH0 DUP1 PUSH0 DUP6 PUSH20 0xFFFFFFFFFFFFFFFFFFFFFFFFFFFFFFFFFFFFFFFF AND PUSH20 0xFFFFFFFFFFFFFFFFFFFFFFFFFFFFFFFFFFFFFFFF AND DUP2 MSTORE PUSH1 0x20 ADD SWAP1 DUP2 MSTORE PUSH1 0x20 ADD PUSH0 KECCAK256 SLOAD SWAP1 POP DUP2 DUP2 LT ISZERO PUSH2 0x126E JUMPI DUP4 DUP2 DUP4 PUSH1 0x40 MLOAD PUSH32 0xE450D38C00000000000000000000000000000000000000000000000000000000 DUP2 MSTORE PUSH1 0x4 ADD PUSH2 0x1265 SWAP4 SWAP3 SWAP2 SWAP1 PUSH2 0x2323 JUMP JUMPDEST PUSH1 0x40 MLOAD DUP1 SWAP2 SUB SWAP1 REVERT JUMPDEST DUP2 DUP2 SUB PUSH0 DUP1 DUP7 PUSH20 0xFFFFFFFFFFFFFFFFFFFFFFFFFFFFFFFFFFFFFFFF AND PUSH20 0xFFFFFFFFFFFFFFFFFFFFFFFFFFFFFFFFFFFFFFFF AND DUP2 MSTORE PUSH1 0x20 ADD SWAP1 DUP2 MSTORE PUSH1 0x20 ADD PUSH0 KECCAK256 DUP2 SWAP1 SSTORE POP POP JUMPDEST PUSH0 PUSH20 0xFFFFFFFFFFFFFFFFFFFFFFFFFFFFFFFFFFFFFFFF AND DUP3 PUSH20 0xFFFFFFFFFFFFFFFFFFFFFFFFFFFFFFFFFFFFFFFF AND SUB PUSH2 0x12FA JUMPI DUP1 PUSH1 0x2 PUSH0 DUP3 DUP3 SLOAD SUB SWAP3 POP POP DUP2 SWAP1 SSTORE POP PUSH2 0x1344 JUMP JUMPDEST DUP1 PUSH0 DUP1 DUP5 PUSH20 0xFFFFFFFFFFFFFFFFFFFFFFFFFFFFFFFFFFFFFFFF AND PUSH20 0xFFFFFFFFFFFFFFFFFFFFFFFFFFFFFFFFFFFFFFFF AND DUP2 MSTORE PUSH1 0x20 ADD SWAP1 DUP2 MSTORE PUSH1 0x20 ADD PUSH0 KECCAK256 PUSH0 DUP3 DUP3 SLOAD ADD SWAP3 POP POP DUP2 SWAP1 SSTORE POP JUMPDEST DUP2 PUSH20 0xFFFFFFFFFFFFFFFFFFFFFFFFFFFFFFFFFFFFFFFF AND DUP4 PUSH20 0xFFFFFFFFFFFFFFFFFFFFFFFFFFFFFFFFFFFFFFFF AND PUSH32 0xDDF252AD1BE2C89B69C2B068FC378DAA952BA7F163C4A11628F55A4DF523B3EF DUP4 PUSH1 0x40 MLOAD PUSH2 0x13A1 SWAP2 SWAP1 PUSH2 0x1A60 JUMP JUMPDEST PUSH1 0x40 MLOAD DUP1 SWAP2 SUB SWAP1 LOG3 POP POP POP JUMP JUMPDEST PUSH0 CALLER SWAP1 POP SWAP1 JUMP JUMPDEST PUSH2 0x13C2 DUP4 DUP4 DUP4 PUSH1 0x1 PUSH2 0x15A4 JUMP JUMPDEST POP POP POP JUMP JUMPDEST PUSH0 PUSH2 0x13D2 DUP5 DUP5 PUSH2 0xFBB JUMP JUMPDEST SWAP1 POP PUSH32 0xFFFFFFFFFFFFFFFFFFFFFFFFFFFFFFFFFFFFFFFFFFFFFFFFFFFFFFFFFFFFFFFF DUP2 LT ISZERO PUSH2 0x1454 JUMPI DUP2 DUP2 LT ISZERO PUSH2 0x1445 JUMPI DUP3 DUP2 DUP4 PUSH1 0x40 MLOAD PUSH32 0xFB8F41B200000000000000000000000000000000000000000000000000000000 DUP2 MSTORE PUSH1 0x4 ADD PUSH2 0x143C SWAP4 SWAP3 SWAP2 SWAP1 PUSH2 0x2323 JUMP JUMPDEST PUSH1 0x40 MLOAD DUP1 SWAP2 SUB SWAP1 REVERT JUMPDEST PUSH2 0x1453 DUP5 DUP5 DUP5 DUP5 SUB PUSH0 PUSH2 0x15A4 JUMP JUMPDEST JUMPDEST POP POP POP POP JUMP JUMPDEST PUSH2 0x1462 PUSH2 0x13AE JUMP JUMPDEST PUSH20 0xFFFFFFFFFFFFFFFFFFFFFFFFFFFFFFFFFFFFFFFF AND PUSH2 0x1480 PUSH2 0x607 JUMP JUMPDEST PUSH20 0xFFFFFFFFFFFFFFFFFFFFFFFFFFFFFFFFFFFFFFFF AND EQ PUSH2 0x14DF JUMPI PUSH2 0x14A3 PUSH2 0x13AE JUMP JUMPDEST PUSH1 0x40 MLOAD PUSH32 0x118CDAA700000000000000000000000000000000000000000000000000000000 DUP2 MSTORE PUSH1 0x4 ADD PUSH2 0x14D6 SWAP2 SWAP1 PUSH2 0x1D5C JUMP JUMPDEST PUSH1 0x40 MLOAD DUP1 SWAP2 SUB SWAP1 REVERT JUMPDEST JUMP JUMPDEST PUSH0 PUSH1 0x5 PUSH0 SWAP1 SLOAD SWAP1 PUSH2 0x100 EXP SWAP1 DIV PUSH20 0xFFFFFFFFFFFFFFFFFFFFFFFFFFFFFFFFFFFFFFFF AND SWAP1 POP DUP2 PUSH1 0x5 PUSH0 PUSH2 0x100 EXP DUP2 SLOAD DUP2 PUSH20 0xFFFFFFFFFFFFFFFFFFFFFFFFFFFFFFFFFFFFFFFF MUL NOT AND SWAP1 DUP4 PUSH20 0xFFFFFFFFFFFFFFFFFFFFFFFFFFFFFFFFFFFFFFFF AND MUL OR SWAP1 SSTORE POP DUP2 PUSH20 0xFFFFFFFFFFFFFFFFFFFFFFFFFFFFFFFFFFFFFFFF AND DUP2 PUSH20 0xFFFFFFFFFFFFFFFFFFFFFFFFFFFFFFFFFFFFFFFF AND PUSH32 0x8BE0079C531659141344CD1FD0A4F28419497F9722A3DAAFE3B4186F6B6457E0 PUSH1 0x40 MLOAD PUSH1 0x40 MLOAD DUP1 SWAP2 SUB SWAP1 LOG3 POP POP JUMP JUMPDEST PUSH0 PUSH20 0xFFFFFFFFFFFFFFFFFFFFFFFFFFFFFFFFFFFFFFFF AND DUP5 PUSH20 0xFFFFFFFFFFFFFFFFFFFFFFFFFFFFFFFFFFFFFFFF AND SUB PUSH2 0x1614 JUMPI PUSH0 PUSH1 0x40 MLOAD PUSH32 0xE602DF0500000000000000000000000000000000000000000000000000000000 DUP2 MSTORE PUSH1 0x4 ADD PUSH2 0x160B SWAP2 SWAP1 PUSH2 0x1D5C JUMP JUMPDEST PUSH1 0x40 MLOAD DUP1 SWAP2 SUB SWAP1 REVERT JUMPDEST PUSH0 PUSH20 0xFFFFFFFFFFFFFFFFFFFFFFFFFFFFFFFFFFFFFFFF AND DUP4 PUSH20 0xFFFFFFFFFFFFFFFFFFFFFFFFFFFFFFFFFFFFFFFF AND SUB PUSH2 0x1684 JUMPI PUSH0 PUSH1 0x40 MLOAD PUSH32 0x94280D6200000000000000000000000000000000000000000000000000000000 DUP2 MSTORE PUSH1 0x4 ADD PUSH2 0x167B SWAP2 SWAP1 PUSH2 0x1D5C JUMP JUMPDEST PUSH1 0x40 MLOAD DUP1 SWAP2 SUB SWAP1 REVERT JUMPDEST DUP2 PUSH1 0x1 PUSH0 DUP7 PUSH20 0xFFFFFFFFFFFFFFFFFFFFFFFFFFFFFFFFFFFFFFFF AND PUSH20 0xFFFFFFFFFFFFFFFFFFFFFFFFFFFFFFFFFFFFFFFF AND DUP2 MSTORE PUSH1 0x20 ADD SWAP1 DUP2 MSTORE PUSH1 0x20 ADD PUSH0 KECCAK256 PUSH0 DUP6 PUSH20 0xFFFFFFFFFFFFFFFFFFFFFFFFFFFFFFFFFFFFFFFF AND PUSH20 0xFFFFFFFFFFFFFFFFFFFFFFFFFFFFFFFFFFFFFFFF AND DUP2 MSTORE PUSH1 0x20 ADD SWAP1 DUP2 MSTORE PUSH1 0x20 ADD PUSH0 KECCAK256 DUP2 SWAP1 SSTORE POP DUP1 ISZERO PUSH2 0x176D JUMPI DUP3 PUSH20 0xFFFFFFFFFFFFFFFFFFFFFFFFFFFFFFFFFFFFFFFF AND DUP5 PUSH20 0xFFFFFFFFFFFFFFFFFFFFFFFFFFFFFFFFFFFFFFFF AND PUSH32 0x8C5BE1E5EBEC7D5BD14F71427D1E84F3DD0314C0F7B2291E5B200AC8C7C3B925 DUP5 PUSH1 0x40 MLOAD PUSH2 0x1764 SWAP2 SWAP1 PUSH2 0x1A60 JUMP JUMPDEST PUSH1 0x40 MLOAD DUP1 SWAP2 SUB SWAP1 LOG3 JUMPDEST POP POP POP POP JUMP JUMPDEST PUSH0 DUP2 SWAP1 POP SWAP2 SWAP1 POP JUMP JUMPDEST PUSH32 0x4E487B7100000000000000000000000000000000000000000000000000000000 PUSH0 MSTORE PUSH1 0x12 PUSH1 0x4 MSTORE PUSH1 0x24 PUSH0 REVERT JUMPDEST PUSH32 0x4E487B7100000000000000000000000000000000000000000000000000000000 PUSH0 MSTORE PUSH1 0x11 PUSH1 0x4 MSTORE PUSH1 0x24 PUSH0 REVERT JUMPDEST PUSH0 PUSH2 0x17E0 DUP3 PUSH2 0x1773 JUMP JUMPDEST SWAP2 POP PUSH2 0x17EB DUP4 PUSH2 0x1773 JUMP JUMPDEST SWAP3 POP DUP3 PUSH2 0x17FB JUMPI PUSH2 0x17FA PUSH2 0x177C JUMP JUMPDEST JUMPDEST DUP3 DUP3 DIV SWAP1 POP SWAP3 SWAP2 POP POP JUMP JUMPDEST PUSH0 PUSH2 0x1810 DUP3 PUSH2 0x1773 JUMP JUMPDEST SWAP2 POP PUSH2 0x181B DUP4 PUSH2 0x1773 JUMP JUMPDEST SWAP3 POP DUP3 DUP3 MUL PUSH2 0x1829 DUP2 PUSH2 0x1773 JUMP JUMPDEST SWAP2 POP DUP3 DUP3 DIV DUP5 EQ DUP4 ISZERO OR PUSH2 0x1840 JUMPI PUSH2 0x183F PUSH2 0x17A9 JUMP JUMPDEST JUMPDEST POP SWAP3 SWAP2 POP POP JUMP JUMPDEST PUSH0 DUP2 SWAP1 POP SWAP3 SWAP2 POP POP JUMP JUMPDEST POP JUMP JUMPDEST PUSH0 PUSH2 0x185F PUSH0 DUP4 PUSH2 0x1847 JUMP JUMPDEST SWAP2 POP PUSH2 0x186A DUP3 PUSH2 0x1851 JUMP JUMPDEST PUSH0 DUP3 ADD SWAP1 POP SWAP2 SWAP1 POP JUMP JUMPDEST PUSH0 PUSH2 0x187E DUP3 PUSH2 0x1854 JUMP JUMPDEST SWAP2 POP DUP2 SWAP1 POP SWAP2 SWAP1 POP JUMP JUMPDEST PUSH0 PUSH2 0x1892 DUP3 PUSH2 0x1773 JUMP JUMPDEST SWAP2 POP PUSH2 0x189D DUP4 PUSH2 0x1773 JUMP JUMPDEST SWAP3 POP DUP3 DUP3 SUB SWAP1 POP DUP2 DUP2 GT ISZERO PUSH2 0x18B5 JUMPI PUSH2 0x18B4 PUSH2 0x17A9 JUMP JUMPDEST JUMPDEST SWAP3 SWAP2 POP POP JUMP JUMPDEST PUSH0 DUP2 MLOAD SWAP1 POP SWAP2 SWAP1 POP JUMP JUMPDEST PUSH0 DUP3 DUP3 MSTORE PUSH1 0x20 DUP3 ADD SWAP1 POP SWAP3 SWAP2 POP POP JUMP JUMPDEST DUP3 DUP2 DUP4 MCOPY PUSH0 DUP4 DUP4 ADD MSTORE POP POP POP JUMP JUMPDEST PUSH0 PUSH1 0x1F NOT PUSH1 0x1F DUP4 ADD AND SWAP1 POP SWAP2 SWAP1 POP JUMP JUMPDEST PUSH0 PUSH2 0x18FD DUP3 PUSH2 0x18BB JUMP JUMPDEST PUSH2 0x1907 DUP2 DUP6 PUSH2 0x18C5 JUMP JUMPDEST SWAP4 POP PUSH2 0x1917 DUP2 DUP6 PUSH1 0x20 DUP7 ADD PUSH2 0x18D5 JUMP JUMPDEST PUSH2 0x1920 DUP2 PUSH2 0x18E3 JUMP JUMPDEST DUP5 ADD SWAP2 POP POP SWAP3 SWAP2 POP POP JUMP JUMPDEST PUSH0 PUSH1 0x20 DUP3 ADD SWAP1 POP DUP2 DUP2 SUB PUSH0 DUP4 ADD MSTORE PUSH2 0x1943 DUP2 DUP5 PUSH2 0x18F3 JUMP JUMPDEST SWAP1 POP SWAP3 SWAP2 POP POP JUMP JUMPDEST PUSH0 PUSH1 0x40 MLOAD SWAP1 POP SWAP1 JUMP JUMPDEST PUSH0 DUP1 REVERT JUMPDEST PUSH0 DUP1 REVERT JUMPDEST PUSH0 PUSH20 0xFFFFFFFFFFFFFFFFFFFFFFFFFFFFFFFFFFFFFFFF DUP3 AND SWAP1 POP SWAP2 SWAP1 POP JUMP JUMPDEST PUSH0 PUSH2 0x1985 DUP3 PUSH2 0x195C JUMP JUMPDEST SWAP1 POP SWAP2 SWAP1 POP JUMP JUMPDEST PUSH2 0x1995 DUP2 PUSH2 0x197B JUMP JUMPDEST DUP2 EQ PUSH2 0x199F JUMPI PUSH0 DUP1 REVERT JUMPDEST POP JUMP JUMPDEST PUSH0 DUP2 CALLDATALOAD SWAP1 POP PUSH2 0x19B0 DUP2 PUSH2 0x198C JUMP JUMPDEST SWAP3 SWAP2 POP POP JUMP JUMPDEST PUSH2 0x19BF DUP2 PUSH2 0x1773 JUMP JUMPDEST DUP2 EQ PUSH2 0x19C9 JUMPI PUSH0 DUP1 REVERT JUMPDEST POP JUMP JUMPDEST PUSH0 DUP2 CALLDATALOAD SWAP1 POP PUSH2 0x19DA DUP2 PUSH2 0x19B6 JUMP JUMPDEST SWAP3 SWAP2 POP POP JUMP JUMPDEST PUSH0 DUP1 PUSH1 0x40 DUP4 DUP6 SUB SLT ISZERO PUSH2 0x19F6 JUMPI PUSH2 0x19F5 PUSH2 0x1954 JUMP JUMPDEST JUMPDEST PUSH0 PUSH2 0x1A03 DUP6 DUP3 DUP7 ADD PUSH2 0x19A2 JUMP JUMPDEST SWAP3 POP POP PUSH1 0x20 PUSH2 0x1A14 DUP6 DUP3 DUP7 ADD PUSH2 0x19CC JUMP JUMPDEST SWAP2 POP POP SWAP3 POP SWAP3 SWAP1 POP JUMP JUMPDEST PUSH0 DUP2 ISZERO ISZERO SWAP1 POP SWAP2 SWAP1 POP JUMP JUMPDEST PUSH2 0x1A32 DUP2 PUSH2 0x1A1E JUMP JUMPDEST DUP3 MSTORE POP POP JUMP JUMPDEST PUSH0 PUSH1 0x20 DUP3 ADD SWAP1 POP PUSH2 0x1A4B PUSH0 DUP4 ADD DUP5 PUSH2 0x1A29 JUMP JUMPDEST SWAP3 SWAP2 POP POP JUMP JUMPDEST PUSH2 0x1A5A DUP2 PUSH2 0x1773 JUMP JUMPDEST DUP3 MSTORE POP POP JUMP JUMPDEST PUSH0 PUSH1 0x20 DUP3 ADD SWAP1 POP PUSH2 0x1A73 PUSH0 DUP4 ADD DUP5 PUSH2 0x1A51 JUMP JUMPDEST SWAP3 SWAP2 POP POP JUMP JUMPDEST PUSH0 DUP1 PUSH0 PUSH1 0x60 DUP5 DUP7 SUB SLT ISZERO PUSH2 0x1A90 JUMPI PUSH2 0x1A8F PUSH2 0x1954 JUMP JUMPDEST JUMPDEST PUSH0 PUSH2 0x1A9D DUP7 DUP3 DUP8 ADD PUSH2 0x19A2 JUMP JUMPDEST SWAP4 POP POP PUSH1 0x20 PUSH2 0x1AAE DUP7 DUP3 DUP8 ADD PUSH2 0x19A2 JUMP JUMPDEST SWAP3 POP POP PUSH1 0x40 PUSH2 0x1ABF DUP7 DUP3 DUP8 ADD PUSH2 0x19CC JUMP JUMPDEST SWAP2 POP POP SWAP3 POP SWAP3 POP SWAP3 JUMP JUMPDEST PUSH0 PUSH1 0xFF DUP3 AND SWAP1 POP SWAP2 SWAP1 POP JUMP JUMPDEST PUSH2 0x1ADE DUP2 PUSH2 0x1AC9 JUMP JUMPDEST DUP3 MSTORE POP POP JUMP JUMPDEST PUSH0 PUSH1 0x20 DUP3 ADD SWAP1 POP PUSH2 0x1AF7 PUSH0 DUP4 ADD DUP5 PUSH2 0x1AD5 JUMP JUMPDEST SWAP3 SWAP2 POP POP JUMP JUMPDEST PUSH0 DUP1 REVERT JUMPDEST PUSH0 DUP1 REVERT JUMPDEST PUSH32 0x4E487B7100000000000000000000000000000000000000000000000000000000 PUSH0 MSTORE PUSH1 0x41 PUSH1 0x4 MSTORE PUSH1 0x24 PUSH0 REVERT JUMPDEST PUSH2 0x1B3B DUP3 PUSH2 0x18E3 JUMP JUMPDEST DUP2 ADD DUP2 DUP2 LT PUSH8 0xFFFFFFFFFFFFFFFF DUP3 GT OR ISZERO PUSH2 0x1B5A JUMPI PUSH2 0x1B59 PUSH2 0x1B05 JUMP JUMPDEST JUMPDEST DUP1 PUSH1 0x40 MSTORE POP POP POP JUMP JUMPDEST PUSH0 PUSH2 0x1B6C PUSH2 0x194B JUMP JUMPDEST SWAP1 POP PUSH2 0x1B78 DUP3 DUP3 PUSH2 0x1B32 JUMP JUMPDEST SWAP2 SWAP1 POP JUMP JUMPDEST PUSH0 PUSH8 0xFFFFFFFFFFFFFFFF DUP3 GT ISZERO PUSH2 0x1B97 JUMPI PUSH2 0x1B96 PUSH2 0x1B05 JUMP JUMPDEST JUMPDEST PUSH2 0x1BA0 DUP3 PUSH2 0x18E3 JUMP JUMPDEST SWAP1 POP PUSH1 0x20 DUP2 ADD SWAP1 POP SWAP2 SWAP1 POP JUMP JUMPDEST DUP3 DUP2 DUP4 CALLDATACOPY PUSH0 DUP4 DUP4 ADD MSTORE POP POP POP JUMP JUMPDEST PUSH0 PUSH2 0x1BCD PUSH2 0x1BC8 DUP5 PUSH2 0x1B7D JUMP JUMPDEST PUSH2 0x1B63 JUMP JUMPDEST SWAP1 POP DUP3 DUP2 MSTORE PUSH1 0x20 DUP2 ADD DUP5 DUP5 DUP5 ADD GT ISZERO PUSH2 0x1BE9 JUMPI PUSH2 0x1BE8 PUSH2 0x1B01 JUMP JUMPDEST JUMPDEST PUSH2 0x1BF4 DUP5 DUP3 DUP6 PUSH2 0x1BAD JUMP JUMPDEST POP SWAP4 SWAP3 POP POP POP JUMP JUMPDEST PUSH0 DUP3 PUSH1 0x1F DUP4 ADD SLT PUSH2 0x1C10 JUMPI PUSH2 0x1C0F PUSH2 0x1AFD JUMP JUMPDEST JUMPDEST DUP2 CALLDATALOAD PUSH2 0x1C20 DUP5 DUP3 PUSH1 0x20 DUP7 ADD PUSH2 0x1BBB JUMP JUMPDEST SWAP2 POP POP SWAP3 SWAP2 POP POP JUMP JUMPDEST PUSH0 DUP1 PUSH1 0x40 DUP4 DUP6 SUB SLT ISZERO PUSH2 0x1C3F JUMPI PUSH2 0x1C3E PUSH2 0x1954 JUMP JUMPDEST JUMPDEST PUSH0 DUP4 ADD CALLDATALOAD PUSH8 0xFFFFFFFFFFFFFFFF DUP2 GT ISZERO PUSH2 0x1C5C JUMPI PUSH2 0x1C5B PUSH2 0x1958 JUMP JUMPDEST JUMPDEST PUSH2 0x1C68 DUP6 DUP3 DUP7 ADD PUSH2 0x1BFC JUMP JUMPDEST SWAP3 POP POP PUSH1 0x20 DUP4 ADD CALLDATALOAD PUSH8 0xFFFFFFFFFFFFFFFF DUP2 GT ISZERO PUSH2 0x1C89 JUMPI PUSH2 0x1C88 PUSH2 0x1958 JUMP JUMPDEST JUMPDEST PUSH2 0x1C95 DUP6 DUP3 DUP7 ADD PUSH2 0x1BFC JUMP JUMPDEST SWAP2 POP POP SWAP3 POP SWAP3 SWAP1 POP JUMP JUMPDEST PUSH0 PUSH1 0x20 DUP3 DUP5 SUB SLT ISZERO PUSH2 0x1CB4 JUMPI PUSH2 0x1CB3 PUSH2 0x1954 JUMP JUMPDEST JUMPDEST PUSH0 PUSH2 0x1CC1 DUP5 DUP3 DUP6 ADD PUSH2 0x19A2 JUMP JUMPDEST SWAP2 POP POP SWAP3 SWAP2 POP POP JUMP JUMPDEST PUSH0 PUSH1 0x20 DUP3 DUP5 SUB SLT ISZERO PUSH2 0x1CDF JUMPI PUSH2 0x1CDE PUSH2 0x1954 JUMP JUMPDEST JUMPDEST PUSH0 DUP3 ADD CALLDATALOAD PUSH8 0xFFFFFFFFFFFFFFFF DUP2 GT ISZERO PUSH2 0x1CFC JUMPI PUSH2 0x1CFB PUSH2 0x1958 JUMP JUMPDEST JUMPDEST PUSH2 0x1D08 DUP5 DUP3 DUP6 ADD PUSH2 0x1BFC JUMP JUMPDEST SWAP2 POP POP SWAP3 SWAP2 POP POP JUMP JUMPDEST PUSH0 PUSH1 0x60 DUP3 ADD SWAP1 POP DUP2 DUP2 SUB PUSH0 DUP4 ADD MSTORE PUSH2 0x1D29 DUP2 DUP7 PUSH2 0x18F3 JUMP JUMPDEST SWAP1 POP PUSH2 0x1D38 PUSH1 0x20 DUP4 ADD DUP6 PUSH2 0x1A51 JUMP JUMPDEST PUSH2 0x1D45 PUSH1 0x40 DUP4 ADD DUP5 PUSH2 0x1A51 JUMP JUMPDEST SWAP5 SWAP4 POP POP POP POP JUMP JUMPDEST PUSH2 0x1D56 DUP2 PUSH2 0x197B JUMP JUMPDEST DUP3 MSTORE POP POP JUMP JUMPDEST PUSH0 PUSH1 0x20 DUP3 ADD SWAP1 POP PUSH2 0x1D6F PUSH0 DUP4 ADD DUP5 PUSH2 0x1D4D JUMP JUMPDEST SWAP3 SWAP2 POP POP JUMP JUMPDEST PUSH0 DUP1 PUSH1 0x40 DUP4 DUP6 SUB SLT ISZERO PUSH2 0x1D8B JUMPI PUSH2 0x1D8A PUSH2 0x1954 JUMP JUMPDEST JUMPDEST PUSH0 PUSH2 0x1D98 DUP6 DUP3 DUP7 ADD PUSH2 0x19A2 JUMP JUMPDEST SWAP3 POP POP PUSH1 0x20 PUSH2 0x1DA9 DUP6 DUP3 DUP7 ADD PUSH2 0x19A2 JUMP JUMPDEST SWAP2 POP POP SWAP3 POP SWAP3 SWAP1 POP JUMP JUMPDEST PUSH32 0x4E487B7100000000000000000000000000000000000000000000000000000000 PUSH0 MSTORE PUSH1 0x22 PUSH1 0x4 MSTORE PUSH1 0x24 PUSH0 REVERT JUMPDEST PUSH0 PUSH1 0x2 DUP3 DIV SWAP1 POP PUSH1 0x1 DUP3 AND DUP1 PUSH2 0x1DF7 JUMPI PUSH1 0x7F DUP3 AND SWAP2 POP JUMPDEST PUSH1 0x20 DUP3 LT DUP2 SUB PUSH2 0x1E0A JUMPI PUSH2 0x1E09 PUSH2 0x1DB3 JUMP JUMPDEST JUMPDEST POP SWAP2 SWAP1 POP JUMP JUMPDEST PUSH0 DUP2 SWAP1 POP SWAP3 SWAP2 POP POP JUMP JUMPDEST PUSH0 PUSH2 0x1E24 DUP3 PUSH2 0x18BB JUMP JUMPDEST PUSH2 0x1E2E DUP2 DUP6 PUSH2 0x1E10 JUMP JUMPDEST SWAP4 POP PUSH2 0x1E3E DUP2 DUP6 PUSH1 0x20 DUP7 ADD PUSH2 0x18D5 JUMP JUMPDEST DUP1 DUP5 ADD SWAP2 POP POP SWAP3 SWAP2 POP POP JUMP JUMPDEST PUSH0 PUSH2 0x1E55 DUP3 DUP5 PUSH2 0x1E1A JUMP JUMPDEST SWAP2 POP DUP2 SWAP1 POP SWAP3 SWAP2 POP POP JUMP JUMPDEST PUSH32 0x4E6F2073756368207465727269746F7279000000000000000000000000000000 PUSH0 DUP3 ADD MSTORE POP JUMP JUMPDEST PUSH0 PUSH2 0x1E94 PUSH1 0x11 DUP4 PUSH2 0x18C5 JUMP JUMPDEST SWAP2 POP PUSH2 0x1E9F DUP3 PUSH2 0x1E60 JUMP JUMPDEST PUSH1 0x20 DUP3 ADD SWAP1 POP SWAP2 SWAP1 POP JUMP JUMPDEST PUSH0 PUSH1 0x20 DUP3 ADD SWAP1 POP DUP2 DUP2 SUB PUSH0 DUP4 ADD MSTORE PUSH2 0x1EC1 DUP2 PUSH2 0x1E88 JUMP JUMPDEST SWAP1 POP SWAP2 SWAP1 POP JUMP JUMPDEST PUSH32 0x486F72646520646F65736E2774206861766520656E6F75676820706F77657200 PUSH0 DUP3 ADD MSTORE POP JUMP JUMPDEST PUSH0 PUSH2 0x1EFC PUSH1 0x1F DUP4 PUSH2 0x18C5 JUMP JUMPDEST SWAP2 POP PUSH2 0x1F07 DUP3 PUSH2 0x1EC8 JUMP JUMPDEST PUSH1 0x20 DUP3 ADD SWAP1 POP SWAP2 SWAP1 POP JUMP JUMPDEST PUSH0 PUSH1 0x20 DUP3 ADD SWAP1 POP DUP2 DUP2 SUB PUSH0 DUP4 ADD MSTORE PUSH2 0x1F29 DUP2 PUSH2 0x1EF0 JUMP JUMPDEST SWAP1 POP SWAP2 SWAP1 POP JUMP JUMPDEST PUSH32 0x4E487B7100000000000000000000000000000000000000000000000000000000 PUSH0 MSTORE PUSH1 0x32 PUSH1 0x4 MSTORE PUSH1 0x24 PUSH0 REVERT JUMPDEST PUSH32 0x4E487B7100000000000000000000000000000000000000000000000000000000 PUSH0 MSTORE PUSH1 0x21 PUSH1 0x4 MSTORE PUSH1 0x24 PUSH0 REVERT JUMPDEST PUSH0 DUP2 SLOAD SWAP1 POP PUSH2 0x1F98 DUP2 PUSH2 0x1DE0 JUMP JUMPDEST SWAP1 POP SWAP2 SWAP1 POP JUMP JUMPDEST PUSH0 DUP2 SWAP1 POP DUP2 PUSH0 MSTORE PUSH1 0x20 PUSH0 KECCAK256 SWAP1 POP SWAP2 SWAP1 POP JUMP JUMPDEST PUSH0 PUSH1 0x20 PUSH1 0x1F DUP4 ADD DIV SWAP1 POP SWAP2 SWAP1 POP JUMP JUMPDEST PUSH0 DUP3 DUP3 SHL SWAP1 POP SWAP3 SWAP2 POP POP JUMP JUMPDEST PUSH0 PUSH1 0x8 DUP4 MUL PUSH2 0x1FFB PUSH32 0xFFFFFFFFFFFFFFFFFFFFFFFFFFFFFFFFFFFFFFFFFFFFFFFFFFFFFFFFFFFFFFFF DUP3 PUSH2 0x1FC0 JUMP JUMPDEST PUSH2 0x2005 DUP7 DUP4 PUSH2 0x1FC0 JUMP JUMPDEST SWAP6 POP DUP1 NOT DUP5 AND SWAP4 POP DUP1 DUP7 AND DUP5 OR SWAP3 POP POP POP SWAP4 SWAP3 POP POP POP JUMP JUMPDEST PUSH0 DUP2 SWAP1 POP SWAP2 SWAP1 POP JUMP JUMPDEST PUSH0 PUSH2 0x2040 PUSH2 0x203B PUSH2 0x2036 DUP5 PUSH2 0x1773 JUMP JUMPDEST PUSH2 0x201D JUMP JUMPDEST PUSH2 0x1773 JUMP JUMPDEST SWAP1 POP SWAP2 SWAP1 POP JUMP JUMPDEST PUSH0 DUP2 SWAP1 POP SWAP2 SWAP1 POP JUMP JUMPDEST PUSH2 0x2059 DUP4 PUSH2 0x2026 JUMP JUMPDEST PUSH2 0x206D PUSH2 0x2065 DUP3 PUSH2 0x2047 JUMP JUMPDEST DUP5 DUP5 SLOAD PUSH2 0x1FCC JUMP JUMPDEST DUP3 SSTORE POP POP POP POP JUMP JUMPDEST PUSH0 SWAP1 JUMP JUMPDEST PUSH2 0x2081 PUSH2 0x2075 JUMP JUMPDEST PUSH2 0x208C DUP2 DUP5 DUP5 PUSH2 0x2050 JUMP JUMPDEST POP POP POP JUMP JUMPDEST JUMPDEST DUP2 DUP2 LT ISZERO PUSH2 0x20AF JUMPI PUSH2 0x20A4 PUSH0 DUP3 PUSH2 0x2079 JUMP JUMPDEST PUSH1 0x1 DUP2 ADD SWAP1 POP PUSH2 0x2092 JUMP JUMPDEST POP POP JUMP JUMPDEST PUSH1 0x1F DUP3 GT ISZERO PUSH2 0x20F4 JUMPI PUSH2 0x20C5 DUP2 PUSH2 0x1F9F JUMP JUMPDEST PUSH2 0x20CE DUP5 PUSH2 0x1FB1 JUMP JUMPDEST DUP2 ADD PUSH1 0x20 DUP6 LT ISZERO PUSH2 0x20DD JUMPI DUP2 SWAP1 POP JUMPDEST PUSH2 0x20F1 PUSH2 0x20E9 DUP6 PUSH2 0x1FB1 JUMP JUMPDEST DUP4 ADD DUP3 PUSH2 0x2091 JUMP JUMPDEST POP POP JUMPDEST POP POP POP JUMP JUMPDEST PUSH0 DUP3 DUP3 SHR SWAP1 POP SWAP3 SWAP2 POP POP JUMP JUMPDEST PUSH0 PUSH2 0x2114 PUSH0 NOT DUP5 PUSH1 0x8 MUL PUSH2 0x20F9 JUMP JUMPDEST NOT DUP1 DUP4 AND SWAP2 POP POP SWAP3 SWAP2 POP POP JUMP JUMPDEST PUSH0 PUSH2 0x212C DUP4 DUP4 PUSH2 0x2105 JUMP JUMPDEST SWAP2 POP DUP3 PUSH1 0x2 MUL DUP3 OR SWAP1 POP SWAP3 SWAP2 POP POP JUMP JUMPDEST DUP2 DUP2 SUB PUSH2 0x214A JUMPI POP POP PUSH2 0x221F JUMP JUMPDEST PUSH2 0x2153 DUP3 PUSH2 0x1F8A JUMP JUMPDEST PUSH8 0xFFFFFFFFFFFFFFFF DUP2 GT ISZERO PUSH2 0x216C JUMPI PUSH2 0x216B PUSH2 0x1B05 JUMP JUMPDEST JUMPDEST PUSH2 0x2176 DUP3 SLOAD PUSH2 0x1DE0 JUMP JUMPDEST PUSH2 0x2181 DUP3 DUP3 DUP6 PUSH2 0x20B3 JUMP JUMPDEST PUSH0 PUSH1 0x1F DUP4 GT PUSH1 0x1 DUP2 EQ PUSH2 0x21AE JUMPI PUSH0 DUP5 ISZERO PUSH2 0x219C JUMPI DUP3 DUP8 ADD SLOAD SWAP1 POP JUMPDEST PUSH2 0x21A6 DUP6 DUP3 PUSH2 0x2121 JUMP JUMPDEST DUP7 SSTORE POP PUSH2 0x2218 JUMP JUMPDEST PUSH1 0x1F NOT DUP5 AND PUSH2 0x21BC DUP8 PUSH2 0x1F9F JUMP JUMPDEST SWAP7 POP PUSH2 0x21C7 DUP7 PUSH2 0x1F9F JUMP JUMPDEST PUSH0 JUMPDEST DUP3 DUP2 LT ISZERO PUSH2 0x21EE JUMPI DUP5 DUP10 ADD SLOAD DUP3 SSTORE PUSH1 0x1 DUP3 ADD SWAP2 POP PUSH1 0x1 DUP6 ADD SWAP5 POP PUSH1 0x20 DUP2 ADD SWAP1 POP PUSH2 0x21C9 JUMP JUMPDEST DUP7 DUP4 LT ISZERO PUSH2 0x220B JUMPI DUP5 DUP10 ADD SLOAD PUSH2 0x2207 PUSH1 0x1F DUP10 AND DUP3 PUSH2 0x2105 JUMP JUMPDEST DUP4 SSTORE POP JUMPDEST PUSH1 0x1 PUSH1 0x2 DUP9 MUL ADD DUP9 SSTORE POP POP POP JUMPDEST POP POP POP POP POP POP JUMPDEST JUMP JUMPDEST PUSH2 0x222A DUP3 PUSH2 0x18BB JUMP JUMPDEST PUSH8 0xFFFFFFFFFFFFFFFF DUP2 GT ISZERO PUSH2 0x2243 JUMPI PUSH2 0x2242 PUSH2 0x1B05 JUMP JUMPDEST JUMPDEST PUSH2 0x224D DUP3 SLOAD PUSH2 0x1DE0 JUMP JUMPDEST PUSH2 0x2258 DUP3 DUP3 DUP6 PUSH2 0x20B3 JUMP JUMPDEST PUSH0 PUSH1 0x20 SWAP1 POP PUSH1 0x1F DUP4 GT PUSH1 0x1 DUP2 EQ PUSH2 0x2289 JUMPI PUSH0 DUP5 ISZERO PUSH2 0x2277 JUMPI DUP3 DUP8 ADD MLOAD SWAP1 POP JUMPDEST PUSH2 0x2281 DUP6 DUP3 PUSH2 0x2121 JUMP JUMPDEST DUP7 SSTORE POP PUSH2 0x22E8 JUMP JUMPDEST PUSH1 0x1F NOT DUP5 AND PUSH2 0x2297 DUP7 PUSH2 0x1F9F JUMP JUMPDEST PUSH0 JUMPDEST DUP3 DUP2 LT ISZERO PUSH2 0x22BE JUMPI DUP5 DUP10 ADD MLOAD DUP3 SSTORE PUSH1 0x1 DUP3 ADD SWAP2 POP PUSH1 0x20 DUP6 ADD SWAP5 POP PUSH1 0x20 DUP2 ADD SWAP1 POP PUSH2 0x2299 JUMP JUMPDEST DUP7 DUP4 LT ISZERO PUSH2 0x22DB JUMPI DUP5 DUP10 ADD MLOAD PUSH2 0x22D7 PUSH1 0x1F DUP10 AND DUP3 PUSH2 0x2105 JUMP JUMPDEST DUP4 SSTORE POP JUMPDEST PUSH1 0x1 PUSH1 0x2 DUP9 MUL ADD DUP9 SSTORE POP POP POP JUMPDEST POP POP POP POP POP POP JUMP JUMPDEST PUSH0 PUSH2 0x22FA DUP3 PUSH2 0x1773 JUMP JUMPDEST SWAP2 POP PUSH2 0x2305 DUP4 PUSH2 0x1773 JUMP JUMPDEST SWAP3 POP DUP3 DUP3 ADD SWAP1 POP DUP1 DUP3 GT ISZERO PUSH2 0x231D JUMPI PUSH2 0x231C PUSH2 0x17A9 JUMP JUMPDEST JUMPDEST SWAP3 SWAP2 POP POP JUMP JUMPDEST PUSH0 PUSH1 0x60 DUP3 ADD SWAP1 POP PUSH2 0x2336 PUSH0 DUP4 ADD DUP7 PUSH2 0x1D4D JUMP JUMPDEST PUSH2 0x2343 PUSH1 0x20 DUP4 ADD DUP6 PUSH2 0x1A51 JUMP JUMPDEST PUSH2 0x2350 PUSH1 0x40 DUP4 ADD DUP5 PUSH2 0x1A51 JUMP JUMPDEST SWAP5 SWAP4 POP POP POP POP JUMP INVALID LOG2 PUSH5 0x6970667358 0x22 SLT KECCAK256 MLOAD 0xC1 CREATE 0xAD RETURNDATASIZE JUMPI DIV PUSH17 0xAF07A16992DBB386B0DF97685A6104FC32 0xE3 SWAP1 CALLDATACOPY RETURNDATASIZE PUSH1 0x6 0xE8 PUSH5 0x736F6C6343 STOP ADDMOD BYTE STOP CALLER "
				},
				"gasEstimates": {
					"creation": {
						"codeDepositCost": "1820400",
						"executionCost": "infinite",
						"totalCost": "infinite"
					},
					"external": {
						"City()": "infinite",
						"allowance(address,address)": "infinite",
						"approve(address,uint256)": "infinite",
						"balanceOf(address)": "2874",
						"capture(string,string)": "infinite",
						"decimals()": "450",
						"fee()": "2513",
						"formHorde(string)": "infinite",
						"getPower(string)": "infinite",
						"hordes(string)": "infinite",
						"infect(address)": "infinite",
						"name()": "infinite",
						"owner()": "2648",
						"price()": "2492",
						"register(string)": "infinite",
						"renounceOwnership()": "infinite",
						"symbol()": "infinite",
						"territories(string)": "infinite",
						"totalSupply()": "2500",
						"transfer(address,uint256)": "infinite",
						"transferFrom(address,address,uint256)": "infinite",
						"transferOwnership(address)": "infinite"
					}
				},
				"methodIdentifiers": {
					"City()": "a0d81ba6",
					"allowance(address,address)": "dd62ed3e",
					"approve(address,uint256)": "095ea7b3",
					"balanceOf(address)": "70a08231",
					"capture(string,string)": "651dc0df",
					"decimals()": "313ce567",
					"fee()": "ddca3f43",
					"formHorde(string)": "bc3d6dc3",
					"getPower(string)": "c1280ae7",
					"hordes(string)": "738f5b5b",
					"infect(address)": "96eb64a9",
					"name()": "06fdde03",
					"owner()": "8da5cb5b",
					"price()": "a035b1fe",
					"register(string)": "f2c298be",
					"renounceOwnership()": "715018a6",
					"symbol()": "95d89b41",
					"territories(string)": "86e6e222",
					"totalSupply()": "18160ddd",
					"transfer(address,uint256)": "a9059cbb",
					"transferFrom(address,address,uint256)": "23b872dd",
					"transferOwnership(address)": "f2fde38b"
				}
			},
			"storageLayout": {
				"storage": [
					{
						"astId": 307,
						"contract": "work/home/zombiecoin.sol:Zombie",
						"label": "_balances",
						"offset": 0,
						"slot": "0",
						"type": "t_mapping(t_address,t_uint256)"
					},
					{
						"astId": 313,
						"contract": "work/home/zombiecoin.sol:Zombie",
						"label": "_allowances",
						"offset": 0,
						"slot": "1",
						"type": "t_mapping(t_address,t_mapping(t_address,t_uint256))"
					},
					{
						"astId": 315,
						"contract": "work/home/zombiecoin.sol:Zombie",
						"label": "_totalSupply",
						"offset": 0,
						"slot": "2",
						"type": "t_uint256"
					},
					{
						"astId": 317,
						"contract": "work/home/zombiecoin.sol:Zombie",
						"label": "_name",
						"offset": 0,
						"slot": "3",
						"type": "t_string_storage"
					},
					{
						"astId": 319,
						"contract": "work/home/zombiecoin.sol:Zombie",
						"label": "_symbol",
						"offset": 0,
						"slot": "4",
						"type": "t_string_storage"
					},
					{
						"astId": 8,
						"contract": "work/home/zombiecoin.sol:Zombie",
						"label": "_owner",
						"offset": 0,
						"slot": "5",
						"type": "t_address"
					},
					{
						"astId": 971,
						"contract": "work/home/zombiecoin.sol:Zombie",
						"label": "users",
						"offset": 0,
						"slot": "6",
						"type": "t_mapping(t_address,t_struct(User)952_storage)"
					},
					{
						"astId": 976,
						"contract": "work/home/zombiecoin.sol:Zombie",
						"label": "hordes",
						"offset": 0,
						"slot": "7",
						"type": "t_mapping(t_string_memory_ptr,t_struct(Horde)959_storage)"
					},
					{
						"astId": 981,
						"contract": "work/home/zombiecoin.sol:Zombie",
						"label": "territories",
						"offset": 0,
						"slot": "8",
						"type": "t_mapping(t_string_memory_ptr,t_struct(Territory)966_storage)"
					},
					{
						"astId": 984,
						"contract": "work/home/zombiecoin.sol:Zombie",
						"label": "price",
						"offset": 0,
						"slot": "9",
						"type": "t_uint256"
					},
					{
						"astId": 987,
						"contract": "work/home/zombiecoin.sol:Zombie",
						"label": "fee",
						"offset": 0,
						"slot": "10",
						"type": "t_uint256"
					},
					{
						"astId": 990,
						"contract": "work/home/zombiecoin.sol:Zombie",
						"label": "City",
						"offset": 0,
						"slot": "11",
						"type": "t_struct(Territory)966_storage"
					}
				],
				"types": {
					"t_address": {
						"encoding": "inplace",
						"label": "address",
						"numberOfBytes": "20"
					},
					"t_array(t_struct(User)952_storage)dyn_storage": {
						"base": "t_struct(User)952_storage",
						"encoding": "dynamic_array",
						"label": "struct Zombie.User[]",
						"numberOfBytes": "32"
					},
					"t_enum(Status)944": {
						"encoding": "inplace",
						"label": "enum Zombie.Status",
						"numberOfBytes": "1"
					},
					"t_mapping(t_address,t_mapping(t_address,t_uint256))": {
						"encoding": "mapping",
						"key": "t_address",
						"label": "mapping(address => mapping(address => uint256))",
						"numberOfBytes": "32",
						"value": "t_mapping(t_address,t_uint256)"
					},
					"t_mapping(t_address,t_struct(User)952_storage)": {
						"encoding": "mapping",
						"key": "t_address",
						"label": "mapping(address => struct Zombie.User)",
						"numberOfBytes": "32",
						"value": "t_struct(User)952_storage"
					},
					"t_mapping(t_address,t_uint256)": {
						"encoding": "mapping",
						"key": "t_address",
						"label": "mapping(address => uint256)",
						"numberOfBytes": "32",
						"value": "t_uint256"
					},
					"t_mapping(t_string_memory_ptr,t_struct(Horde)959_storage)": {
						"encoding": "mapping",
						"key": "t_string_memory_ptr",
						"label": "mapping(string => struct Zombie.Horde)",
						"numberOfBytes": "32",
						"value": "t_struct(Horde)959_storage"
					},
					"t_mapping(t_string_memory_ptr,t_struct(Territory)966_storage)": {
						"encoding": "mapping",
						"key": "t_string_memory_ptr",
						"label": "mapping(string => struct Zombie.Territory)",
						"numberOfBytes": "32",
						"value": "t_struct(Territory)966_storage"
					},
					"t_string_memory_ptr": {
						"encoding": "bytes",
						"label": "string",
						"numberOfBytes": "32"
					},
					"t_string_storage": {
						"encoding": "bytes",
						"label": "string",
						"numberOfBytes": "32"
					},
					"t_struct(Horde)959_storage": {
						"encoding": "inplace",
						"label": "struct Zombie.Horde",
						"members": [
							{
								"astId": 956,
								"contract": "work/home/zombiecoin.sol:Zombie",
								"label": "amount",
								"offset": 0,
								"slot": "0",
								"type": "t_array(t_struct(User)952_storage)dyn_storage"
							},
							{
								"astId": 958,
								"contract": "work/home/zombiecoin.sol:Zombie",
								"label": "power",
								"offset": 0,
								"slot": "1",
								"type": "t_uint256"
							}
						],
						"numberOfBytes": "64"
					},
					"t_struct(Territory)966_storage": {
						"encoding": "inplace",
						"label": "struct Zombie.Territory",
						"members": [
							{
								"astId": 961,
								"contract": "work/home/zombiecoin.sol:Zombie",
								"label": "name",
								"offset": 0,
								"slot": "0",
								"type": "t_string_storage"
							},
							{
								"astId": 963,
								"contract": "work/home/zombiecoin.sol:Zombie",
								"label": "hordePower",
								"offset": 0,
								"slot": "1",
								"type": "t_uint256"
							},
							{
								"astId": 965,
								"contract": "work/home/zombiecoin.sol:Zombie",
								"label": "reward",
								"offset": 0,
								"slot": "2",
								"type": "t_uint256"
							}
						],
						"numberOfBytes": "96"
					},
					"t_struct(User)952_storage": {
						"encoding": "inplace",
						"label": "struct Zombie.User",
						"members": [
							{
								"astId": 946,
								"contract": "work/home/zombiecoin.sol:Zombie",
								"label": "name",
								"offset": 0,
								"slot": "0",
								"type": "t_string_storage"
							},
							{
								"astId": 948,
								"contract": "work/home/zombiecoin.sol:Zombie",
								"label": "wallet",
								"offset": 0,
								"slot": "1",
								"type": "t_address"
							},
							{
								"astId": 951,
								"contract": "work/home/zombiecoin.sol:Zombie",
								"label": "status",
								"offset": 20,
								"slot": "1",
								"type": "t_enum(Status)944"
							}
						],
						"numberOfBytes": "64"
					},
					"t_uint256": {
						"encoding": "inplace",
						"label": "uint256",
						"numberOfBytes": "32"
					}
				}
			},
			"userdoc": {
				"kind": "user",
				"methods": {},
				"version": 1
			}
		}
	}
}