{
	"work/home/2nd.sol": {
		"Struct": {
			"abi": [
				{
					"inputs": [],
					"name": "currentProduct",
					"outputs": [
						{
							"internalType": "string",
							"name": "name",
							"type": "string"
						},
						{
							"internalType": "uint256",
							"name": "price",
							"type": "uint256"
						}
					],
					"stateMutability": "view",
					"type": "function"
				},
				{
					"inputs": [],
					"name": "getProduct",
					"outputs": [
						{
							"components": [
								{
									"internalType": "string",
									"name": "name",
									"type": "string"
								},
								{
									"internalType": "uint256",
									"name": "price",
									"type": "uint256"
								}
							],
							"internalType": "struct Struct.Product",
							"name": "",
							"type": "tuple"
						}
					],
					"stateMutability": "view",
					"type": "function"
				},
				{
					"inputs": [
						{
							"internalType": "string",
							"name": "name",
							"type": "string"
						},
						{
							"internalType": "uint256",
							"name": "price",
							"type": "uint256"
						}
					],
					"name": "setProduct",
					"outputs": [],
					"stateMutability": "nonpayable",
					"type": "function"
				}
			],
			"devdoc": {
				"kind": "dev",
				"methods": {},
				"version": 1
			},
			"evm": {
				"assembly": "    /* \"work/home/2nd.sol\":955:1301  contract Struct{... */\n  mstore(0x40, 0x80)\n  callvalue\n  dup1\n  iszero\n  tag_1\n  jumpi\n  0x00\n  dup1\n  revert\ntag_1:\n  pop\n  dataSize(sub_0)\n  dup1\n  dataOffset(sub_0)\n  0x00\n  codecopy\n  0x00\n  return\nstop\n\nsub_0: assembly {\n        /* \"work/home/2nd.sol\":955:1301  contract Struct{... */\n      mstore(0x40, 0x80)\n      callvalue\n      dup1\n      iszero\n      tag_1\n      jumpi\n      0x00\n      dup1\n      revert\n    tag_1:\n      pop\n      jumpi(tag_2, lt(calldatasize, 0x04))\n      shr(0xe0, calldataload(0x00))\n      dup1\n      0x36ac4889\n      eq\n      tag_3\n      jumpi\n      dup1\n      0x4ba20050\n      eq\n      tag_4\n      jumpi\n      dup1\n      0xd3af52dc\n      eq\n      tag_5\n      jumpi\n    tag_2:\n      0x00\n      dup1\n      revert\n        /* \"work/home/2nd.sol\":1044:1073  Product public currentProduct */\n    tag_3:\n      tag_6\n      tag_7\n      jump\t// in\n    tag_6:\n      mload(0x40)\n      tag_8\n      swap3\n      swap2\n      swap1\n      tag_9\n      jump\t// in\n    tag_8:\n      mload(0x40)\n      dup1\n      swap2\n      sub\n      swap1\n      return\n        /* \"work/home/2nd.sol\":1201:1299  function getProduct() external view returns (Product memory){... */\n    tag_4:\n      tag_10\n      tag_11\n      jump\t// in\n    tag_10:\n      mload(0x40)\n      tag_12\n      swap2\n      swap1\n      tag_13\n      jump\t// in\n    tag_12:\n      mload(0x40)\n      dup1\n      swap2\n      sub\n      swap1\n      return\n        /* \"work/home/2nd.sol\":1080:1195  function setProduct(string memory name, uint price) external {... */\n    tag_5:\n      tag_14\n      0x04\n      dup1\n      calldatasize\n      sub\n      dup2\n      add\n      swap1\n      tag_15\n      swap2\n      swap1\n      tag_16\n      jump\t// in\n    tag_15:\n      tag_17\n      jump\t// in\n    tag_14:\n      stop\n        /* \"work/home/2nd.sol\":1044:1073  Product public currentProduct */\n    tag_7:\n      0x00\n      dup1\n      0x00\n      add\n      dup1\n      sload\n      tag_18\n      swap1\n      tag_19\n      jump\t// in\n    tag_18:\n      dup1\n      0x1f\n      add\n      0x20\n      dup1\n      swap2\n      div\n      mul\n      0x20\n      add\n      mload(0x40)\n      swap1\n      dup2\n      add\n      0x40\n      mstore\n      dup1\n      swap3\n      swap2\n      swap1\n      dup2\n      dup2\n      mstore\n      0x20\n      add\n      dup3\n      dup1\n      sload\n      tag_20\n      swap1\n      tag_19\n      jump\t// in\n    tag_20:\n      dup1\n      iszero\n      tag_21\n      jumpi\n      dup1\n      0x1f\n      lt\n      tag_22\n      jumpi\n      0x0100\n      dup1\n      dup4\n      sload\n      div\n      mul\n      dup4\n      mstore\n      swap2\n      0x20\n      add\n      swap2\n      jump(tag_21)\n    tag_22:\n      dup3\n      add\n      swap2\n      swap1\n      0x00\n      mstore\n      keccak256(0x00, 0x20)\n      swap1\n    tag_23:\n      dup2\n      sload\n      dup2\n      mstore\n      swap1\n      0x01\n      add\n      swap1\n      0x20\n      add\n      dup1\n      dup4\n      gt\n      tag_23\n      jumpi\n      dup3\n      swap1\n      sub\n      0x1f\n      and\n      dup3\n      add\n      swap2\n    tag_21:\n      pop\n      pop\n      pop\n      pop\n      pop\n      swap1\n      dup1\n      0x01\n      add\n      sload\n      swap1\n      pop\n      dup3\n      jump\t// out\n        /* \"work/home/2nd.sol\":1201:1299  function getProduct() external view returns (Product memory){... */\n    tag_11:\n        /* \"work/home/2nd.sol\":1246:1260  Product memory */\n      tag_24\n      tag_25\n      jump\t// in\n    tag_24:\n        /* \"work/home/2nd.sol\":1278:1292  currentProduct */\n      0x00\n        /* \"work/home/2nd.sol\":1271:1292  return currentProduct */\n      mload(0x40)\n      dup1\n      0x40\n      add\n      0x40\n      mstore\n      swap1\n      dup2\n      0x00\n      dup3\n      add\n      dup1\n      sload\n      tag_27\n      swap1\n      tag_19\n      jump\t// in\n    tag_27:\n      dup1\n      0x1f\n      add\n      0x20\n      dup1\n      swap2\n      div\n      mul\n      0x20\n      add\n      mload(0x40)\n      swap1\n      dup2\n      add\n      0x40\n      mstore\n      dup1\n      swap3\n      swap2\n      swap1\n      dup2\n      dup2\n      mstore\n      0x20\n      add\n      dup3\n      dup1\n      sload\n      tag_28\n      swap1\n      tag_19\n      jump\t// in\n    tag_28:\n      dup1\n      iszero\n      tag_29\n      jumpi\n      dup1\n      0x1f\n      lt\n      tag_30\n      jumpi\n      0x0100\n      dup1\n      dup4\n      sload\n      div\n      mul\n      dup4\n      mstore\n      swap2\n      0x20\n      add\n      swap2\n      jump(tag_29)\n    tag_30:\n      dup3\n      add\n      swap2\n      swap1\n      0x00\n      mstore\n      keccak256(0x00, 0x20)\n      swap1\n    tag_31:\n      dup2\n      sload\n      dup2\n      mstore\n      swap1\n      0x01\n      add\n      swap1\n      0x20\n      add\n      dup1\n      dup4\n      gt\n      tag_31\n      jumpi\n      dup3\n      swap1\n      sub\n      0x1f\n      and\n      dup3\n      add\n      swap2\n    tag_29:\n      pop\n      pop\n      pop\n      pop\n      pop\n      dup2\n      mstore\n      0x20\n      add\n      0x01\n      dup3\n      add\n      sload\n      dup2\n      mstore\n      pop\n      pop\n      swap1\n      pop\n        /* \"work/home/2nd.sol\":1201:1299  function getProduct() external view returns (Product memory){... */\n      swap1\n      jump\t// out\n        /* \"work/home/2nd.sol\":1080:1195  function setProduct(string memory name, uint price) external {... */\n    tag_17:\n        /* \"work/home/2nd.sol\":1168:1188  Product(name, price) */\n      mload(0x40)\n      dup1\n      0x40\n      add\n      0x40\n      mstore\n      dup1\n        /* \"work/home/2nd.sol\":1176:1180  name */\n      dup4\n        /* \"work/home/2nd.sol\":1168:1188  Product(name, price) */\n      dup2\n      mstore\n      0x20\n      add\n        /* \"work/home/2nd.sol\":1182:1187  price */\n      dup3\n        /* \"work/home/2nd.sol\":1168:1188  Product(name, price) */\n      dup2\n      mstore\n      pop\n        /* \"work/home/2nd.sol\":1151:1165  currentProduct */\n      0x00\n        /* \"work/home/2nd.sol\":1151:1188  currentProduct = Product(name, price) */\n      dup1\n      dup3\n      add\n      mload\n      dup2\n      0x00\n      add\n      swap1\n      dup2\n      tag_33\n      swap2\n      swap1\n      tag_34\n      jump\t// in\n    tag_33:\n      pop\n      0x20\n      dup3\n      add\n      mload\n      dup2\n      0x01\n      add\n      sstore\n      swap1\n      pop\n      pop\n        /* \"work/home/2nd.sol\":1080:1195  function setProduct(string memory name, uint price) external {... */\n      pop\n      pop\n      jump\t// out\n    tag_25:\n      mload(0x40)\n      dup1\n      0x40\n      add\n      0x40\n      mstore\n      dup1\n      0x60\n      dup2\n      mstore\n      0x20\n      add\n      0x00\n      dup2\n      mstore\n      pop\n      swap1\n      jump\t// out\n        /* \"#utility.yul\":7:106   */\n    tag_35:\n        /* \"#utility.yul\":59:65   */\n      0x00\n        /* \"#utility.yul\":93:98   */\n      dup2\n        /* \"#utility.yul\":87:99   */\n      mload\n        /* \"#utility.yul\":77:99   */\n      swap1\n      pop\n        /* \"#utility.yul\":7:106   */\n      swap2\n      swap1\n      pop\n      jump\t// out\n        /* \"#utility.yul\":112:281   */\n    tag_36:\n        /* \"#utility.yul\":196:207   */\n      0x00\n        /* \"#utility.yul\":230:236   */\n      dup3\n        /* \"#utility.yul\":225:228   */\n      dup3\n        /* \"#utility.yul\":218:237   */\n      mstore\n        /* \"#utility.yul\":270:274   */\n      0x20\n        /* \"#utility.yul\":265:268   */\n      dup3\n        /* \"#utility.yul\":261:275   */\n      add\n        /* \"#utility.yul\":246:275   */\n      swap1\n      pop\n        /* \"#utility.yul\":112:281   */\n      swap3\n      swap2\n      pop\n      pop\n      jump\t// out\n        /* \"#utility.yul\":287:426   */\n    tag_37:\n        /* \"#utility.yul\":376:382   */\n      dup3\n        /* \"#utility.yul\":371:374   */\n      dup2\n        /* \"#utility.yul\":366:369   */\n      dup4\n        /* \"#utility.yul\":360:383   */\n      mcopy\n        /* \"#utility.yul\":417:418   */\n      0x00\n        /* \"#utility.yul\":408:414   */\n      dup4\n        /* \"#utility.yul\":403:406   */\n      dup4\n        /* \"#utility.yul\":399:415   */\n      add\n        /* \"#utility.yul\":392:419   */\n      mstore\n        /* \"#utility.yul\":287:426   */\n      pop\n      pop\n      pop\n      jump\t// out\n        /* \"#utility.yul\":432:534   */\n    tag_38:\n        /* \"#utility.yul\":473:479   */\n      0x00\n        /* \"#utility.yul\":524:526   */\n      0x1f\n        /* \"#utility.yul\":520:527   */\n      not\n        /* \"#utility.yul\":515:517   */\n      0x1f\n        /* \"#utility.yul\":508:513   */\n      dup4\n        /* \"#utility.yul\":504:518   */\n      add\n        /* \"#utility.yul\":500:528   */\n      and\n        /* \"#utility.yul\":490:528   */\n      swap1\n      pop\n        /* \"#utility.yul\":432:534   */\n      swap2\n      swap1\n      pop\n      jump\t// out\n        /* \"#utility.yul\":540:917   */\n    tag_39:\n        /* \"#utility.yul\":628:631   */\n      0x00\n        /* \"#utility.yul\":656:695   */\n      tag_82\n        /* \"#utility.yul\":689:694   */\n      dup3\n        /* \"#utility.yul\":656:695   */\n      tag_35\n      jump\t// in\n    tag_82:\n        /* \"#utility.yul\":711:782   */\n      tag_83\n        /* \"#utility.yul\":775:781   */\n      dup2\n        /* \"#utility.yul\":770:773   */\n      dup6\n        /* \"#utility.yul\":711:782   */\n      tag_36\n      jump\t// in\n    tag_83:\n        /* \"#utility.yul\":704:782   */\n      swap4\n      pop\n        /* \"#utility.yul\":791:856   */\n      tag_84\n        /* \"#utility.yul\":849:855   */\n      dup2\n        /* \"#utility.yul\":844:847   */\n      dup6\n        /* \"#utility.yul\":837:841   */\n      0x20\n        /* \"#utility.yul\":830:835   */\n      dup7\n        /* \"#utility.yul\":826:842   */\n      add\n        /* \"#utility.yul\":791:856   */\n      tag_37\n      jump\t// in\n    tag_84:\n        /* \"#utility.yul\":881:910   */\n      tag_85\n        /* \"#utility.yul\":903:909   */\n      dup2\n        /* \"#utility.yul\":881:910   */\n      tag_38\n      jump\t// in\n    tag_85:\n        /* \"#utility.yul\":876:879   */\n      dup5\n        /* \"#utility.yul\":872:911   */\n      add\n        /* \"#utility.yul\":865:911   */\n      swap2\n      pop\n        /* \"#utility.yul\":632:917   */\n      pop\n        /* \"#utility.yul\":540:917   */\n      swap3\n      swap2\n      pop\n      pop\n      jump\t// out\n        /* \"#utility.yul\":923:1000   */\n    tag_40:\n        /* \"#utility.yul\":960:967   */\n      0x00\n        /* \"#utility.yul\":989:994   */\n      dup2\n        /* \"#utility.yul\":978:994   */\n      swap1\n      pop\n        /* \"#utility.yul\":923:1000   */\n      swap2\n      swap1\n      pop\n      jump\t// out\n        /* \"#utility.yul\":1006:1124   */\n    tag_41:\n        /* \"#utility.yul\":1093:1117   */\n      tag_88\n        /* \"#utility.yul\":1111:1116   */\n      dup2\n        /* \"#utility.yul\":1093:1117   */\n      tag_40\n      jump\t// in\n    tag_88:\n        /* \"#utility.yul\":1088:1091   */\n      dup3\n        /* \"#utility.yul\":1081:1118   */\n      mstore\n        /* \"#utility.yul\":1006:1124   */\n      pop\n      pop\n      jump\t// out\n        /* \"#utility.yul\":1130:1553   */\n    tag_9:\n        /* \"#utility.yul\":1271:1275   */\n      0x00\n        /* \"#utility.yul\":1309:1311   */\n      0x40\n        /* \"#utility.yul\":1298:1307   */\n      dup3\n        /* \"#utility.yul\":1294:1312   */\n      add\n        /* \"#utility.yul\":1286:1312   */\n      swap1\n      pop\n        /* \"#utility.yul\":1358:1367   */\n      dup2\n        /* \"#utility.yul\":1352:1356   */\n      dup2\n        /* \"#utility.yul\":1348:1368   */\n      sub\n        /* \"#utility.yul\":1344:1345   */\n      0x00\n        /* \"#utility.yul\":1333:1342   */\n      dup4\n        /* \"#utility.yul\":1329:1346   */\n      add\n        /* \"#utility.yul\":1322:1369   */\n      mstore\n        /* \"#utility.yul\":1386:1464   */\n      tag_90\n        /* \"#utility.yul\":1459:1463   */\n      dup2\n        /* \"#utility.yul\":1450:1456   */\n      dup6\n        /* \"#utility.yul\":1386:1464   */\n      tag_39\n      jump\t// in\n    tag_90:\n        /* \"#utility.yul\":1378:1464   */\n      swap1\n      pop\n        /* \"#utility.yul\":1474:1546   */\n      tag_91\n        /* \"#utility.yul\":1542:1544   */\n      0x20\n        /* \"#utility.yul\":1531:1540   */\n      dup4\n        /* \"#utility.yul\":1527:1545   */\n      add\n        /* \"#utility.yul\":1518:1524   */\n      dup5\n        /* \"#utility.yul\":1474:1546   */\n      tag_41\n      jump\t// in\n    tag_91:\n        /* \"#utility.yul\":1130:1553   */\n      swap4\n      swap3\n      pop\n      pop\n      pop\n      jump\t// out\n        /* \"#utility.yul\":1559:1718   */\n    tag_42:\n        /* \"#utility.yul\":1633:1644   */\n      0x00\n        /* \"#utility.yul\":1667:1673   */\n      dup3\n        /* \"#utility.yul\":1662:1665   */\n      dup3\n        /* \"#utility.yul\":1655:1674   */\n      mstore\n        /* \"#utility.yul\":1707:1711   */\n      0x20\n        /* \"#utility.yul\":1702:1705   */\n      dup3\n        /* \"#utility.yul\":1698:1712   */\n      add\n        /* \"#utility.yul\":1683:1712   */\n      swap1\n      pop\n        /* \"#utility.yul\":1559:1718   */\n      swap3\n      swap2\n      pop\n      pop\n      jump\t// out\n        /* \"#utility.yul\":1724:2081   */\n    tag_43:\n        /* \"#utility.yul\":1802:1805   */\n      0x00\n        /* \"#utility.yul\":1830:1869   */\n      tag_94\n        /* \"#utility.yul\":1863:1868   */\n      dup3\n        /* \"#utility.yul\":1830:1869   */\n      tag_35\n      jump\t// in\n    tag_94:\n        /* \"#utility.yul\":1885:1946   */\n      tag_95\n        /* \"#utility.yul\":1939:1945   */\n      dup2\n        /* \"#utility.yul\":1934:1937   */\n      dup6\n        /* \"#utility.yul\":1885:1946   */\n      tag_42\n      jump\t// in\n    tag_95:\n        /* \"#utility.yul\":1878:1946   */\n      swap4\n      pop\n        /* \"#utility.yul\":1955:2020   */\n      tag_96\n        /* \"#utility.yul\":2013:2019   */\n      dup2\n        /* \"#utility.yul\":2008:2011   */\n      dup6\n        /* \"#utility.yul\":2001:2005   */\n      0x20\n        /* \"#utility.yul\":1994:1999   */\n      dup7\n        /* \"#utility.yul\":1990:2006   */\n      add\n        /* \"#utility.yul\":1955:2020   */\n      tag_37\n      jump\t// in\n    tag_96:\n        /* \"#utility.yul\":2045:2074   */\n      tag_97\n        /* \"#utility.yul\":2067:2073   */\n      dup2\n        /* \"#utility.yul\":2045:2074   */\n      tag_38\n      jump\t// in\n    tag_97:\n        /* \"#utility.yul\":2040:2043   */\n      dup5\n        /* \"#utility.yul\":2036:2075   */\n      add\n        /* \"#utility.yul\":2029:2075   */\n      swap2\n      pop\n        /* \"#utility.yul\":1806:2081   */\n      pop\n        /* \"#utility.yul\":1724:2081   */\n      swap3\n      swap2\n      pop\n      pop\n      jump\t// out\n        /* \"#utility.yul\":2087:2195   */\n    tag_44:\n        /* \"#utility.yul\":2164:2188   */\n      tag_99\n        /* \"#utility.yul\":2182:2187   */\n      dup2\n        /* \"#utility.yul\":2164:2188   */\n      tag_40\n      jump\t// in\n    tag_99:\n        /* \"#utility.yul\":2159:2162   */\n      dup3\n        /* \"#utility.yul\":2152:2189   */\n      mstore\n        /* \"#utility.yul\":2087:2195   */\n      pop\n      pop\n      jump\t// out\n        /* \"#utility.yul\":2255:2856   */\n    tag_45:\n        /* \"#utility.yul\":2368:2371   */\n      0x00\n        /* \"#utility.yul\":2404:2408   */\n      0x40\n        /* \"#utility.yul\":2399:2402   */\n      dup4\n        /* \"#utility.yul\":2395:2409   */\n      add\n        /* \"#utility.yul\":2491:2495   */\n      0x00\n        /* \"#utility.yul\":2484:2489   */\n      dup4\n        /* \"#utility.yul\":2480:2496   */\n      add\n        /* \"#utility.yul\":2474:2497   */\n      mload\n        /* \"#utility.yul\":2544:2547   */\n      dup5\n        /* \"#utility.yul\":2538:2542   */\n      dup3\n        /* \"#utility.yul\":2534:2548   */\n      sub\n        /* \"#utility.yul\":2527:2531   */\n      0x00\n        /* \"#utility.yul\":2522:2525   */\n      dup7\n        /* \"#utility.yul\":2518:2532   */\n      add\n        /* \"#utility.yul\":2511:2549   */\n      mstore\n        /* \"#utility.yul\":2570:2643   */\n      tag_101\n        /* \"#utility.yul\":2638:2642   */\n      dup3\n        /* \"#utility.yul\":2624:2636   */\n      dup3\n        /* \"#utility.yul\":2570:2643   */\n      tag_43\n      jump\t// in\n    tag_101:\n        /* \"#utility.yul\":2562:2643   */\n      swap2\n      pop\n        /* \"#utility.yul\":2419:2654   */\n      pop\n        /* \"#utility.yul\":2737:2741   */\n      0x20\n        /* \"#utility.yul\":2730:2735   */\n      dup4\n        /* \"#utility.yul\":2726:2742   */\n      add\n        /* \"#utility.yul\":2720:2743   */\n      mload\n        /* \"#utility.yul\":2756:2819   */\n      tag_102\n        /* \"#utility.yul\":2813:2817   */\n      0x20\n        /* \"#utility.yul\":2808:2811   */\n      dup7\n        /* \"#utility.yul\":2804:2818   */\n      add\n        /* \"#utility.yul\":2790:2802   */\n      dup3\n        /* \"#utility.yul\":2756:2819   */\n      tag_44\n      jump\t// in\n    tag_102:\n        /* \"#utility.yul\":2664:2829   */\n      pop\n        /* \"#utility.yul\":2846:2850   */\n      dup1\n        /* \"#utility.yul\":2839:2850   */\n      swap2\n      pop\n        /* \"#utility.yul\":2373:2856   */\n      pop\n        /* \"#utility.yul\":2255:2856   */\n      swap3\n      swap2\n      pop\n      pop\n      jump\t// out\n        /* \"#utility.yul\":2862:3223   */\n    tag_13:\n        /* \"#utility.yul\":2999:3003   */\n      0x00\n        /* \"#utility.yul\":3037:3039   */\n      0x20\n        /* \"#utility.yul\":3026:3035   */\n      dup3\n        /* \"#utility.yul\":3022:3040   */\n      add\n        /* \"#utility.yul\":3014:3040   */\n      swap1\n      pop\n        /* \"#utility.yul\":3086:3095   */\n      dup2\n        /* \"#utility.yul\":3080:3084   */\n      dup2\n        /* \"#utility.yul\":3076:3096   */\n      sub\n        /* \"#utility.yul\":3072:3073   */\n      0x00\n        /* \"#utility.yul\":3061:3070   */\n      dup4\n        /* \"#utility.yul\":3057:3074   */\n      add\n        /* \"#utility.yul\":3050:3097   */\n      mstore\n        /* \"#utility.yul\":3114:3216   */\n      tag_104\n        /* \"#utility.yul\":3211:3215   */\n      dup2\n        /* \"#utility.yul\":3202:3208   */\n      dup5\n        /* \"#utility.yul\":3114:3216   */\n      tag_45\n      jump\t// in\n    tag_104:\n        /* \"#utility.yul\":3106:3216   */\n      swap1\n      pop\n        /* \"#utility.yul\":2862:3223   */\n      swap3\n      swap2\n      pop\n      pop\n      jump\t// out\n        /* \"#utility.yul\":3229:3304   */\n    tag_46:\n        /* \"#utility.yul\":3262:3268   */\n      0x00\n        /* \"#utility.yul\":3295:3297   */\n      0x40\n        /* \"#utility.yul\":3289:3298   */\n      mload\n        /* \"#utility.yul\":3279:3298   */\n      swap1\n      pop\n        /* \"#utility.yul\":3229:3304   */\n      swap1\n      jump\t// out\n        /* \"#utility.yul\":3310:3427   */\n    tag_47:\n        /* \"#utility.yul\":3419:3420   */\n      0x00\n        /* \"#utility.yul\":3416:3417   */\n      dup1\n        /* \"#utility.yul\":3409:3421   */\n      revert\n        /* \"#utility.yul\":3433:3550   */\n    tag_48:\n        /* \"#utility.yul\":3542:3543   */\n      0x00\n        /* \"#utility.yul\":3539:3540   */\n      dup1\n        /* \"#utility.yul\":3532:3544   */\n      revert\n        /* \"#utility.yul\":3556:3673   */\n    tag_49:\n        /* \"#utility.yul\":3665:3666   */\n      0x00\n        /* \"#utility.yul\":3662:3663   */\n      dup1\n        /* \"#utility.yul\":3655:3667   */\n      revert\n        /* \"#utility.yul\":3679:3796   */\n    tag_50:\n        /* \"#utility.yul\":3788:3789   */\n      0x00\n        /* \"#utility.yul\":3785:3786   */\n      dup1\n        /* \"#utility.yul\":3778:3790   */\n      revert\n        /* \"#utility.yul\":3802:3982   */\n    tag_51:\n        /* \"#utility.yul\":3850:3927   */\n      0x4e487b7100000000000000000000000000000000000000000000000000000000\n        /* \"#utility.yul\":3847:3848   */\n      0x00\n        /* \"#utility.yul\":3840:3928   */\n      mstore\n        /* \"#utility.yul\":3947:3951   */\n      0x41\n        /* \"#utility.yul\":3944:3945   */\n      0x04\n        /* \"#utility.yul\":3937:3952   */\n      mstore\n        /* \"#utility.yul\":3971:3975   */\n      0x24\n        /* \"#utility.yul\":3968:3969   */\n      0x00\n        /* \"#utility.yul\":3961:3976   */\n      revert\n        /* \"#utility.yul\":3988:4269   */\n    tag_52:\n        /* \"#utility.yul\":4071:4098   */\n      tag_112\n        /* \"#utility.yul\":4093:4097   */\n      dup3\n        /* \"#utility.yul\":4071:4098   */\n      tag_38\n      jump\t// in\n    tag_112:\n        /* \"#utility.yul\":4063:4069   */\n      dup2\n        /* \"#utility.yul\":4059:4099   */\n      add\n        /* \"#utility.yul\":4201:4207   */\n      dup2\n        /* \"#utility.yul\":4189:4199   */\n      dup2\n        /* \"#utility.yul\":4186:4208   */\n      lt\n        /* \"#utility.yul\":4165:4183   */\n      0xffffffffffffffff\n        /* \"#utility.yul\":4153:4163   */\n      dup3\n        /* \"#utility.yul\":4150:4184   */\n      gt\n        /* \"#utility.yul\":4147:4209   */\n      or\n        /* \"#utility.yul\":4144:4232   */\n      iszero\n      tag_113\n      jumpi\n        /* \"#utility.yul\":4212:4230   */\n      tag_114\n      tag_51\n      jump\t// in\n    tag_114:\n        /* \"#utility.yul\":4144:4232   */\n    tag_113:\n        /* \"#utility.yul\":4252:4262   */\n      dup1\n        /* \"#utility.yul\":4248:4250   */\n      0x40\n        /* \"#utility.yul\":4241:4263   */\n      mstore\n        /* \"#utility.yul\":4031:4269   */\n      pop\n        /* \"#utility.yul\":3988:4269   */\n      pop\n      pop\n      jump\t// out\n        /* \"#utility.yul\":4275:4404   */\n    tag_53:\n        /* \"#utility.yul\":4309:4315   */\n      0x00\n        /* \"#utility.yul\":4336:4356   */\n      tag_116\n      tag_46\n      jump\t// in\n    tag_116:\n        /* \"#utility.yul\":4326:4356   */\n      swap1\n      pop\n        /* \"#utility.yul\":4365:4398   */\n      tag_117\n        /* \"#utility.yul\":4393:4397   */\n      dup3\n        /* \"#utility.yul\":4385:4391   */\n      dup3\n        /* \"#utility.yul\":4365:4398   */\n      tag_52\n      jump\t// in\n    tag_117:\n        /* \"#utility.yul\":4275:4404   */\n      swap2\n      swap1\n      pop\n      jump\t// out\n        /* \"#utility.yul\":4410:4718   */\n    tag_54:\n        /* \"#utility.yul\":4472:4476   */\n      0x00\n        /* \"#utility.yul\":4562:4580   */\n      0xffffffffffffffff\n        /* \"#utility.yul\":4554:4560   */\n      dup3\n        /* \"#utility.yul\":4551:4581   */\n      gt\n        /* \"#utility.yul\":4548:4604   */\n      iszero\n      tag_119\n      jumpi\n        /* \"#utility.yul\":4584:4602   */\n      tag_120\n      tag_51\n      jump\t// in\n    tag_120:\n        /* \"#utility.yul\":4548:4604   */\n    tag_119:\n        /* \"#utility.yul\":4622:4651   */\n      tag_121\n        /* \"#utility.yul\":4644:4650   */\n      dup3\n        /* \"#utility.yul\":4622:4651   */\n      tag_38\n      jump\t// in\n    tag_121:\n        /* \"#utility.yul\":4614:4651   */\n      swap1\n      pop\n        /* \"#utility.yul\":4706:4710   */\n      0x20\n        /* \"#utility.yul\":4700:4704   */\n      dup2\n        /* \"#utility.yul\":4696:4711   */\n      add\n        /* \"#utility.yul\":4688:4711   */\n      swap1\n      pop\n        /* \"#utility.yul\":4410:4718   */\n      swap2\n      swap1\n      pop\n      jump\t// out\n        /* \"#utility.yul\":4724:4872   */\n    tag_55:\n        /* \"#utility.yul\":4822:4828   */\n      dup3\n        /* \"#utility.yul\":4817:4820   */\n      dup2\n        /* \"#utility.yul\":4812:4815   */\n      dup4\n        /* \"#utility.yul\":4799:4829   */\n      calldatacopy\n        /* \"#utility.yul\":4863:4864   */\n      0x00\n        /* \"#utility.yul\":4854:4860   */\n      dup4\n        /* \"#utility.yul\":4849:4852   */\n      dup4\n        /* \"#utility.yul\":4845:4861   */\n      add\n        /* \"#utility.yul\":4838:4865   */\n      mstore\n        /* \"#utility.yul\":4724:4872   */\n      pop\n      pop\n      pop\n      jump\t// out\n        /* \"#utility.yul\":4878:5303   */\n    tag_56:\n        /* \"#utility.yul\":4956:4961   */\n      0x00\n        /* \"#utility.yul\":4981:5047   */\n      tag_124\n        /* \"#utility.yul\":4997:5046   */\n      tag_125\n        /* \"#utility.yul\":5039:5045   */\n      dup5\n        /* \"#utility.yul\":4997:5046   */\n      tag_54\n      jump\t// in\n    tag_125:\n        /* \"#utility.yul\":4981:5047   */\n      tag_53\n      jump\t// in\n    tag_124:\n        /* \"#utility.yul\":4972:5047   */\n      swap1\n      pop\n        /* \"#utility.yul\":5070:5076   */\n      dup3\n        /* \"#utility.yul\":5063:5068   */\n      dup2\n        /* \"#utility.yul\":5056:5077   */\n      mstore\n        /* \"#utility.yul\":5108:5112   */\n      0x20\n        /* \"#utility.yul\":5101:5106   */\n      dup2\n        /* \"#utility.yul\":5097:5113   */\n      add\n        /* \"#utility.yul\":5146:5149   */\n      dup5\n        /* \"#utility.yul\":5137:5143   */\n      dup5\n        /* \"#utility.yul\":5132:5135   */\n      dup5\n        /* \"#utility.yul\":5128:5144   */\n      add\n        /* \"#utility.yul\":5125:5150   */\n      gt\n        /* \"#utility.yul\":5122:5234   */\n      iszero\n      tag_126\n      jumpi\n        /* \"#utility.yul\":5153:5232   */\n      tag_127\n      tag_50\n      jump\t// in\n    tag_127:\n        /* \"#utility.yul\":5122:5234   */\n    tag_126:\n        /* \"#utility.yul\":5243:5297   */\n      tag_128\n        /* \"#utility.yul\":5290:5296   */\n      dup5\n        /* \"#utility.yul\":5285:5288   */\n      dup3\n        /* \"#utility.yul\":5280:5283   */\n      dup6\n        /* \"#utility.yul\":5243:5297   */\n      tag_55\n      jump\t// in\n    tag_128:\n        /* \"#utility.yul\":4962:5303   */\n      pop\n        /* \"#utility.yul\":4878:5303   */\n      swap4\n      swap3\n      pop\n      pop\n      pop\n      jump\t// out\n        /* \"#utility.yul\":5323:5663   */\n    tag_57:\n        /* \"#utility.yul\":5379:5384   */\n      0x00\n        /* \"#utility.yul\":5428:5431   */\n      dup3\n        /* \"#utility.yul\":5421:5425   */\n      0x1f\n        /* \"#utility.yul\":5413:5419   */\n      dup4\n        /* \"#utility.yul\":5409:5426   */\n      add\n        /* \"#utility.yul\":5405:5432   */\n      slt\n        /* \"#utility.yul\":5395:5517   */\n      tag_130\n      jumpi\n        /* \"#utility.yul\":5436:5515   */\n      tag_131\n      tag_49\n      jump\t// in\n    tag_131:\n        /* \"#utility.yul\":5395:5517   */\n    tag_130:\n        /* \"#utility.yul\":5553:5559   */\n      dup2\n        /* \"#utility.yul\":5540:5560   */\n      calldataload\n        /* \"#utility.yul\":5578:5657   */\n      tag_132\n        /* \"#utility.yul\":5653:5656   */\n      dup5\n        /* \"#utility.yul\":5645:5651   */\n      dup3\n        /* \"#utility.yul\":5638:5642   */\n      0x20\n        /* \"#utility.yul\":5630:5636   */\n      dup7\n        /* \"#utility.yul\":5626:5643   */\n      add\n        /* \"#utility.yul\":5578:5657   */\n      tag_56\n      jump\t// in\n    tag_132:\n        /* \"#utility.yul\":5569:5657   */\n      swap2\n      pop\n        /* \"#utility.yul\":5385:5663   */\n      pop\n        /* \"#utility.yul\":5323:5663   */\n      swap3\n      swap2\n      pop\n      pop\n      jump\t// out\n        /* \"#utility.yul\":5669:5791   */\n    tag_58:\n        /* \"#utility.yul\":5742:5766   */\n      tag_134\n        /* \"#utility.yul\":5760:5765   */\n      dup2\n        /* \"#utility.yul\":5742:5766   */\n      tag_40\n      jump\t// in\n    tag_134:\n        /* \"#utility.yul\":5735:5740   */\n      dup2\n        /* \"#utility.yul\":5732:5767   */\n      eq\n        /* \"#utility.yul\":5722:5785   */\n      tag_135\n      jumpi\n        /* \"#utility.yul\":5781:5782   */\n      0x00\n        /* \"#utility.yul\":5778:5779   */\n      dup1\n        /* \"#utility.yul\":5771:5783   */\n      revert\n        /* \"#utility.yul\":5722:5785   */\n    tag_135:\n        /* \"#utility.yul\":5669:5791   */\n      pop\n      jump\t// out\n        /* \"#utility.yul\":5797:5936   */\n    tag_59:\n        /* \"#utility.yul\":5843:5848   */\n      0x00\n        /* \"#utility.yul\":5881:5887   */\n      dup2\n        /* \"#utility.yul\":5868:5888   */\n      calldataload\n        /* \"#utility.yul\":5859:5888   */\n      swap1\n      pop\n        /* \"#utility.yul\":5897:5930   */\n      tag_137\n        /* \"#utility.yul\":5924:5929   */\n      dup2\n        /* \"#utility.yul\":5897:5930   */\n      tag_58\n      jump\t// in\n    tag_137:\n        /* \"#utility.yul\":5797:5936   */\n      swap3\n      swap2\n      pop\n      pop\n      jump\t// out\n        /* \"#utility.yul\":5942:6596   */\n    tag_16:\n        /* \"#utility.yul\":6020:6026   */\n      0x00\n        /* \"#utility.yul\":6028:6034   */\n      dup1\n        /* \"#utility.yul\":6077:6079   */\n      0x40\n        /* \"#utility.yul\":6065:6074   */\n      dup4\n        /* \"#utility.yul\":6056:6063   */\n      dup6\n        /* \"#utility.yul\":6052:6075   */\n      sub\n        /* \"#utility.yul\":6048:6080   */\n      slt\n        /* \"#utility.yul\":6045:6164   */\n      iszero\n      tag_139\n      jumpi\n        /* \"#utility.yul\":6083:6162   */\n      tag_140\n      tag_47\n      jump\t// in\n    tag_140:\n        /* \"#utility.yul\":6045:6164   */\n    tag_139:\n        /* \"#utility.yul\":6231:6232   */\n      0x00\n        /* \"#utility.yul\":6220:6229   */\n      dup4\n        /* \"#utility.yul\":6216:6233   */\n      add\n        /* \"#utility.yul\":6203:6234   */\n      calldataload\n        /* \"#utility.yul\":6261:6279   */\n      0xffffffffffffffff\n        /* \"#utility.yul\":6253:6259   */\n      dup2\n        /* \"#utility.yul\":6250:6280   */\n      gt\n        /* \"#utility.yul\":6247:6364   */\n      iszero\n      tag_141\n      jumpi\n        /* \"#utility.yul\":6283:6362   */\n      tag_142\n      tag_48\n      jump\t// in\n    tag_142:\n        /* \"#utility.yul\":6247:6364   */\n    tag_141:\n        /* \"#utility.yul\":6388:6451   */\n      tag_143\n        /* \"#utility.yul\":6443:6450   */\n      dup6\n        /* \"#utility.yul\":6434:6440   */\n      dup3\n        /* \"#utility.yul\":6423:6432   */\n      dup7\n        /* \"#utility.yul\":6419:6441   */\n      add\n        /* \"#utility.yul\":6388:6451   */\n      tag_57\n      jump\t// in\n    tag_143:\n        /* \"#utility.yul\":6378:6451   */\n      swap3\n      pop\n        /* \"#utility.yul\":6174:6461   */\n      pop\n        /* \"#utility.yul\":6500:6502   */\n      0x20\n        /* \"#utility.yul\":6526:6579   */\n      tag_144\n        /* \"#utility.yul\":6571:6578   */\n      dup6\n        /* \"#utility.yul\":6562:6568   */\n      dup3\n        /* \"#utility.yul\":6551:6560   */\n      dup7\n        /* \"#utility.yul\":6547:6569   */\n      add\n        /* \"#utility.yul\":6526:6579   */\n      tag_59\n      jump\t// in\n    tag_144:\n        /* \"#utility.yul\":6516:6579   */\n      swap2\n      pop\n        /* \"#utility.yul\":6471:6589   */\n      pop\n        /* \"#utility.yul\":5942:6596   */\n      swap3\n      pop\n      swap3\n      swap1\n      pop\n      jump\t// out\n        /* \"#utility.yul\":6602:6782   */\n    tag_60:\n        /* \"#utility.yul\":6650:6727   */\n      0x4e487b7100000000000000000000000000000000000000000000000000000000\n        /* \"#utility.yul\":6647:6648   */\n      0x00\n        /* \"#utility.yul\":6640:6728   */\n      mstore\n        /* \"#utility.yul\":6747:6751   */\n      0x22\n        /* \"#utility.yul\":6744:6745   */\n      0x04\n        /* \"#utility.yul\":6737:6752   */\n      mstore\n        /* \"#utility.yul\":6771:6775   */\n      0x24\n        /* \"#utility.yul\":6768:6769   */\n      0x00\n        /* \"#utility.yul\":6761:6776   */\n      revert\n        /* \"#utility.yul\":6788:7108   */\n    tag_19:\n        /* \"#utility.yul\":6832:6838   */\n      0x00\n        /* \"#utility.yul\":6869:6870   */\n      0x02\n        /* \"#utility.yul\":6863:6867   */\n      dup3\n        /* \"#utility.yul\":6859:6871   */\n      div\n        /* \"#utility.yul\":6849:6871   */\n      swap1\n      pop\n        /* \"#utility.yul\":6916:6917   */\n      0x01\n        /* \"#utility.yul\":6910:6914   */\n      dup3\n        /* \"#utility.yul\":6906:6918   */\n      and\n        /* \"#utility.yul\":6937:6955   */\n      dup1\n        /* \"#utility.yul\":6927:7008   */\n      tag_147\n      jumpi\n        /* \"#utility.yul\":6993:6997   */\n      0x7f\n        /* \"#utility.yul\":6985:6991   */\n      dup3\n        /* \"#utility.yul\":6981:6998   */\n      and\n        /* \"#utility.yul\":6971:6998   */\n      swap2\n      pop\n        /* \"#utility.yul\":6927:7008   */\n    tag_147:\n        /* \"#utility.yul\":7055:7057   */\n      0x20\n        /* \"#utility.yul\":7047:7053   */\n      dup3\n        /* \"#utility.yul\":7044:7058   */\n      lt\n        /* \"#utility.yul\":7024:7042   */\n      dup2\n        /* \"#utility.yul\":7021:7059   */\n      sub\n        /* \"#utility.yul\":7018:7102   */\n      tag_148\n      jumpi\n        /* \"#utility.yul\":7074:7092   */\n      tag_149\n      tag_60\n      jump\t// in\n    tag_149:\n        /* \"#utility.yul\":7018:7102   */\n    tag_148:\n        /* \"#utility.yul\":6839:7108   */\n      pop\n        /* \"#utility.yul\":6788:7108   */\n      swap2\n      swap1\n      pop\n      jump\t// out\n        /* \"#utility.yul\":7114:7255   */\n    tag_61:\n        /* \"#utility.yul\":7163:7167   */\n      0x00\n        /* \"#utility.yul\":7186:7189   */\n      dup2\n        /* \"#utility.yul\":7178:7189   */\n      swap1\n      pop\n        /* \"#utility.yul\":7209:7212   */\n      dup2\n        /* \"#utility.yul\":7206:7207   */\n      0x00\n        /* \"#utility.yul\":7199:7213   */\n      mstore\n        /* \"#utility.yul\":7243:7247   */\n      0x20\n        /* \"#utility.yul\":7240:7241   */\n      0x00\n        /* \"#utility.yul\":7230:7248   */\n      keccak256\n        /* \"#utility.yul\":7222:7248   */\n      swap1\n      pop\n        /* \"#utility.yul\":7114:7255   */\n      swap2\n      swap1\n      pop\n      jump\t// out\n        /* \"#utility.yul\":7261:7354   */\n    tag_62:\n        /* \"#utility.yul\":7298:7304   */\n      0x00\n        /* \"#utility.yul\":7345:7347   */\n      0x20\n        /* \"#utility.yul\":7340:7342   */\n      0x1f\n        /* \"#utility.yul\":7333:7338   */\n      dup4\n        /* \"#utility.yul\":7329:7343   */\n      add\n        /* \"#utility.yul\":7325:7348   */\n      div\n        /* \"#utility.yul\":7315:7348   */\n      swap1\n      pop\n        /* \"#utility.yul\":7261:7354   */\n      swap2\n      swap1\n      pop\n      jump\t// out\n        /* \"#utility.yul\":7360:7467   */\n    tag_63:\n        /* \"#utility.yul\":7404:7412   */\n      0x00\n        /* \"#utility.yul\":7454:7459   */\n      dup3\n        /* \"#utility.yul\":7448:7452   */\n      dup3\n        /* \"#utility.yul\":7444:7460   */\n      shl\n        /* \"#utility.yul\":7423:7460   */\n      swap1\n      pop\n        /* \"#utility.yul\":7360:7467   */\n      swap3\n      swap2\n      pop\n      pop\n      jump\t// out\n        /* \"#utility.yul\":7473:7866   */\n    tag_64:\n        /* \"#utility.yul\":7542:7548   */\n      0x00\n        /* \"#utility.yul\":7592:7593   */\n      0x08\n        /* \"#utility.yul\":7580:7590   */\n      dup4\n        /* \"#utility.yul\":7576:7594   */\n      mul\n        /* \"#utility.yul\":7615:7712   */\n      tag_154\n        /* \"#utility.yul\":7645:7711   */\n      0xffffffffffffffffffffffffffffffffffffffffffffffffffffffffffffffff\n        /* \"#utility.yul\":7634:7643   */\n      dup3\n        /* \"#utility.yul\":7615:7712   */\n      tag_63\n      jump\t// in\n    tag_154:\n        /* \"#utility.yul\":7733:7772   */\n      tag_155\n        /* \"#utility.yul\":7763:7771   */\n      dup7\n        /* \"#utility.yul\":7752:7761   */\n      dup4\n        /* \"#utility.yul\":7733:7772   */\n      tag_63\n      jump\t// in\n    tag_155:\n        /* \"#utility.yul\":7721:7772   */\n      swap6\n      pop\n        /* \"#utility.yul\":7805:7809   */\n      dup1\n        /* \"#utility.yul\":7801:7810   */\n      not\n        /* \"#utility.yul\":7794:7799   */\n      dup5\n        /* \"#utility.yul\":7790:7811   */\n      and\n        /* \"#utility.yul\":7781:7811   */\n      swap4\n      pop\n        /* \"#utility.yul\":7854:7858   */\n      dup1\n        /* \"#utility.yul\":7844:7852   */\n      dup7\n        /* \"#utility.yul\":7840:7859   */\n      and\n        /* \"#utility.yul\":7833:7838   */\n      dup5\n        /* \"#utility.yul\":7830:7860   */\n      or\n        /* \"#utility.yul\":7820:7860   */\n      swap3\n      pop\n        /* \"#utility.yul\":7549:7866   */\n      pop\n      pop\n        /* \"#utility.yul\":7473:7866   */\n      swap4\n      swap3\n      pop\n      pop\n      pop\n      jump\t// out\n        /* \"#utility.yul\":7872:7932   */\n    tag_65:\n        /* \"#utility.yul\":7900:7903   */\n      0x00\n        /* \"#utility.yul\":7921:7926   */\n      dup2\n        /* \"#utility.yul\":7914:7926   */\n      swap1\n      pop\n        /* \"#utility.yul\":7872:7932   */\n      swap2\n      swap1\n      pop\n      jump\t// out\n        /* \"#utility.yul\":7938:8080   */\n    tag_66:\n        /* \"#utility.yul\":7988:7997   */\n      0x00\n        /* \"#utility.yul\":8021:8074   */\n      tag_158\n        /* \"#utility.yul\":8039:8073   */\n      tag_159\n        /* \"#utility.yul\":8048:8072   */\n      tag_160\n        /* \"#utility.yul\":8066:8071   */\n      dup5\n        /* \"#utility.yul\":8048:8072   */\n      tag_40\n      jump\t// in\n    tag_160:\n        /* \"#utility.yul\":8039:8073   */\n      tag_65\n      jump\t// in\n    tag_159:\n        /* \"#utility.yul\":8021:8074   */\n      tag_40\n      jump\t// in\n    tag_158:\n        /* \"#utility.yul\":8008:8074   */\n      swap1\n      pop\n        /* \"#utility.yul\":7938:8080   */\n      swap2\n      swap1\n      pop\n      jump\t// out\n        /* \"#utility.yul\":8086:8161   */\n    tag_67:\n        /* \"#utility.yul\":8129:8132   */\n      0x00\n        /* \"#utility.yul\":8150:8155   */\n      dup2\n        /* \"#utility.yul\":8143:8155   */\n      swap1\n      pop\n        /* \"#utility.yul\":8086:8161   */\n      swap2\n      swap1\n      pop\n      jump\t// out\n        /* \"#utility.yul\":8167:8436   */\n    tag_68:\n        /* \"#utility.yul\":8277:8316   */\n      tag_163\n        /* \"#utility.yul\":8308:8315   */\n      dup4\n        /* \"#utility.yul\":8277:8316   */\n      tag_66\n      jump\t// in\n    tag_163:\n        /* \"#utility.yul\":8338:8429   */\n      tag_164\n        /* \"#utility.yul\":8387:8428   */\n      tag_165\n        /* \"#utility.yul\":8411:8427   */\n      dup3\n        /* \"#utility.yul\":8387:8428   */\n      tag_67\n      jump\t// in\n    tag_165:\n        /* \"#utility.yul\":8379:8385   */\n      dup5\n        /* \"#utility.yul\":8372:8376   */\n      dup5\n        /* \"#utility.yul\":8366:8377   */\n      sload\n        /* \"#utility.yul\":8338:8429   */\n      tag_64\n      jump\t// in\n    tag_164:\n        /* \"#utility.yul\":8332:8336   */\n      dup3\n        /* \"#utility.yul\":8325:8430   */\n      sstore\n        /* \"#utility.yul\":8243:8436   */\n      pop\n        /* \"#utility.yul\":8167:8436   */\n      pop\n      pop\n      pop\n      jump\t// out\n        /* \"#utility.yul\":8442:8515   */\n    tag_69:\n        /* \"#utility.yul\":8487:8490   */\n      0x00\n        /* \"#utility.yul\":8442:8515   */\n      swap1\n      jump\t// out\n        /* \"#utility.yul\":8521:8710   */\n    tag_70:\n        /* \"#utility.yul\":8598:8630   */\n      tag_168\n      tag_69\n      jump\t// in\n    tag_168:\n        /* \"#utility.yul\":8639:8704   */\n      tag_169\n        /* \"#utility.yul\":8697:8703   */\n      dup2\n        /* \"#utility.yul\":8689:8695   */\n      dup5\n        /* \"#utility.yul\":8683:8687   */\n      dup5\n        /* \"#utility.yul\":8639:8704   */\n      tag_68\n      jump\t// in\n    tag_169:\n        /* \"#utility.yul\":8574:8710   */\n      pop\n        /* \"#utility.yul\":8521:8710   */\n      pop\n      pop\n      jump\t// out\n        /* \"#utility.yul\":8716:8902   */\n    tag_71:\n        /* \"#utility.yul\":8776:8896   */\n    tag_171:\n        /* \"#utility.yul\":8793:8796   */\n      dup2\n        /* \"#utility.yul\":8786:8791   */\n      dup2\n        /* \"#utility.yul\":8783:8797   */\n      lt\n        /* \"#utility.yul\":8776:8896   */\n      iszero\n      tag_173\n      jumpi\n        /* \"#utility.yul\":8847:8886   */\n      tag_174\n        /* \"#utility.yul\":8884:8885   */\n      0x00\n        /* \"#utility.yul\":8877:8882   */\n      dup3\n        /* \"#utility.yul\":8847:8886   */\n      tag_70\n      jump\t// in\n    tag_174:\n        /* \"#utility.yul\":8820:8821   */\n      0x01\n        /* \"#utility.yul\":8813:8818   */\n      dup2\n        /* \"#utility.yul\":8809:8822   */\n      add\n        /* \"#utility.yul\":8800:8822   */\n      swap1\n      pop\n        /* \"#utility.yul\":8776:8896   */\n      jump(tag_171)\n    tag_173:\n        /* \"#utility.yul\":8716:8902   */\n      pop\n      pop\n      jump\t// out\n        /* \"#utility.yul\":8908:9451   */\n    tag_72:\n        /* \"#utility.yul\":9009:9011   */\n      0x1f\n        /* \"#utility.yul\":9004:9007   */\n      dup3\n        /* \"#utility.yul\":9001:9012   */\n      gt\n        /* \"#utility.yul\":8998:9444   */\n      iszero\n      tag_176\n      jumpi\n        /* \"#utility.yul\":9043:9081   */\n      tag_177\n        /* \"#utility.yul\":9075:9080   */\n      dup2\n        /* \"#utility.yul\":9043:9081   */\n      tag_61\n      jump\t// in\n    tag_177:\n        /* \"#utility.yul\":9127:9156   */\n      tag_178\n        /* \"#utility.yul\":9145:9155   */\n      dup5\n        /* \"#utility.yul\":9127:9156   */\n      tag_62\n      jump\t// in\n    tag_178:\n        /* \"#utility.yul\":9117:9125   */\n      dup2\n        /* \"#utility.yul\":9113:9157   */\n      add\n        /* \"#utility.yul\":9310:9312   */\n      0x20\n        /* \"#utility.yul\":9298:9308   */\n      dup6\n        /* \"#utility.yul\":9295:9313   */\n      lt\n        /* \"#utility.yul\":9292:9341   */\n      iszero\n      tag_179\n      jumpi\n        /* \"#utility.yul\":9331:9339   */\n      dup2\n        /* \"#utility.yul\":9316:9339   */\n      swap1\n      pop\n        /* \"#utility.yul\":9292:9341   */\n    tag_179:\n        /* \"#utility.yul\":9354:9434   */\n      tag_180\n        /* \"#utility.yul\":9410:9432   */\n      tag_181\n        /* \"#utility.yul\":9428:9431   */\n      dup6\n        /* \"#utility.yul\":9410:9432   */\n      tag_62\n      jump\t// in\n    tag_181:\n        /* \"#utility.yul\":9400:9408   */\n      dup4\n        /* \"#utility.yul\":9396:9433   */\n      add\n        /* \"#utility.yul\":9383:9394   */\n      dup3\n        /* \"#utility.yul\":9354:9434   */\n      tag_71\n      jump\t// in\n    tag_180:\n        /* \"#utility.yul\":9013:9444   */\n      pop\n      pop\n        /* \"#utility.yul\":8998:9444   */\n    tag_176:\n        /* \"#utility.yul\":8908:9451   */\n      pop\n      pop\n      pop\n      jump\t// out\n        /* \"#utility.yul\":9457:9574   */\n    tag_73:\n        /* \"#utility.yul\":9511:9519   */\n      0x00\n        /* \"#utility.yul\":9561:9566   */\n      dup3\n        /* \"#utility.yul\":9555:9559   */\n      dup3\n        /* \"#utility.yul\":9551:9567   */\n      shr\n        /* \"#utility.yul\":9530:9567   */\n      swap1\n      pop\n        /* \"#utility.yul\":9457:9574   */\n      swap3\n      swap2\n      pop\n      pop\n      jump\t// out\n        /* \"#utility.yul\":9580:9749   */\n    tag_74:\n        /* \"#utility.yul\":9624:9630   */\n      0x00\n        /* \"#utility.yul\":9657:9708   */\n      tag_184\n        /* \"#utility.yul\":9705:9706   */\n      0x00\n        /* \"#utility.yul\":9701:9707   */\n      not\n        /* \"#utility.yul\":9693:9698   */\n      dup5\n        /* \"#utility.yul\":9690:9691   */\n      0x08\n        /* \"#utility.yul\":9686:9699   */\n      mul\n        /* \"#utility.yul\":9657:9708   */\n      tag_73\n      jump\t// in\n    tag_184:\n        /* \"#utility.yul\":9653:9709   */\n      not\n        /* \"#utility.yul\":9738:9742   */\n      dup1\n        /* \"#utility.yul\":9732:9736   */\n      dup4\n        /* \"#utility.yul\":9728:9743   */\n      and\n        /* \"#utility.yul\":9718:9743   */\n      swap2\n      pop\n        /* \"#utility.yul\":9631:9749   */\n      pop\n        /* \"#utility.yul\":9580:9749   */\n      swap3\n      swap2\n      pop\n      pop\n      jump\t// out\n        /* \"#utility.yul\":9754:10049   */\n    tag_75:\n        /* \"#utility.yul\":9830:9834   */\n      0x00\n        /* \"#utility.yul\":9976:10005   */\n      tag_186\n        /* \"#utility.yul\":10001:10004   */\n      dup4\n        /* \"#utility.yul\":9995:9999   */\n      dup4\n        /* \"#utility.yul\":9976:10005   */\n      tag_74\n      jump\t// in\n    tag_186:\n        /* \"#utility.yul\":9968:10005   */\n      swap2\n      pop\n        /* \"#utility.yul\":10038:10041   */\n      dup3\n        /* \"#utility.yul\":10035:10036   */\n      0x02\n        /* \"#utility.yul\":10031:10042   */\n      mul\n        /* \"#utility.yul\":10025:10029   */\n      dup3\n        /* \"#utility.yul\":10022:10043   */\n      or\n        /* \"#utility.yul\":10014:10043   */\n      swap1\n      pop\n        /* \"#utility.yul\":9754:10049   */\n      swap3\n      swap2\n      pop\n      pop\n      jump\t// out\n        /* \"#utility.yul\":10054:11449   */\n    tag_34:\n        /* \"#utility.yul\":10171:10208   */\n      tag_188\n        /* \"#utility.yul\":10204:10207   */\n      dup3\n        /* \"#utility.yul\":10171:10208   */\n      tag_35\n      jump\t// in\n    tag_188:\n        /* \"#utility.yul\":10273:10291   */\n      0xffffffffffffffff\n        /* \"#utility.yul\":10265:10271   */\n      dup2\n        /* \"#utility.yul\":10262:10292   */\n      gt\n        /* \"#utility.yul\":10259:10315   */\n      iszero\n      tag_189\n      jumpi\n        /* \"#utility.yul\":10295:10313   */\n      tag_190\n      tag_51\n      jump\t// in\n    tag_190:\n        /* \"#utility.yul\":10259:10315   */\n    tag_189:\n        /* \"#utility.yul\":10339:10377   */\n      tag_191\n        /* \"#utility.yul\":10371:10375   */\n      dup3\n        /* \"#utility.yul\":10365:10376   */\n      sload\n        /* \"#utility.yul\":10339:10377   */\n      tag_19\n      jump\t// in\n    tag_191:\n        /* \"#utility.yul\":10424:10491   */\n      tag_192\n        /* \"#utility.yul\":10484:10490   */\n      dup3\n        /* \"#utility.yul\":10476:10482   */\n      dup3\n        /* \"#utility.yul\":10470:10474   */\n      dup6\n        /* \"#utility.yul\":10424:10491   */\n      tag_72\n      jump\t// in\n    tag_192:\n        /* \"#utility.yul\":10518:10519   */\n      0x00\n        /* \"#utility.yul\":10542:10546   */\n      0x20\n        /* \"#utility.yul\":10529:10546   */\n      swap1\n      pop\n        /* \"#utility.yul\":10574:10576   */\n      0x1f\n        /* \"#utility.yul\":10566:10572   */\n      dup4\n        /* \"#utility.yul\":10563:10577   */\n      gt\n        /* \"#utility.yul\":10591:10592   */\n      0x01\n        /* \"#utility.yul\":10586:11204   */\n      dup2\n      eq\n      tag_194\n      jumpi\n        /* \"#utility.yul\":11248:11249   */\n      0x00\n        /* \"#utility.yul\":11265:11271   */\n      dup5\n        /* \"#utility.yul\":11262:11339   */\n      iszero\n      tag_195\n      jumpi\n        /* \"#utility.yul\":11314:11323   */\n      dup3\n        /* \"#utility.yul\":11309:11312   */\n      dup8\n        /* \"#utility.yul\":11305:11324   */\n      add\n        /* \"#utility.yul\":11299:11325   */\n      mload\n        /* \"#utility.yul\":11290:11325   */\n      swap1\n      pop\n        /* \"#utility.yul\":11262:11339   */\n    tag_195:\n        /* \"#utility.yul\":11365:11432   */\n      tag_196\n        /* \"#utility.yul\":11425:11431   */\n      dup6\n        /* \"#utility.yul\":11418:11423   */\n      dup3\n        /* \"#utility.yul\":11365:11432   */\n      tag_75\n      jump\t// in\n    tag_196:\n        /* \"#utility.yul\":11359:11363   */\n      dup7\n        /* \"#utility.yul\":11352:11433   */\n      sstore\n        /* \"#utility.yul\":11221:11443   */\n      pop\n        /* \"#utility.yul\":10556:11443   */\n      jump(tag_193)\n        /* \"#utility.yul\":10586:11204   */\n    tag_194:\n        /* \"#utility.yul\":10638:10642   */\n      0x1f\n        /* \"#utility.yul\":10634:10643   */\n      not\n        /* \"#utility.yul\":10626:10632   */\n      dup5\n        /* \"#utility.yul\":10622:10644   */\n      and\n        /* \"#utility.yul\":10672:10709   */\n      tag_197\n        /* \"#utility.yul\":10704:10708   */\n      dup7\n        /* \"#utility.yul\":10672:10709   */\n      tag_61\n      jump\t// in\n    tag_197:\n        /* \"#utility.yul\":10731:10732   */\n      0x00\n        /* \"#utility.yul\":10745:10953   */\n    tag_198:\n        /* \"#utility.yul\":10759:10766   */\n      dup3\n        /* \"#utility.yul\":10756:10757   */\n      dup2\n        /* \"#utility.yul\":10753:10767   */\n      lt\n        /* \"#utility.yul\":10745:10953   */\n      iszero\n      tag_200\n      jumpi\n        /* \"#utility.yul\":10838:10847   */\n      dup5\n        /* \"#utility.yul\":10833:10836   */\n      dup10\n        /* \"#utility.yul\":10829:10848   */\n      add\n        /* \"#utility.yul\":10823:10849   */\n      mload\n        /* \"#utility.yul\":10815:10821   */\n      dup3\n        /* \"#utility.yul\":10808:10850   */\n      sstore\n        /* \"#utility.yul\":10889:10890   */\n      0x01\n        /* \"#utility.yul\":10881:10887   */\n      dup3\n        /* \"#utility.yul\":10877:10891   */\n      add\n        /* \"#utility.yul\":10867:10891   */\n      swap2\n      pop\n        /* \"#utility.yul\":10936:10938   */\n      0x20\n        /* \"#utility.yul\":10925:10934   */\n      dup6\n        /* \"#utility.yul\":10921:10939   */\n      add\n        /* \"#utility.yul\":10908:10939   */\n      swap5\n      pop\n        /* \"#utility.yul\":10782:10786   */\n      0x20\n        /* \"#utility.yul\":10779:10780   */\n      dup2\n        /* \"#utility.yul\":10775:10787   */\n      add\n        /* \"#utility.yul\":10770:10787   */\n      swap1\n      pop\n        /* \"#utility.yul\":10745:10953   */\n      jump(tag_198)\n    tag_200:\n        /* \"#utility.yul\":10981:10987   */\n      dup7\n        /* \"#utility.yul\":10972:10979   */\n      dup4\n        /* \"#utility.yul\":10969:10988   */\n      lt\n        /* \"#utility.yul\":10966:11145   */\n      iszero\n      tag_201\n      jumpi\n        /* \"#utility.yul\":11039:11048   */\n      dup5\n        /* \"#utility.yul\":11034:11037   */\n      dup10\n        /* \"#utility.yul\":11030:11049   */\n      add\n        /* \"#utility.yul\":11024:11050   */\n      mload\n        /* \"#utility.yul\":11082:11130   */\n      tag_202\n        /* \"#utility.yul\":11124:11128   */\n      0x1f\n        /* \"#utility.yul\":11116:11122   */\n      dup10\n        /* \"#utility.yul\":11112:11129   */\n      and\n        /* \"#utility.yul\":11101:11110   */\n      dup3\n        /* \"#utility.yul\":11082:11130   */\n      tag_74\n      jump\t// in\n    tag_202:\n        /* \"#utility.yul\":11074:11080   */\n      dup4\n        /* \"#utility.yul\":11067:11131   */\n      sstore\n        /* \"#utility.yul\":10989:11145   */\n      pop\n        /* \"#utility.yul\":10966:11145   */\n    tag_201:\n        /* \"#utility.yul\":11191:11192   */\n      0x01\n        /* \"#utility.yul\":11187:11188   */\n      0x02\n        /* \"#utility.yul\":11179:11185   */\n      dup9\n        /* \"#utility.yul\":11175:11189   */\n      mul\n        /* \"#utility.yul\":11171:11193   */\n      add\n        /* \"#utility.yul\":11165:11169   */\n      dup9\n        /* \"#utility.yul\":11158:11194   */\n      sstore\n        /* \"#utility.yul\":10593:11204   */\n      pop\n      pop\n      pop\n        /* \"#utility.yul\":10556:11443   */\n    tag_193:\n      pop\n        /* \"#utility.yul\":10146:11449   */\n      pop\n      pop\n      pop\n        /* \"#utility.yul\":10054:11449   */\n      pop\n      pop\n      jump\t// out\n\n    auxdata: 0xa2646970667358221220080c4555250a4622cd4a26cbaf74248ff8a376caf8461f6c5edabc4565b7a39a64736f6c634300081a0033\n}\n",
				"bytecode": {
					"linkReferences": {},
					"object": "6080604052348015600e575f80fd5b5061085f8061001c5f395ff3fe608060405234801561000f575f80fd5b506004361061003f575f3560e01c806336ac4889146100435780634ba2005014610062578063d3af52dc14610080575b5f80fd5b61004b61009c565b6040516100599291906102c0565b60405180910390f35b61006a610132565b604051610077919061037f565b60405180910390f35b61009a60048036038101906100959190610506565b6101e4565b005b5f805f0180546100ab9061058d565b80601f01602080910402602001604051908101604052809291908181526020018280546100d79061058d565b80156101225780601f106100f957610100808354040283529160200191610122565b820191905f5260205f20905b81548152906001019060200180831161010557829003601f168201915b5050505050908060010154905082565b61013a61021f565b5f6040518060400160405290815f820180546101559061058d565b80601f01602080910402602001604051908101604052809291908181526020018280546101819061058d565b80156101cc5780601f106101a3576101008083540402835291602001916101cc565b820191905f5260205f20905b8154815290600101906020018083116101af57829003601f168201915b50505050508152602001600182015481525050905090565b6040518060400160405280838152602001828152505f80820151815f01908161020d919061075a565b50602082015181600101559050505050565b6040518060400160405280606081526020015f81525090565b5f81519050919050565b5f82825260208201905092915050565b8281835e5f83830152505050565b5f601f19601f8301169050919050565b5f61027a82610238565b6102848185610242565b9350610294818560208601610252565b61029d81610260565b840191505092915050565b5f819050919050565b6102ba816102a8565b82525050565b5f6040820190508181035f8301526102d88185610270565b90506102e760208301846102b1565b9392505050565b5f82825260208201905092915050565b5f61030882610238565b61031281856102ee565b9350610322818560208601610252565b61032b81610260565b840191505092915050565b61033f816102a8565b82525050565b5f604083015f8301518482035f86015261035f82826102fe565b91505060208301516103746020860182610336565b508091505092915050565b5f6020820190508181035f8301526103978184610345565b905092915050565b5f604051905090565b5f80fd5b5f80fd5b5f80fd5b5f80fd5b7f4e487b71000000000000000000000000000000000000000000000000000000005f52604160045260245ffd5b6103ee82610260565b810181811067ffffffffffffffff8211171561040d5761040c6103b8565b5b80604052505050565b5f61041f61039f565b905061042b82826103e5565b919050565b5f67ffffffffffffffff82111561044a576104496103b8565b5b61045382610260565b9050602081019050919050565b828183375f83830152505050565b5f61048061047b84610430565b610416565b90508281526020810184848401111561049c5761049b6103b4565b5b6104a7848285610460565b509392505050565b5f82601f8301126104c3576104c26103b0565b5b81356104d384826020860161046e565b91505092915050565b6104e5816102a8565b81146104ef575f80fd5b50565b5f81359050610500816104dc565b92915050565b5f806040838503121561051c5761051b6103a8565b5b5f83013567ffffffffffffffff811115610539576105386103ac565b5b610545858286016104af565b9250506020610556858286016104f2565b9150509250929050565b7f4e487b71000000000000000000000000000000000000000000000000000000005f52602260045260245ffd5b5f60028204905060018216806105a457607f821691505b6020821081036105b7576105b6610560565b5b50919050565b5f819050815f5260205f209050919050565b5f6020601f8301049050919050565b5f82821b905092915050565b5f600883026106197fffffffffffffffffffffffffffffffffffffffffffffffffffffffffffffffff826105de565b61062386836105de565b95508019841693508086168417925050509392505050565b5f819050919050565b5f61065e610659610654846102a8565b61063b565b6102a8565b9050919050565b5f819050919050565b61067783610644565b61068b61068382610665565b8484546105ea565b825550505050565b5f90565b61069f610693565b6106aa81848461066e565b505050565b5b818110156106cd576106c25f82610697565b6001810190506106b0565b5050565b601f821115610712576106e3816105bd565b6106ec846105cf565b810160208510156106fb578190505b61070f610707856105cf565b8301826106af565b50505b505050565b5f82821c905092915050565b5f6107325f1984600802610717565b1980831691505092915050565b5f61074a8383610723565b9150826002028217905092915050565b61076382610238565b67ffffffffffffffff81111561077c5761077b6103b8565b5b610786825461058d565b6107918282856106d1565b5f60209050601f8311600181146107c2575f84156107b0578287015190505b6107ba858261073f565b865550610821565b601f1984166107d0866105bd565b5f5b828110156107f7578489015182556001820191506020850194506020810190506107d2565b868310156108145784890151610810601f891682610723565b8355505b6001600288020188555050505b50505050505056fea2646970667358221220080c4555250a4622cd4a26cbaf74248ff8a376caf8461f6c5edabc4565b7a39a64736f6c634300081a0033",
					"opcodes": "PUSH1 0x80 PUSH1 0x40 MSTORE CALLVALUE DUP1 ISZERO PUSH1 0xE JUMPI PUSH0 DUP1 REVERT JUMPDEST POP PUSH2 0x85F DUP1 PUSH2 0x1C PUSH0 CODECOPY PUSH0 RETURN INVALID PUSH1 0x80 PUSH1 0x40 MSTORE CALLVALUE DUP1 ISZERO PUSH2 0xF JUMPI PUSH0 DUP1 REVERT JUMPDEST POP PUSH1 0x4 CALLDATASIZE LT PUSH2 0x3F JUMPI PUSH0 CALLDATALOAD PUSH1 0xE0 SHR DUP1 PUSH4 0x36AC4889 EQ PUSH2 0x43 JUMPI DUP1 PUSH4 0x4BA20050 EQ PUSH2 0x62 JUMPI DUP1 PUSH4 0xD3AF52DC EQ PUSH2 0x80 JUMPI JUMPDEST PUSH0 DUP1 REVERT JUMPDEST PUSH2 0x4B PUSH2 0x9C JUMP JUMPDEST PUSH1 0x40 MLOAD PUSH2 0x59 SWAP3 SWAP2 SWAP1 PUSH2 0x2C0 JUMP JUMPDEST PUSH1 0x40 MLOAD DUP1 SWAP2 SUB SWAP1 RETURN JUMPDEST PUSH2 0x6A PUSH2 0x132 JUMP JUMPDEST PUSH1 0x40 MLOAD PUSH2 0x77 SWAP2 SWAP1 PUSH2 0x37F JUMP JUMPDEST PUSH1 0x40 MLOAD DUP1 SWAP2 SUB SWAP1 RETURN JUMPDEST PUSH2 0x9A PUSH1 0x4 DUP1 CALLDATASIZE SUB DUP2 ADD SWAP1 PUSH2 0x95 SWAP2 SWAP1 PUSH2 0x506 JUMP JUMPDEST PUSH2 0x1E4 JUMP JUMPDEST STOP JUMPDEST PUSH0 DUP1 PUSH0 ADD DUP1 SLOAD PUSH2 0xAB SWAP1 PUSH2 0x58D JUMP JUMPDEST DUP1 PUSH1 0x1F ADD PUSH1 0x20 DUP1 SWAP2 DIV MUL PUSH1 0x20 ADD PUSH1 0x40 MLOAD SWAP1 DUP2 ADD PUSH1 0x40 MSTORE DUP1 SWAP3 SWAP2 SWAP1 DUP2 DUP2 MSTORE PUSH1 0x20 ADD DUP3 DUP1 SLOAD PUSH2 0xD7 SWAP1 PUSH2 0x58D JUMP JUMPDEST DUP1 ISZERO PUSH2 0x122 JUMPI DUP1 PUSH1 0x1F LT PUSH2 0xF9 JUMPI PUSH2 0x100 DUP1 DUP4 SLOAD DIV MUL DUP4 MSTORE SWAP2 PUSH1 0x20 ADD SWAP2 PUSH2 0x122 JUMP JUMPDEST DUP3 ADD SWAP2 SWAP1 PUSH0 MSTORE PUSH1 0x20 PUSH0 KECCAK256 SWAP1 JUMPDEST DUP2 SLOAD DUP2 MSTORE SWAP1 PUSH1 0x1 ADD SWAP1 PUSH1 0x20 ADD DUP1 DUP4 GT PUSH2 0x105 JUMPI DUP3 SWAP1 SUB PUSH1 0x1F AND DUP3 ADD SWAP2 JUMPDEST POP POP POP POP POP SWAP1 DUP1 PUSH1 0x1 ADD SLOAD SWAP1 POP DUP3 JUMP JUMPDEST PUSH2 0x13A PUSH2 0x21F JUMP JUMPDEST PUSH0 PUSH1 0x40 MLOAD DUP1 PUSH1 0x40 ADD PUSH1 0x40 MSTORE SWAP1 DUP2 PUSH0 DUP3 ADD DUP1 SLOAD PUSH2 0x155 SWAP1 PUSH2 0x58D JUMP JUMPDEST DUP1 PUSH1 0x1F ADD PUSH1 0x20 DUP1 SWAP2 DIV MUL PUSH1 0x20 ADD PUSH1 0x40 MLOAD SWAP1 DUP2 ADD PUSH1 0x40 MSTORE DUP1 SWAP3 SWAP2 SWAP1 DUP2 DUP2 MSTORE PUSH1 0x20 ADD DUP3 DUP1 SLOAD PUSH2 0x181 SWAP1 PUSH2 0x58D JUMP JUMPDEST DUP1 ISZERO PUSH2 0x1CC JUMPI DUP1 PUSH1 0x1F LT PUSH2 0x1A3 JUMPI PUSH2 0x100 DUP1 DUP4 SLOAD DIV MUL DUP4 MSTORE SWAP2 PUSH1 0x20 ADD SWAP2 PUSH2 0x1CC JUMP JUMPDEST DUP3 ADD SWAP2 SWAP1 PUSH0 MSTORE PUSH1 0x20 PUSH0 KECCAK256 SWAP1 JUMPDEST DUP2 SLOAD DUP2 MSTORE SWAP1 PUSH1 0x1 ADD SWAP1 PUSH1 0x20 ADD DUP1 DUP4 GT PUSH2 0x1AF JUMPI DUP3 SWAP1 SUB PUSH1 0x1F AND DUP3 ADD SWAP2 JUMPDEST POP POP POP POP POP DUP2 MSTORE PUSH1 0x20 ADD PUSH1 0x1 DUP3 ADD SLOAD DUP2 MSTORE POP POP SWAP1 POP SWAP1 JUMP JUMPDEST PUSH1 0x40 MLOAD DUP1 PUSH1 0x40 ADD PUSH1 0x40 MSTORE DUP1 DUP4 DUP2 MSTORE PUSH1 0x20 ADD DUP3 DUP2 MSTORE POP PUSH0 DUP1 DUP3 ADD MLOAD DUP2 PUSH0 ADD SWAP1 DUP2 PUSH2 0x20D SWAP2 SWAP1 PUSH2 0x75A JUMP JUMPDEST POP PUSH1 0x20 DUP3 ADD MLOAD DUP2 PUSH1 0x1 ADD SSTORE SWAP1 POP POP POP POP JUMP JUMPDEST PUSH1 0x40 MLOAD DUP1 PUSH1 0x40 ADD PUSH1 0x40 MSTORE DUP1 PUSH1 0x60 DUP2 MSTORE PUSH1 0x20 ADD PUSH0 DUP2 MSTORE POP SWAP1 JUMP JUMPDEST PUSH0 DUP2 MLOAD SWAP1 POP SWAP2 SWAP1 POP JUMP JUMPDEST PUSH0 DUP3 DUP3 MSTORE PUSH1 0x20 DUP3 ADD SWAP1 POP SWAP3 SWAP2 POP POP JUMP JUMPDEST DUP3 DUP2 DUP4 MCOPY PUSH0 DUP4 DUP4 ADD MSTORE POP POP POP JUMP JUMPDEST PUSH0 PUSH1 0x1F NOT PUSH1 0x1F DUP4 ADD AND SWAP1 POP SWAP2 SWAP1 POP JUMP JUMPDEST PUSH0 PUSH2 0x27A DUP3 PUSH2 0x238 JUMP JUMPDEST PUSH2 0x284 DUP2 DUP6 PUSH2 0x242 JUMP JUMPDEST SWAP4 POP PUSH2 0x294 DUP2 DUP6 PUSH1 0x20 DUP7 ADD PUSH2 0x252 JUMP JUMPDEST PUSH2 0x29D DUP2 PUSH2 0x260 JUMP JUMPDEST DUP5 ADD SWAP2 POP POP SWAP3 SWAP2 POP POP JUMP JUMPDEST PUSH0 DUP2 SWAP1 POP SWAP2 SWAP1 POP JUMP JUMPDEST PUSH2 0x2BA DUP2 PUSH2 0x2A8 JUMP JUMPDEST DUP3 MSTORE POP POP JUMP JUMPDEST PUSH0 PUSH1 0x40 DUP3 ADD SWAP1 POP DUP2 DUP2 SUB PUSH0 DUP4 ADD MSTORE PUSH2 0x2D8 DUP2 DUP6 PUSH2 0x270 JUMP JUMPDEST SWAP1 POP PUSH2 0x2E7 PUSH1 0x20 DUP4 ADD DUP5 PUSH2 0x2B1 JUMP JUMPDEST SWAP4 SWAP3 POP POP POP JUMP JUMPDEST PUSH0 DUP3 DUP3 MSTORE PUSH1 0x20 DUP3 ADD SWAP1 POP SWAP3 SWAP2 POP POP JUMP JUMPDEST PUSH0 PUSH2 0x308 DUP3 PUSH2 0x238 JUMP JUMPDEST PUSH2 0x312 DUP2 DUP6 PUSH2 0x2EE JUMP JUMPDEST SWAP4 POP PUSH2 0x322 DUP2 DUP6 PUSH1 0x20 DUP7 ADD PUSH2 0x252 JUMP JUMPDEST PUSH2 0x32B DUP2 PUSH2 0x260 JUMP JUMPDEST DUP5 ADD SWAP2 POP POP SWAP3 SWAP2 POP POP JUMP JUMPDEST PUSH2 0x33F DUP2 PUSH2 0x2A8 JUMP JUMPDEST DUP3 MSTORE POP POP JUMP JUMPDEST PUSH0 PUSH1 0x40 DUP4 ADD PUSH0 DUP4 ADD MLOAD DUP5 DUP3 SUB PUSH0 DUP7 ADD MSTORE PUSH2 0x35F DUP3 DUP3 PUSH2 0x2FE JUMP JUMPDEST SWAP2 POP POP PUSH1 0x20 DUP4 ADD MLOAD PUSH2 0x374 PUSH1 0x20 DUP7 ADD DUP3 PUSH2 0x336 JUMP JUMPDEST POP DUP1 SWAP2 POP POP SWAP3 SWAP2 POP POP JUMP JUMPDEST PUSH0 PUSH1 0x20 DUP3 ADD SWAP1 POP DUP2 DUP2 SUB PUSH0 DUP4 ADD MSTORE PUSH2 0x397 DUP2 DUP5 PUSH2 0x345 JUMP JUMPDEST SWAP1 POP SWAP3 SWAP2 POP POP JUMP JUMPDEST PUSH0 PUSH1 0x40 MLOAD SWAP1 POP SWAP1 JUMP JUMPDEST PUSH0 DUP1 REVERT JUMPDEST PUSH0 DUP1 REVERT JUMPDEST PUSH0 DUP1 REVERT JUMPDEST PUSH0 DUP1 REVERT JUMPDEST PUSH32 0x4E487B7100000000000000000000000000000000000000000000000000000000 PUSH0 MSTORE PUSH1 0x41 PUSH1 0x4 MSTORE PUSH1 0x24 PUSH0 REVERT JUMPDEST PUSH2 0x3EE DUP3 PUSH2 0x260 JUMP JUMPDEST DUP2 ADD DUP2 DUP2 LT PUSH8 0xFFFFFFFFFFFFFFFF DUP3 GT OR ISZERO PUSH2 0x40D JUMPI PUSH2 0x40C PUSH2 0x3B8 JUMP JUMPDEST JUMPDEST DUP1 PUSH1 0x40 MSTORE POP POP POP JUMP JUMPDEST PUSH0 PUSH2 0x41F PUSH2 0x39F JUMP JUMPDEST SWAP1 POP PUSH2 0x42B DUP3 DUP3 PUSH2 0x3E5 JUMP JUMPDEST SWAP2 SWAP1 POP JUMP JUMPDEST PUSH0 PUSH8 0xFFFFFFFFFFFFFFFF DUP3 GT ISZERO PUSH2 0x44A JUMPI PUSH2 0x449 PUSH2 0x3B8 JUMP JUMPDEST JUMPDEST PUSH2 0x453 DUP3 PUSH2 0x260 JUMP JUMPDEST SWAP1 POP PUSH1 0x20 DUP2 ADD SWAP1 POP SWAP2 SWAP1 POP JUMP JUMPDEST DUP3 DUP2 DUP4 CALLDATACOPY PUSH0 DUP4 DUP4 ADD MSTORE POP POP POP JUMP JUMPDEST PUSH0 PUSH2 0x480 PUSH2 0x47B DUP5 PUSH2 0x430 JUMP JUMPDEST PUSH2 0x416 JUMP JUMPDEST SWAP1 POP DUP3 DUP2 MSTORE PUSH1 0x20 DUP2 ADD DUP5 DUP5 DUP5 ADD GT ISZERO PUSH2 0x49C JUMPI PUSH2 0x49B PUSH2 0x3B4 JUMP JUMPDEST JUMPDEST PUSH2 0x4A7 DUP5 DUP3 DUP6 PUSH2 0x460 JUMP JUMPDEST POP SWAP4 SWAP3 POP POP POP JUMP JUMPDEST PUSH0 DUP3 PUSH1 0x1F DUP4 ADD SLT PUSH2 0x4C3 JUMPI PUSH2 0x4C2 PUSH2 0x3B0 JUMP JUMPDEST JUMPDEST DUP2 CALLDATALOAD PUSH2 0x4D3 DUP5 DUP3 PUSH1 0x20 DUP7 ADD PUSH2 0x46E JUMP JUMPDEST SWAP2 POP POP SWAP3 SWAP2 POP POP JUMP JUMPDEST PUSH2 0x4E5 DUP2 PUSH2 0x2A8 JUMP JUMPDEST DUP2 EQ PUSH2 0x4EF JUMPI PUSH0 DUP1 REVERT JUMPDEST POP JUMP JUMPDEST PUSH0 DUP2 CALLDATALOAD SWAP1 POP PUSH2 0x500 DUP2 PUSH2 0x4DC JUMP JUMPDEST SWAP3 SWAP2 POP POP JUMP JUMPDEST PUSH0 DUP1 PUSH1 0x40 DUP4 DUP6 SUB SLT ISZERO PUSH2 0x51C JUMPI PUSH2 0x51B PUSH2 0x3A8 JUMP JUMPDEST JUMPDEST PUSH0 DUP4 ADD CALLDATALOAD PUSH8 0xFFFFFFFFFFFFFFFF DUP2 GT ISZERO PUSH2 0x539 JUMPI PUSH2 0x538 PUSH2 0x3AC JUMP JUMPDEST JUMPDEST PUSH2 0x545 DUP6 DUP3 DUP7 ADD PUSH2 0x4AF JUMP JUMPDEST SWAP3 POP POP PUSH1 0x20 PUSH2 0x556 DUP6 DUP3 DUP7 ADD PUSH2 0x4F2 JUMP JUMPDEST SWAP2 POP POP SWAP3 POP SWAP3 SWAP1 POP JUMP JUMPDEST PUSH32 0x4E487B7100000000000000000000000000000000000000000000000000000000 PUSH0 MSTORE PUSH1 0x22 PUSH1 0x4 MSTORE PUSH1 0x24 PUSH0 REVERT JUMPDEST PUSH0 PUSH1 0x2 DUP3 DIV SWAP1 POP PUSH1 0x1 DUP3 AND DUP1 PUSH2 0x5A4 JUMPI PUSH1 0x7F DUP3 AND SWAP2 POP JUMPDEST PUSH1 0x20 DUP3 LT DUP2 SUB PUSH2 0x5B7 JUMPI PUSH2 0x5B6 PUSH2 0x560 JUMP JUMPDEST JUMPDEST POP SWAP2 SWAP1 POP JUMP JUMPDEST PUSH0 DUP2 SWAP1 POP DUP2 PUSH0 MSTORE PUSH1 0x20 PUSH0 KECCAK256 SWAP1 POP SWAP2 SWAP1 POP JUMP JUMPDEST PUSH0 PUSH1 0x20 PUSH1 0x1F DUP4 ADD DIV SWAP1 POP SWAP2 SWAP1 POP JUMP JUMPDEST PUSH0 DUP3 DUP3 SHL SWAP1 POP SWAP3 SWAP2 POP POP JUMP JUMPDEST PUSH0 PUSH1 0x8 DUP4 MUL PUSH2 0x619 PUSH32 0xFFFFFFFFFFFFFFFFFFFFFFFFFFFFFFFFFFFFFFFFFFFFFFFFFFFFFFFFFFFFFFFF DUP3 PUSH2 0x5DE JUMP JUMPDEST PUSH2 0x623 DUP7 DUP4 PUSH2 0x5DE JUMP JUMPDEST SWAP6 POP DUP1 NOT DUP5 AND SWAP4 POP DUP1 DUP7 AND DUP5 OR SWAP3 POP POP POP SWAP4 SWAP3 POP POP POP JUMP JUMPDEST PUSH0 DUP2 SWAP1 POP SWAP2 SWAP1 POP JUMP JUMPDEST PUSH0 PUSH2 0x65E PUSH2 0x659 PUSH2 0x654 DUP5 PUSH2 0x2A8 JUMP JUMPDEST PUSH2 0x63B JUMP JUMPDEST PUSH2 0x2A8 JUMP JUMPDEST SWAP1 POP SWAP2 SWAP1 POP JUMP JUMPDEST PUSH0 DUP2 SWAP1 POP SWAP2 SWAP1 POP JUMP JUMPDEST PUSH2 0x677 DUP4 PUSH2 0x644 JUMP JUMPDEST PUSH2 0x68B PUSH2 0x683 DUP3 PUSH2 0x665 JUMP JUMPDEST DUP5 DUP5 SLOAD PUSH2 0x5EA JUMP JUMPDEST DUP3 SSTORE POP POP POP POP JUMP JUMPDEST PUSH0 SWAP1 JUMP JUMPDEST PUSH2 0x69F PUSH2 0x693 JUMP JUMPDEST PUSH2 0x6AA DUP2 DUP5 DUP5 PUSH2 0x66E JUMP JUMPDEST POP POP POP JUMP JUMPDEST JUMPDEST DUP2 DUP2 LT ISZERO PUSH2 0x6CD JUMPI PUSH2 0x6C2 PUSH0 DUP3 PUSH2 0x697 JUMP JUMPDEST PUSH1 0x1 DUP2 ADD SWAP1 POP PUSH2 0x6B0 JUMP JUMPDEST POP POP JUMP JUMPDEST PUSH1 0x1F DUP3 GT ISZERO PUSH2 0x712 JUMPI PUSH2 0x6E3 DUP2 PUSH2 0x5BD JUMP JUMPDEST PUSH2 0x6EC DUP5 PUSH2 0x5CF JUMP JUMPDEST DUP2 ADD PUSH1 0x20 DUP6 LT ISZERO PUSH2 0x6FB JUMPI DUP2 SWAP1 POP JUMPDEST PUSH2 0x70F PUSH2 0x707 DUP6 PUSH2 0x5CF JUMP JUMPDEST DUP4 ADD DUP3 PUSH2 0x6AF JUMP JUMPDEST POP POP JUMPDEST POP POP POP JUMP JUMPDEST PUSH0 DUP3 DUP3 SHR SWAP1 POP SWAP3 SWAP2 POP POP JUMP JUMPDEST PUSH0 PUSH2 0x732 PUSH0 NOT DUP5 PUSH1 0x8 MUL PUSH2 0x717 JUMP JUMPDEST NOT DUP1 DUP4 AND SWAP2 POP POP SWAP3 SWAP2 POP POP JUMP JUMPDEST PUSH0 PUSH2 0x74A DUP4 DUP4 PUSH2 0x723 JUMP JUMPDEST SWAP2 POP DUP3 PUSH1 0x2 MUL DUP3 OR SWAP1 POP SWAP3 SWAP2 POP POP JUMP JUMPDEST PUSH2 0x763 DUP3 PUSH2 0x238 JUMP JUMPDEST PUSH8 0xFFFFFFFFFFFFFFFF DUP2 GT ISZERO PUSH2 0x77C JUMPI PUSH2 0x77B PUSH2 0x3B8 JUMP JUMPDEST JUMPDEST PUSH2 0x786 DUP3 SLOAD PUSH2 0x58D JUMP JUMPDEST PUSH2 0x791 DUP3 DUP3 DUP6 PUSH2 0x6D1 JUMP JUMPDEST PUSH0 PUSH1 0x20 SWAP1 POP PUSH1 0x1F DUP4 GT PUSH1 0x1 DUP2 EQ PUSH2 0x7C2 JUMPI PUSH0 DUP5 ISZERO PUSH2 0x7B0 JUMPI DUP3 DUP8 ADD MLOAD SWAP1 POP JUMPDEST PUSH2 0x7BA DUP6 DUP3 PUSH2 0x73F JUMP JUMPDEST DUP7 SSTORE POP PUSH2 0x821 JUMP JUMPDEST PUSH1 0x1F NOT DUP5 AND PUSH2 0x7D0 DUP7 PUSH2 0x5BD JUMP JUMPDEST PUSH0 JUMPDEST DUP3 DUP2 LT ISZERO PUSH2 0x7F7 JUMPI DUP5 DUP10 ADD MLOAD DUP3 SSTORE PUSH1 0x1 DUP3 ADD SWAP2 POP PUSH1 0x20 DUP6 ADD SWAP5 POP PUSH1 0x20 DUP2 ADD SWAP1 POP PUSH2 0x7D2 JUMP JUMPDEST DUP7 DUP4 LT ISZERO PUSH2 0x814 JUMPI DUP5 DUP10 ADD MLOAD PUSH2 0x810 PUSH1 0x1F DUP10 AND DUP3 PUSH2 0x723 JUMP JUMPDEST DUP4 SSTORE POP JUMPDEST PUSH1 0x1 PUSH1 0x2 DUP9 MUL ADD DUP9 SSTORE POP POP POP JUMPDEST POP POP POP POP POP POP JUMP INVALID LOG2 PUSH5 0x6970667358 0x22 SLT KECCAK256 ADDMOD 0xC GASLIMIT SSTORE 0x25 EXP CHAINID 0x22 0xCD BLOBBASEFEE 0x26 0xCB 0xAF PUSH21 0x248FF8A376CAF8461F6C5EDABC4565B7A39A64736F PUSH13 0x634300081A0033000000000000 "
				},
				"gasEstimates": {
					"creation": {
						"codeDepositCost": "428600",
						"executionCost": "459",
						"totalCost": "429059"
					},
					"external": {
						"currentProduct()": "infinite",
						"getProduct()": "infinite",
						"setProduct(string,uint256)": "infinite"
					}
				},
				"methodIdentifiers": {
					"currentProduct()": "36ac4889",
					"getProduct()": "4ba20050",
					"setProduct(string,uint256)": "d3af52dc"
				}
			},
			"storageLayout": {
				"storage": [
					{
						"astId": 9,
						"contract": "work/home/2nd.sol:Struct",
						"label": "currentProduct",
						"offset": 0,
						"slot": "0",
						"type": "t_struct(Product)6_storage"
					}
				],
				"types": {
					"t_string_storage": {
						"encoding": "bytes",
						"label": "string",
						"numberOfBytes": "32"
					},
					"t_struct(Product)6_storage": {
						"encoding": "inplace",
						"label": "struct Struct.Product",
						"members": [
							{
								"astId": 3,
								"contract": "work/home/2nd.sol:Struct",
								"label": "name",
								"offset": 0,
								"slot": "0",
								"type": "t_string_storage"
							},
							{
								"astId": 5,
								"contract": "work/home/2nd.sol:Struct",
								"label": "price",
								"offset": 0,
								"slot": "1",
								"type": "t_uint256"
							}
						],
						"numberOfBytes": "64"
					},
					"t_uint256": {
						"encoding": "inplace",
						"label": "uint256",
						"numberOfBytes": "32"
					}
				}
			},
			"userdoc": {
				"kind": "user",
				"methods": {},
				"version": 1
			}
		}
	}
}