{
	"work/class/inscoin.sol": {
		"MyCoin": {
			"abi": [
				{
					"inputs": [
						{
							"internalType": "string",
							"name": "_name",
							"type": "string"
						},
						{
							"internalType": "uint8",
							"name": "_age",
							"type": "uint8"
						},
						{
							"internalType": "string",
							"name": "_codeword",
							"type": "string"
						},
						{
							"internalType": "string",
							"name": "_time",
							"type": "string"
						},
						{
							"internalType": "string",
							"name": "_pronoun",
							"type": "string"
						}
					],
					"stateMutability": "nonpayable",
					"type": "constructor"
				},
				{
					"inputs": [],
					"name": "buy",
					"outputs": [
						{
							"internalType": "uint256",
							"name": "",
							"type": "uint256"
						}
					],
					"stateMutability": "payable",
					"type": "function"
				},
				{
					"inputs": [],
					"name": "getBalance",
					"outputs": [
						{
							"internalType": "uint256",
							"name": "",
							"type": "uint256"
						}
					],
					"stateMutability": "view",
					"type": "function"
				},
				{
					"inputs": [],
					"name": "name",
					"outputs": [
						{
							"internalType": "string",
							"name": "",
							"type": "string"
						}
					],
					"stateMutability": "view",
					"type": "function"
				},
				{
					"inputs": [],
					"name": "pronoun",
					"outputs": [
						{
							"internalType": "string",
							"name": "",
							"type": "string"
						}
					],
					"stateMutability": "view",
					"type": "function"
				},
				{
					"inputs": [],
					"name": "time",
					"outputs": [
						{
							"internalType": "string",
							"name": "",
							"type": "string"
						}
					],
					"stateMutability": "view",
					"type": "function"
				},
				{
					"inputs": [
						{
							"internalType": "address payable",
							"name": "_receiver",
							"type": "address"
						},
						{
							"internalType": "uint256",
							"name": "_amount",
							"type": "uint256"
						}
					],
					"name": "transfer",
					"outputs": [
						{
							"internalType": "bool",
							"name": "",
							"type": "bool"
						}
					],
					"stateMutability": "nonpayable",
					"type": "function"
				}
			],
			"devdoc": {
				"kind": "dev",
				"methods": {},
				"version": 1
			},
			"evm": {
				"assembly": "    /* \"work/class/inscoin.sol\":60:1429  contract MyCoin{... */\n  mstore(0x40, 0x80)\n    /* \"work/class/inscoin.sol\":263:264  1 */\n  0x01\n    /* \"work/class/inscoin.sol\":243:264  uint8 private fee = 1 */\n  0x05\n  exp(0x0100, 0x00)\n  dup2\n  sload\n  dup2\n  0xff\n  mul\n  not\n  and\n  swap1\n  dup4\n  0xff\n  and\n  mul\n  or\n  swap1\n  sstore\n  pop\n    /* \"work/class/inscoin.sol\":319:330  100000 gwei */\n  0x5af3107a4000\n    /* \"work/class/inscoin.sol\":298:330  uint private price = 100000 gwei */\n  0x07\n  sstore\n    /* \"work/class/inscoin.sol\":1074:1426  constructor(string memory _name, ... */\n  callvalue\n  dup1\n  iszero\n  tag_1\n  jumpi\n  0x00\n  dup1\n  revert\ntag_1:\n  pop\n  mload(0x40)\n  sub(codesize, bytecodeSize)\n  dup1\n  bytecodeSize\n  dup4\n  codecopy\n  dup2\n  dup2\n  add\n  0x40\n  mstore\n  dup2\n  add\n  swap1\n  tag_2\n  swap2\n  swap1\n  tag_3\n  jump\t// in\ntag_2:\n    /* \"work/class/inscoin.sol\":1280:1285  _name */\n  dup5\n    /* \"work/class/inscoin.sol\":1273:1277  name */\n  0x00\n    /* \"work/class/inscoin.sol\":1273:1285  name = _name */\n  swap1\n  dup2\n  tag_6\n  swap2\n  swap1\n  tag_7\n  jump\t// in\ntag_6:\n  pop\n    /* \"work/class/inscoin.sol\":1302:1306  _age */\n  dup4\n    /* \"work/class/inscoin.sol\":1296:1299  age */\n  0x01\n  0x00\n    /* \"work/class/inscoin.sol\":1296:1306  age = _age */\n  0x0100\n  exp\n  dup2\n  sload\n  dup2\n  0xff\n  mul\n  not\n  and\n  swap1\n  dup4\n  0xff\n  and\n  mul\n  or\n  swap1\n  sstore\n  pop\n    /* \"work/class/inscoin.sol\":1325:1335  msg.sender */\n  caller\n    /* \"work/class/inscoin.sol\":1317:1322  owner */\n  0x01\n  dup1\n    /* \"work/class/inscoin.sol\":1317:1335  owner = msg.sender */\n  0x0100\n  exp\n  dup2\n  sload\n  dup2\n  0xffffffffffffffffffffffffffffffffffffffff\n  mul\n  not\n  and\n  swap1\n  dup4\n  0xffffffffffffffffffffffffffffffffffffffff\n  and\n  mul\n  or\n  swap1\n  sstore\n  pop\n    /* \"work/class/inscoin.sol\":1357:1366  _codeword */\n  dup3\n    /* \"work/class/inscoin.sol\":1346:1354  codeword */\n  0x02\n    /* \"work/class/inscoin.sol\":1346:1366  codeword = _codeword */\n  swap1\n  dup2\n  tag_8\n  swap2\n  swap1\n  tag_7\n  jump\t// in\ntag_8:\n  pop\n    /* \"work/class/inscoin.sol\":1384:1389  _time */\n  dup2\n    /* \"work/class/inscoin.sol\":1377:1381  time */\n  0x03\n    /* \"work/class/inscoin.sol\":1377:1389  time = _time */\n  swap1\n  dup2\n  tag_9\n  swap2\n  swap1\n  tag_7\n  jump\t// in\ntag_9:\n  pop\n    /* \"work/class/inscoin.sol\":1410:1418  _pronoun */\n  dup1\n    /* \"work/class/inscoin.sol\":1400:1407  pronoun */\n  0x04\n    /* \"work/class/inscoin.sol\":1400:1418  pronoun = _pronoun */\n  swap1\n  dup2\n  tag_10\n  swap2\n  swap1\n  tag_7\n  jump\t// in\ntag_10:\n  pop\n    /* \"work/class/inscoin.sol\":1074:1426  constructor(string memory _name, ... */\n  pop\n  pop\n  pop\n  pop\n  pop\n    /* \"work/class/inscoin.sol\":60:1429  contract MyCoin{... */\n  jump(tag_11)\n    /* \"#utility.yul\":7:82   */\ntag_12:\n    /* \"#utility.yul\":40:46   */\n  0x00\n    /* \"#utility.yul\":73:75   */\n  0x40\n    /* \"#utility.yul\":67:76   */\n  mload\n    /* \"#utility.yul\":57:76   */\n  swap1\n  pop\n    /* \"#utility.yul\":7:82   */\n  swap1\n  jump\t// out\n    /* \"#utility.yul\":88:205   */\ntag_13:\n    /* \"#utility.yul\":197:198   */\n  0x00\n    /* \"#utility.yul\":194:195   */\n  dup1\n    /* \"#utility.yul\":187:199   */\n  revert\n    /* \"#utility.yul\":211:328   */\ntag_14:\n    /* \"#utility.yul\":320:321   */\n  0x00\n    /* \"#utility.yul\":317:318   */\n  dup1\n    /* \"#utility.yul\":310:322   */\n  revert\n    /* \"#utility.yul\":334:451   */\ntag_15:\n    /* \"#utility.yul\":443:444   */\n  0x00\n    /* \"#utility.yul\":440:441   */\n  dup1\n    /* \"#utility.yul\":433:445   */\n  revert\n    /* \"#utility.yul\":457:574   */\ntag_16:\n    /* \"#utility.yul\":566:567   */\n  0x00\n    /* \"#utility.yul\":563:564   */\n  dup1\n    /* \"#utility.yul\":556:568   */\n  revert\n    /* \"#utility.yul\":580:682   */\ntag_17:\n    /* \"#utility.yul\":621:627   */\n  0x00\n    /* \"#utility.yul\":672:674   */\n  0x1f\n    /* \"#utility.yul\":668:675   */\n  not\n    /* \"#utility.yul\":663:665   */\n  0x1f\n    /* \"#utility.yul\":656:661   */\n  dup4\n    /* \"#utility.yul\":652:666   */\n  add\n    /* \"#utility.yul\":648:676   */\n  and\n    /* \"#utility.yul\":638:676   */\n  swap1\n  pop\n    /* \"#utility.yul\":580:682   */\n  swap2\n  swap1\n  pop\n  jump\t// out\n    /* \"#utility.yul\":688:868   */\ntag_18:\n    /* \"#utility.yul\":736:813   */\n  0x4e487b7100000000000000000000000000000000000000000000000000000000\n    /* \"#utility.yul\":733:734   */\n  0x00\n    /* \"#utility.yul\":726:814   */\n  mstore\n    /* \"#utility.yul\":833:837   */\n  0x41\n    /* \"#utility.yul\":830:831   */\n  0x04\n    /* \"#utility.yul\":823:838   */\n  mstore\n    /* \"#utility.yul\":857:861   */\n  0x24\n    /* \"#utility.yul\":854:855   */\n  0x00\n    /* \"#utility.yul\":847:862   */\n  revert\n    /* \"#utility.yul\":874:1155   */\ntag_19:\n    /* \"#utility.yul\":957:984   */\n  tag_56\n    /* \"#utility.yul\":979:983   */\n  dup3\n    /* \"#utility.yul\":957:984   */\n  tag_17\n  jump\t// in\ntag_56:\n    /* \"#utility.yul\":949:955   */\n  dup2\n    /* \"#utility.yul\":945:985   */\n  add\n    /* \"#utility.yul\":1087:1093   */\n  dup2\n    /* \"#utility.yul\":1075:1085   */\n  dup2\n    /* \"#utility.yul\":1072:1094   */\n  lt\n    /* \"#utility.yul\":1051:1069   */\n  0xffffffffffffffff\n    /* \"#utility.yul\":1039:1049   */\n  dup3\n    /* \"#utility.yul\":1036:1070   */\n  gt\n    /* \"#utility.yul\":1033:1095   */\n  or\n    /* \"#utility.yul\":1030:1118   */\n  iszero\n  tag_57\n  jumpi\n    /* \"#utility.yul\":1098:1116   */\n  tag_58\n  tag_18\n  jump\t// in\ntag_58:\n    /* \"#utility.yul\":1030:1118   */\ntag_57:\n    /* \"#utility.yul\":1138:1148   */\n  dup1\n    /* \"#utility.yul\":1134:1136   */\n  0x40\n    /* \"#utility.yul\":1127:1149   */\n  mstore\n    /* \"#utility.yul\":917:1155   */\n  pop\n    /* \"#utility.yul\":874:1155   */\n  pop\n  pop\n  jump\t// out\n    /* \"#utility.yul\":1161:1290   */\ntag_20:\n    /* \"#utility.yul\":1195:1201   */\n  0x00\n    /* \"#utility.yul\":1222:1242   */\n  tag_60\n  tag_12\n  jump\t// in\ntag_60:\n    /* \"#utility.yul\":1212:1242   */\n  swap1\n  pop\n    /* \"#utility.yul\":1251:1284   */\n  tag_61\n    /* \"#utility.yul\":1279:1283   */\n  dup3\n    /* \"#utility.yul\":1271:1277   */\n  dup3\n    /* \"#utility.yul\":1251:1284   */\n  tag_19\n  jump\t// in\ntag_61:\n    /* \"#utility.yul\":1161:1290   */\n  swap2\n  swap1\n  pop\n  jump\t// out\n    /* \"#utility.yul\":1296:1604   */\ntag_21:\n    /* \"#utility.yul\":1358:1362   */\n  0x00\n    /* \"#utility.yul\":1448:1466   */\n  0xffffffffffffffff\n    /* \"#utility.yul\":1440:1446   */\n  dup3\n    /* \"#utility.yul\":1437:1467   */\n  gt\n    /* \"#utility.yul\":1434:1490   */\n  iszero\n  tag_63\n  jumpi\n    /* \"#utility.yul\":1470:1488   */\n  tag_64\n  tag_18\n  jump\t// in\ntag_64:\n    /* \"#utility.yul\":1434:1490   */\ntag_63:\n    /* \"#utility.yul\":1508:1537   */\n  tag_65\n    /* \"#utility.yul\":1530:1536   */\n  dup3\n    /* \"#utility.yul\":1508:1537   */\n  tag_17\n  jump\t// in\ntag_65:\n    /* \"#utility.yul\":1500:1537   */\n  swap1\n  pop\n    /* \"#utility.yul\":1592:1596   */\n  0x20\n    /* \"#utility.yul\":1586:1590   */\n  dup2\n    /* \"#utility.yul\":1582:1597   */\n  add\n    /* \"#utility.yul\":1574:1597   */\n  swap1\n  pop\n    /* \"#utility.yul\":1296:1604   */\n  swap2\n  swap1\n  pop\n  jump\t// out\n    /* \"#utility.yul\":1610:1749   */\ntag_22:\n    /* \"#utility.yul\":1699:1705   */\n  dup3\n    /* \"#utility.yul\":1694:1697   */\n  dup2\n    /* \"#utility.yul\":1689:1692   */\n  dup4\n    /* \"#utility.yul\":1683:1706   */\n  mcopy\n    /* \"#utility.yul\":1740:1741   */\n  0x00\n    /* \"#utility.yul\":1731:1737   */\n  dup4\n    /* \"#utility.yul\":1726:1729   */\n  dup4\n    /* \"#utility.yul\":1722:1738   */\n  add\n    /* \"#utility.yul\":1715:1742   */\n  mstore\n    /* \"#utility.yul\":1610:1749   */\n  pop\n  pop\n  pop\n  jump\t// out\n    /* \"#utility.yul\":1755:2189   */\ntag_23:\n    /* \"#utility.yul\":1844:1849   */\n  0x00\n    /* \"#utility.yul\":1869:1935   */\n  tag_68\n    /* \"#utility.yul\":1885:1934   */\n  tag_69\n    /* \"#utility.yul\":1927:1933   */\n  dup5\n    /* \"#utility.yul\":1885:1934   */\n  tag_21\n  jump\t// in\ntag_69:\n    /* \"#utility.yul\":1869:1935   */\n  tag_20\n  jump\t// in\ntag_68:\n    /* \"#utility.yul\":1860:1935   */\n  swap1\n  pop\n    /* \"#utility.yul\":1958:1964   */\n  dup3\n    /* \"#utility.yul\":1951:1956   */\n  dup2\n    /* \"#utility.yul\":1944:1965   */\n  mstore\n    /* \"#utility.yul\":1996:2000   */\n  0x20\n    /* \"#utility.yul\":1989:1994   */\n  dup2\n    /* \"#utility.yul\":1985:2001   */\n  add\n    /* \"#utility.yul\":2034:2037   */\n  dup5\n    /* \"#utility.yul\":2025:2031   */\n  dup5\n    /* \"#utility.yul\":2020:2023   */\n  dup5\n    /* \"#utility.yul\":2016:2032   */\n  add\n    /* \"#utility.yul\":2013:2038   */\n  gt\n    /* \"#utility.yul\":2010:2122   */\n  iszero\n  tag_70\n  jumpi\n    /* \"#utility.yul\":2041:2120   */\n  tag_71\n  tag_16\n  jump\t// in\ntag_71:\n    /* \"#utility.yul\":2010:2122   */\ntag_70:\n    /* \"#utility.yul\":2131:2183   */\n  tag_72\n    /* \"#utility.yul\":2176:2182   */\n  dup5\n    /* \"#utility.yul\":2171:2174   */\n  dup3\n    /* \"#utility.yul\":2166:2169   */\n  dup6\n    /* \"#utility.yul\":2131:2183   */\n  tag_22\n  jump\t// in\ntag_72:\n    /* \"#utility.yul\":1850:2189   */\n  pop\n    /* \"#utility.yul\":1755:2189   */\n  swap4\n  swap3\n  pop\n  pop\n  pop\n  jump\t// out\n    /* \"#utility.yul\":2209:2564   */\ntag_24:\n    /* \"#utility.yul\":2276:2281   */\n  0x00\n    /* \"#utility.yul\":2325:2328   */\n  dup3\n    /* \"#utility.yul\":2318:2322   */\n  0x1f\n    /* \"#utility.yul\":2310:2316   */\n  dup4\n    /* \"#utility.yul\":2306:2323   */\n  add\n    /* \"#utility.yul\":2302:2329   */\n  slt\n    /* \"#utility.yul\":2292:2414   */\n  tag_74\n  jumpi\n    /* \"#utility.yul\":2333:2412   */\n  tag_75\n  tag_15\n  jump\t// in\ntag_75:\n    /* \"#utility.yul\":2292:2414   */\ntag_74:\n    /* \"#utility.yul\":2443:2449   */\n  dup2\n    /* \"#utility.yul\":2437:2450   */\n  mload\n    /* \"#utility.yul\":2468:2558   */\n  tag_76\n    /* \"#utility.yul\":2554:2557   */\n  dup5\n    /* \"#utility.yul\":2546:2552   */\n  dup3\n    /* \"#utility.yul\":2539:2543   */\n  0x20\n    /* \"#utility.yul\":2531:2537   */\n  dup7\n    /* \"#utility.yul\":2527:2544   */\n  add\n    /* \"#utility.yul\":2468:2558   */\n  tag_23\n  jump\t// in\ntag_76:\n    /* \"#utility.yul\":2459:2558   */\n  swap2\n  pop\n    /* \"#utility.yul\":2282:2564   */\n  pop\n    /* \"#utility.yul\":2209:2564   */\n  swap3\n  swap2\n  pop\n  pop\n  jump\t// out\n    /* \"#utility.yul\":2570:2656   */\ntag_25:\n    /* \"#utility.yul\":2605:2612   */\n  0x00\n    /* \"#utility.yul\":2645:2649   */\n  0xff\n    /* \"#utility.yul\":2638:2643   */\n  dup3\n    /* \"#utility.yul\":2634:2650   */\n  and\n    /* \"#utility.yul\":2623:2650   */\n  swap1\n  pop\n    /* \"#utility.yul\":2570:2656   */\n  swap2\n  swap1\n  pop\n  jump\t// out\n    /* \"#utility.yul\":2662:2780   */\ntag_26:\n    /* \"#utility.yul\":2733:2755   */\n  tag_79\n    /* \"#utility.yul\":2749:2754   */\n  dup2\n    /* \"#utility.yul\":2733:2755   */\n  tag_25\n  jump\t// in\ntag_79:\n    /* \"#utility.yul\":2726:2731   */\n  dup2\n    /* \"#utility.yul\":2723:2756   */\n  eq\n    /* \"#utility.yul\":2713:2774   */\n  tag_80\n  jumpi\n    /* \"#utility.yul\":2770:2771   */\n  0x00\n    /* \"#utility.yul\":2767:2768   */\n  dup1\n    /* \"#utility.yul\":2760:2772   */\n  revert\n    /* \"#utility.yul\":2713:2774   */\ntag_80:\n    /* \"#utility.yul\":2662:2780   */\n  pop\n  jump\t// out\n    /* \"#utility.yul\":2786:2925   */\ntag_27:\n    /* \"#utility.yul\":2841:2846   */\n  0x00\n    /* \"#utility.yul\":2872:2878   */\n  dup2\n    /* \"#utility.yul\":2866:2879   */\n  mload\n    /* \"#utility.yul\":2857:2879   */\n  swap1\n  pop\n    /* \"#utility.yul\":2888:2919   */\n  tag_82\n    /* \"#utility.yul\":2913:2918   */\n  dup2\n    /* \"#utility.yul\":2888:2919   */\n  tag_26\n  jump\t// in\ntag_82:\n    /* \"#utility.yul\":2786:2925   */\n  swap3\n  swap2\n  pop\n  pop\n  jump\t// out\n    /* \"#utility.yul\":2931:4596   */\ntag_3:\n    /* \"#utility.yul\":3075:3081   */\n  0x00\n    /* \"#utility.yul\":3083:3089   */\n  dup1\n    /* \"#utility.yul\":3091:3097   */\n  0x00\n    /* \"#utility.yul\":3099:3105   */\n  dup1\n    /* \"#utility.yul\":3107:3113   */\n  0x00\n    /* \"#utility.yul\":3156:3159   */\n  0xa0\n    /* \"#utility.yul\":3144:3153   */\n  dup7\n    /* \"#utility.yul\":3135:3142   */\n  dup9\n    /* \"#utility.yul\":3131:3154   */\n  sub\n    /* \"#utility.yul\":3127:3160   */\n  slt\n    /* \"#utility.yul\":3124:3244   */\n  iszero\n  tag_84\n  jumpi\n    /* \"#utility.yul\":3163:3242   */\n  tag_85\n  tag_13\n  jump\t// in\ntag_85:\n    /* \"#utility.yul\":3124:3244   */\ntag_84:\n    /* \"#utility.yul\":3304:3305   */\n  0x00\n    /* \"#utility.yul\":3293:3302   */\n  dup7\n    /* \"#utility.yul\":3289:3306   */\n  add\n    /* \"#utility.yul\":3283:3307   */\n  mload\n    /* \"#utility.yul\":3334:3352   */\n  0xffffffffffffffff\n    /* \"#utility.yul\":3326:3332   */\n  dup2\n    /* \"#utility.yul\":3323:3353   */\n  gt\n    /* \"#utility.yul\":3320:3437   */\n  iszero\n  tag_86\n  jumpi\n    /* \"#utility.yul\":3356:3435   */\n  tag_87\n  tag_14\n  jump\t// in\ntag_87:\n    /* \"#utility.yul\":3320:3437   */\ntag_86:\n    /* \"#utility.yul\":3461:3535   */\n  tag_88\n    /* \"#utility.yul\":3527:3534   */\n  dup9\n    /* \"#utility.yul\":3518:3524   */\n  dup3\n    /* \"#utility.yul\":3507:3516   */\n  dup10\n    /* \"#utility.yul\":3503:3525   */\n  add\n    /* \"#utility.yul\":3461:3535   */\n  tag_24\n  jump\t// in\ntag_88:\n    /* \"#utility.yul\":3451:3535   */\n  swap6\n  pop\n    /* \"#utility.yul\":3254:3545   */\n  pop\n    /* \"#utility.yul\":3584:3586   */\n  0x20\n    /* \"#utility.yul\":3610:3672   */\n  tag_89\n    /* \"#utility.yul\":3664:3671   */\n  dup9\n    /* \"#utility.yul\":3655:3661   */\n  dup3\n    /* \"#utility.yul\":3644:3653   */\n  dup10\n    /* \"#utility.yul\":3640:3662   */\n  add\n    /* \"#utility.yul\":3610:3672   */\n  tag_27\n  jump\t// in\ntag_89:\n    /* \"#utility.yul\":3600:3672   */\n  swap5\n  pop\n    /* \"#utility.yul\":3555:3682   */\n  pop\n    /* \"#utility.yul\":3742:3744   */\n  0x40\n    /* \"#utility.yul\":3731:3740   */\n  dup7\n    /* \"#utility.yul\":3727:3745   */\n  add\n    /* \"#utility.yul\":3721:3746   */\n  mload\n    /* \"#utility.yul\":3773:3791   */\n  0xffffffffffffffff\n    /* \"#utility.yul\":3765:3771   */\n  dup2\n    /* \"#utility.yul\":3762:3792   */\n  gt\n    /* \"#utility.yul\":3759:3876   */\n  iszero\n  tag_90\n  jumpi\n    /* \"#utility.yul\":3795:3874   */\n  tag_91\n  tag_14\n  jump\t// in\ntag_91:\n    /* \"#utility.yul\":3759:3876   */\ntag_90:\n    /* \"#utility.yul\":3900:3974   */\n  tag_92\n    /* \"#utility.yul\":3966:3973   */\n  dup9\n    /* \"#utility.yul\":3957:3963   */\n  dup3\n    /* \"#utility.yul\":3946:3955   */\n  dup10\n    /* \"#utility.yul\":3942:3964   */\n  add\n    /* \"#utility.yul\":3900:3974   */\n  tag_24\n  jump\t// in\ntag_92:\n    /* \"#utility.yul\":3890:3974   */\n  swap4\n  pop\n    /* \"#utility.yul\":3692:3984   */\n  pop\n    /* \"#utility.yul\":4044:4046   */\n  0x60\n    /* \"#utility.yul\":4033:4042   */\n  dup7\n    /* \"#utility.yul\":4029:4047   */\n  add\n    /* \"#utility.yul\":4023:4048   */\n  mload\n    /* \"#utility.yul\":4075:4093   */\n  0xffffffffffffffff\n    /* \"#utility.yul\":4067:4073   */\n  dup2\n    /* \"#utility.yul\":4064:4094   */\n  gt\n    /* \"#utility.yul\":4061:4178   */\n  iszero\n  tag_93\n  jumpi\n    /* \"#utility.yul\":4097:4176   */\n  tag_94\n  tag_14\n  jump\t// in\ntag_94:\n    /* \"#utility.yul\":4061:4178   */\ntag_93:\n    /* \"#utility.yul\":4202:4276   */\n  tag_95\n    /* \"#utility.yul\":4268:4275   */\n  dup9\n    /* \"#utility.yul\":4259:4265   */\n  dup3\n    /* \"#utility.yul\":4248:4257   */\n  dup10\n    /* \"#utility.yul\":4244:4266   */\n  add\n    /* \"#utility.yul\":4202:4276   */\n  tag_24\n  jump\t// in\ntag_95:\n    /* \"#utility.yul\":4192:4276   */\n  swap3\n  pop\n    /* \"#utility.yul\":3994:4286   */\n  pop\n    /* \"#utility.yul\":4346:4349   */\n  0x80\n    /* \"#utility.yul\":4335:4344   */\n  dup7\n    /* \"#utility.yul\":4331:4350   */\n  add\n    /* \"#utility.yul\":4325:4351   */\n  mload\n    /* \"#utility.yul\":4378:4396   */\n  0xffffffffffffffff\n    /* \"#utility.yul\":4370:4376   */\n  dup2\n    /* \"#utility.yul\":4367:4397   */\n  gt\n    /* \"#utility.yul\":4364:4481   */\n  iszero\n  tag_96\n  jumpi\n    /* \"#utility.yul\":4400:4479   */\n  tag_97\n  tag_14\n  jump\t// in\ntag_97:\n    /* \"#utility.yul\":4364:4481   */\ntag_96:\n    /* \"#utility.yul\":4505:4579   */\n  tag_98\n    /* \"#utility.yul\":4571:4578   */\n  dup9\n    /* \"#utility.yul\":4562:4568   */\n  dup3\n    /* \"#utility.yul\":4551:4560   */\n  dup10\n    /* \"#utility.yul\":4547:4569   */\n  add\n    /* \"#utility.yul\":4505:4579   */\n  tag_24\n  jump\t// in\ntag_98:\n    /* \"#utility.yul\":4495:4579   */\n  swap2\n  pop\n    /* \"#utility.yul\":4296:4589   */\n  pop\n    /* \"#utility.yul\":2931:4596   */\n  swap3\n  swap6\n  pop\n  swap3\n  swap6\n  swap1\n  swap4\n  pop\n  jump\t// out\n    /* \"#utility.yul\":4602:4701   */\ntag_28:\n    /* \"#utility.yul\":4654:4660   */\n  0x00\n    /* \"#utility.yul\":4688:4693   */\n  dup2\n    /* \"#utility.yul\":4682:4694   */\n  mload\n    /* \"#utility.yul\":4672:4694   */\n  swap1\n  pop\n    /* \"#utility.yul\":4602:4701   */\n  swap2\n  swap1\n  pop\n  jump\t// out\n    /* \"#utility.yul\":4707:4887   */\ntag_29:\n    /* \"#utility.yul\":4755:4832   */\n  0x4e487b7100000000000000000000000000000000000000000000000000000000\n    /* \"#utility.yul\":4752:4753   */\n  0x00\n    /* \"#utility.yul\":4745:4833   */\n  mstore\n    /* \"#utility.yul\":4852:4856   */\n  0x22\n    /* \"#utility.yul\":4849:4850   */\n  0x04\n    /* \"#utility.yul\":4842:4857   */\n  mstore\n    /* \"#utility.yul\":4876:4880   */\n  0x24\n    /* \"#utility.yul\":4873:4874   */\n  0x00\n    /* \"#utility.yul\":4866:4881   */\n  revert\n    /* \"#utility.yul\":4893:5213   */\ntag_30:\n    /* \"#utility.yul\":4937:4943   */\n  0x00\n    /* \"#utility.yul\":4974:4975   */\n  0x02\n    /* \"#utility.yul\":4968:4972   */\n  dup3\n    /* \"#utility.yul\":4964:4976   */\n  div\n    /* \"#utility.yul\":4954:4976   */\n  swap1\n  pop\n    /* \"#utility.yul\":5021:5022   */\n  0x01\n    /* \"#utility.yul\":5015:5019   */\n  dup3\n    /* \"#utility.yul\":5011:5023   */\n  and\n    /* \"#utility.yul\":5042:5060   */\n  dup1\n    /* \"#utility.yul\":5032:5113   */\n  tag_102\n  jumpi\n    /* \"#utility.yul\":5098:5102   */\n  0x7f\n    /* \"#utility.yul\":5090:5096   */\n  dup3\n    /* \"#utility.yul\":5086:5103   */\n  and\n    /* \"#utility.yul\":5076:5103   */\n  swap2\n  pop\n    /* \"#utility.yul\":5032:5113   */\ntag_102:\n    /* \"#utility.yul\":5160:5162   */\n  0x20\n    /* \"#utility.yul\":5152:5158   */\n  dup3\n    /* \"#utility.yul\":5149:5163   */\n  lt\n    /* \"#utility.yul\":5129:5147   */\n  dup2\n    /* \"#utility.yul\":5126:5164   */\n  sub\n    /* \"#utility.yul\":5123:5207   */\n  tag_103\n  jumpi\n    /* \"#utility.yul\":5179:5197   */\n  tag_104\n  tag_29\n  jump\t// in\ntag_104:\n    /* \"#utility.yul\":5123:5207   */\ntag_103:\n    /* \"#utility.yul\":4944:5213   */\n  pop\n    /* \"#utility.yul\":4893:5213   */\n  swap2\n  swap1\n  pop\n  jump\t// out\n    /* \"#utility.yul\":5219:5360   */\ntag_31:\n    /* \"#utility.yul\":5268:5272   */\n  0x00\n    /* \"#utility.yul\":5291:5294   */\n  dup2\n    /* \"#utility.yul\":5283:5294   */\n  swap1\n  pop\n    /* \"#utility.yul\":5314:5317   */\n  dup2\n    /* \"#utility.yul\":5311:5312   */\n  0x00\n    /* \"#utility.yul\":5304:5318   */\n  mstore\n    /* \"#utility.yul\":5348:5352   */\n  0x20\n    /* \"#utility.yul\":5345:5346   */\n  0x00\n    /* \"#utility.yul\":5335:5353   */\n  keccak256\n    /* \"#utility.yul\":5327:5353   */\n  swap1\n  pop\n    /* \"#utility.yul\":5219:5360   */\n  swap2\n  swap1\n  pop\n  jump\t// out\n    /* \"#utility.yul\":5366:5459   */\ntag_32:\n    /* \"#utility.yul\":5403:5409   */\n  0x00\n    /* \"#utility.yul\":5450:5452   */\n  0x20\n    /* \"#utility.yul\":5445:5447   */\n  0x1f\n    /* \"#utility.yul\":5438:5443   */\n  dup4\n    /* \"#utility.yul\":5434:5448   */\n  add\n    /* \"#utility.yul\":5430:5453   */\n  div\n    /* \"#utility.yul\":5420:5453   */\n  swap1\n  pop\n    /* \"#utility.yul\":5366:5459   */\n  swap2\n  swap1\n  pop\n  jump\t// out\n    /* \"#utility.yul\":5465:5572   */\ntag_33:\n    /* \"#utility.yul\":5509:5517   */\n  0x00\n    /* \"#utility.yul\":5559:5564   */\n  dup3\n    /* \"#utility.yul\":5553:5557   */\n  dup3\n    /* \"#utility.yul\":5549:5565   */\n  shl\n    /* \"#utility.yul\":5528:5565   */\n  swap1\n  pop\n    /* \"#utility.yul\":5465:5572   */\n  swap3\n  swap2\n  pop\n  pop\n  jump\t// out\n    /* \"#utility.yul\":5578:5971   */\ntag_34:\n    /* \"#utility.yul\":5647:5653   */\n  0x00\n    /* \"#utility.yul\":5697:5698   */\n  0x08\n    /* \"#utility.yul\":5685:5695   */\n  dup4\n    /* \"#utility.yul\":5681:5699   */\n  mul\n    /* \"#utility.yul\":5720:5817   */\n  tag_109\n    /* \"#utility.yul\":5750:5816   */\n  0xffffffffffffffffffffffffffffffffffffffffffffffffffffffffffffffff\n    /* \"#utility.yul\":5739:5748   */\n  dup3\n    /* \"#utility.yul\":5720:5817   */\n  tag_33\n  jump\t// in\ntag_109:\n    /* \"#utility.yul\":5838:5877   */\n  tag_110\n    /* \"#utility.yul\":5868:5876   */\n  dup7\n    /* \"#utility.yul\":5857:5866   */\n  dup4\n    /* \"#utility.yul\":5838:5877   */\n  tag_33\n  jump\t// in\ntag_110:\n    /* \"#utility.yul\":5826:5877   */\n  swap6\n  pop\n    /* \"#utility.yul\":5910:5914   */\n  dup1\n    /* \"#utility.yul\":5906:5915   */\n  not\n    /* \"#utility.yul\":5899:5904   */\n  dup5\n    /* \"#utility.yul\":5895:5916   */\n  and\n    /* \"#utility.yul\":5886:5916   */\n  swap4\n  pop\n    /* \"#utility.yul\":5959:5963   */\n  dup1\n    /* \"#utility.yul\":5949:5957   */\n  dup7\n    /* \"#utility.yul\":5945:5964   */\n  and\n    /* \"#utility.yul\":5938:5943   */\n  dup5\n    /* \"#utility.yul\":5935:5965   */\n  or\n    /* \"#utility.yul\":5925:5965   */\n  swap3\n  pop\n    /* \"#utility.yul\":5654:5971   */\n  pop\n  pop\n    /* \"#utility.yul\":5578:5971   */\n  swap4\n  swap3\n  pop\n  pop\n  pop\n  jump\t// out\n    /* \"#utility.yul\":5977:6054   */\ntag_35:\n    /* \"#utility.yul\":6014:6021   */\n  0x00\n    /* \"#utility.yul\":6043:6048   */\n  dup2\n    /* \"#utility.yul\":6032:6048   */\n  swap1\n  pop\n    /* \"#utility.yul\":5977:6054   */\n  swap2\n  swap1\n  pop\n  jump\t// out\n    /* \"#utility.yul\":6060:6120   */\ntag_36:\n    /* \"#utility.yul\":6088:6091   */\n  0x00\n    /* \"#utility.yul\":6109:6114   */\n  dup2\n    /* \"#utility.yul\":6102:6114   */\n  swap1\n  pop\n    /* \"#utility.yul\":6060:6120   */\n  swap2\n  swap1\n  pop\n  jump\t// out\n    /* \"#utility.yul\":6126:6268   */\ntag_37:\n    /* \"#utility.yul\":6176:6185   */\n  0x00\n    /* \"#utility.yul\":6209:6262   */\n  tag_114\n    /* \"#utility.yul\":6227:6261   */\n  tag_115\n    /* \"#utility.yul\":6236:6260   */\n  tag_116\n    /* \"#utility.yul\":6254:6259   */\n  dup5\n    /* \"#utility.yul\":6236:6260   */\n  tag_35\n  jump\t// in\ntag_116:\n    /* \"#utility.yul\":6227:6261   */\n  tag_36\n  jump\t// in\ntag_115:\n    /* \"#utility.yul\":6209:6262   */\n  tag_35\n  jump\t// in\ntag_114:\n    /* \"#utility.yul\":6196:6262   */\n  swap1\n  pop\n    /* \"#utility.yul\":6126:6268   */\n  swap2\n  swap1\n  pop\n  jump\t// out\n    /* \"#utility.yul\":6274:6349   */\ntag_38:\n    /* \"#utility.yul\":6317:6320   */\n  0x00\n    /* \"#utility.yul\":6338:6343   */\n  dup2\n    /* \"#utility.yul\":6331:6343   */\n  swap1\n  pop\n    /* \"#utility.yul\":6274:6349   */\n  swap2\n  swap1\n  pop\n  jump\t// out\n    /* \"#utility.yul\":6355:6624   */\ntag_39:\n    /* \"#utility.yul\":6465:6504   */\n  tag_119\n    /* \"#utility.yul\":6496:6503   */\n  dup4\n    /* \"#utility.yul\":6465:6504   */\n  tag_37\n  jump\t// in\ntag_119:\n    /* \"#utility.yul\":6526:6617   */\n  tag_120\n    /* \"#utility.yul\":6575:6616   */\n  tag_121\n    /* \"#utility.yul\":6599:6615   */\n  dup3\n    /* \"#utility.yul\":6575:6616   */\n  tag_38\n  jump\t// in\ntag_121:\n    /* \"#utility.yul\":6567:6573   */\n  dup5\n    /* \"#utility.yul\":6560:6564   */\n  dup5\n    /* \"#utility.yul\":6554:6565   */\n  sload\n    /* \"#utility.yul\":6526:6617   */\n  tag_34\n  jump\t// in\ntag_120:\n    /* \"#utility.yul\":6520:6524   */\n  dup3\n    /* \"#utility.yul\":6513:6618   */\n  sstore\n    /* \"#utility.yul\":6431:6624   */\n  pop\n    /* \"#utility.yul\":6355:6624   */\n  pop\n  pop\n  pop\n  jump\t// out\n    /* \"#utility.yul\":6630:6703   */\ntag_40:\n    /* \"#utility.yul\":6675:6678   */\n  0x00\n    /* \"#utility.yul\":6630:6703   */\n  swap1\n  jump\t// out\n    /* \"#utility.yul\":6709:6898   */\ntag_41:\n    /* \"#utility.yul\":6786:6818   */\n  tag_124\n  tag_40\n  jump\t// in\ntag_124:\n    /* \"#utility.yul\":6827:6892   */\n  tag_125\n    /* \"#utility.yul\":6885:6891   */\n  dup2\n    /* \"#utility.yul\":6877:6883   */\n  dup5\n    /* \"#utility.yul\":6871:6875   */\n  dup5\n    /* \"#utility.yul\":6827:6892   */\n  tag_39\n  jump\t// in\ntag_125:\n    /* \"#utility.yul\":6762:6898   */\n  pop\n    /* \"#utility.yul\":6709:6898   */\n  pop\n  pop\n  jump\t// out\n    /* \"#utility.yul\":6904:7090   */\ntag_42:\n    /* \"#utility.yul\":6964:7084   */\ntag_127:\n    /* \"#utility.yul\":6981:6984   */\n  dup2\n    /* \"#utility.yul\":6974:6979   */\n  dup2\n    /* \"#utility.yul\":6971:6985   */\n  lt\n    /* \"#utility.yul\":6964:7084   */\n  iszero\n  tag_129\n  jumpi\n    /* \"#utility.yul\":7035:7074   */\n  tag_130\n    /* \"#utility.yul\":7072:7073   */\n  0x00\n    /* \"#utility.yul\":7065:7070   */\n  dup3\n    /* \"#utility.yul\":7035:7074   */\n  tag_41\n  jump\t// in\ntag_130:\n    /* \"#utility.yul\":7008:7009   */\n  0x01\n    /* \"#utility.yul\":7001:7006   */\n  dup2\n    /* \"#utility.yul\":6997:7010   */\n  add\n    /* \"#utility.yul\":6988:7010   */\n  swap1\n  pop\n    /* \"#utility.yul\":6964:7084   */\n  jump(tag_127)\ntag_129:\n    /* \"#utility.yul\":6904:7090   */\n  pop\n  pop\n  jump\t// out\n    /* \"#utility.yul\":7096:7639   */\ntag_43:\n    /* \"#utility.yul\":7197:7199   */\n  0x1f\n    /* \"#utility.yul\":7192:7195   */\n  dup3\n    /* \"#utility.yul\":7189:7200   */\n  gt\n    /* \"#utility.yul\":7186:7632   */\n  iszero\n  tag_132\n  jumpi\n    /* \"#utility.yul\":7231:7269   */\n  tag_133\n    /* \"#utility.yul\":7263:7268   */\n  dup2\n    /* \"#utility.yul\":7231:7269   */\n  tag_31\n  jump\t// in\ntag_133:\n    /* \"#utility.yul\":7315:7344   */\n  tag_134\n    /* \"#utility.yul\":7333:7343   */\n  dup5\n    /* \"#utility.yul\":7315:7344   */\n  tag_32\n  jump\t// in\ntag_134:\n    /* \"#utility.yul\":7305:7313   */\n  dup2\n    /* \"#utility.yul\":7301:7345   */\n  add\n    /* \"#utility.yul\":7498:7500   */\n  0x20\n    /* \"#utility.yul\":7486:7496   */\n  dup6\n    /* \"#utility.yul\":7483:7501   */\n  lt\n    /* \"#utility.yul\":7480:7529   */\n  iszero\n  tag_135\n  jumpi\n    /* \"#utility.yul\":7519:7527   */\n  dup2\n    /* \"#utility.yul\":7504:7527   */\n  swap1\n  pop\n    /* \"#utility.yul\":7480:7529   */\ntag_135:\n    /* \"#utility.yul\":7542:7622   */\n  tag_136\n    /* \"#utility.yul\":7598:7620   */\n  tag_137\n    /* \"#utility.yul\":7616:7619   */\n  dup6\n    /* \"#utility.yul\":7598:7620   */\n  tag_32\n  jump\t// in\ntag_137:\n    /* \"#utility.yul\":7588:7596   */\n  dup4\n    /* \"#utility.yul\":7584:7621   */\n  add\n    /* \"#utility.yul\":7571:7582   */\n  dup3\n    /* \"#utility.yul\":7542:7622   */\n  tag_42\n  jump\t// in\ntag_136:\n    /* \"#utility.yul\":7201:7632   */\n  pop\n  pop\n    /* \"#utility.yul\":7186:7632   */\ntag_132:\n    /* \"#utility.yul\":7096:7639   */\n  pop\n  pop\n  pop\n  jump\t// out\n    /* \"#utility.yul\":7645:7762   */\ntag_44:\n    /* \"#utility.yul\":7699:7707   */\n  0x00\n    /* \"#utility.yul\":7749:7754   */\n  dup3\n    /* \"#utility.yul\":7743:7747   */\n  dup3\n    /* \"#utility.yul\":7739:7755   */\n  shr\n    /* \"#utility.yul\":7718:7755   */\n  swap1\n  pop\n    /* \"#utility.yul\":7645:7762   */\n  swap3\n  swap2\n  pop\n  pop\n  jump\t// out\n    /* \"#utility.yul\":7768:7937   */\ntag_45:\n    /* \"#utility.yul\":7812:7818   */\n  0x00\n    /* \"#utility.yul\":7845:7896   */\n  tag_140\n    /* \"#utility.yul\":7893:7894   */\n  0x00\n    /* \"#utility.yul\":7889:7895   */\n  not\n    /* \"#utility.yul\":7881:7886   */\n  dup5\n    /* \"#utility.yul\":7878:7879   */\n  0x08\n    /* \"#utility.yul\":7874:7887   */\n  mul\n    /* \"#utility.yul\":7845:7896   */\n  tag_44\n  jump\t// in\ntag_140:\n    /* \"#utility.yul\":7841:7897   */\n  not\n    /* \"#utility.yul\":7926:7930   */\n  dup1\n    /* \"#utility.yul\":7920:7924   */\n  dup4\n    /* \"#utility.yul\":7916:7931   */\n  and\n    /* \"#utility.yul\":7906:7931   */\n  swap2\n  pop\n    /* \"#utility.yul\":7819:7937   */\n  pop\n    /* \"#utility.yul\":7768:7937   */\n  swap3\n  swap2\n  pop\n  pop\n  jump\t// out\n    /* \"#utility.yul\":7942:8237   */\ntag_46:\n    /* \"#utility.yul\":8018:8022   */\n  0x00\n    /* \"#utility.yul\":8164:8193   */\n  tag_142\n    /* \"#utility.yul\":8189:8192   */\n  dup4\n    /* \"#utility.yul\":8183:8187   */\n  dup4\n    /* \"#utility.yul\":8164:8193   */\n  tag_45\n  jump\t// in\ntag_142:\n    /* \"#utility.yul\":8156:8193   */\n  swap2\n  pop\n    /* \"#utility.yul\":8226:8229   */\n  dup3\n    /* \"#utility.yul\":8223:8224   */\n  0x02\n    /* \"#utility.yul\":8219:8230   */\n  mul\n    /* \"#utility.yul\":8213:8217   */\n  dup3\n    /* \"#utility.yul\":8210:8231   */\n  or\n    /* \"#utility.yul\":8202:8231   */\n  swap1\n  pop\n    /* \"#utility.yul\":7942:8237   */\n  swap3\n  swap2\n  pop\n  pop\n  jump\t// out\n    /* \"#utility.yul\":8242:9637   */\ntag_7:\n    /* \"#utility.yul\":8359:8396   */\n  tag_144\n    /* \"#utility.yul\":8392:8395   */\n  dup3\n    /* \"#utility.yul\":8359:8396   */\n  tag_28\n  jump\t// in\ntag_144:\n    /* \"#utility.yul\":8461:8479   */\n  0xffffffffffffffff\n    /* \"#utility.yul\":8453:8459   */\n  dup2\n    /* \"#utility.yul\":8450:8480   */\n  gt\n    /* \"#utility.yul\":8447:8503   */\n  iszero\n  tag_145\n  jumpi\n    /* \"#utility.yul\":8483:8501   */\n  tag_146\n  tag_18\n  jump\t// in\ntag_146:\n    /* \"#utility.yul\":8447:8503   */\ntag_145:\n    /* \"#utility.yul\":8527:8565   */\n  tag_147\n    /* \"#utility.yul\":8559:8563   */\n  dup3\n    /* \"#utility.yul\":8553:8564   */\n  sload\n    /* \"#utility.yul\":8527:8565   */\n  tag_30\n  jump\t// in\ntag_147:\n    /* \"#utility.yul\":8612:8679   */\n  tag_148\n    /* \"#utility.yul\":8672:8678   */\n  dup3\n    /* \"#utility.yul\":8664:8670   */\n  dup3\n    /* \"#utility.yul\":8658:8662   */\n  dup6\n    /* \"#utility.yul\":8612:8679   */\n  tag_43\n  jump\t// in\ntag_148:\n    /* \"#utility.yul\":8706:8707   */\n  0x00\n    /* \"#utility.yul\":8730:8734   */\n  0x20\n    /* \"#utility.yul\":8717:8734   */\n  swap1\n  pop\n    /* \"#utility.yul\":8762:8764   */\n  0x1f\n    /* \"#utility.yul\":8754:8760   */\n  dup4\n    /* \"#utility.yul\":8751:8765   */\n  gt\n    /* \"#utility.yul\":8779:8780   */\n  0x01\n    /* \"#utility.yul\":8774:9392   */\n  dup2\n  eq\n  tag_150\n  jumpi\n    /* \"#utility.yul\":9436:9437   */\n  0x00\n    /* \"#utility.yul\":9453:9459   */\n  dup5\n    /* \"#utility.yul\":9450:9527   */\n  iszero\n  tag_151\n  jumpi\n    /* \"#utility.yul\":9502:9511   */\n  dup3\n    /* \"#utility.yul\":9497:9500   */\n  dup8\n    /* \"#utility.yul\":9493:9512   */\n  add\n    /* \"#utility.yul\":9487:9513   */\n  mload\n    /* \"#utility.yul\":9478:9513   */\n  swap1\n  pop\n    /* \"#utility.yul\":9450:9527   */\ntag_151:\n    /* \"#utility.yul\":9553:9620   */\n  tag_152\n    /* \"#utility.yul\":9613:9619   */\n  dup6\n    /* \"#utility.yul\":9606:9611   */\n  dup3\n    /* \"#utility.yul\":9553:9620   */\n  tag_46\n  jump\t// in\ntag_152:\n    /* \"#utility.yul\":9547:9551   */\n  dup7\n    /* \"#utility.yul\":9540:9621   */\n  sstore\n    /* \"#utility.yul\":9409:9631   */\n  pop\n    /* \"#utility.yul\":8744:9631   */\n  jump(tag_149)\n    /* \"#utility.yul\":8774:9392   */\ntag_150:\n    /* \"#utility.yul\":8826:8830   */\n  0x1f\n    /* \"#utility.yul\":8822:8831   */\n  not\n    /* \"#utility.yul\":8814:8820   */\n  dup5\n    /* \"#utility.yul\":8810:8832   */\n  and\n    /* \"#utility.yul\":8860:8897   */\n  tag_153\n    /* \"#utility.yul\":8892:8896   */\n  dup7\n    /* \"#utility.yul\":8860:8897   */\n  tag_31\n  jump\t// in\ntag_153:\n    /* \"#utility.yul\":8919:8920   */\n  0x00\n    /* \"#utility.yul\":8933:9141   */\ntag_154:\n    /* \"#utility.yul\":8947:8954   */\n  dup3\n    /* \"#utility.yul\":8944:8945   */\n  dup2\n    /* \"#utility.yul\":8941:8955   */\n  lt\n    /* \"#utility.yul\":8933:9141   */\n  iszero\n  tag_156\n  jumpi\n    /* \"#utility.yul\":9026:9035   */\n  dup5\n    /* \"#utility.yul\":9021:9024   */\n  dup10\n    /* \"#utility.yul\":9017:9036   */\n  add\n    /* \"#utility.yul\":9011:9037   */\n  mload\n    /* \"#utility.yul\":9003:9009   */\n  dup3\n    /* \"#utility.yul\":8996:9038   */\n  sstore\n    /* \"#utility.yul\":9077:9078   */\n  0x01\n    /* \"#utility.yul\":9069:9075   */\n  dup3\n    /* \"#utility.yul\":9065:9079   */\n  add\n    /* \"#utility.yul\":9055:9079   */\n  swap2\n  pop\n    /* \"#utility.yul\":9124:9126   */\n  0x20\n    /* \"#utility.yul\":9113:9122   */\n  dup6\n    /* \"#utility.yul\":9109:9127   */\n  add\n    /* \"#utility.yul\":9096:9127   */\n  swap5\n  pop\n    /* \"#utility.yul\":8970:8974   */\n  0x20\n    /* \"#utility.yul\":8967:8968   */\n  dup2\n    /* \"#utility.yul\":8963:8975   */\n  add\n    /* \"#utility.yul\":8958:8975   */\n  swap1\n  pop\n    /* \"#utility.yul\":8933:9141   */\n  jump(tag_154)\ntag_156:\n    /* \"#utility.yul\":9169:9175   */\n  dup7\n    /* \"#utility.yul\":9160:9167   */\n  dup4\n    /* \"#utility.yul\":9157:9176   */\n  lt\n    /* \"#utility.yul\":9154:9333   */\n  iszero\n  tag_157\n  jumpi\n    /* \"#utility.yul\":9227:9236   */\n  dup5\n    /* \"#utility.yul\":9222:9225   */\n  dup10\n    /* \"#utility.yul\":9218:9237   */\n  add\n    /* \"#utility.yul\":9212:9238   */\n  mload\n    /* \"#utility.yul\":9270:9318   */\n  tag_158\n    /* \"#utility.yul\":9312:9316   */\n  0x1f\n    /* \"#utility.yul\":9304:9310   */\n  dup10\n    /* \"#utility.yul\":9300:9317   */\n  and\n    /* \"#utility.yul\":9289:9298   */\n  dup3\n    /* \"#utility.yul\":9270:9318   */\n  tag_45\n  jump\t// in\ntag_158:\n    /* \"#utility.yul\":9262:9268   */\n  dup4\n    /* \"#utility.yul\":9255:9319   */\n  sstore\n    /* \"#utility.yul\":9177:9333   */\n  pop\n    /* \"#utility.yul\":9154:9333   */\ntag_157:\n    /* \"#utility.yul\":9379:9380   */\n  0x01\n    /* \"#utility.yul\":9375:9376   */\n  0x02\n    /* \"#utility.yul\":9367:9373   */\n  dup9\n    /* \"#utility.yul\":9363:9377   */\n  mul\n    /* \"#utility.yul\":9359:9381   */\n  add\n    /* \"#utility.yul\":9353:9357   */\n  dup9\n    /* \"#utility.yul\":9346:9382   */\n  sstore\n    /* \"#utility.yul\":8781:9392   */\n  pop\n  pop\n  pop\n    /* \"#utility.yul\":8744:9631   */\ntag_149:\n  pop\n    /* \"#utility.yul\":8334:9637   */\n  pop\n  pop\n  pop\n    /* \"#utility.yul\":8242:9637   */\n  pop\n  pop\n  jump\t// out\n    /* \"work/class/inscoin.sol\":60:1429  contract MyCoin{... */\ntag_11:\n  dataSize(sub_0)\n  dup1\n  dataOffset(sub_0)\n  0x00\n  codecopy\n  0x00\n  return\nstop\n\nsub_0: assembly {\n        /* \"work/class/inscoin.sol\":60:1429  contract MyCoin{... */\n      mstore(0x40, 0x80)\n      jumpi(tag_1, lt(calldatasize, 0x04))\n      shr(0xe0, calldataload(0x00))\n      dup1\n      0x06fdde03\n      eq\n      tag_2\n      jumpi\n      dup1\n      0x12065fe0\n      eq\n      tag_3\n      jumpi\n      dup1\n      0x16ada547\n      eq\n      tag_4\n      jumpi\n      dup1\n      0x833b5f12\n      eq\n      tag_5\n      jumpi\n      dup1\n      0xa6f2ae3a\n      eq\n      tag_6\n      jumpi\n      dup1\n      0xa9059cbb\n      eq\n      tag_7\n      jumpi\n    tag_1:\n      0x00\n      dup1\n      revert\n        /* \"work/class/inscoin.sol\":82:100  string public name */\n    tag_2:\n      callvalue\n      dup1\n      iszero\n      tag_8\n      jumpi\n      0x00\n      dup1\n      revert\n    tag_8:\n      pop\n      tag_9\n      tag_10\n      jump\t// in\n    tag_9:\n      mload(0x40)\n      tag_11\n      swap2\n      swap1\n      tag_12\n      jump\t// in\n    tag_11:\n      mload(0x40)\n      dup1\n      swap2\n      sub\n      swap1\n      return\n        /* \"work/class/inscoin.sol\":592:744  function getBalance() external view returns (uint){... */\n    tag_3:\n      callvalue\n      dup1\n      iszero\n      tag_13\n      jumpi\n      0x00\n      dup1\n      revert\n    tag_13:\n      pop\n      tag_14\n      tag_15\n      jump\t// in\n    tag_14:\n      mload(0x40)\n      tag_16\n      swap2\n      swap1\n      tag_17\n      jump\t// in\n    tag_16:\n      mload(0x40)\n      dup1\n      swap2\n      sub\n      swap1\n      return\n        /* \"work/class/inscoin.sol\":190:208  string public time */\n    tag_4:\n      callvalue\n      dup1\n      iszero\n      tag_18\n      jumpi\n      0x00\n      dup1\n      revert\n    tag_18:\n      pop\n      tag_19\n      tag_20\n      jump\t// in\n    tag_19:\n      mload(0x40)\n      tag_21\n      swap2\n      swap1\n      tag_12\n      jump\t// in\n    tag_21:\n      mload(0x40)\n      dup1\n      swap2\n      sub\n      swap1\n      return\n        /* \"work/class/inscoin.sol\":215:236  string public pronoun */\n    tag_5:\n      callvalue\n      dup1\n      iszero\n      tag_22\n      jumpi\n      0x00\n      dup1\n      revert\n    tag_22:\n      pop\n      tag_23\n      tag_24\n      jump\t// in\n    tag_23:\n      mload(0x40)\n      tag_25\n      swap2\n      swap1\n      tag_12\n      jump\t// in\n    tag_25:\n      mload(0x40)\n      dup1\n      swap2\n      sub\n      swap1\n      return\n        /* \"work/class/inscoin.sol\":384:584  function buy() external payable returns (uint){... */\n    tag_6:\n      tag_26\n      tag_27\n      jump\t// in\n    tag_26:\n      mload(0x40)\n      tag_28\n      swap2\n      swap1\n      tag_17\n      jump\t// in\n    tag_28:\n      mload(0x40)\n      dup1\n      swap2\n      sub\n      swap1\n      return\n        /* \"work/class/inscoin.sol\":752:1066  function transfer(address payable _receiver, uint _amount) external returns (bool){... */\n    tag_7:\n      callvalue\n      dup1\n      iszero\n      tag_29\n      jumpi\n      0x00\n      dup1\n      revert\n    tag_29:\n      pop\n      tag_30\n      0x04\n      dup1\n      calldatasize\n      sub\n      dup2\n      add\n      swap1\n      tag_31\n      swap2\n      swap1\n      tag_32\n      jump\t// in\n    tag_31:\n      tag_33\n      jump\t// in\n    tag_30:\n      mload(0x40)\n      tag_34\n      swap2\n      swap1\n      tag_35\n      jump\t// in\n    tag_34:\n      mload(0x40)\n      dup1\n      swap2\n      sub\n      swap1\n      return\n        /* \"work/class/inscoin.sol\":82:100  string public name */\n    tag_10:\n      0x00\n      dup1\n      sload\n      tag_36\n      swap1\n      tag_37\n      jump\t// in\n    tag_36:\n      dup1\n      0x1f\n      add\n      0x20\n      dup1\n      swap2\n      div\n      mul\n      0x20\n      add\n      mload(0x40)\n      swap1\n      dup2\n      add\n      0x40\n      mstore\n      dup1\n      swap3\n      swap2\n      swap1\n      dup2\n      dup2\n      mstore\n      0x20\n      add\n      dup3\n      dup1\n      sload\n      tag_38\n      swap1\n      tag_37\n      jump\t// in\n    tag_38:\n      dup1\n      iszero\n      tag_39\n      jumpi\n      dup1\n      0x1f\n      lt\n      tag_40\n      jumpi\n      0x0100\n      dup1\n      dup4\n      sload\n      div\n      mul\n      dup4\n      mstore\n      swap2\n      0x20\n      add\n      swap2\n      jump(tag_39)\n    tag_40:\n      dup3\n      add\n      swap2\n      swap1\n      0x00\n      mstore\n      keccak256(0x00, 0x20)\n      swap1\n    tag_41:\n      dup2\n      sload\n      dup2\n      mstore\n      swap1\n      0x01\n      add\n      swap1\n      0x20\n      add\n      dup1\n      dup4\n      gt\n      tag_41\n      jumpi\n      dup3\n      swap1\n      sub\n      0x1f\n      and\n      dup3\n      add\n      swap2\n    tag_39:\n      pop\n      pop\n      pop\n      pop\n      pop\n      dup2\n      jump\t// out\n        /* \"work/class/inscoin.sol\":592:744  function getBalance() external view returns (uint){... */\n    tag_15:\n        /* \"work/class/inscoin.sol\":637:641  uint */\n      0x00\n        /* \"work/class/inscoin.sol\":671:676  owner */\n      0x01\n      dup1\n      sload\n      swap1\n      0x0100\n      exp\n      swap1\n      div\n      0xffffffffffffffffffffffffffffffffffffffff\n      and\n        /* \"work/class/inscoin.sol\":657:676  msg.sender == owner */\n      0xffffffffffffffffffffffffffffffffffffffff\n      and\n        /* \"work/class/inscoin.sol\":657:667  msg.sender */\n      caller\n        /* \"work/class/inscoin.sol\":657:676  msg.sender == owner */\n      0xffffffffffffffffffffffffffffffffffffffff\n      and\n      sub\n        /* \"work/class/inscoin.sol\":653:718  if (msg.sender == owner){... */\n      tag_43\n      jumpi\n        /* \"work/class/inscoin.sol\":699:706  balance */\n      sload(0x06)\n        /* \"work/class/inscoin.sol\":692:706  return balance */\n      swap1\n      pop\n      jump(tag_42)\n        /* \"work/class/inscoin.sol\":653:718  if (msg.sender == owner){... */\n    tag_43:\n        /* \"work/class/inscoin.sol\":735:736  0 */\n      0x00\n        /* \"work/class/inscoin.sol\":728:736  return 0 */\n      swap1\n      pop\n        /* \"work/class/inscoin.sol\":592:744  function getBalance() external view returns (uint){... */\n    tag_42:\n      swap1\n      jump\t// out\n        /* \"work/class/inscoin.sol\":190:208  string public time */\n    tag_20:\n      0x03\n      dup1\n      sload\n      tag_44\n      swap1\n      tag_37\n      jump\t// in\n    tag_44:\n      dup1\n      0x1f\n      add\n      0x20\n      dup1\n      swap2\n      div\n      mul\n      0x20\n      add\n      mload(0x40)\n      swap1\n      dup2\n      add\n      0x40\n      mstore\n      dup1\n      swap3\n      swap2\n      swap1\n      dup2\n      dup2\n      mstore\n      0x20\n      add\n      dup3\n      dup1\n      sload\n      tag_45\n      swap1\n      tag_37\n      jump\t// in\n    tag_45:\n      dup1\n      iszero\n      tag_46\n      jumpi\n      dup1\n      0x1f\n      lt\n      tag_47\n      jumpi\n      0x0100\n      dup1\n      dup4\n      sload\n      div\n      mul\n      dup4\n      mstore\n      swap2\n      0x20\n      add\n      swap2\n      jump(tag_46)\n    tag_47:\n      dup3\n      add\n      swap2\n      swap1\n      0x00\n      mstore\n      keccak256(0x00, 0x20)\n      swap1\n    tag_48:\n      dup2\n      sload\n      dup2\n      mstore\n      swap1\n      0x01\n      add\n      swap1\n      0x20\n      add\n      dup1\n      dup4\n      gt\n      tag_48\n      jumpi\n      dup3\n      swap1\n      sub\n      0x1f\n      and\n      dup3\n      add\n      swap2\n    tag_46:\n      pop\n      pop\n      pop\n      pop\n      pop\n      dup2\n      jump\t// out\n        /* \"work/class/inscoin.sol\":215:236  string public pronoun */\n    tag_24:\n      0x04\n      dup1\n      sload\n      tag_49\n      swap1\n      tag_37\n      jump\t// in\n    tag_49:\n      dup1\n      0x1f\n      add\n      0x20\n      dup1\n      swap2\n      div\n      mul\n      0x20\n      add\n      mload(0x40)\n      swap1\n      dup2\n      add\n      0x40\n      mstore\n      dup1\n      swap3\n      swap2\n      swap1\n      dup2\n      dup2\n      mstore\n      0x20\n      add\n      dup3\n      dup1\n      sload\n      tag_50\n      swap1\n      tag_37\n      jump\t// in\n    tag_50:\n      dup1\n      iszero\n      tag_51\n      jumpi\n      dup1\n      0x1f\n      lt\n      tag_52\n      jumpi\n      0x0100\n      dup1\n      dup4\n      sload\n      div\n      mul\n      dup4\n      mstore\n      swap2\n      0x20\n      add\n      swap2\n      jump(tag_51)\n    tag_52:\n      dup3\n      add\n      swap2\n      swap1\n      0x00\n      mstore\n      keccak256(0x00, 0x20)\n      swap1\n    tag_53:\n      dup2\n      sload\n      dup2\n      mstore\n      swap1\n      0x01\n      add\n      swap1\n      0x20\n      add\n      dup1\n      dup4\n      gt\n      tag_53\n      jumpi\n      dup3\n      swap1\n      sub\n      0x1f\n      and\n      dup3\n      add\n      swap2\n    tag_51:\n      pop\n      pop\n      pop\n      pop\n      pop\n      dup2\n      jump\t// out\n        /* \"work/class/inscoin.sol\":384:584  function buy() external payable returns (uint){... */\n    tag_27:\n        /* \"work/class/inscoin.sol\":425:429  uint */\n      0x00\n        /* \"work/class/inscoin.sol\":470:473  100 */\n      0x64\n        /* \"work/class/inscoin.sol\":464:467  fee */\n      0x05\n      0x00\n      swap1\n      sload\n      swap1\n      0x0100\n      exp\n      swap1\n      div\n      0xff\n      and\n        /* \"work/class/inscoin.sol\":452:467  msg.value * fee */\n      0xff\n      and\n        /* \"work/class/inscoin.sol\":452:461  msg.value */\n      callvalue\n        /* \"work/class/inscoin.sol\":452:467  msg.value * fee */\n      tag_55\n      swap2\n      swap1\n      tag_56\n      jump\t// in\n    tag_55:\n        /* \"work/class/inscoin.sol\":452:473  msg.value * fee / 100 */\n      tag_57\n      swap2\n      swap1\n      tag_58\n      jump\t// in\n    tag_57:\n        /* \"work/class/inscoin.sol\":441:448  balance */\n      0x06\n      0x00\n        /* \"work/class/inscoin.sol\":441:473  balance += msg.value * fee / 100 */\n      dup3\n      dup3\n      sload\n      tag_59\n      swap2\n      swap1\n      tag_60\n      jump\t// in\n    tag_59:\n      swap3\n      pop\n      pop\n      dup2\n      swap1\n      sstore\n      pop\n        /* \"work/class/inscoin.sol\":484:495  uint tokens */\n      0x00\n        /* \"work/class/inscoin.sol\":510:515  price */\n      sload(0x07)\n        /* \"work/class/inscoin.sol\":498:507  msg.value */\n      callvalue\n        /* \"work/class/inscoin.sol\":498:515  msg.value / price */\n      tag_61\n      swap2\n      swap1\n      tag_58\n      jump\t// in\n    tag_61:\n        /* \"work/class/inscoin.sol\":484:515  uint tokens = msg.value / price */\n      swap1\n      pop\n        /* \"work/class/inscoin.sol\":546:552  tokens */\n      dup1\n        /* \"work/class/inscoin.sol\":526:531  users */\n      0x08\n        /* \"work/class/inscoin.sol\":526:543  users[msg.sender] */\n      0x00\n        /* \"work/class/inscoin.sol\":532:542  msg.sender */\n      caller\n        /* \"work/class/inscoin.sol\":526:543  users[msg.sender] */\n      0xffffffffffffffffffffffffffffffffffffffff\n      and\n      0xffffffffffffffffffffffffffffffffffffffff\n      and\n      dup2\n      mstore\n      0x20\n      add\n      swap1\n      dup2\n      mstore\n      0x20\n      add\n      0x00\n      keccak256\n        /* \"work/class/inscoin.sol\":526:552  users[msg.sender] = tokens */\n      dup2\n      swap1\n      sstore\n      pop\n        /* \"work/class/inscoin.sol\":570:576  tokens */\n      dup1\n        /* \"work/class/inscoin.sol\":563:576  return tokens */\n      swap2\n      pop\n      pop\n        /* \"work/class/inscoin.sol\":384:584  function buy() external payable returns (uint){... */\n      swap1\n      jump\t// out\n        /* \"work/class/inscoin.sol\":752:1066  function transfer(address payable _receiver, uint _amount) external returns (bool){... */\n    tag_33:\n        /* \"work/class/inscoin.sol\":829:833  bool */\n      0x00\n        /* \"work/class/inscoin.sol\":845:854  uint _wei */\n      dup1\n        /* \"work/class/inscoin.sol\":867:874  1 ether */\n      0x0de0b6b3a7640000\n        /* \"work/class/inscoin.sol\":857:864  _amount */\n      dup4\n        /* \"work/class/inscoin.sol\":857:874  _amount * 1 ether */\n      tag_63\n      swap2\n      swap1\n      tag_56\n      jump\t// in\n    tag_63:\n        /* \"work/class/inscoin.sol\":845:874  uint _wei = _amount * 1 ether */\n      swap1\n      pop\n        /* \"work/class/inscoin.sol\":903:908  owner */\n      0x01\n      dup1\n      sload\n      swap1\n      0x0100\n      exp\n      swap1\n      div\n      0xffffffffffffffffffffffffffffffffffffffff\n      and\n        /* \"work/class/inscoin.sol\":889:908  msg.sender == owner */\n      0xffffffffffffffffffffffffffffffffffffffff\n      and\n        /* \"work/class/inscoin.sol\":889:899  msg.sender */\n      caller\n        /* \"work/class/inscoin.sol\":889:908  msg.sender == owner */\n      0xffffffffffffffffffffffffffffffffffffffff\n      and\n      eq\n        /* \"work/class/inscoin.sol\":889:930  msg.sender == owner && _amount <= balance */\n      dup1\n      iszero\n      tag_64\n      jumpi\n      pop\n        /* \"work/class/inscoin.sol\":923:930  balance */\n      sload(0x06)\n        /* \"work/class/inscoin.sol\":912:919  _amount */\n      dup4\n        /* \"work/class/inscoin.sol\":912:930  _amount <= balance */\n      gt\n      iszero\n        /* \"work/class/inscoin.sol\":889:930  msg.sender == owner && _amount <= balance */\n    tag_64:\n        /* \"work/class/inscoin.sol\":885:1036  if (msg.sender == owner && _amount <= balance){... */\n      iszero\n      tag_65\n      jumpi\n        /* \"work/class/inscoin.sol\":947:959  bool success */\n      0x00\n        /* \"work/class/inscoin.sol\":965:974  _receiver */\n      dup5\n        /* \"work/class/inscoin.sol\":965:979  _receiver.call */\n      0xffffffffffffffffffffffffffffffffffffffff\n      and\n        /* \"work/class/inscoin.sol\":986:990  _wei */\n      dup3\n        /* \"work/class/inscoin.sol\":965:995  _receiver.call{value:_wei}(\"\") */\n      mload(0x40)\n      tag_66\n      swap1\n      tag_67\n      jump\t// in\n    tag_66:\n      0x00\n      mload(0x40)\n      dup1\n      dup4\n      sub\n      dup2\n      dup6\n      dup8\n      gas\n      call\n      swap3\n      pop\n      pop\n      pop\n      returndatasize\n      dup1\n      0x00\n      dup2\n      eq\n      tag_70\n      jumpi\n      mload(0x40)\n      swap2\n      pop\n      and(add(returndatasize, 0x3f), not(0x1f))\n      dup3\n      add\n      0x40\n      mstore\n      returndatasize\n      dup3\n      mstore\n      returndatasize\n      0x00\n      0x20\n      dup5\n      add\n      returndatacopy\n      jump(tag_69)\n    tag_70:\n      0x60\n      swap2\n      pop\n    tag_69:\n      pop\n        /* \"work/class/inscoin.sol\":946:995  (bool success, ) = _receiver.call{value:_wei}(\"\") */\n      pop\n      swap1\n      pop\n        /* \"work/class/inscoin.sol\":1017:1024  success */\n      dup1\n        /* \"work/class/inscoin.sol\":1010:1024  return success */\n      swap3\n      pop\n      pop\n      pop\n      jump(tag_62)\n        /* \"work/class/inscoin.sol\":885:1036  if (msg.sender == owner && _amount <= balance){... */\n    tag_65:\n        /* \"work/class/inscoin.sol\":1053:1058  false */\n      0x00\n        /* \"work/class/inscoin.sol\":1046:1058  return false */\n      swap2\n      pop\n      pop\n        /* \"work/class/inscoin.sol\":752:1066  function transfer(address payable _receiver, uint _amount) external returns (bool){... */\n    tag_62:\n      swap3\n      swap2\n      pop\n      pop\n      jump\t// out\n        /* \"#utility.yul\":7:106   */\n    tag_71:\n        /* \"#utility.yul\":59:65   */\n      0x00\n        /* \"#utility.yul\":93:98   */\n      dup2\n        /* \"#utility.yul\":87:99   */\n      mload\n        /* \"#utility.yul\":77:99   */\n      swap1\n      pop\n        /* \"#utility.yul\":7:106   */\n      swap2\n      swap1\n      pop\n      jump\t// out\n        /* \"#utility.yul\":112:281   */\n    tag_72:\n        /* \"#utility.yul\":196:207   */\n      0x00\n        /* \"#utility.yul\":230:236   */\n      dup3\n        /* \"#utility.yul\":225:228   */\n      dup3\n        /* \"#utility.yul\":218:237   */\n      mstore\n        /* \"#utility.yul\":270:274   */\n      0x20\n        /* \"#utility.yul\":265:268   */\n      dup3\n        /* \"#utility.yul\":261:275   */\n      add\n        /* \"#utility.yul\":246:275   */\n      swap1\n      pop\n        /* \"#utility.yul\":112:281   */\n      swap3\n      swap2\n      pop\n      pop\n      jump\t// out\n        /* \"#utility.yul\":287:426   */\n    tag_73:\n        /* \"#utility.yul\":376:382   */\n      dup3\n        /* \"#utility.yul\":371:374   */\n      dup2\n        /* \"#utility.yul\":366:369   */\n      dup4\n        /* \"#utility.yul\":360:383   */\n      mcopy\n        /* \"#utility.yul\":417:418   */\n      0x00\n        /* \"#utility.yul\":408:414   */\n      dup4\n        /* \"#utility.yul\":403:406   */\n      dup4\n        /* \"#utility.yul\":399:415   */\n      add\n        /* \"#utility.yul\":392:419   */\n      mstore\n        /* \"#utility.yul\":287:426   */\n      pop\n      pop\n      pop\n      jump\t// out\n        /* \"#utility.yul\":432:534   */\n    tag_74:\n        /* \"#utility.yul\":473:479   */\n      0x00\n        /* \"#utility.yul\":524:526   */\n      0x1f\n        /* \"#utility.yul\":520:527   */\n      not\n        /* \"#utility.yul\":515:517   */\n      0x1f\n        /* \"#utility.yul\":508:513   */\n      dup4\n        /* \"#utility.yul\":504:518   */\n      add\n        /* \"#utility.yul\":500:528   */\n      and\n        /* \"#utility.yul\":490:528   */\n      swap1\n      pop\n        /* \"#utility.yul\":432:534   */\n      swap2\n      swap1\n      pop\n      jump\t// out\n        /* \"#utility.yul\":540:917   */\n    tag_75:\n        /* \"#utility.yul\":628:631   */\n      0x00\n        /* \"#utility.yul\":656:695   */\n      tag_101\n        /* \"#utility.yul\":689:694   */\n      dup3\n        /* \"#utility.yul\":656:695   */\n      tag_71\n      jump\t// in\n    tag_101:\n        /* \"#utility.yul\":711:782   */\n      tag_102\n        /* \"#utility.yul\":775:781   */\n      dup2\n        /* \"#utility.yul\":770:773   */\n      dup6\n        /* \"#utility.yul\":711:782   */\n      tag_72\n      jump\t// in\n    tag_102:\n        /* \"#utility.yul\":704:782   */\n      swap4\n      pop\n        /* \"#utility.yul\":791:856   */\n      tag_103\n        /* \"#utility.yul\":849:855   */\n      dup2\n        /* \"#utility.yul\":844:847   */\n      dup6\n        /* \"#utility.yul\":837:841   */\n      0x20\n        /* \"#utility.yul\":830:835   */\n      dup7\n        /* \"#utility.yul\":826:842   */\n      add\n        /* \"#utility.yul\":791:856   */\n      tag_73\n      jump\t// in\n    tag_103:\n        /* \"#utility.yul\":881:910   */\n      tag_104\n        /* \"#utility.yul\":903:909   */\n      dup2\n        /* \"#utility.yul\":881:910   */\n      tag_74\n      jump\t// in\n    tag_104:\n        /* \"#utility.yul\":876:879   */\n      dup5\n        /* \"#utility.yul\":872:911   */\n      add\n        /* \"#utility.yul\":865:911   */\n      swap2\n      pop\n        /* \"#utility.yul\":632:917   */\n      pop\n        /* \"#utility.yul\":540:917   */\n      swap3\n      swap2\n      pop\n      pop\n      jump\t// out\n        /* \"#utility.yul\":923:1236   */\n    tag_12:\n        /* \"#utility.yul\":1036:1040   */\n      0x00\n        /* \"#utility.yul\":1074:1076   */\n      0x20\n        /* \"#utility.yul\":1063:1072   */\n      dup3\n        /* \"#utility.yul\":1059:1077   */\n      add\n        /* \"#utility.yul\":1051:1077   */\n      swap1\n      pop\n        /* \"#utility.yul\":1123:1132   */\n      dup2\n        /* \"#utility.yul\":1117:1121   */\n      dup2\n        /* \"#utility.yul\":1113:1133   */\n      sub\n        /* \"#utility.yul\":1109:1110   */\n      0x00\n        /* \"#utility.yul\":1098:1107   */\n      dup4\n        /* \"#utility.yul\":1094:1111   */\n      add\n        /* \"#utility.yul\":1087:1134   */\n      mstore\n        /* \"#utility.yul\":1151:1229   */\n      tag_106\n        /* \"#utility.yul\":1224:1228   */\n      dup2\n        /* \"#utility.yul\":1215:1221   */\n      dup5\n        /* \"#utility.yul\":1151:1229   */\n      tag_75\n      jump\t// in\n    tag_106:\n        /* \"#utility.yul\":1143:1229   */\n      swap1\n      pop\n        /* \"#utility.yul\":923:1236   */\n      swap3\n      swap2\n      pop\n      pop\n      jump\t// out\n        /* \"#utility.yul\":1242:1319   */\n    tag_76:\n        /* \"#utility.yul\":1279:1286   */\n      0x00\n        /* \"#utility.yul\":1308:1313   */\n      dup2\n        /* \"#utility.yul\":1297:1313   */\n      swap1\n      pop\n        /* \"#utility.yul\":1242:1319   */\n      swap2\n      swap1\n      pop\n      jump\t// out\n        /* \"#utility.yul\":1325:1443   */\n    tag_77:\n        /* \"#utility.yul\":1412:1436   */\n      tag_109\n        /* \"#utility.yul\":1430:1435   */\n      dup2\n        /* \"#utility.yul\":1412:1436   */\n      tag_76\n      jump\t// in\n    tag_109:\n        /* \"#utility.yul\":1407:1410   */\n      dup3\n        /* \"#utility.yul\":1400:1437   */\n      mstore\n        /* \"#utility.yul\":1325:1443   */\n      pop\n      pop\n      jump\t// out\n        /* \"#utility.yul\":1449:1671   */\n    tag_17:\n        /* \"#utility.yul\":1542:1546   */\n      0x00\n        /* \"#utility.yul\":1580:1582   */\n      0x20\n        /* \"#utility.yul\":1569:1578   */\n      dup3\n        /* \"#utility.yul\":1565:1583   */\n      add\n        /* \"#utility.yul\":1557:1583   */\n      swap1\n      pop\n        /* \"#utility.yul\":1593:1664   */\n      tag_111\n        /* \"#utility.yul\":1661:1662   */\n      0x00\n        /* \"#utility.yul\":1650:1659   */\n      dup4\n        /* \"#utility.yul\":1646:1663   */\n      add\n        /* \"#utility.yul\":1637:1643   */\n      dup5\n        /* \"#utility.yul\":1593:1664   */\n      tag_77\n      jump\t// in\n    tag_111:\n        /* \"#utility.yul\":1449:1671   */\n      swap3\n      swap2\n      pop\n      pop\n      jump\t// out\n        /* \"#utility.yul\":1758:1875   */\n    tag_79:\n        /* \"#utility.yul\":1867:1868   */\n      0x00\n        /* \"#utility.yul\":1864:1865   */\n      dup1\n        /* \"#utility.yul\":1857:1869   */\n      revert\n        /* \"#utility.yul\":2004:2130   */\n    tag_81:\n        /* \"#utility.yul\":2041:2048   */\n      0x00\n        /* \"#utility.yul\":2081:2123   */\n      0xffffffffffffffffffffffffffffffffffffffff\n        /* \"#utility.yul\":2074:2079   */\n      dup3\n        /* \"#utility.yul\":2070:2124   */\n      and\n        /* \"#utility.yul\":2059:2124   */\n      swap1\n      pop\n        /* \"#utility.yul\":2004:2130   */\n      swap2\n      swap1\n      pop\n      jump\t// out\n        /* \"#utility.yul\":2136:2240   */\n    tag_82:\n        /* \"#utility.yul\":2181:2188   */\n      0x00\n        /* \"#utility.yul\":2210:2234   */\n      tag_117\n        /* \"#utility.yul\":2228:2233   */\n      dup3\n        /* \"#utility.yul\":2210:2234   */\n      tag_81\n      jump\t// in\n    tag_117:\n        /* \"#utility.yul\":2199:2234   */\n      swap1\n      pop\n        /* \"#utility.yul\":2136:2240   */\n      swap2\n      swap1\n      pop\n      jump\t// out\n        /* \"#utility.yul\":2246:2384   */\n    tag_83:\n        /* \"#utility.yul\":2327:2359   */\n      tag_119\n        /* \"#utility.yul\":2353:2358   */\n      dup2\n        /* \"#utility.yul\":2327:2359   */\n      tag_82\n      jump\t// in\n    tag_119:\n        /* \"#utility.yul\":2320:2325   */\n      dup2\n        /* \"#utility.yul\":2317:2360   */\n      eq\n        /* \"#utility.yul\":2307:2378   */\n      tag_120\n      jumpi\n        /* \"#utility.yul\":2374:2375   */\n      0x00\n        /* \"#utility.yul\":2371:2372   */\n      dup1\n        /* \"#utility.yul\":2364:2376   */\n      revert\n        /* \"#utility.yul\":2307:2378   */\n    tag_120:\n        /* \"#utility.yul\":2246:2384   */\n      pop\n      jump\t// out\n        /* \"#utility.yul\":2390:2545   */\n    tag_84:\n        /* \"#utility.yul\":2444:2449   */\n      0x00\n        /* \"#utility.yul\":2482:2488   */\n      dup2\n        /* \"#utility.yul\":2469:2489   */\n      calldataload\n        /* \"#utility.yul\":2460:2489   */\n      swap1\n      pop\n        /* \"#utility.yul\":2498:2539   */\n      tag_122\n        /* \"#utility.yul\":2533:2538   */\n      dup2\n        /* \"#utility.yul\":2498:2539   */\n      tag_83\n      jump\t// in\n    tag_122:\n        /* \"#utility.yul\":2390:2545   */\n      swap3\n      swap2\n      pop\n      pop\n      jump\t// out\n        /* \"#utility.yul\":2551:2673   */\n    tag_85:\n        /* \"#utility.yul\":2624:2648   */\n      tag_124\n        /* \"#utility.yul\":2642:2647   */\n      dup2\n        /* \"#utility.yul\":2624:2648   */\n      tag_76\n      jump\t// in\n    tag_124:\n        /* \"#utility.yul\":2617:2622   */\n      dup2\n        /* \"#utility.yul\":2614:2649   */\n      eq\n        /* \"#utility.yul\":2604:2667   */\n      tag_125\n      jumpi\n        /* \"#utility.yul\":2663:2664   */\n      0x00\n        /* \"#utility.yul\":2660:2661   */\n      dup1\n        /* \"#utility.yul\":2653:2665   */\n      revert\n        /* \"#utility.yul\":2604:2667   */\n    tag_125:\n        /* \"#utility.yul\":2551:2673   */\n      pop\n      jump\t// out\n        /* \"#utility.yul\":2679:2818   */\n    tag_86:\n        /* \"#utility.yul\":2725:2730   */\n      0x00\n        /* \"#utility.yul\":2763:2769   */\n      dup2\n        /* \"#utility.yul\":2750:2770   */\n      calldataload\n        /* \"#utility.yul\":2741:2770   */\n      swap1\n      pop\n        /* \"#utility.yul\":2779:2812   */\n      tag_127\n        /* \"#utility.yul\":2806:2811   */\n      dup2\n        /* \"#utility.yul\":2779:2812   */\n      tag_85\n      jump\t// in\n    tag_127:\n        /* \"#utility.yul\":2679:2818   */\n      swap3\n      swap2\n      pop\n      pop\n      jump\t// out\n        /* \"#utility.yul\":2824:3314   */\n    tag_32:\n        /* \"#utility.yul\":2900:2906   */\n      0x00\n        /* \"#utility.yul\":2908:2914   */\n      dup1\n        /* \"#utility.yul\":2957:2959   */\n      0x40\n        /* \"#utility.yul\":2945:2954   */\n      dup4\n        /* \"#utility.yul\":2936:2943   */\n      dup6\n        /* \"#utility.yul\":2932:2955   */\n      sub\n        /* \"#utility.yul\":2928:2960   */\n      slt\n        /* \"#utility.yul\":2925:3044   */\n      iszero\n      tag_129\n      jumpi\n        /* \"#utility.yul\":2963:3042   */\n      tag_130\n      tag_79\n      jump\t// in\n    tag_130:\n        /* \"#utility.yul\":2925:3044   */\n    tag_129:\n        /* \"#utility.yul\":3083:3084   */\n      0x00\n        /* \"#utility.yul\":3108:3169   */\n      tag_131\n        /* \"#utility.yul\":3161:3168   */\n      dup6\n        /* \"#utility.yul\":3152:3158   */\n      dup3\n        /* \"#utility.yul\":3141:3150   */\n      dup7\n        /* \"#utility.yul\":3137:3159   */\n      add\n        /* \"#utility.yul\":3108:3169   */\n      tag_84\n      jump\t// in\n    tag_131:\n        /* \"#utility.yul\":3098:3169   */\n      swap3\n      pop\n        /* \"#utility.yul\":3054:3179   */\n      pop\n        /* \"#utility.yul\":3218:3220   */\n      0x20\n        /* \"#utility.yul\":3244:3297   */\n      tag_132\n        /* \"#utility.yul\":3289:3296   */\n      dup6\n        /* \"#utility.yul\":3280:3286   */\n      dup3\n        /* \"#utility.yul\":3269:3278   */\n      dup7\n        /* \"#utility.yul\":3265:3287   */\n      add\n        /* \"#utility.yul\":3244:3297   */\n      tag_86\n      jump\t// in\n    tag_132:\n        /* \"#utility.yul\":3234:3297   */\n      swap2\n      pop\n        /* \"#utility.yul\":3189:3307   */\n      pop\n        /* \"#utility.yul\":2824:3314   */\n      swap3\n      pop\n      swap3\n      swap1\n      pop\n      jump\t// out\n        /* \"#utility.yul\":3320:3410   */\n    tag_87:\n        /* \"#utility.yul\":3354:3361   */\n      0x00\n        /* \"#utility.yul\":3397:3402   */\n      dup2\n        /* \"#utility.yul\":3390:3403   */\n      iszero\n        /* \"#utility.yul\":3383:3404   */\n      iszero\n        /* \"#utility.yul\":3372:3404   */\n      swap1\n      pop\n        /* \"#utility.yul\":3320:3410   */\n      swap2\n      swap1\n      pop\n      jump\t// out\n        /* \"#utility.yul\":3416:3525   */\n    tag_88:\n        /* \"#utility.yul\":3497:3518   */\n      tag_135\n        /* \"#utility.yul\":3512:3517   */\n      dup2\n        /* \"#utility.yul\":3497:3518   */\n      tag_87\n      jump\t// in\n    tag_135:\n        /* \"#utility.yul\":3492:3495   */\n      dup3\n        /* \"#utility.yul\":3485:3519   */\n      mstore\n        /* \"#utility.yul\":3416:3525   */\n      pop\n      pop\n      jump\t// out\n        /* \"#utility.yul\":3531:3741   */\n    tag_35:\n        /* \"#utility.yul\":3618:3622   */\n      0x00\n        /* \"#utility.yul\":3656:3658   */\n      0x20\n        /* \"#utility.yul\":3645:3654   */\n      dup3\n        /* \"#utility.yul\":3641:3659   */\n      add\n        /* \"#utility.yul\":3633:3659   */\n      swap1\n      pop\n        /* \"#utility.yul\":3669:3734   */\n      tag_137\n        /* \"#utility.yul\":3731:3732   */\n      0x00\n        /* \"#utility.yul\":3720:3729   */\n      dup4\n        /* \"#utility.yul\":3716:3733   */\n      add\n        /* \"#utility.yul\":3707:3713   */\n      dup5\n        /* \"#utility.yul\":3669:3734   */\n      tag_88\n      jump\t// in\n    tag_137:\n        /* \"#utility.yul\":3531:3741   */\n      swap3\n      swap2\n      pop\n      pop\n      jump\t// out\n        /* \"#utility.yul\":3747:3927   */\n    tag_89:\n        /* \"#utility.yul\":3795:3872   */\n      0x4e487b7100000000000000000000000000000000000000000000000000000000\n        /* \"#utility.yul\":3792:3793   */\n      0x00\n        /* \"#utility.yul\":3785:3873   */\n      mstore\n        /* \"#utility.yul\":3892:3896   */\n      0x22\n        /* \"#utility.yul\":3889:3890   */\n      0x04\n        /* \"#utility.yul\":3882:3897   */\n      mstore\n        /* \"#utility.yul\":3916:3920   */\n      0x24\n        /* \"#utility.yul\":3913:3914   */\n      0x00\n        /* \"#utility.yul\":3906:3921   */\n      revert\n        /* \"#utility.yul\":3933:4253   */\n    tag_37:\n        /* \"#utility.yul\":3977:3983   */\n      0x00\n        /* \"#utility.yul\":4014:4015   */\n      0x02\n        /* \"#utility.yul\":4008:4012   */\n      dup3\n        /* \"#utility.yul\":4004:4016   */\n      div\n        /* \"#utility.yul\":3994:4016   */\n      swap1\n      pop\n        /* \"#utility.yul\":4061:4062   */\n      0x01\n        /* \"#utility.yul\":4055:4059   */\n      dup3\n        /* \"#utility.yul\":4051:4063   */\n      and\n        /* \"#utility.yul\":4082:4100   */\n      dup1\n        /* \"#utility.yul\":4072:4153   */\n      tag_140\n      jumpi\n        /* \"#utility.yul\":4138:4142   */\n      0x7f\n        /* \"#utility.yul\":4130:4136   */\n      dup3\n        /* \"#utility.yul\":4126:4143   */\n      and\n        /* \"#utility.yul\":4116:4143   */\n      swap2\n      pop\n        /* \"#utility.yul\":4072:4153   */\n    tag_140:\n        /* \"#utility.yul\":4200:4202   */\n      0x20\n        /* \"#utility.yul\":4192:4198   */\n      dup3\n        /* \"#utility.yul\":4189:4203   */\n      lt\n        /* \"#utility.yul\":4169:4187   */\n      dup2\n        /* \"#utility.yul\":4166:4204   */\n      sub\n        /* \"#utility.yul\":4163:4247   */\n      tag_141\n      jumpi\n        /* \"#utility.yul\":4219:4237   */\n      tag_142\n      tag_89\n      jump\t// in\n    tag_142:\n        /* \"#utility.yul\":4163:4247   */\n    tag_141:\n        /* \"#utility.yul\":3984:4253   */\n      pop\n        /* \"#utility.yul\":3933:4253   */\n      swap2\n      swap1\n      pop\n      jump\t// out\n        /* \"#utility.yul\":4259:4439   */\n    tag_90:\n        /* \"#utility.yul\":4307:4384   */\n      0x4e487b7100000000000000000000000000000000000000000000000000000000\n        /* \"#utility.yul\":4304:4305   */\n      0x00\n        /* \"#utility.yul\":4297:4385   */\n      mstore\n        /* \"#utility.yul\":4404:4408   */\n      0x11\n        /* \"#utility.yul\":4401:4402   */\n      0x04\n        /* \"#utility.yul\":4394:4409   */\n      mstore\n        /* \"#utility.yul\":4428:4432   */\n      0x24\n        /* \"#utility.yul\":4425:4426   */\n      0x00\n        /* \"#utility.yul\":4418:4433   */\n      revert\n        /* \"#utility.yul\":4445:4855   */\n    tag_56:\n        /* \"#utility.yul\":4485:4492   */\n      0x00\n        /* \"#utility.yul\":4508:4528   */\n      tag_145\n        /* \"#utility.yul\":4526:4527   */\n      dup3\n        /* \"#utility.yul\":4508:4528   */\n      tag_76\n      jump\t// in\n    tag_145:\n        /* \"#utility.yul\":4503:4528   */\n      swap2\n      pop\n        /* \"#utility.yul\":4542:4562   */\n      tag_146\n        /* \"#utility.yul\":4560:4561   */\n      dup4\n        /* \"#utility.yul\":4542:4562   */\n      tag_76\n      jump\t// in\n    tag_146:\n        /* \"#utility.yul\":4537:4562   */\n      swap3\n      pop\n        /* \"#utility.yul\":4597:4598   */\n      dup3\n        /* \"#utility.yul\":4594:4595   */\n      dup3\n        /* \"#utility.yul\":4590:4599   */\n      mul\n        /* \"#utility.yul\":4619:4649   */\n      tag_147\n        /* \"#utility.yul\":4637:4648   */\n      dup2\n        /* \"#utility.yul\":4619:4649   */\n      tag_76\n      jump\t// in\n    tag_147:\n        /* \"#utility.yul\":4608:4649   */\n      swap2\n      pop\n        /* \"#utility.yul\":4798:4799   */\n      dup3\n        /* \"#utility.yul\":4789:4796   */\n      dup3\n        /* \"#utility.yul\":4785:4800   */\n      div\n        /* \"#utility.yul\":4782:4783   */\n      dup5\n        /* \"#utility.yul\":4779:4801   */\n      eq\n        /* \"#utility.yul\":4759:4760   */\n      dup4\n        /* \"#utility.yul\":4752:4761   */\n      iszero\n        /* \"#utility.yul\":4732:4815   */\n      or\n        /* \"#utility.yul\":4709:4848   */\n      tag_148\n      jumpi\n        /* \"#utility.yul\":4828:4846   */\n      tag_149\n      tag_90\n      jump\t// in\n    tag_149:\n        /* \"#utility.yul\":4709:4848   */\n    tag_148:\n        /* \"#utility.yul\":4493:4855   */\n      pop\n        /* \"#utility.yul\":4445:4855   */\n      swap3\n      swap2\n      pop\n      pop\n      jump\t// out\n        /* \"#utility.yul\":4861:5041   */\n    tag_91:\n        /* \"#utility.yul\":4909:4986   */\n      0x4e487b7100000000000000000000000000000000000000000000000000000000\n        /* \"#utility.yul\":4906:4907   */\n      0x00\n        /* \"#utility.yul\":4899:4987   */\n      mstore\n        /* \"#utility.yul\":5006:5010   */\n      0x12\n        /* \"#utility.yul\":5003:5004   */\n      0x04\n        /* \"#utility.yul\":4996:5011   */\n      mstore\n        /* \"#utility.yul\":5030:5034   */\n      0x24\n        /* \"#utility.yul\":5027:5028   */\n      0x00\n        /* \"#utility.yul\":5020:5035   */\n      revert\n        /* \"#utility.yul\":5047:5232   */\n    tag_58:\n        /* \"#utility.yul\":5087:5088   */\n      0x00\n        /* \"#utility.yul\":5104:5124   */\n      tag_152\n        /* \"#utility.yul\":5122:5123   */\n      dup3\n        /* \"#utility.yul\":5104:5124   */\n      tag_76\n      jump\t// in\n    tag_152:\n        /* \"#utility.yul\":5099:5124   */\n      swap2\n      pop\n        /* \"#utility.yul\":5138:5158   */\n      tag_153\n        /* \"#utility.yul\":5156:5157   */\n      dup4\n        /* \"#utility.yul\":5138:5158   */\n      tag_76\n      jump\t// in\n    tag_153:\n        /* \"#utility.yul\":5133:5158   */\n      swap3\n      pop\n        /* \"#utility.yul\":5177:5178   */\n      dup3\n        /* \"#utility.yul\":5167:5202   */\n      tag_154\n      jumpi\n        /* \"#utility.yul\":5182:5200   */\n      tag_155\n      tag_91\n      jump\t// in\n    tag_155:\n        /* \"#utility.yul\":5167:5202   */\n    tag_154:\n        /* \"#utility.yul\":5224:5225   */\n      dup3\n        /* \"#utility.yul\":5221:5222   */\n      dup3\n        /* \"#utility.yul\":5217:5226   */\n      div\n        /* \"#utility.yul\":5212:5226   */\n      swap1\n      pop\n        /* \"#utility.yul\":5047:5232   */\n      swap3\n      swap2\n      pop\n      pop\n      jump\t// out\n        /* \"#utility.yul\":5238:5429   */\n    tag_60:\n        /* \"#utility.yul\":5278:5281   */\n      0x00\n        /* \"#utility.yul\":5297:5317   */\n      tag_157\n        /* \"#utility.yul\":5315:5316   */\n      dup3\n        /* \"#utility.yul\":5297:5317   */\n      tag_76\n      jump\t// in\n    tag_157:\n        /* \"#utility.yul\":5292:5317   */\n      swap2\n      pop\n        /* \"#utility.yul\":5331:5351   */\n      tag_158\n        /* \"#utility.yul\":5349:5350   */\n      dup4\n        /* \"#utility.yul\":5331:5351   */\n      tag_76\n      jump\t// in\n    tag_158:\n        /* \"#utility.yul\":5326:5351   */\n      swap3\n      pop\n        /* \"#utility.yul\":5374:5375   */\n      dup3\n        /* \"#utility.yul\":5371:5372   */\n      dup3\n        /* \"#utility.yul\":5367:5376   */\n      add\n        /* \"#utility.yul\":5360:5376   */\n      swap1\n      pop\n        /* \"#utility.yul\":5395:5398   */\n      dup1\n        /* \"#utility.yul\":5392:5393   */\n      dup3\n        /* \"#utility.yul\":5389:5399   */\n      gt\n        /* \"#utility.yul\":5386:5422   */\n      iszero\n      tag_159\n      jumpi\n        /* \"#utility.yul\":5402:5420   */\n      tag_160\n      tag_90\n      jump\t// in\n    tag_160:\n        /* \"#utility.yul\":5386:5422   */\n    tag_159:\n        /* \"#utility.yul\":5238:5429   */\n      swap3\n      swap2\n      pop\n      pop\n      jump\t// out\n        /* \"#utility.yul\":5435:5582   */\n    tag_92:\n        /* \"#utility.yul\":5536:5547   */\n      0x00\n        /* \"#utility.yul\":5573:5576   */\n      dup2\n        /* \"#utility.yul\":5558:5576   */\n      swap1\n      pop\n        /* \"#utility.yul\":5435:5582   */\n      swap3\n      swap2\n      pop\n      pop\n      jump\t// out\n        /* \"#utility.yul\":5588:5702   */\n    tag_93:\n      pop\n      jump\t// out\n        /* \"#utility.yul\":5708:6106   */\n    tag_94:\n        /* \"#utility.yul\":5867:5870   */\n      0x00\n        /* \"#utility.yul\":5888:5971   */\n      tag_164\n        /* \"#utility.yul\":5969:5970   */\n      0x00\n        /* \"#utility.yul\":5964:5967   */\n      dup4\n        /* \"#utility.yul\":5888:5971   */\n      tag_92\n      jump\t// in\n    tag_164:\n        /* \"#utility.yul\":5881:5971   */\n      swap2\n      pop\n        /* \"#utility.yul\":5980:6073   */\n      tag_165\n        /* \"#utility.yul\":6069:6072   */\n      dup3\n        /* \"#utility.yul\":5980:6073   */\n      tag_93\n      jump\t// in\n    tag_165:\n        /* \"#utility.yul\":6098:6099   */\n      0x00\n        /* \"#utility.yul\":6093:6096   */\n      dup3\n        /* \"#utility.yul\":6089:6100   */\n      add\n        /* \"#utility.yul\":6082:6100   */\n      swap1\n      pop\n        /* \"#utility.yul\":5708:6106   */\n      swap2\n      swap1\n      pop\n      jump\t// out\n        /* \"#utility.yul\":6112:6491   */\n    tag_67:\n        /* \"#utility.yul\":6296:6299   */\n      0x00\n        /* \"#utility.yul\":6318:6465   */\n      tag_167\n        /* \"#utility.yul\":6461:6464   */\n      dup3\n        /* \"#utility.yul\":6318:6465   */\n      tag_94\n      jump\t// in\n    tag_167:\n        /* \"#utility.yul\":6311:6465   */\n      swap2\n      pop\n        /* \"#utility.yul\":6482:6485   */\n      dup2\n        /* \"#utility.yul\":6475:6485   */\n      swap1\n      pop\n        /* \"#utility.yul\":6112:6491   */\n      swap2\n      swap1\n      pop\n      jump\t// out\n\n    auxdata: 0xa26469706673582212208cebc735a7d3b9036b828e500ab09daa4986b0e49665420730874397dacdf33e64736f6c634300081a0033\n}\n",
				"bytecode": {
					"linkReferences": {},
					"object": "6080604052600160055f6101000a81548160ff021916908360ff160217905550655af3107a4000600755348015610034575f80fd5b50604051610ecc380380610ecc8339818101604052810190610056919061027c565b845f90816100649190610570565b508360015f6101000a81548160ff021916908360ff160217905550336001806101000a81548173ffffffffffffffffffffffffffffffffffffffff021916908373ffffffffffffffffffffffffffffffffffffffff16021790555082600290816100ce9190610570565b5081600390816100de9190610570565b5080600490816100ee9190610570565b50505050505061063f565b5f604051905090565b5f80fd5b5f80fd5b5f80fd5b5f80fd5b5f601f19601f8301169050919050565b7f4e487b71000000000000000000000000000000000000000000000000000000005f52604160045260245ffd5b61015882610112565b810181811067ffffffffffffffff8211171561017757610176610122565b5b80604052505050565b5f6101896100f9565b9050610195828261014f565b919050565b5f67ffffffffffffffff8211156101b4576101b3610122565b5b6101bd82610112565b9050602081019050919050565b8281835e5f83830152505050565b5f6101ea6101e58461019a565b610180565b9050828152602081018484840111156102065761020561010e565b5b6102118482856101ca565b509392505050565b5f82601f83011261022d5761022c61010a565b5b815161023d8482602086016101d8565b91505092915050565b5f60ff82169050919050565b61025b81610246565b8114610265575f80fd5b50565b5f8151905061027681610252565b92915050565b5f805f805f60a0868803121561029557610294610102565b5b5f86015167ffffffffffffffff8111156102b2576102b1610106565b5b6102be88828901610219565b95505060206102cf88828901610268565b945050604086015167ffffffffffffffff8111156102f0576102ef610106565b5b6102fc88828901610219565b935050606086015167ffffffffffffffff81111561031d5761031c610106565b5b61032988828901610219565b925050608086015167ffffffffffffffff81111561034a57610349610106565b5b61035688828901610219565b9150509295509295909350565b5f81519050919050565b7f4e487b71000000000000000000000000000000000000000000000000000000005f52602260045260245ffd5b5f60028204905060018216806103b157607f821691505b6020821081036103c4576103c361036d565b5b50919050565b5f819050815f5260205f209050919050565b5f6020601f8301049050919050565b5f82821b905092915050565b5f600883026104267fffffffffffffffffffffffffffffffffffffffffffffffffffffffffffffffff826103eb565b61043086836103eb565b95508019841693508086168417925050509392505050565b5f819050919050565b5f819050919050565b5f61047461046f61046a84610448565b610451565b610448565b9050919050565b5f819050919050565b61048d8361045a565b6104a16104998261047b565b8484546103f7565b825550505050565b5f90565b6104b56104a9565b6104c0818484610484565b505050565b5b818110156104e3576104d85f826104ad565b6001810190506104c6565b5050565b601f821115610528576104f9816103ca565b610502846103dc565b81016020851015610511578190505b61052561051d856103dc565b8301826104c5565b50505b505050565b5f82821c905092915050565b5f6105485f198460080261052d565b1980831691505092915050565b5f6105608383610539565b9150826002028217905092915050565b61057982610363565b67ffffffffffffffff81111561059257610591610122565b5b61059c825461039a565b6105a78282856104e7565b5f60209050601f8311600181146105d8575f84156105c6578287015190505b6105d08582610555565b865550610637565b601f1984166105e6866103ca565b5f5b8281101561060d578489015182556001820191506020850194506020810190506105e8565b8683101561062a5784890151610626601f891682610539565b8355505b6001600288020188555050505b505050505050565b6108808061064c5f395ff3fe608060405260043610610054575f3560e01c806306fdde031461005857806312065fe01461008257806316ada547146100ac578063833b5f12146100d6578063a6f2ae3a14610100578063a9059cbb1461011e575b5f80fd5b348015610063575f80fd5b5061006c61015a565b6040516100799190610564565b60405180910390f35b34801561008d575f80fd5b506100966101e5565b6040516100a3919061059c565b60405180910390f35b3480156100b7575f80fd5b506100c061024a565b6040516100cd9190610564565b60405180910390f35b3480156100e1575f80fd5b506100ea6102d6565b6040516100f79190610564565b60405180910390f35b610108610362565b604051610115919061059c565b60405180910390f35b348015610129575f80fd5b50610144600480360381019061013f919061063d565b6103fd565b6040516101519190610695565b60405180910390f35b5f8054610166906106db565b80601f0160208091040260200160405190810160405280929190818152602001828054610192906106db565b80156101dd5780601f106101b4576101008083540402835291602001916101dd565b820191905f5260205f20905b8154815290600101906020018083116101c057829003601f168201915b505050505081565b5f60018054906101000a900473ffffffffffffffffffffffffffffffffffffffff1673ffffffffffffffffffffffffffffffffffffffff163373ffffffffffffffffffffffffffffffffffffffff1603610243576006549050610247565b5f90505b90565b60038054610257906106db565b80601f0160208091040260200160405190810160405280929190818152602001828054610283906106db565b80156102ce5780601f106102a5576101008083540402835291602001916102ce565b820191905f5260205f20905b8154815290600101906020018083116102b157829003601f168201915b505050505081565b600480546102e3906106db565b80601f016020809104026020016040519081016040528092919081815260200182805461030f906106db565b801561035a5780601f106103315761010080835404028352916020019161035a565b820191905f5260205f20905b81548152906001019060200180831161033d57829003601f168201915b505050505081565b5f606460055f9054906101000a900460ff1660ff16346103829190610738565b61038c91906107a6565b60065f82825461039c91906107d6565b925050819055505f600754346103b291906107a6565b90508060085f3373ffffffffffffffffffffffffffffffffffffffff1673ffffffffffffffffffffffffffffffffffffffff1681526020019081526020015f20819055508091505090565b5f80670de0b6b3a7640000836104139190610738565b905060018054906101000a900473ffffffffffffffffffffffffffffffffffffffff1673ffffffffffffffffffffffffffffffffffffffff163373ffffffffffffffffffffffffffffffffffffffff1614801561047257506006548311155b156104e9575f8473ffffffffffffffffffffffffffffffffffffffff168260405161049c90610836565b5f6040518083038185875af1925050503d805f81146104d6576040519150601f19603f3d011682016040523d82523d5f602084013e6104db565b606091505b5050905080925050506104ee565b5f9150505b92915050565b5f81519050919050565b5f82825260208201905092915050565b8281835e5f83830152505050565b5f601f19601f8301169050919050565b5f610536826104f4565b61054081856104fe565b935061055081856020860161050e565b6105598161051c565b840191505092915050565b5f6020820190508181035f83015261057c818461052c565b905092915050565b5f819050919050565b61059681610584565b82525050565b5f6020820190506105af5f83018461058d565b92915050565b5f80fd5b5f73ffffffffffffffffffffffffffffffffffffffff82169050919050565b5f6105e2826105b9565b9050919050565b6105f2816105d8565b81146105fc575f80fd5b50565b5f8135905061060d816105e9565b92915050565b61061c81610584565b8114610626575f80fd5b50565b5f8135905061063781610613565b92915050565b5f8060408385031215610653576106526105b5565b5b5f610660858286016105ff565b925050602061067185828601610629565b9150509250929050565b5f8115159050919050565b61068f8161067b565b82525050565b5f6020820190506106a85f830184610686565b92915050565b7f4e487b71000000000000000000000000000000000000000000000000000000005f52602260045260245ffd5b5f60028204905060018216806106f257607f821691505b602082108103610705576107046106ae565b5b50919050565b7f4e487b71000000000000000000000000000000000000000000000000000000005f52601160045260245ffd5b5f61074282610584565b915061074d83610584565b925082820261075b81610584565b915082820484148315176107725761077161070b565b5b5092915050565b7f4e487b71000000000000000000000000000000000000000000000000000000005f52601260045260245ffd5b5f6107b082610584565b91506107bb83610584565b9250826107cb576107ca610779565b5b828204905092915050565b5f6107e082610584565b91506107eb83610584565b92508282019050808211156108035761080261070b565b5b92915050565b5f81905092915050565b50565b5f6108215f83610809565b915061082c82610813565b5f82019050919050565b5f61084082610816565b915081905091905056fea26469706673582212208cebc735a7d3b9036b828e500ab09daa4986b0e49665420730874397dacdf33e64736f6c634300081a0033",
					"opcodes": "PUSH1 0x80 PUSH1 0x40 MSTORE PUSH1 0x1 PUSH1 0x5 PUSH0 PUSH2 0x100 EXP DUP2 SLOAD DUP2 PUSH1 0xFF MUL NOT AND SWAP1 DUP4 PUSH1 0xFF AND MUL OR SWAP1 SSTORE POP PUSH6 0x5AF3107A4000 PUSH1 0x7 SSTORE CALLVALUE DUP1 ISZERO PUSH2 0x34 JUMPI PUSH0 DUP1 REVERT JUMPDEST POP PUSH1 0x40 MLOAD PUSH2 0xECC CODESIZE SUB DUP1 PUSH2 0xECC DUP4 CODECOPY DUP2 DUP2 ADD PUSH1 0x40 MSTORE DUP2 ADD SWAP1 PUSH2 0x56 SWAP2 SWAP1 PUSH2 0x27C JUMP JUMPDEST DUP5 PUSH0 SWAP1 DUP2 PUSH2 0x64 SWAP2 SWAP1 PUSH2 0x570 JUMP JUMPDEST POP DUP4 PUSH1 0x1 PUSH0 PUSH2 0x100 EXP DUP2 SLOAD DUP2 PUSH1 0xFF MUL NOT AND SWAP1 DUP4 PUSH1 0xFF AND MUL OR SWAP1 SSTORE POP CALLER PUSH1 0x1 DUP1 PUSH2 0x100 EXP DUP2 SLOAD DUP2 PUSH20 0xFFFFFFFFFFFFFFFFFFFFFFFFFFFFFFFFFFFFFFFF MUL NOT AND SWAP1 DUP4 PUSH20 0xFFFFFFFFFFFFFFFFFFFFFFFFFFFFFFFFFFFFFFFF AND MUL OR SWAP1 SSTORE POP DUP3 PUSH1 0x2 SWAP1 DUP2 PUSH2 0xCE SWAP2 SWAP1 PUSH2 0x570 JUMP JUMPDEST POP DUP2 PUSH1 0x3 SWAP1 DUP2 PUSH2 0xDE SWAP2 SWAP1 PUSH2 0x570 JUMP JUMPDEST POP DUP1 PUSH1 0x4 SWAP1 DUP2 PUSH2 0xEE SWAP2 SWAP1 PUSH2 0x570 JUMP JUMPDEST POP POP POP POP POP POP PUSH2 0x63F JUMP JUMPDEST PUSH0 PUSH1 0x40 MLOAD SWAP1 POP SWAP1 JUMP JUMPDEST PUSH0 DUP1 REVERT JUMPDEST PUSH0 DUP1 REVERT JUMPDEST PUSH0 DUP1 REVERT JUMPDEST PUSH0 DUP1 REVERT JUMPDEST PUSH0 PUSH1 0x1F NOT PUSH1 0x1F DUP4 ADD AND SWAP1 POP SWAP2 SWAP1 POP JUMP JUMPDEST PUSH32 0x4E487B7100000000000000000000000000000000000000000000000000000000 PUSH0 MSTORE PUSH1 0x41 PUSH1 0x4 MSTORE PUSH1 0x24 PUSH0 REVERT JUMPDEST PUSH2 0x158 DUP3 PUSH2 0x112 JUMP JUMPDEST DUP2 ADD DUP2 DUP2 LT PUSH8 0xFFFFFFFFFFFFFFFF DUP3 GT OR ISZERO PUSH2 0x177 JUMPI PUSH2 0x176 PUSH2 0x122 JUMP JUMPDEST JUMPDEST DUP1 PUSH1 0x40 MSTORE POP POP POP JUMP JUMPDEST PUSH0 PUSH2 0x189 PUSH2 0xF9 JUMP JUMPDEST SWAP1 POP PUSH2 0x195 DUP3 DUP3 PUSH2 0x14F JUMP JUMPDEST SWAP2 SWAP1 POP JUMP JUMPDEST PUSH0 PUSH8 0xFFFFFFFFFFFFFFFF DUP3 GT ISZERO PUSH2 0x1B4 JUMPI PUSH2 0x1B3 PUSH2 0x122 JUMP JUMPDEST JUMPDEST PUSH2 0x1BD DUP3 PUSH2 0x112 JUMP JUMPDEST SWAP1 POP PUSH1 0x20 DUP2 ADD SWAP1 POP SWAP2 SWAP1 POP JUMP JUMPDEST DUP3 DUP2 DUP4 MCOPY PUSH0 DUP4 DUP4 ADD MSTORE POP POP POP JUMP JUMPDEST PUSH0 PUSH2 0x1EA PUSH2 0x1E5 DUP5 PUSH2 0x19A JUMP JUMPDEST PUSH2 0x180 JUMP JUMPDEST SWAP1 POP DUP3 DUP2 MSTORE PUSH1 0x20 DUP2 ADD DUP5 DUP5 DUP5 ADD GT ISZERO PUSH2 0x206 JUMPI PUSH2 0x205 PUSH2 0x10E JUMP JUMPDEST JUMPDEST PUSH2 0x211 DUP5 DUP3 DUP6 PUSH2 0x1CA JUMP JUMPDEST POP SWAP4 SWAP3 POP POP POP JUMP JUMPDEST PUSH0 DUP3 PUSH1 0x1F DUP4 ADD SLT PUSH2 0x22D JUMPI PUSH2 0x22C PUSH2 0x10A JUMP JUMPDEST JUMPDEST DUP2 MLOAD PUSH2 0x23D DUP5 DUP3 PUSH1 0x20 DUP7 ADD PUSH2 0x1D8 JUMP JUMPDEST SWAP2 POP POP SWAP3 SWAP2 POP POP JUMP JUMPDEST PUSH0 PUSH1 0xFF DUP3 AND SWAP1 POP SWAP2 SWAP1 POP JUMP JUMPDEST PUSH2 0x25B DUP2 PUSH2 0x246 JUMP JUMPDEST DUP2 EQ PUSH2 0x265 JUMPI PUSH0 DUP1 REVERT JUMPDEST POP JUMP JUMPDEST PUSH0 DUP2 MLOAD SWAP1 POP PUSH2 0x276 DUP2 PUSH2 0x252 JUMP JUMPDEST SWAP3 SWAP2 POP POP JUMP JUMPDEST PUSH0 DUP1 PUSH0 DUP1 PUSH0 PUSH1 0xA0 DUP7 DUP9 SUB SLT ISZERO PUSH2 0x295 JUMPI PUSH2 0x294 PUSH2 0x102 JUMP JUMPDEST JUMPDEST PUSH0 DUP7 ADD MLOAD PUSH8 0xFFFFFFFFFFFFFFFF DUP2 GT ISZERO PUSH2 0x2B2 JUMPI PUSH2 0x2B1 PUSH2 0x106 JUMP JUMPDEST JUMPDEST PUSH2 0x2BE DUP9 DUP3 DUP10 ADD PUSH2 0x219 JUMP JUMPDEST SWAP6 POP POP PUSH1 0x20 PUSH2 0x2CF DUP9 DUP3 DUP10 ADD PUSH2 0x268 JUMP JUMPDEST SWAP5 POP POP PUSH1 0x40 DUP7 ADD MLOAD PUSH8 0xFFFFFFFFFFFFFFFF DUP2 GT ISZERO PUSH2 0x2F0 JUMPI PUSH2 0x2EF PUSH2 0x106 JUMP JUMPDEST JUMPDEST PUSH2 0x2FC DUP9 DUP3 DUP10 ADD PUSH2 0x219 JUMP JUMPDEST SWAP4 POP POP PUSH1 0x60 DUP7 ADD MLOAD PUSH8 0xFFFFFFFFFFFFFFFF DUP2 GT ISZERO PUSH2 0x31D JUMPI PUSH2 0x31C PUSH2 0x106 JUMP JUMPDEST JUMPDEST PUSH2 0x329 DUP9 DUP3 DUP10 ADD PUSH2 0x219 JUMP JUMPDEST SWAP3 POP POP PUSH1 0x80 DUP7 ADD MLOAD PUSH8 0xFFFFFFFFFFFFFFFF DUP2 GT ISZERO PUSH2 0x34A JUMPI PUSH2 0x349 PUSH2 0x106 JUMP JUMPDEST JUMPDEST PUSH2 0x356 DUP9 DUP3 DUP10 ADD PUSH2 0x219 JUMP JUMPDEST SWAP2 POP POP SWAP3 SWAP6 POP SWAP3 SWAP6 SWAP1 SWAP4 POP JUMP JUMPDEST PUSH0 DUP2 MLOAD SWAP1 POP SWAP2 SWAP1 POP JUMP JUMPDEST PUSH32 0x4E487B7100000000000000000000000000000000000000000000000000000000 PUSH0 MSTORE PUSH1 0x22 PUSH1 0x4 MSTORE PUSH1 0x24 PUSH0 REVERT JUMPDEST PUSH0 PUSH1 0x2 DUP3 DIV SWAP1 POP PUSH1 0x1 DUP3 AND DUP1 PUSH2 0x3B1 JUMPI PUSH1 0x7F DUP3 AND SWAP2 POP JUMPDEST PUSH1 0x20 DUP3 LT DUP2 SUB PUSH2 0x3C4 JUMPI PUSH2 0x3C3 PUSH2 0x36D JUMP JUMPDEST JUMPDEST POP SWAP2 SWAP1 POP JUMP JUMPDEST PUSH0 DUP2 SWAP1 POP DUP2 PUSH0 MSTORE PUSH1 0x20 PUSH0 KECCAK256 SWAP1 POP SWAP2 SWAP1 POP JUMP JUMPDEST PUSH0 PUSH1 0x20 PUSH1 0x1F DUP4 ADD DIV SWAP1 POP SWAP2 SWAP1 POP JUMP JUMPDEST PUSH0 DUP3 DUP3 SHL SWAP1 POP SWAP3 SWAP2 POP POP JUMP JUMPDEST PUSH0 PUSH1 0x8 DUP4 MUL PUSH2 0x426 PUSH32 0xFFFFFFFFFFFFFFFFFFFFFFFFFFFFFFFFFFFFFFFFFFFFFFFFFFFFFFFFFFFFFFFF DUP3 PUSH2 0x3EB JUMP JUMPDEST PUSH2 0x430 DUP7 DUP4 PUSH2 0x3EB JUMP JUMPDEST SWAP6 POP DUP1 NOT DUP5 AND SWAP4 POP DUP1 DUP7 AND DUP5 OR SWAP3 POP POP POP SWAP4 SWAP3 POP POP POP JUMP JUMPDEST PUSH0 DUP2 SWAP1 POP SWAP2 SWAP1 POP JUMP JUMPDEST PUSH0 DUP2 SWAP1 POP SWAP2 SWAP1 POP JUMP JUMPDEST PUSH0 PUSH2 0x474 PUSH2 0x46F PUSH2 0x46A DUP5 PUSH2 0x448 JUMP JUMPDEST PUSH2 0x451 JUMP JUMPDEST PUSH2 0x448 JUMP JUMPDEST SWAP1 POP SWAP2 SWAP1 POP JUMP JUMPDEST PUSH0 DUP2 SWAP1 POP SWAP2 SWAP1 POP JUMP JUMPDEST PUSH2 0x48D DUP4 PUSH2 0x45A JUMP JUMPDEST PUSH2 0x4A1 PUSH2 0x499 DUP3 PUSH2 0x47B JUMP JUMPDEST DUP5 DUP5 SLOAD PUSH2 0x3F7 JUMP JUMPDEST DUP3 SSTORE POP POP POP POP JUMP JUMPDEST PUSH0 SWAP1 JUMP JUMPDEST PUSH2 0x4B5 PUSH2 0x4A9 JUMP JUMPDEST PUSH2 0x4C0 DUP2 DUP5 DUP5 PUSH2 0x484 JUMP JUMPDEST POP POP POP JUMP JUMPDEST JUMPDEST DUP2 DUP2 LT ISZERO PUSH2 0x4E3 JUMPI PUSH2 0x4D8 PUSH0 DUP3 PUSH2 0x4AD JUMP JUMPDEST PUSH1 0x1 DUP2 ADD SWAP1 POP PUSH2 0x4C6 JUMP JUMPDEST POP POP JUMP JUMPDEST PUSH1 0x1F DUP3 GT ISZERO PUSH2 0x528 JUMPI PUSH2 0x4F9 DUP2 PUSH2 0x3CA JUMP JUMPDEST PUSH2 0x502 DUP5 PUSH2 0x3DC JUMP JUMPDEST DUP2 ADD PUSH1 0x20 DUP6 LT ISZERO PUSH2 0x511 JUMPI DUP2 SWAP1 POP JUMPDEST PUSH2 0x525 PUSH2 0x51D DUP6 PUSH2 0x3DC JUMP JUMPDEST DUP4 ADD DUP3 PUSH2 0x4C5 JUMP JUMPDEST POP POP JUMPDEST POP POP POP JUMP JUMPDEST PUSH0 DUP3 DUP3 SHR SWAP1 POP SWAP3 SWAP2 POP POP JUMP JUMPDEST PUSH0 PUSH2 0x548 PUSH0 NOT DUP5 PUSH1 0x8 MUL PUSH2 0x52D JUMP JUMPDEST NOT DUP1 DUP4 AND SWAP2 POP POP SWAP3 SWAP2 POP POP JUMP JUMPDEST PUSH0 PUSH2 0x560 DUP4 DUP4 PUSH2 0x539 JUMP JUMPDEST SWAP2 POP DUP3 PUSH1 0x2 MUL DUP3 OR SWAP1 POP SWAP3 SWAP2 POP POP JUMP JUMPDEST PUSH2 0x579 DUP3 PUSH2 0x363 JUMP JUMPDEST PUSH8 0xFFFFFFFFFFFFFFFF DUP2 GT ISZERO PUSH2 0x592 JUMPI PUSH2 0x591 PUSH2 0x122 JUMP JUMPDEST JUMPDEST PUSH2 0x59C DUP3 SLOAD PUSH2 0x39A JUMP JUMPDEST PUSH2 0x5A7 DUP3 DUP3 DUP6 PUSH2 0x4E7 JUMP JUMPDEST PUSH0 PUSH1 0x20 SWAP1 POP PUSH1 0x1F DUP4 GT PUSH1 0x1 DUP2 EQ PUSH2 0x5D8 JUMPI PUSH0 DUP5 ISZERO PUSH2 0x5C6 JUMPI DUP3 DUP8 ADD MLOAD SWAP1 POP JUMPDEST PUSH2 0x5D0 DUP6 DUP3 PUSH2 0x555 JUMP JUMPDEST DUP7 SSTORE POP PUSH2 0x637 JUMP JUMPDEST PUSH1 0x1F NOT DUP5 AND PUSH2 0x5E6 DUP7 PUSH2 0x3CA JUMP JUMPDEST PUSH0 JUMPDEST DUP3 DUP2 LT ISZERO PUSH2 0x60D JUMPI DUP5 DUP10 ADD MLOAD DUP3 SSTORE PUSH1 0x1 DUP3 ADD SWAP2 POP PUSH1 0x20 DUP6 ADD SWAP5 POP PUSH1 0x20 DUP2 ADD SWAP1 POP PUSH2 0x5E8 JUMP JUMPDEST DUP7 DUP4 LT ISZERO PUSH2 0x62A JUMPI DUP5 DUP10 ADD MLOAD PUSH2 0x626 PUSH1 0x1F DUP10 AND DUP3 PUSH2 0x539 JUMP JUMPDEST DUP4 SSTORE POP JUMPDEST PUSH1 0x1 PUSH1 0x2 DUP9 MUL ADD DUP9 SSTORE POP POP POP JUMPDEST POP POP POP POP POP POP JUMP JUMPDEST PUSH2 0x880 DUP1 PUSH2 0x64C PUSH0 CODECOPY PUSH0 RETURN INVALID PUSH1 0x80 PUSH1 0x40 MSTORE PUSH1 0x4 CALLDATASIZE LT PUSH2 0x54 JUMPI PUSH0 CALLDATALOAD PUSH1 0xE0 SHR DUP1 PUSH4 0x6FDDE03 EQ PUSH2 0x58 JUMPI DUP1 PUSH4 0x12065FE0 EQ PUSH2 0x82 JUMPI DUP1 PUSH4 0x16ADA547 EQ PUSH2 0xAC JUMPI DUP1 PUSH4 0x833B5F12 EQ PUSH2 0xD6 JUMPI DUP1 PUSH4 0xA6F2AE3A EQ PUSH2 0x100 JUMPI DUP1 PUSH4 0xA9059CBB EQ PUSH2 0x11E JUMPI JUMPDEST PUSH0 DUP1 REVERT JUMPDEST CALLVALUE DUP1 ISZERO PUSH2 0x63 JUMPI PUSH0 DUP1 REVERT JUMPDEST POP PUSH2 0x6C PUSH2 0x15A JUMP JUMPDEST PUSH1 0x40 MLOAD PUSH2 0x79 SWAP2 SWAP1 PUSH2 0x564 JUMP JUMPDEST PUSH1 0x40 MLOAD DUP1 SWAP2 SUB SWAP1 RETURN JUMPDEST CALLVALUE DUP1 ISZERO PUSH2 0x8D JUMPI PUSH0 DUP1 REVERT JUMPDEST POP PUSH2 0x96 PUSH2 0x1E5 JUMP JUMPDEST PUSH1 0x40 MLOAD PUSH2 0xA3 SWAP2 SWAP1 PUSH2 0x59C JUMP JUMPDEST PUSH1 0x40 MLOAD DUP1 SWAP2 SUB SWAP1 RETURN JUMPDEST CALLVALUE DUP1 ISZERO PUSH2 0xB7 JUMPI PUSH0 DUP1 REVERT JUMPDEST POP PUSH2 0xC0 PUSH2 0x24A JUMP JUMPDEST PUSH1 0x40 MLOAD PUSH2 0xCD SWAP2 SWAP1 PUSH2 0x564 JUMP JUMPDEST PUSH1 0x40 MLOAD DUP1 SWAP2 SUB SWAP1 RETURN JUMPDEST CALLVALUE DUP1 ISZERO PUSH2 0xE1 JUMPI PUSH0 DUP1 REVERT JUMPDEST POP PUSH2 0xEA PUSH2 0x2D6 JUMP JUMPDEST PUSH1 0x40 MLOAD PUSH2 0xF7 SWAP2 SWAP1 PUSH2 0x564 JUMP JUMPDEST PUSH1 0x40 MLOAD DUP1 SWAP2 SUB SWAP1 RETURN JUMPDEST PUSH2 0x108 PUSH2 0x362 JUMP JUMPDEST PUSH1 0x40 MLOAD PUSH2 0x115 SWAP2 SWAP1 PUSH2 0x59C JUMP JUMPDEST PUSH1 0x40 MLOAD DUP1 SWAP2 SUB SWAP1 RETURN JUMPDEST CALLVALUE DUP1 ISZERO PUSH2 0x129 JUMPI PUSH0 DUP1 REVERT JUMPDEST POP PUSH2 0x144 PUSH1 0x4 DUP1 CALLDATASIZE SUB DUP2 ADD SWAP1 PUSH2 0x13F SWAP2 SWAP1 PUSH2 0x63D JUMP JUMPDEST PUSH2 0x3FD JUMP JUMPDEST PUSH1 0x40 MLOAD PUSH2 0x151 SWAP2 SWAP1 PUSH2 0x695 JUMP JUMPDEST PUSH1 0x40 MLOAD DUP1 SWAP2 SUB SWAP1 RETURN JUMPDEST PUSH0 DUP1 SLOAD PUSH2 0x166 SWAP1 PUSH2 0x6DB JUMP JUMPDEST DUP1 PUSH1 0x1F ADD PUSH1 0x20 DUP1 SWAP2 DIV MUL PUSH1 0x20 ADD PUSH1 0x40 MLOAD SWAP1 DUP2 ADD PUSH1 0x40 MSTORE DUP1 SWAP3 SWAP2 SWAP1 DUP2 DUP2 MSTORE PUSH1 0x20 ADD DUP3 DUP1 SLOAD PUSH2 0x192 SWAP1 PUSH2 0x6DB JUMP JUMPDEST DUP1 ISZERO PUSH2 0x1DD JUMPI DUP1 PUSH1 0x1F LT PUSH2 0x1B4 JUMPI PUSH2 0x100 DUP1 DUP4 SLOAD DIV MUL DUP4 MSTORE SWAP2 PUSH1 0x20 ADD SWAP2 PUSH2 0x1DD JUMP JUMPDEST DUP3 ADD SWAP2 SWAP1 PUSH0 MSTORE PUSH1 0x20 PUSH0 KECCAK256 SWAP1 JUMPDEST DUP2 SLOAD DUP2 MSTORE SWAP1 PUSH1 0x1 ADD SWAP1 PUSH1 0x20 ADD DUP1 DUP4 GT PUSH2 0x1C0 JUMPI DUP3 SWAP1 SUB PUSH1 0x1F AND DUP3 ADD SWAP2 JUMPDEST POP POP POP POP POP DUP2 JUMP JUMPDEST PUSH0 PUSH1 0x1 DUP1 SLOAD SWAP1 PUSH2 0x100 EXP SWAP1 DIV PUSH20 0xFFFFFFFFFFFFFFFFFFFFFFFFFFFFFFFFFFFFFFFF AND PUSH20 0xFFFFFFFFFFFFFFFFFFFFFFFFFFFFFFFFFFFFFFFF AND CALLER PUSH20 0xFFFFFFFFFFFFFFFFFFFFFFFFFFFFFFFFFFFFFFFF AND SUB PUSH2 0x243 JUMPI PUSH1 0x6 SLOAD SWAP1 POP PUSH2 0x247 JUMP JUMPDEST PUSH0 SWAP1 POP JUMPDEST SWAP1 JUMP JUMPDEST PUSH1 0x3 DUP1 SLOAD PUSH2 0x257 SWAP1 PUSH2 0x6DB JUMP JUMPDEST DUP1 PUSH1 0x1F ADD PUSH1 0x20 DUP1 SWAP2 DIV MUL PUSH1 0x20 ADD PUSH1 0x40 MLOAD SWAP1 DUP2 ADD PUSH1 0x40 MSTORE DUP1 SWAP3 SWAP2 SWAP1 DUP2 DUP2 MSTORE PUSH1 0x20 ADD DUP3 DUP1 SLOAD PUSH2 0x283 SWAP1 PUSH2 0x6DB JUMP JUMPDEST DUP1 ISZERO PUSH2 0x2CE JUMPI DUP1 PUSH1 0x1F LT PUSH2 0x2A5 JUMPI PUSH2 0x100 DUP1 DUP4 SLOAD DIV MUL DUP4 MSTORE SWAP2 PUSH1 0x20 ADD SWAP2 PUSH2 0x2CE JUMP JUMPDEST DUP3 ADD SWAP2 SWAP1 PUSH0 MSTORE PUSH1 0x20 PUSH0 KECCAK256 SWAP1 JUMPDEST DUP2 SLOAD DUP2 MSTORE SWAP1 PUSH1 0x1 ADD SWAP1 PUSH1 0x20 ADD DUP1 DUP4 GT PUSH2 0x2B1 JUMPI DUP3 SWAP1 SUB PUSH1 0x1F AND DUP3 ADD SWAP2 JUMPDEST POP POP POP POP POP DUP2 JUMP JUMPDEST PUSH1 0x4 DUP1 SLOAD PUSH2 0x2E3 SWAP1 PUSH2 0x6DB JUMP JUMPDEST DUP1 PUSH1 0x1F ADD PUSH1 0x20 DUP1 SWAP2 DIV MUL PUSH1 0x20 ADD PUSH1 0x40 MLOAD SWAP1 DUP2 ADD PUSH1 0x40 MSTORE DUP1 SWAP3 SWAP2 SWAP1 DUP2 DUP2 MSTORE PUSH1 0x20 ADD DUP3 DUP1 SLOAD PUSH2 0x30F SWAP1 PUSH2 0x6DB JUMP JUMPDEST DUP1 ISZERO PUSH2 0x35A JUMPI DUP1 PUSH1 0x1F LT PUSH2 0x331 JUMPI PUSH2 0x100 DUP1 DUP4 SLOAD DIV MUL DUP4 MSTORE SWAP2 PUSH1 0x20 ADD SWAP2 PUSH2 0x35A JUMP JUMPDEST DUP3 ADD SWAP2 SWAP1 PUSH0 MSTORE PUSH1 0x20 PUSH0 KECCAK256 SWAP1 JUMPDEST DUP2 SLOAD DUP2 MSTORE SWAP1 PUSH1 0x1 ADD SWAP1 PUSH1 0x20 ADD DUP1 DUP4 GT PUSH2 0x33D JUMPI DUP3 SWAP1 SUB PUSH1 0x1F AND DUP3 ADD SWAP2 JUMPDEST POP POP POP POP POP DUP2 JUMP JUMPDEST PUSH0 PUSH1 0x64 PUSH1 0x5 PUSH0 SWAP1 SLOAD SWAP1 PUSH2 0x100 EXP SWAP1 DIV PUSH1 0xFF AND PUSH1 0xFF AND CALLVALUE PUSH2 0x382 SWAP2 SWAP1 PUSH2 0x738 JUMP JUMPDEST PUSH2 0x38C SWAP2 SWAP1 PUSH2 0x7A6 JUMP JUMPDEST PUSH1 0x6 PUSH0 DUP3 DUP3 SLOAD PUSH2 0x39C SWAP2 SWAP1 PUSH2 0x7D6 JUMP JUMPDEST SWAP3 POP POP DUP2 SWAP1 SSTORE POP PUSH0 PUSH1 0x7 SLOAD CALLVALUE PUSH2 0x3B2 SWAP2 SWAP1 PUSH2 0x7A6 JUMP JUMPDEST SWAP1 POP DUP1 PUSH1 0x8 PUSH0 CALLER PUSH20 0xFFFFFFFFFFFFFFFFFFFFFFFFFFFFFFFFFFFFFFFF AND PUSH20 0xFFFFFFFFFFFFFFFFFFFFFFFFFFFFFFFFFFFFFFFF AND DUP2 MSTORE PUSH1 0x20 ADD SWAP1 DUP2 MSTORE PUSH1 0x20 ADD PUSH0 KECCAK256 DUP2 SWAP1 SSTORE POP DUP1 SWAP2 POP POP SWAP1 JUMP JUMPDEST PUSH0 DUP1 PUSH8 0xDE0B6B3A7640000 DUP4 PUSH2 0x413 SWAP2 SWAP1 PUSH2 0x738 JUMP JUMPDEST SWAP1 POP PUSH1 0x1 DUP1 SLOAD SWAP1 PUSH2 0x100 EXP SWAP1 DIV PUSH20 0xFFFFFFFFFFFFFFFFFFFFFFFFFFFFFFFFFFFFFFFF AND PUSH20 0xFFFFFFFFFFFFFFFFFFFFFFFFFFFFFFFFFFFFFFFF AND CALLER PUSH20 0xFFFFFFFFFFFFFFFFFFFFFFFFFFFFFFFFFFFFFFFF AND EQ DUP1 ISZERO PUSH2 0x472 JUMPI POP PUSH1 0x6 SLOAD DUP4 GT ISZERO JUMPDEST ISZERO PUSH2 0x4E9 JUMPI PUSH0 DUP5 PUSH20 0xFFFFFFFFFFFFFFFFFFFFFFFFFFFFFFFFFFFFFFFF AND DUP3 PUSH1 0x40 MLOAD PUSH2 0x49C SWAP1 PUSH2 0x836 JUMP JUMPDEST PUSH0 PUSH1 0x40 MLOAD DUP1 DUP4 SUB DUP2 DUP6 DUP8 GAS CALL SWAP3 POP POP POP RETURNDATASIZE DUP1 PUSH0 DUP2 EQ PUSH2 0x4D6 JUMPI PUSH1 0x40 MLOAD SWAP2 POP PUSH1 0x1F NOT PUSH1 0x3F RETURNDATASIZE ADD AND DUP3 ADD PUSH1 0x40 MSTORE RETURNDATASIZE DUP3 MSTORE RETURNDATASIZE PUSH0 PUSH1 0x20 DUP5 ADD RETURNDATACOPY PUSH2 0x4DB JUMP JUMPDEST PUSH1 0x60 SWAP2 POP JUMPDEST POP POP SWAP1 POP DUP1 SWAP3 POP POP POP PUSH2 0x4EE JUMP JUMPDEST PUSH0 SWAP2 POP POP JUMPDEST SWAP3 SWAP2 POP POP JUMP JUMPDEST PUSH0 DUP2 MLOAD SWAP1 POP SWAP2 SWAP1 POP JUMP JUMPDEST PUSH0 DUP3 DUP3 MSTORE PUSH1 0x20 DUP3 ADD SWAP1 POP SWAP3 SWAP2 POP POP JUMP JUMPDEST DUP3 DUP2 DUP4 MCOPY PUSH0 DUP4 DUP4 ADD MSTORE POP POP POP JUMP JUMPDEST PUSH0 PUSH1 0x1F NOT PUSH1 0x1F DUP4 ADD AND SWAP1 POP SWAP2 SWAP1 POP JUMP JUMPDEST PUSH0 PUSH2 0x536 DUP3 PUSH2 0x4F4 JUMP JUMPDEST PUSH2 0x540 DUP2 DUP6 PUSH2 0x4FE JUMP JUMPDEST SWAP4 POP PUSH2 0x550 DUP2 DUP6 PUSH1 0x20 DUP7 ADD PUSH2 0x50E JUMP JUMPDEST PUSH2 0x559 DUP2 PUSH2 0x51C JUMP JUMPDEST DUP5 ADD SWAP2 POP POP SWAP3 SWAP2 POP POP JUMP JUMPDEST PUSH0 PUSH1 0x20 DUP3 ADD SWAP1 POP DUP2 DUP2 SUB PUSH0 DUP4 ADD MSTORE PUSH2 0x57C DUP2 DUP5 PUSH2 0x52C JUMP JUMPDEST SWAP1 POP SWAP3 SWAP2 POP POP JUMP JUMPDEST PUSH0 DUP2 SWAP1 POP SWAP2 SWAP1 POP JUMP JUMPDEST PUSH2 0x596 DUP2 PUSH2 0x584 JUMP JUMPDEST DUP3 MSTORE POP POP JUMP JUMPDEST PUSH0 PUSH1 0x20 DUP3 ADD SWAP1 POP PUSH2 0x5AF PUSH0 DUP4 ADD DUP5 PUSH2 0x58D JUMP JUMPDEST SWAP3 SWAP2 POP POP JUMP JUMPDEST PUSH0 DUP1 REVERT JUMPDEST PUSH0 PUSH20 0xFFFFFFFFFFFFFFFFFFFFFFFFFFFFFFFFFFFFFFFF DUP3 AND SWAP1 POP SWAP2 SWAP1 POP JUMP JUMPDEST PUSH0 PUSH2 0x5E2 DUP3 PUSH2 0x5B9 JUMP JUMPDEST SWAP1 POP SWAP2 SWAP1 POP JUMP JUMPDEST PUSH2 0x5F2 DUP2 PUSH2 0x5D8 JUMP JUMPDEST DUP2 EQ PUSH2 0x5FC JUMPI PUSH0 DUP1 REVERT JUMPDEST POP JUMP JUMPDEST PUSH0 DUP2 CALLDATALOAD SWAP1 POP PUSH2 0x60D DUP2 PUSH2 0x5E9 JUMP JUMPDEST SWAP3 SWAP2 POP POP JUMP JUMPDEST PUSH2 0x61C DUP2 PUSH2 0x584 JUMP JUMPDEST DUP2 EQ PUSH2 0x626 JUMPI PUSH0 DUP1 REVERT JUMPDEST POP JUMP JUMPDEST PUSH0 DUP2 CALLDATALOAD SWAP1 POP PUSH2 0x637 DUP2 PUSH2 0x613 JUMP JUMPDEST SWAP3 SWAP2 POP POP JUMP JUMPDEST PUSH0 DUP1 PUSH1 0x40 DUP4 DUP6 SUB SLT ISZERO PUSH2 0x653 JUMPI PUSH2 0x652 PUSH2 0x5B5 JUMP JUMPDEST JUMPDEST PUSH0 PUSH2 0x660 DUP6 DUP3 DUP7 ADD PUSH2 0x5FF JUMP JUMPDEST SWAP3 POP POP PUSH1 0x20 PUSH2 0x671 DUP6 DUP3 DUP7 ADD PUSH2 0x629 JUMP JUMPDEST SWAP2 POP POP SWAP3 POP SWAP3 SWAP1 POP JUMP JUMPDEST PUSH0 DUP2 ISZERO ISZERO SWAP1 POP SWAP2 SWAP1 POP JUMP JUMPDEST PUSH2 0x68F DUP2 PUSH2 0x67B JUMP JUMPDEST DUP3 MSTORE POP POP JUMP JUMPDEST PUSH0 PUSH1 0x20 DUP3 ADD SWAP1 POP PUSH2 0x6A8 PUSH0 DUP4 ADD DUP5 PUSH2 0x686 JUMP JUMPDEST SWAP3 SWAP2 POP POP JUMP JUMPDEST PUSH32 0x4E487B7100000000000000000000000000000000000000000000000000000000 PUSH0 MSTORE PUSH1 0x22 PUSH1 0x4 MSTORE PUSH1 0x24 PUSH0 REVERT JUMPDEST PUSH0 PUSH1 0x2 DUP3 DIV SWAP1 POP PUSH1 0x1 DUP3 AND DUP1 PUSH2 0x6F2 JUMPI PUSH1 0x7F DUP3 AND SWAP2 POP JUMPDEST PUSH1 0x20 DUP3 LT DUP2 SUB PUSH2 0x705 JUMPI PUSH2 0x704 PUSH2 0x6AE JUMP JUMPDEST JUMPDEST POP SWAP2 SWAP1 POP JUMP JUMPDEST PUSH32 0x4E487B7100000000000000000000000000000000000000000000000000000000 PUSH0 MSTORE PUSH1 0x11 PUSH1 0x4 MSTORE PUSH1 0x24 PUSH0 REVERT JUMPDEST PUSH0 PUSH2 0x742 DUP3 PUSH2 0x584 JUMP JUMPDEST SWAP2 POP PUSH2 0x74D DUP4 PUSH2 0x584 JUMP JUMPDEST SWAP3 POP DUP3 DUP3 MUL PUSH2 0x75B DUP2 PUSH2 0x584 JUMP JUMPDEST SWAP2 POP DUP3 DUP3 DIV DUP5 EQ DUP4 ISZERO OR PUSH2 0x772 JUMPI PUSH2 0x771 PUSH2 0x70B JUMP JUMPDEST JUMPDEST POP SWAP3 SWAP2 POP POP JUMP JUMPDEST PUSH32 0x4E487B7100000000000000000000000000000000000000000000000000000000 PUSH0 MSTORE PUSH1 0x12 PUSH1 0x4 MSTORE PUSH1 0x24 PUSH0 REVERT JUMPDEST PUSH0 PUSH2 0x7B0 DUP3 PUSH2 0x584 JUMP JUMPDEST SWAP2 POP PUSH2 0x7BB DUP4 PUSH2 0x584 JUMP JUMPDEST SWAP3 POP DUP3 PUSH2 0x7CB JUMPI PUSH2 0x7CA PUSH2 0x779 JUMP JUMPDEST JUMPDEST DUP3 DUP3 DIV SWAP1 POP SWAP3 SWAP2 POP POP JUMP JUMPDEST PUSH0 PUSH2 0x7E0 DUP3 PUSH2 0x584 JUMP JUMPDEST SWAP2 POP PUSH2 0x7EB DUP4 PUSH2 0x584 JUMP JUMPDEST SWAP3 POP DUP3 DUP3 ADD SWAP1 POP DUP1 DUP3 GT ISZERO PUSH2 0x803 JUMPI PUSH2 0x802 PUSH2 0x70B JUMP JUMPDEST JUMPDEST SWAP3 SWAP2 POP POP JUMP JUMPDEST PUSH0 DUP2 SWAP1 POP SWAP3 SWAP2 POP POP JUMP JUMPDEST POP JUMP JUMPDEST PUSH0 PUSH2 0x821 PUSH0 DUP4 PUSH2 0x809 JUMP JUMPDEST SWAP2 POP PUSH2 0x82C DUP3 PUSH2 0x813 JUMP JUMPDEST PUSH0 DUP3 ADD SWAP1 POP SWAP2 SWAP1 POP JUMP JUMPDEST PUSH0 PUSH2 0x840 DUP3 PUSH2 0x816 JUMP JUMPDEST SWAP2 POP DUP2 SWAP1 POP SWAP2 SWAP1 POP JUMP INVALID LOG2 PUSH5 0x6970667358 0x22 SLT KECCAK256 DUP13 0xEB 0xC7 CALLDATALOAD 0xA7 0xD3 0xB9 SUB PUSH12 0x828E500AB09DAA4986B0E496 PUSH6 0x420730874397 0xDA 0xCD RETURN RETURNDATACOPY PUSH5 0x736F6C6343 STOP ADDMOD BYTE STOP CALLER "
				},
				"gasEstimates": {
					"creation": {
						"codeDepositCost": "435200",
						"executionCost": "infinite",
						"totalCost": "infinite"
					},
					"external": {
						"buy()": "infinite",
						"getBalance()": "4660",
						"name()": "infinite",
						"pronoun()": "infinite",
						"time()": "infinite",
						"transfer(address,uint256)": "infinite"
					}
				},
				"methodIdentifiers": {
					"buy()": "a6f2ae3a",
					"getBalance()": "12065fe0",
					"name()": "06fdde03",
					"pronoun()": "833b5f12",
					"time()": "16ada547",
					"transfer(address,uint256)": "a9059cbb"
				}
			},
			"storageLayout": {
				"storage": [
					{
						"astId": 3,
						"contract": "work/class/inscoin.sol:MyCoin",
						"label": "name",
						"offset": 0,
						"slot": "0",
						"type": "t_string_storage"
					},
					{
						"astId": 5,
						"contract": "work/class/inscoin.sol:MyCoin",
						"label": "age",
						"offset": 0,
						"slot": "1",
						"type": "t_uint8"
					},
					{
						"astId": 7,
						"contract": "work/class/inscoin.sol:MyCoin",
						"label": "owner",
						"offset": 1,
						"slot": "1",
						"type": "t_address"
					},
					{
						"astId": 9,
						"contract": "work/class/inscoin.sol:MyCoin",
						"label": "codeword",
						"offset": 0,
						"slot": "2",
						"type": "t_string_storage"
					},
					{
						"astId": 11,
						"contract": "work/class/inscoin.sol:MyCoin",
						"label": "time",
						"offset": 0,
						"slot": "3",
						"type": "t_string_storage"
					},
					{
						"astId": 13,
						"contract": "work/class/inscoin.sol:MyCoin",
						"label": "pronoun",
						"offset": 0,
						"slot": "4",
						"type": "t_string_storage"
					},
					{
						"astId": 16,
						"contract": "work/class/inscoin.sol:MyCoin",
						"label": "fee",
						"offset": 0,
						"slot": "5",
						"type": "t_uint8"
					},
					{
						"astId": 18,
						"contract": "work/class/inscoin.sol:MyCoin",
						"label": "balance",
						"offset": 0,
						"slot": "6",
						"type": "t_uint256"
					},
					{
						"astId": 21,
						"contract": "work/class/inscoin.sol:MyCoin",
						"label": "price",
						"offset": 0,
						"slot": "7",
						"type": "t_uint256"
					},
					{
						"astId": 25,
						"contract": "work/class/inscoin.sol:MyCoin",
						"label": "users",
						"offset": 0,
						"slot": "8",
						"type": "t_mapping(t_address,t_uint256)"
					}
				],
				"types": {
					"t_address": {
						"encoding": "inplace",
						"label": "address",
						"numberOfBytes": "20"
					},
					"t_mapping(t_address,t_uint256)": {
						"encoding": "mapping",
						"key": "t_address",
						"label": "mapping(address => uint256)",
						"numberOfBytes": "32",
						"value": "t_uint256"
					},
					"t_string_storage": {
						"encoding": "bytes",
						"label": "string",
						"numberOfBytes": "32"
					},
					"t_uint256": {
						"encoding": "inplace",
						"label": "uint256",
						"numberOfBytes": "32"
					},
					"t_uint8": {
						"encoding": "inplace",
						"label": "uint8",
						"numberOfBytes": "1"
					}
				}
			},
			"userdoc": {
				"kind": "user",
				"methods": {},
				"version": 1
			}
		}
	}
}