{
	"work/class/zetflix.sol": {
		"Zetflix": {
			"abi": [
				{
					"inputs": [
						{
							"internalType": "uint256",
							"name": "_id",
							"type": "uint256"
						},
						{
							"internalType": "uint256",
							"name": "_price",
							"type": "uint256"
						}
					],
					"stateMutability": "nonpayable",
					"type": "constructor"
				},
				{
					"inputs": [
						{
							"internalType": "uint256",
							"name": "_id",
							"type": "uint256"
						},
						{
							"internalType": "uint256",
							"name": "_amount",
							"type": "uint256"
						}
					],
					"name": "buy",
					"outputs": [
						{
							"internalType": "bool",
							"name": "",
							"type": "bool"
						}
					],
					"stateMutability": "payable",
					"type": "function"
				},
				{
					"inputs": [],
					"name": "getViews",
					"outputs": [
						{
							"internalType": "uint256",
							"name": "",
							"type": "uint256"
						}
					],
					"stateMutability": "view",
					"type": "function"
				},
				{
					"inputs": [],
					"name": "movieID",
					"outputs": [
						{
							"internalType": "uint256",
							"name": "",
							"type": "uint256"
						}
					],
					"stateMutability": "view",
					"type": "function"
				},
				{
					"inputs": [],
					"name": "price",
					"outputs": [
						{
							"internalType": "uint256",
							"name": "",
							"type": "uint256"
						}
					],
					"stateMutability": "view",
					"type": "function"
				},
				{
					"inputs": [],
					"name": "watch",
					"outputs": [
						{
							"internalType": "uint256",
							"name": "",
							"type": "uint256"
						}
					],
					"stateMutability": "nonpayable",
					"type": "function"
				}
			],
			"devdoc": {
				"kind": "dev",
				"methods": {},
				"version": 1
			},
			"evm": {
				"assembly": "    /* \"work/class/zetflix.sol\":60:805  contract Zetflix{... */\n  mstore(0x40, 0x80)\n    /* \"work/class/zetflix.sol\":180:271  constructor(uint _id, uint _price){... */\n  callvalue\n  dup1\n  iszero\n  tag_1\n  jumpi\n  0x00\n  dup1\n  revert\ntag_1:\n  pop\n  mload(0x40)\n  sub(codesize, bytecodeSize)\n  dup1\n  bytecodeSize\n  dup4\n  codecopy\n  dup2\n  dup2\n  add\n  0x40\n  mstore\n  dup2\n  add\n  swap1\n  tag_2\n  swap2\n  swap1\n  tag_3\n  jump\t// in\ntag_2:\n    /* \"work/class/zetflix.sol\":235:238  _id */\n  dup2\n    /* \"work/class/zetflix.sol\":225:232  movieID */\n  0x00\n    /* \"work/class/zetflix.sol\":225:238  movieID = _id */\n  dup2\n  swap1\n  sstore\n  pop\n    /* \"work/class/zetflix.sol\":257:263  _price */\n  dup1\n    /* \"work/class/zetflix.sol\":249:254  price */\n  0x01\n    /* \"work/class/zetflix.sol\":249:263  price = _price */\n  dup2\n  swap1\n  sstore\n  pop\n    /* \"work/class/zetflix.sol\":180:271  constructor(uint _id, uint _price){... */\n  pop\n  pop\n    /* \"work/class/zetflix.sol\":60:805  contract Zetflix{... */\n  jump(tag_6)\n    /* \"#utility.yul\":88:205   */\ntag_8:\n    /* \"#utility.yul\":197:198   */\n  0x00\n    /* \"#utility.yul\":194:195   */\n  dup1\n    /* \"#utility.yul\":187:199   */\n  revert\n    /* \"#utility.yul\":334:411   */\ntag_10:\n    /* \"#utility.yul\":371:378   */\n  0x00\n    /* \"#utility.yul\":400:405   */\n  dup2\n    /* \"#utility.yul\":389:405   */\n  swap1\n  pop\n    /* \"#utility.yul\":334:411   */\n  swap2\n  swap1\n  pop\n  jump\t// out\n    /* \"#utility.yul\":417:539   */\ntag_11:\n    /* \"#utility.yul\":490:514   */\n  tag_19\n    /* \"#utility.yul\":508:513   */\n  dup2\n    /* \"#utility.yul\":490:514   */\n  tag_10\n  jump\t// in\ntag_19:\n    /* \"#utility.yul\":483:488   */\n  dup2\n    /* \"#utility.yul\":480:515   */\n  eq\n    /* \"#utility.yul\":470:533   */\n  tag_20\n  jumpi\n    /* \"#utility.yul\":529:530   */\n  0x00\n    /* \"#utility.yul\":526:527   */\n  dup1\n    /* \"#utility.yul\":519:531   */\n  revert\n    /* \"#utility.yul\":470:533   */\ntag_20:\n    /* \"#utility.yul\":417:539   */\n  pop\n  jump\t// out\n    /* \"#utility.yul\":545:688   */\ntag_12:\n    /* \"#utility.yul\":602:607   */\n  0x00\n    /* \"#utility.yul\":633:639   */\n  dup2\n    /* \"#utility.yul\":627:640   */\n  mload\n    /* \"#utility.yul\":618:640   */\n  swap1\n  pop\n    /* \"#utility.yul\":649:682   */\n  tag_22\n    /* \"#utility.yul\":676:681   */\n  dup2\n    /* \"#utility.yul\":649:682   */\n  tag_11\n  jump\t// in\ntag_22:\n    /* \"#utility.yul\":545:688   */\n  swap3\n  swap2\n  pop\n  pop\n  jump\t// out\n    /* \"#utility.yul\":694:1201   */\ntag_3:\n    /* \"#utility.yul\":773:779   */\n  0x00\n    /* \"#utility.yul\":781:787   */\n  dup1\n    /* \"#utility.yul\":830:832   */\n  0x40\n    /* \"#utility.yul\":818:827   */\n  dup4\n    /* \"#utility.yul\":809:816   */\n  dup6\n    /* \"#utility.yul\":805:828   */\n  sub\n    /* \"#utility.yul\":801:833   */\n  slt\n    /* \"#utility.yul\":798:917   */\n  iszero\n  tag_24\n  jumpi\n    /* \"#utility.yul\":836:915   */\n  tag_25\n  tag_8\n  jump\t// in\ntag_25:\n    /* \"#utility.yul\":798:917   */\ntag_24:\n    /* \"#utility.yul\":956:957   */\n  0x00\n    /* \"#utility.yul\":981:1045   */\n  tag_26\n    /* \"#utility.yul\":1037:1044   */\n  dup6\n    /* \"#utility.yul\":1028:1034   */\n  dup3\n    /* \"#utility.yul\":1017:1026   */\n  dup7\n    /* \"#utility.yul\":1013:1035   */\n  add\n    /* \"#utility.yul\":981:1045   */\n  tag_12\n  jump\t// in\ntag_26:\n    /* \"#utility.yul\":971:1045   */\n  swap3\n  pop\n    /* \"#utility.yul\":927:1055   */\n  pop\n    /* \"#utility.yul\":1094:1096   */\n  0x20\n    /* \"#utility.yul\":1120:1184   */\n  tag_27\n    /* \"#utility.yul\":1176:1183   */\n  dup6\n    /* \"#utility.yul\":1167:1173   */\n  dup3\n    /* \"#utility.yul\":1156:1165   */\n  dup7\n    /* \"#utility.yul\":1152:1174   */\n  add\n    /* \"#utility.yul\":1120:1184   */\n  tag_12\n  jump\t// in\ntag_27:\n    /* \"#utility.yul\":1110:1184   */\n  swap2\n  pop\n    /* \"#utility.yul\":1065:1194   */\n  pop\n    /* \"#utility.yul\":694:1201   */\n  swap3\n  pop\n  swap3\n  swap1\n  pop\n  jump\t// out\n    /* \"work/class/zetflix.sol\":60:805  contract Zetflix{... */\ntag_6:\n  dataSize(sub_0)\n  dup1\n  dataOffset(sub_0)\n  0x00\n  codecopy\n  0x00\n  return\nstop\n\nsub_0: assembly {\n        /* \"work/class/zetflix.sol\":60:805  contract Zetflix{... */\n      mstore(0x40, 0x80)\n      jumpi(tag_1, lt(calldatasize, 0x04))\n      shr(0xe0, calldataload(0x00))\n      dup1\n      0x3489d874\n      eq\n      tag_2\n      jumpi\n      dup1\n      0x61529873\n      eq\n      tag_3\n      jumpi\n      dup1\n      0xa035b1fe\n      eq\n      tag_4\n      jumpi\n      dup1\n      0xd6febde8\n      eq\n      tag_5\n      jumpi\n      dup1\n      0xefe29bda\n      eq\n      tag_6\n      jumpi\n    tag_1:\n      0x00\n      dup1\n      revert\n        /* \"work/class/zetflix.sol\":611:802  function watch() external returns (uint){... */\n    tag_2:\n      callvalue\n      dup1\n      iszero\n      tag_7\n      jumpi\n      0x00\n      dup1\n      revert\n    tag_7:\n      pop\n      tag_8\n      tag_9\n      jump\t// in\n    tag_8:\n      mload(0x40)\n      tag_10\n      swap2\n      swap1\n      tag_11\n      jump\t// in\n    tag_10:\n      mload(0x40)\n      dup1\n      swap2\n      sub\n      swap1\n      return\n        /* \"work/class/zetflix.sol\":512:603  function getViews() external view returns (uint){... */\n    tag_3:\n      callvalue\n      dup1\n      iszero\n      tag_12\n      jumpi\n      0x00\n      dup1\n      revert\n    tag_12:\n      pop\n      tag_13\n      tag_14\n      jump\t// in\n    tag_13:\n      mload(0x40)\n      tag_15\n      swap2\n      swap1\n      tag_11\n      jump\t// in\n    tag_15:\n      mload(0x40)\n      dup1\n      swap2\n      sub\n      swap1\n      return\n        /* \"work/class/zetflix.sol\":109:126  uint public price */\n    tag_4:\n      callvalue\n      dup1\n      iszero\n      tag_16\n      jumpi\n      0x00\n      dup1\n      revert\n    tag_16:\n      pop\n      tag_17\n      tag_18\n      jump\t// in\n    tag_17:\n      mload(0x40)\n      tag_19\n      swap2\n      swap1\n      tag_11\n      jump\t// in\n    tag_19:\n      mload(0x40)\n      dup1\n      swap2\n      sub\n      swap1\n      return\n        /* \"work/class/zetflix.sol\":279:504  function buy(uint _id, uint _amount) external payable returns (bool){... */\n    tag_5:\n      tag_20\n      0x04\n      dup1\n      calldatasize\n      sub\n      dup2\n      add\n      swap1\n      tag_21\n      swap2\n      swap1\n      tag_22\n      jump\t// in\n    tag_21:\n      tag_23\n      jump\t// in\n    tag_20:\n      mload(0x40)\n      tag_24\n      swap2\n      swap1\n      tag_25\n      jump\t// in\n    tag_24:\n      mload(0x40)\n      dup1\n      swap2\n      sub\n      swap1\n      return\n        /* \"work/class/zetflix.sol\":83:102  uint public movieID */\n    tag_6:\n      callvalue\n      dup1\n      iszero\n      tag_26\n      jumpi\n      0x00\n      dup1\n      revert\n    tag_26:\n      pop\n      tag_27\n      tag_28\n      jump\t// in\n    tag_27:\n      mload(0x40)\n      tag_29\n      swap2\n      swap1\n      tag_11\n      jump\t// in\n    tag_29:\n      mload(0x40)\n      dup1\n      swap2\n      sub\n      swap1\n      return\n        /* \"work/class/zetflix.sol\":611:802  function watch() external returns (uint){... */\n    tag_9:\n        /* \"work/class/zetflix.sol\":646:650  uint */\n      0x00\n        /* \"work/class/zetflix.sol\":686:687  0 */\n      dup1\n        /* \"work/class/zetflix.sol\":666:671  views */\n      0x02\n        /* \"work/class/zetflix.sol\":666:683  views[msg.sender] */\n      0x00\n        /* \"work/class/zetflix.sol\":672:682  msg.sender */\n      caller\n        /* \"work/class/zetflix.sol\":666:683  views[msg.sender] */\n      0xffffffffffffffffffffffffffffffffffffffff\n      and\n      0xffffffffffffffffffffffffffffffffffffffff\n      and\n      dup2\n      mstore\n      0x20\n      add\n      swap1\n      dup2\n      mstore\n      0x20\n      add\n      0x00\n      keccak256\n      sload\n        /* \"work/class/zetflix.sol\":666:687  views[msg.sender] > 0 */\n      gt\n        /* \"work/class/zetflix.sol\":662:776  if (views[msg.sender] > 0){... */\n      iszero\n      tag_31\n      jumpi\n        /* \"work/class/zetflix.sol\":724:725  1 */\n      0x01\n        /* \"work/class/zetflix.sol\":703:708  views */\n      0x02\n        /* \"work/class/zetflix.sol\":703:720  views[msg.sender] */\n      0x00\n        /* \"work/class/zetflix.sol\":709:719  msg.sender */\n      caller\n        /* \"work/class/zetflix.sol\":703:720  views[msg.sender] */\n      0xffffffffffffffffffffffffffffffffffffffff\n      and\n      0xffffffffffffffffffffffffffffffffffffffff\n      and\n      dup2\n      mstore\n      0x20\n      add\n      swap1\n      dup2\n      mstore\n      0x20\n      add\n      0x00\n      keccak256\n      0x00\n        /* \"work/class/zetflix.sol\":703:725  views[msg.sender] -= 1 */\n      dup3\n      dup3\n      sload\n      tag_32\n      swap2\n      swap1\n      tag_33\n      jump\t// in\n    tag_32:\n      swap3\n      pop\n      pop\n      dup2\n      swap1\n      sstore\n      pop\n        /* \"work/class/zetflix.sol\":747:752  views */\n      0x02\n        /* \"work/class/zetflix.sol\":747:764  views[msg.sender] */\n      0x00\n        /* \"work/class/zetflix.sol\":753:763  msg.sender */\n      caller\n        /* \"work/class/zetflix.sol\":747:764  views[msg.sender] */\n      0xffffffffffffffffffffffffffffffffffffffff\n      and\n      0xffffffffffffffffffffffffffffffffffffffff\n      and\n      dup2\n      mstore\n      0x20\n      add\n      swap1\n      dup2\n      mstore\n      0x20\n      add\n      0x00\n      keccak256\n      sload\n        /* \"work/class/zetflix.sol\":740:764  return views[msg.sender] */\n      swap1\n      pop\n      jump(tag_30)\n        /* \"work/class/zetflix.sol\":662:776  if (views[msg.sender] > 0){... */\n    tag_31:\n        /* \"work/class/zetflix.sol\":793:794  0 */\n      0x00\n        /* \"work/class/zetflix.sol\":786:794  return 0 */\n      swap1\n      pop\n        /* \"work/class/zetflix.sol\":611:802  function watch() external returns (uint){... */\n    tag_30:\n      swap1\n      jump\t// out\n        /* \"work/class/zetflix.sol\":512:603  function getViews() external view returns (uint){... */\n    tag_14:\n        /* \"work/class/zetflix.sol\":555:559  uint */\n      0x00\n        /* \"work/class/zetflix.sol\":578:583  views */\n      0x02\n        /* \"work/class/zetflix.sol\":578:595  views[msg.sender] */\n      0x00\n        /* \"work/class/zetflix.sol\":584:594  msg.sender */\n      caller\n        /* \"work/class/zetflix.sol\":578:595  views[msg.sender] */\n      0xffffffffffffffffffffffffffffffffffffffff\n      and\n      0xffffffffffffffffffffffffffffffffffffffff\n      and\n      dup2\n      mstore\n      0x20\n      add\n      swap1\n      dup2\n      mstore\n      0x20\n      add\n      0x00\n      keccak256\n      sload\n        /* \"work/class/zetflix.sol\":571:595  return views[msg.sender] */\n      swap1\n      pop\n        /* \"work/class/zetflix.sol\":512:603  function getViews() external view returns (uint){... */\n      swap1\n      jump\t// out\n        /* \"work/class/zetflix.sol\":109:126  uint public price */\n    tag_18:\n      sload(0x01)\n      dup2\n      jump\t// out\n        /* \"work/class/zetflix.sol\":279:504  function buy(uint _id, uint _amount) external payable returns (bool){... */\n    tag_23:\n        /* \"work/class/zetflix.sol\":342:346  bool */\n      0x00\n        /* \"work/class/zetflix.sol\":369:376  movieID */\n      dup1\n      sload\n        /* \"work/class/zetflix.sol\":362:365  _id */\n      dup4\n        /* \"work/class/zetflix.sol\":362:376  _id == movieID */\n      eq\n        /* \"work/class/zetflix.sol\":362:396  _id == movieID && _amount == price */\n      dup1\n      iszero\n      tag_36\n      jumpi\n      pop\n        /* \"work/class/zetflix.sol\":391:396  price */\n      sload(0x01)\n        /* \"work/class/zetflix.sol\":380:387  _amount */\n      dup3\n        /* \"work/class/zetflix.sol\":380:396  _amount == price */\n      eq\n        /* \"work/class/zetflix.sol\":362:396  _id == movieID && _amount == price */\n    tag_36:\n        /* \"work/class/zetflix.sol\":358:474  if (_id == movieID && _amount == price){... */\n      iszero\n      tag_37\n      jumpi\n        /* \"work/class/zetflix.sol\":433:436  100 */\n      0x64\n        /* \"work/class/zetflix.sol\":412:417  views */\n      0x02\n        /* \"work/class/zetflix.sol\":412:429  views[msg.sender] */\n      0x00\n        /* \"work/class/zetflix.sol\":418:428  msg.sender */\n      caller\n        /* \"work/class/zetflix.sol\":412:429  views[msg.sender] */\n      0xffffffffffffffffffffffffffffffffffffffff\n      and\n      0xffffffffffffffffffffffffffffffffffffffff\n      and\n      dup2\n      mstore\n      0x20\n      add\n      swap1\n      dup2\n      mstore\n      0x20\n      add\n      0x00\n      keccak256\n      0x00\n        /* \"work/class/zetflix.sol\":412:436  views[msg.sender] += 100 */\n      dup3\n      dup3\n      sload\n      tag_38\n      swap2\n      swap1\n      tag_39\n      jump\t// in\n    tag_38:\n      swap3\n      pop\n      pop\n      dup2\n      swap1\n      sstore\n      pop\n        /* \"work/class/zetflix.sol\":458:462  true */\n      0x01\n        /* \"work/class/zetflix.sol\":451:462  return true */\n      swap1\n      pop\n      jump(tag_35)\n        /* \"work/class/zetflix.sol\":358:474  if (_id == movieID && _amount == price){... */\n    tag_37:\n        /* \"work/class/zetflix.sol\":491:496  false */\n      0x00\n        /* \"work/class/zetflix.sol\":484:496  return false */\n      swap1\n      pop\n        /* \"work/class/zetflix.sol\":279:504  function buy(uint _id, uint _amount) external payable returns (bool){... */\n    tag_35:\n      swap3\n      swap2\n      pop\n      pop\n      jump\t// out\n        /* \"work/class/zetflix.sol\":83:102  uint public movieID */\n    tag_28:\n      sload(0x00)\n      dup2\n      jump\t// out\n        /* \"#utility.yul\":7:84   */\n    tag_40:\n        /* \"#utility.yul\":44:51   */\n      0x00\n        /* \"#utility.yul\":73:78   */\n      dup2\n        /* \"#utility.yul\":62:78   */\n      swap1\n      pop\n        /* \"#utility.yul\":7:84   */\n      swap2\n      swap1\n      pop\n      jump\t// out\n        /* \"#utility.yul\":90:208   */\n    tag_41:\n        /* \"#utility.yul\":177:201   */\n      tag_53\n        /* \"#utility.yul\":195:200   */\n      dup2\n        /* \"#utility.yul\":177:201   */\n      tag_40\n      jump\t// in\n    tag_53:\n        /* \"#utility.yul\":172:175   */\n      dup3\n        /* \"#utility.yul\":165:202   */\n      mstore\n        /* \"#utility.yul\":90:208   */\n      pop\n      pop\n      jump\t// out\n        /* \"#utility.yul\":214:436   */\n    tag_11:\n        /* \"#utility.yul\":307:311   */\n      0x00\n        /* \"#utility.yul\":345:347   */\n      0x20\n        /* \"#utility.yul\":334:343   */\n      dup3\n        /* \"#utility.yul\":330:348   */\n      add\n        /* \"#utility.yul\":322:348   */\n      swap1\n      pop\n        /* \"#utility.yul\":358:429   */\n      tag_55\n        /* \"#utility.yul\":426:427   */\n      0x00\n        /* \"#utility.yul\":415:424   */\n      dup4\n        /* \"#utility.yul\":411:428   */\n      add\n        /* \"#utility.yul\":402:408   */\n      dup5\n        /* \"#utility.yul\":358:429   */\n      tag_41\n      jump\t// in\n    tag_55:\n        /* \"#utility.yul\":214:436   */\n      swap3\n      swap2\n      pop\n      pop\n      jump\t// out\n        /* \"#utility.yul\":523:640   */\n    tag_43:\n        /* \"#utility.yul\":632:633   */\n      0x00\n        /* \"#utility.yul\":629:630   */\n      dup1\n        /* \"#utility.yul\":622:634   */\n      revert\n        /* \"#utility.yul\":769:891   */\n    tag_45:\n        /* \"#utility.yul\":842:866   */\n      tag_60\n        /* \"#utility.yul\":860:865   */\n      dup2\n        /* \"#utility.yul\":842:866   */\n      tag_40\n      jump\t// in\n    tag_60:\n        /* \"#utility.yul\":835:840   */\n      dup2\n        /* \"#utility.yul\":832:867   */\n      eq\n        /* \"#utility.yul\":822:885   */\n      tag_61\n      jumpi\n        /* \"#utility.yul\":881:882   */\n      0x00\n        /* \"#utility.yul\":878:879   */\n      dup1\n        /* \"#utility.yul\":871:883   */\n      revert\n        /* \"#utility.yul\":822:885   */\n    tag_61:\n        /* \"#utility.yul\":769:891   */\n      pop\n      jump\t// out\n        /* \"#utility.yul\":897:1036   */\n    tag_46:\n        /* \"#utility.yul\":943:948   */\n      0x00\n        /* \"#utility.yul\":981:987   */\n      dup2\n        /* \"#utility.yul\":968:988   */\n      calldataload\n        /* \"#utility.yul\":959:988   */\n      swap1\n      pop\n        /* \"#utility.yul\":997:1030   */\n      tag_63\n        /* \"#utility.yul\":1024:1029   */\n      dup2\n        /* \"#utility.yul\":997:1030   */\n      tag_45\n      jump\t// in\n    tag_63:\n        /* \"#utility.yul\":897:1036   */\n      swap3\n      swap2\n      pop\n      pop\n      jump\t// out\n        /* \"#utility.yul\":1042:1516   */\n    tag_22:\n        /* \"#utility.yul\":1110:1116   */\n      0x00\n        /* \"#utility.yul\":1118:1124   */\n      dup1\n        /* \"#utility.yul\":1167:1169   */\n      0x40\n        /* \"#utility.yul\":1155:1164   */\n      dup4\n        /* \"#utility.yul\":1146:1153   */\n      dup6\n        /* \"#utility.yul\":1142:1165   */\n      sub\n        /* \"#utility.yul\":1138:1170   */\n      slt\n        /* \"#utility.yul\":1135:1254   */\n      iszero\n      tag_65\n      jumpi\n        /* \"#utility.yul\":1173:1252   */\n      tag_66\n      tag_43\n      jump\t// in\n    tag_66:\n        /* \"#utility.yul\":1135:1254   */\n    tag_65:\n        /* \"#utility.yul\":1293:1294   */\n      0x00\n        /* \"#utility.yul\":1318:1371   */\n      tag_67\n        /* \"#utility.yul\":1363:1370   */\n      dup6\n        /* \"#utility.yul\":1354:1360   */\n      dup3\n        /* \"#utility.yul\":1343:1352   */\n      dup7\n        /* \"#utility.yul\":1339:1361   */\n      add\n        /* \"#utility.yul\":1318:1371   */\n      tag_46\n      jump\t// in\n    tag_67:\n        /* \"#utility.yul\":1308:1371   */\n      swap3\n      pop\n        /* \"#utility.yul\":1264:1381   */\n      pop\n        /* \"#utility.yul\":1420:1422   */\n      0x20\n        /* \"#utility.yul\":1446:1499   */\n      tag_68\n        /* \"#utility.yul\":1491:1498   */\n      dup6\n        /* \"#utility.yul\":1482:1488   */\n      dup3\n        /* \"#utility.yul\":1471:1480   */\n      dup7\n        /* \"#utility.yul\":1467:1489   */\n      add\n        /* \"#utility.yul\":1446:1499   */\n      tag_46\n      jump\t// in\n    tag_68:\n        /* \"#utility.yul\":1436:1499   */\n      swap2\n      pop\n        /* \"#utility.yul\":1391:1509   */\n      pop\n        /* \"#utility.yul\":1042:1516   */\n      swap3\n      pop\n      swap3\n      swap1\n      pop\n      jump\t// out\n        /* \"#utility.yul\":1522:1612   */\n    tag_47:\n        /* \"#utility.yul\":1556:1563   */\n      0x00\n        /* \"#utility.yul\":1599:1604   */\n      dup2\n        /* \"#utility.yul\":1592:1605   */\n      iszero\n        /* \"#utility.yul\":1585:1606   */\n      iszero\n        /* \"#utility.yul\":1574:1606   */\n      swap1\n      pop\n        /* \"#utility.yul\":1522:1612   */\n      swap2\n      swap1\n      pop\n      jump\t// out\n        /* \"#utility.yul\":1618:1727   */\n    tag_48:\n        /* \"#utility.yul\":1699:1720   */\n      tag_71\n        /* \"#utility.yul\":1714:1719   */\n      dup2\n        /* \"#utility.yul\":1699:1720   */\n      tag_47\n      jump\t// in\n    tag_71:\n        /* \"#utility.yul\":1694:1697   */\n      dup3\n        /* \"#utility.yul\":1687:1721   */\n      mstore\n        /* \"#utility.yul\":1618:1727   */\n      pop\n      pop\n      jump\t// out\n        /* \"#utility.yul\":1733:1943   */\n    tag_25:\n        /* \"#utility.yul\":1820:1824   */\n      0x00\n        /* \"#utility.yul\":1858:1860   */\n      0x20\n        /* \"#utility.yul\":1847:1856   */\n      dup3\n        /* \"#utility.yul\":1843:1861   */\n      add\n        /* \"#utility.yul\":1835:1861   */\n      swap1\n      pop\n        /* \"#utility.yul\":1871:1936   */\n      tag_73\n        /* \"#utility.yul\":1933:1934   */\n      0x00\n        /* \"#utility.yul\":1922:1931   */\n      dup4\n        /* \"#utility.yul\":1918:1935   */\n      add\n        /* \"#utility.yul\":1909:1915   */\n      dup5\n        /* \"#utility.yul\":1871:1936   */\n      tag_48\n      jump\t// in\n    tag_73:\n        /* \"#utility.yul\":1733:1943   */\n      swap3\n      swap2\n      pop\n      pop\n      jump\t// out\n        /* \"#utility.yul\":1949:2129   */\n    tag_49:\n        /* \"#utility.yul\":1997:2074   */\n      0x4e487b7100000000000000000000000000000000000000000000000000000000\n        /* \"#utility.yul\":1994:1995   */\n      0x00\n        /* \"#utility.yul\":1987:2075   */\n      mstore\n        /* \"#utility.yul\":2094:2098   */\n      0x11\n        /* \"#utility.yul\":2091:2092   */\n      0x04\n        /* \"#utility.yul\":2084:2099   */\n      mstore\n        /* \"#utility.yul\":2118:2122   */\n      0x24\n        /* \"#utility.yul\":2115:2116   */\n      0x00\n        /* \"#utility.yul\":2108:2123   */\n      revert\n        /* \"#utility.yul\":2135:2329   */\n    tag_33:\n        /* \"#utility.yul\":2175:2179   */\n      0x00\n        /* \"#utility.yul\":2195:2215   */\n      tag_76\n        /* \"#utility.yul\":2213:2214   */\n      dup3\n        /* \"#utility.yul\":2195:2215   */\n      tag_40\n      jump\t// in\n    tag_76:\n        /* \"#utility.yul\":2190:2215   */\n      swap2\n      pop\n        /* \"#utility.yul\":2229:2249   */\n      tag_77\n        /* \"#utility.yul\":2247:2248   */\n      dup4\n        /* \"#utility.yul\":2229:2249   */\n      tag_40\n      jump\t// in\n    tag_77:\n        /* \"#utility.yul\":2224:2249   */\n      swap3\n      pop\n        /* \"#utility.yul\":2273:2274   */\n      dup3\n        /* \"#utility.yul\":2270:2271   */\n      dup3\n        /* \"#utility.yul\":2266:2275   */\n      sub\n        /* \"#utility.yul\":2258:2275   */\n      swap1\n      pop\n        /* \"#utility.yul\":2297:2298   */\n      dup2\n        /* \"#utility.yul\":2291:2295   */\n      dup2\n        /* \"#utility.yul\":2288:2299   */\n      gt\n        /* \"#utility.yul\":2285:2322   */\n      iszero\n      tag_78\n      jumpi\n        /* \"#utility.yul\":2302:2320   */\n      tag_79\n      tag_49\n      jump\t// in\n    tag_79:\n        /* \"#utility.yul\":2285:2322   */\n    tag_78:\n        /* \"#utility.yul\":2135:2329   */\n      swap3\n      swap2\n      pop\n      pop\n      jump\t// out\n        /* \"#utility.yul\":2335:2526   */\n    tag_39:\n        /* \"#utility.yul\":2375:2378   */\n      0x00\n        /* \"#utility.yul\":2394:2414   */\n      tag_81\n        /* \"#utility.yul\":2412:2413   */\n      dup3\n        /* \"#utility.yul\":2394:2414   */\n      tag_40\n      jump\t// in\n    tag_81:\n        /* \"#utility.yul\":2389:2414   */\n      swap2\n      pop\n        /* \"#utility.yul\":2428:2448   */\n      tag_82\n        /* \"#utility.yul\":2446:2447   */\n      dup4\n        /* \"#utility.yul\":2428:2448   */\n      tag_40\n      jump\t// in\n    tag_82:\n        /* \"#utility.yul\":2423:2448   */\n      swap3\n      pop\n        /* \"#utility.yul\":2471:2472   */\n      dup3\n        /* \"#utility.yul\":2468:2469   */\n      dup3\n        /* \"#utility.yul\":2464:2473   */\n      add\n        /* \"#utility.yul\":2457:2473   */\n      swap1\n      pop\n        /* \"#utility.yul\":2492:2495   */\n      dup1\n        /* \"#utility.yul\":2489:2490   */\n      dup3\n        /* \"#utility.yul\":2486:2496   */\n      gt\n        /* \"#utility.yul\":2483:2519   */\n      iszero\n      tag_83\n      jumpi\n        /* \"#utility.yul\":2499:2517   */\n      tag_84\n      tag_49\n      jump\t// in\n    tag_84:\n        /* \"#utility.yul\":2483:2519   */\n    tag_83:\n        /* \"#utility.yul\":2335:2526   */\n      swap3\n      swap2\n      pop\n      pop\n      jump\t// out\n\n    auxdata: 0xa26469706673582212202e3039ca64be905a334627959864d0768bb9fa8f75395d911de1cc73003cdd5964736f6c634300081a0033\n}\n",
				"bytecode": {
					"linkReferences": {},
					"object": "6080604052348015600e575f80fd5b506040516105283803806105288339818101604052810190602e91906073565b815f8190555080600181905550505060aa565b5f80fd5b5f819050919050565b6055816045565b8114605e575f80fd5b50565b5f81519050606d81604e565b92915050565b5f806040838503121560865760856041565b5b5f6091858286016061565b925050602060a0858286016061565b9150509250929050565b610471806100b75f395ff3fe608060405260043610610049575f3560e01c80633489d8741461004d5780636152987314610077578063a035b1fe146100a1578063d6febde8146100cb578063efe29bda146100fb575b5f80fd5b348015610058575f80fd5b50610061610125565b60405161006e91906102f0565b60405180910390f35b348015610082575f80fd5b5061008b61020b565b60405161009891906102f0565b60405180910390f35b3480156100ac575f80fd5b506100b561024f565b6040516100c291906102f0565b60405180910390f35b6100e560048036038101906100e09190610337565b610255565b6040516100f2919061038f565b60405180910390f35b348015610106575f80fd5b5061010f6102d3565b60405161011c91906102f0565b60405180910390f35b5f8060025f3373ffffffffffffffffffffffffffffffffffffffff1673ffffffffffffffffffffffffffffffffffffffff1681526020019081526020015f2054111561020457600160025f3373ffffffffffffffffffffffffffffffffffffffff1673ffffffffffffffffffffffffffffffffffffffff1681526020019081526020015f205f8282546101b891906103d5565b9250508190555060025f3373ffffffffffffffffffffffffffffffffffffffff1673ffffffffffffffffffffffffffffffffffffffff1681526020019081526020015f20549050610208565b5f90505b90565b5f60025f3373ffffffffffffffffffffffffffffffffffffffff1673ffffffffffffffffffffffffffffffffffffffff1681526020019081526020015f2054905090565b60015481565b5f805483148015610267575060015482145b156102c957606460025f3373ffffffffffffffffffffffffffffffffffffffff1673ffffffffffffffffffffffffffffffffffffffff1681526020019081526020015f205f8282546102b99190610408565b92505081905550600190506102cd565b5f90505b92915050565b5f5481565b5f819050919050565b6102ea816102d8565b82525050565b5f6020820190506103035f8301846102e1565b92915050565b5f80fd5b610316816102d8565b8114610320575f80fd5b50565b5f813590506103318161030d565b92915050565b5f806040838503121561034d5761034c610309565b5b5f61035a85828601610323565b925050602061036b85828601610323565b9150509250929050565b5f8115159050919050565b61038981610375565b82525050565b5f6020820190506103a25f830184610380565b92915050565b7f4e487b71000000000000000000000000000000000000000000000000000000005f52601160045260245ffd5b5f6103df826102d8565b91506103ea836102d8565b9250828203905081811115610402576104016103a8565b5b92915050565b5f610412826102d8565b915061041d836102d8565b9250828201905080821115610435576104346103a8565b5b9291505056fea26469706673582212202e3039ca64be905a334627959864d0768bb9fa8f75395d911de1cc73003cdd5964736f6c634300081a0033",
					"opcodes": "PUSH1 0x80 PUSH1 0x40 MSTORE CALLVALUE DUP1 ISZERO PUSH1 0xE JUMPI PUSH0 DUP1 REVERT JUMPDEST POP PUSH1 0x40 MLOAD PUSH2 0x528 CODESIZE SUB DUP1 PUSH2 0x528 DUP4 CODECOPY DUP2 DUP2 ADD PUSH1 0x40 MSTORE DUP2 ADD SWAP1 PUSH1 0x2E SWAP2 SWAP1 PUSH1 0x73 JUMP JUMPDEST DUP2 PUSH0 DUP2 SWAP1 SSTORE POP DUP1 PUSH1 0x1 DUP2 SWAP1 SSTORE POP POP POP PUSH1 0xAA JUMP JUMPDEST PUSH0 DUP1 REVERT JUMPDEST PUSH0 DUP2 SWAP1 POP SWAP2 SWAP1 POP JUMP JUMPDEST PUSH1 0x55 DUP2 PUSH1 0x45 JUMP JUMPDEST DUP2 EQ PUSH1 0x5E JUMPI PUSH0 DUP1 REVERT JUMPDEST POP JUMP JUMPDEST PUSH0 DUP2 MLOAD SWAP1 POP PUSH1 0x6D DUP2 PUSH1 0x4E JUMP JUMPDEST SWAP3 SWAP2 POP POP JUMP JUMPDEST PUSH0 DUP1 PUSH1 0x40 DUP4 DUP6 SUB SLT ISZERO PUSH1 0x86 JUMPI PUSH1 0x85 PUSH1 0x41 JUMP JUMPDEST JUMPDEST PUSH0 PUSH1 0x91 DUP6 DUP3 DUP7 ADD PUSH1 0x61 JUMP JUMPDEST SWAP3 POP POP PUSH1 0x20 PUSH1 0xA0 DUP6 DUP3 DUP7 ADD PUSH1 0x61 JUMP JUMPDEST SWAP2 POP POP SWAP3 POP SWAP3 SWAP1 POP JUMP JUMPDEST PUSH2 0x471 DUP1 PUSH2 0xB7 PUSH0 CODECOPY PUSH0 RETURN INVALID PUSH1 0x80 PUSH1 0x40 MSTORE PUSH1 0x4 CALLDATASIZE LT PUSH2 0x49 JUMPI PUSH0 CALLDATALOAD PUSH1 0xE0 SHR DUP1 PUSH4 0x3489D874 EQ PUSH2 0x4D JUMPI DUP1 PUSH4 0x61529873 EQ PUSH2 0x77 JUMPI DUP1 PUSH4 0xA035B1FE EQ PUSH2 0xA1 JUMPI DUP1 PUSH4 0xD6FEBDE8 EQ PUSH2 0xCB JUMPI DUP1 PUSH4 0xEFE29BDA EQ PUSH2 0xFB JUMPI JUMPDEST PUSH0 DUP1 REVERT JUMPDEST CALLVALUE DUP1 ISZERO PUSH2 0x58 JUMPI PUSH0 DUP1 REVERT JUMPDEST POP PUSH2 0x61 PUSH2 0x125 JUMP JUMPDEST PUSH1 0x40 MLOAD PUSH2 0x6E SWAP2 SWAP1 PUSH2 0x2F0 JUMP JUMPDEST PUSH1 0x40 MLOAD DUP1 SWAP2 SUB SWAP1 RETURN JUMPDEST CALLVALUE DUP1 ISZERO PUSH2 0x82 JUMPI PUSH0 DUP1 REVERT JUMPDEST POP PUSH2 0x8B PUSH2 0x20B JUMP JUMPDEST PUSH1 0x40 MLOAD PUSH2 0x98 SWAP2 SWAP1 PUSH2 0x2F0 JUMP JUMPDEST PUSH1 0x40 MLOAD DUP1 SWAP2 SUB SWAP1 RETURN JUMPDEST CALLVALUE DUP1 ISZERO PUSH2 0xAC JUMPI PUSH0 DUP1 REVERT JUMPDEST POP PUSH2 0xB5 PUSH2 0x24F JUMP JUMPDEST PUSH1 0x40 MLOAD PUSH2 0xC2 SWAP2 SWAP1 PUSH2 0x2F0 JUMP JUMPDEST PUSH1 0x40 MLOAD DUP1 SWAP2 SUB SWAP1 RETURN JUMPDEST PUSH2 0xE5 PUSH1 0x4 DUP1 CALLDATASIZE SUB DUP2 ADD SWAP1 PUSH2 0xE0 SWAP2 SWAP1 PUSH2 0x337 JUMP JUMPDEST PUSH2 0x255 JUMP JUMPDEST PUSH1 0x40 MLOAD PUSH2 0xF2 SWAP2 SWAP1 PUSH2 0x38F JUMP JUMPDEST PUSH1 0x40 MLOAD DUP1 SWAP2 SUB SWAP1 RETURN JUMPDEST CALLVALUE DUP1 ISZERO PUSH2 0x106 JUMPI PUSH0 DUP1 REVERT JUMPDEST POP PUSH2 0x10F PUSH2 0x2D3 JUMP JUMPDEST PUSH1 0x40 MLOAD PUSH2 0x11C SWAP2 SWAP1 PUSH2 0x2F0 JUMP JUMPDEST PUSH1 0x40 MLOAD DUP1 SWAP2 SUB SWAP1 RETURN JUMPDEST PUSH0 DUP1 PUSH1 0x2 PUSH0 CALLER PUSH20 0xFFFFFFFFFFFFFFFFFFFFFFFFFFFFFFFFFFFFFFFF AND PUSH20 0xFFFFFFFFFFFFFFFFFFFFFFFFFFFFFFFFFFFFFFFF AND DUP2 MSTORE PUSH1 0x20 ADD SWAP1 DUP2 MSTORE PUSH1 0x20 ADD PUSH0 KECCAK256 SLOAD GT ISZERO PUSH2 0x204 JUMPI PUSH1 0x1 PUSH1 0x2 PUSH0 CALLER PUSH20 0xFFFFFFFFFFFFFFFFFFFFFFFFFFFFFFFFFFFFFFFF AND PUSH20 0xFFFFFFFFFFFFFFFFFFFFFFFFFFFFFFFFFFFFFFFF AND DUP2 MSTORE PUSH1 0x20 ADD SWAP1 DUP2 MSTORE PUSH1 0x20 ADD PUSH0 KECCAK256 PUSH0 DUP3 DUP3 SLOAD PUSH2 0x1B8 SWAP2 SWAP1 PUSH2 0x3D5 JUMP JUMPDEST SWAP3 POP POP DUP2 SWAP1 SSTORE POP PUSH1 0x2 PUSH0 CALLER PUSH20 0xFFFFFFFFFFFFFFFFFFFFFFFFFFFFFFFFFFFFFFFF AND PUSH20 0xFFFFFFFFFFFFFFFFFFFFFFFFFFFFFFFFFFFFFFFF AND DUP2 MSTORE PUSH1 0x20 ADD SWAP1 DUP2 MSTORE PUSH1 0x20 ADD PUSH0 KECCAK256 SLOAD SWAP1 POP PUSH2 0x208 JUMP JUMPDEST PUSH0 SWAP1 POP JUMPDEST SWAP1 JUMP JUMPDEST PUSH0 PUSH1 0x2 PUSH0 CALLER PUSH20 0xFFFFFFFFFFFFFFFFFFFFFFFFFFFFFFFFFFFFFFFF AND PUSH20 0xFFFFFFFFFFFFFFFFFFFFFFFFFFFFFFFFFFFFFFFF AND DUP2 MSTORE PUSH1 0x20 ADD SWAP1 DUP2 MSTORE PUSH1 0x20 ADD PUSH0 KECCAK256 SLOAD SWAP1 POP SWAP1 JUMP JUMPDEST PUSH1 0x1 SLOAD DUP2 JUMP JUMPDEST PUSH0 DUP1 SLOAD DUP4 EQ DUP1 ISZERO PUSH2 0x267 JUMPI POP PUSH1 0x1 SLOAD DUP3 EQ JUMPDEST ISZERO PUSH2 0x2C9 JUMPI PUSH1 0x64 PUSH1 0x2 PUSH0 CALLER PUSH20 0xFFFFFFFFFFFFFFFFFFFFFFFFFFFFFFFFFFFFFFFF AND PUSH20 0xFFFFFFFFFFFFFFFFFFFFFFFFFFFFFFFFFFFFFFFF AND DUP2 MSTORE PUSH1 0x20 ADD SWAP1 DUP2 MSTORE PUSH1 0x20 ADD PUSH0 KECCAK256 PUSH0 DUP3 DUP3 SLOAD PUSH2 0x2B9 SWAP2 SWAP1 PUSH2 0x408 JUMP JUMPDEST SWAP3 POP POP DUP2 SWAP1 SSTORE POP PUSH1 0x1 SWAP1 POP PUSH2 0x2CD JUMP JUMPDEST PUSH0 SWAP1 POP JUMPDEST SWAP3 SWAP2 POP POP JUMP JUMPDEST PUSH0 SLOAD DUP2 JUMP JUMPDEST PUSH0 DUP2 SWAP1 POP SWAP2 SWAP1 POP JUMP JUMPDEST PUSH2 0x2EA DUP2 PUSH2 0x2D8 JUMP JUMPDEST DUP3 MSTORE POP POP JUMP JUMPDEST PUSH0 PUSH1 0x20 DUP3 ADD SWAP1 POP PUSH2 0x303 PUSH0 DUP4 ADD DUP5 PUSH2 0x2E1 JUMP JUMPDEST SWAP3 SWAP2 POP POP JUMP JUMPDEST PUSH0 DUP1 REVERT JUMPDEST PUSH2 0x316 DUP2 PUSH2 0x2D8 JUMP JUMPDEST DUP2 EQ PUSH2 0x320 JUMPI PUSH0 DUP1 REVERT JUMPDEST POP JUMP JUMPDEST PUSH0 DUP2 CALLDATALOAD SWAP1 POP PUSH2 0x331 DUP2 PUSH2 0x30D JUMP JUMPDEST SWAP3 SWAP2 POP POP JUMP JUMPDEST PUSH0 DUP1 PUSH1 0x40 DUP4 DUP6 SUB SLT ISZERO PUSH2 0x34D JUMPI PUSH2 0x34C PUSH2 0x309 JUMP JUMPDEST JUMPDEST PUSH0 PUSH2 0x35A DUP6 DUP3 DUP7 ADD PUSH2 0x323 JUMP JUMPDEST SWAP3 POP POP PUSH1 0x20 PUSH2 0x36B DUP6 DUP3 DUP7 ADD PUSH2 0x323 JUMP JUMPDEST SWAP2 POP POP SWAP3 POP SWAP3 SWAP1 POP JUMP JUMPDEST PUSH0 DUP2 ISZERO ISZERO SWAP1 POP SWAP2 SWAP1 POP JUMP JUMPDEST PUSH2 0x389 DUP2 PUSH2 0x375 JUMP JUMPDEST DUP3 MSTORE POP POP JUMP JUMPDEST PUSH0 PUSH1 0x20 DUP3 ADD SWAP1 POP PUSH2 0x3A2 PUSH0 DUP4 ADD DUP5 PUSH2 0x380 JUMP JUMPDEST SWAP3 SWAP2 POP POP JUMP JUMPDEST PUSH32 0x4E487B7100000000000000000000000000000000000000000000000000000000 PUSH0 MSTORE PUSH1 0x11 PUSH1 0x4 MSTORE PUSH1 0x24 PUSH0 REVERT JUMPDEST PUSH0 PUSH2 0x3DF DUP3 PUSH2 0x2D8 JUMP JUMPDEST SWAP2 POP PUSH2 0x3EA DUP4 PUSH2 0x2D8 JUMP JUMPDEST SWAP3 POP DUP3 DUP3 SUB SWAP1 POP DUP2 DUP2 GT ISZERO PUSH2 0x402 JUMPI PUSH2 0x401 PUSH2 0x3A8 JUMP JUMPDEST JUMPDEST SWAP3 SWAP2 POP POP JUMP JUMPDEST PUSH0 PUSH2 0x412 DUP3 PUSH2 0x2D8 JUMP JUMPDEST SWAP2 POP PUSH2 0x41D DUP4 PUSH2 0x2D8 JUMP JUMPDEST SWAP3 POP DUP3 DUP3 ADD SWAP1 POP DUP1 DUP3 GT ISZERO PUSH2 0x435 JUMPI PUSH2 0x434 PUSH2 0x3A8 JUMP JUMPDEST JUMPDEST SWAP3 SWAP2 POP POP JUMP INVALID LOG2 PUSH5 0x6970667358 0x22 SLT KECCAK256 0x2E ADDRESS CODECOPY 0xCA PUSH5 0xBE905A3346 0x27 SWAP6 SWAP9 PUSH5 0xD0768BB9FA DUP16 PUSH22 0x395D911DE1CC73003CDD5964736F6C634300081A0033 "
				},
				"gasEstimates": {
					"creation": {
						"codeDepositCost": "227400",
						"executionCost": "infinite",
						"totalCost": "infinite"
					},
					"external": {
						"buy(uint256,uint256)": "infinite",
						"getViews()": "2519",
						"movieID()": "2490",
						"price()": "2447",
						"watch()": "infinite"
					}
				},
				"methodIdentifiers": {
					"buy(uint256,uint256)": "d6febde8",
					"getViews()": "61529873",
					"movieID()": "efe29bda",
					"price()": "a035b1fe",
					"watch()": "3489d874"
				}
			},
			"storageLayout": {
				"storage": [
					{
						"astId": 3,
						"contract": "work/class/zetflix.sol:Zetflix",
						"label": "movieID",
						"offset": 0,
						"slot": "0",
						"type": "t_uint256"
					},
					{
						"astId": 5,
						"contract": "work/class/zetflix.sol:Zetflix",
						"label": "price",
						"offset": 0,
						"slot": "1",
						"type": "t_uint256"
					},
					{
						"astId": 9,
						"contract": "work/class/zetflix.sol:Zetflix",
						"label": "views",
						"offset": 0,
						"slot": "2",
						"type": "t_mapping(t_address,t_uint256)"
					}
				],
				"types": {
					"t_address": {
						"encoding": "inplace",
						"label": "address",
						"numberOfBytes": "20"
					},
					"t_mapping(t_address,t_uint256)": {
						"encoding": "mapping",
						"key": "t_address",
						"label": "mapping(address => uint256)",
						"numberOfBytes": "32",
						"value": "t_uint256"
					},
					"t_uint256": {
						"encoding": "inplace",
						"label": "uint256",
						"numberOfBytes": "32"
					}
				}
			},
			"userdoc": {
				"kind": "user",
				"methods": {},
				"version": 1
			}
		}
	}
}